:10000000000002209901000095680000616800006E
:1000100061680000616800006168000061680000BC
:100020006168000061680000616800009568000078
:10003000956800006168000039650000FD650000FA
:1000400095680000956800009568000095680000BC
:1000500095680000956800009568000095680000AC
:10006000956800009568000095680000956800009C
:10007000956800009568000095680000956800008C
:10008000956800009568000095680000956800007C
:10009000956800009568000095680000956800006C
:1000A000C5640000D16400009568000095680000F8
:1000B000956800009568000095680000B16C00002C
:1000C00095680000157B000095680000757C0000B5
:1000D000956800009D7D000095680000956800000F
:1000E000956800009568000095680000956800001C
:1000F000956800009568000095680000956800000C
:1001000095680000956800009568000095680000FB
:1001100095680000856F00009568000095680000F4
:1001200095680000956800009568000095680000DB
:1001300095680000956800009568000095680000CB
:100140009568000095680000C57E00009568000075
:10015000ED7F00009568000095680000956800003C
:100160009568000095680000DD6400009568000057
:10017000956800009568000095680000956800008B
:10018000956800009568000095680000956800007B
:100190009568000095680000584B4CF2205210B54D
:1001A0001A804DF628121A8000BF00BF06F076FBB9
:1001B000534B4FF030621A60524A9A60524ADA60EA
:1001C000524B4FF470021A60514A136813F4807353
:1001D00001BF50490B604FF4A85313604E4B4F4979
:1001E0001A78100742BF1A7842F008021A704C4B76
:1001F0002A221A704B4A4C4B8B4204D252F8040FFD
:1002000043F8040BF8E7494B494A0021934202D2D4
:1002100043F8041BFAE7474A4748002350F82310E5
:1002200042F823100133662BF8D1444B444A802115
:1002300003F8011B9342FBD1424B3E4A1A60424BEA
:100240008A221A70A3F5805324225A70A0221A70B1
:100250009A799107FCD59A79D206FCD43B4A9379D6
:1002600003F00C03082B394BF9D103221A714622F3
:100270005A719A799406FCD534498A79334B5006E1
:10028000FBD5334A4FF08271116009215160202261
:100290001A709A7902F00C020C2AFAD12D4B2E4AD0
:1002A0001A602E4B2E4A1A6000225A60072243F829
:1002B000042C2C4AC3F80C2D62B606F0C7FB154B74
:1002C0001B68DA0705D5284806F02AFB274B284A81
:1002D0001A60284B1B785B0609D5244C244B2268F6
:1002E0009A4204D1204806F01BFB0023236008F04B
:1002F000B7FB06F0D9FA06F0EEF9FEE70E2005404E
:1003000030800440823F04000100002B88ED00E0B3
:1003100010D0034014D0034002D007402013FF1F29
:1003200000E00740E80D0100F806FF1F2013FF1F43
:100330007428FF1F0002FF1F0000000000E400E01F
:1003400056E400E008ED00E00050064000400640A2
:100350004480044004800440C010050014E000E024
:10036000BFD401000000202030C34C5C1CE00340DF
:10037000A5C3945A00F00740FFFFFFFFFFFFFFFFF8
:10038000FFFFFFFFFFFFFFFFFFFFFFFFFFFFFFFF7D
:10039000FFFFFFFFFFFFFFFFFFFFFFFFFFFFFFFF6D
:1003A000FFFFFFFFFFFFFFFFFFFFFFFFFFFFFFFF5D
:1003B000FFFFFFFFFFFFFFFFFFFFFFFFFFFFFFFF4D
:1003C000FFFFFFFFFFFFFFFFFFFFFFFFFFFFFFFF3D
:1003D000FFFFFFFFFFFFFFFFFFFFFFFFFFFFFFFF2D
:1003E000FFFFFFFFFFFFFFFFFFFFFFFFFFFFFFFF1D
:1003F000FFFFFFFFFFFFFFFFFFFFFFFFFFFFFFFF0D
:10040000FFFFFFFFFFFFFFFFFFFFFFFFDEF9FFFF23
:1004100010B5054C237833B9044B13B10448AFF33E
:1004200000800123237010BD2013FF1F0000000077
:10043000E40D0100084B10B51BB108490848AFF3A3
:1004400000800848036803B910BD074B002BFBD0A0
:10045000BDE81040184700BF000000002413FF1F34
:10046000E40D01002013FF1F0000000070477047DB
:1004700010B50C21044606F031FA204610BDFFFFEE
:10048000034B044800211C22197006F0C7B900BFB5
:100490005813FF1F3C13FF1F064807494160002205
:1004A000012382600161426103730376034A0449B8
:1004B00007F058BE3C13FF1F74CF0000F806FF1F63
:1004C0006F040000012105F0A3BE90F8383090F8C9
:1004D00039209A4281BF5A1C1B1880F83820187E98
:1004E00098BF4FF0FF307047031103EB830300F018
:1004F0000F0000EB4300C0B27047FFFF08B5024891
:1005000005F04AFD012008BDE007FF1F38B50F4C7C
:100510000125D0230221204684F83B3084F85E5028
:1005200084F85D5005F0EEFC2046FFF7CBFF2B462C
:100530002A466821204605F0E7FE2046FFF7C5FF62
:1005400000F0E000E03818BF012038BDE007FF1FD1
:100550002DE9FF47294C0646D023012503212046DB
:1005600084F83B3084F85E5084F85D5005F0CAFC96
:100570002046FFF7A7FF2B4607226821204605F0FB
:10058000C3FE2046FFF7A1FF00F07F00FFF7ACFF9E
:1005900082462046FFF799FFC0B2FFF7A5FF8146CC
:1005A0002046FFF792FFC0B2FFF79EFF804620462D
:1005B000FFF78BFFC0B2FFF797FF07462046FFF714
:1005C00084FF2046FFF781FFC0B2FFF78DFF05468D
:1005D0002046FFF77AFFC0B2FFF786FF002300F541
:1005E000FA6103938DE800073B462A4689B23046FC
:1005F00003F034FD304604B0BDE8F087E007FF1F8C
:100600001FB501AC2046FFF7A3FF06F0EBF9084B3E
:100610009DF809105A7991421FBF064A106094E86C
:10062000070083E80700044B01221A7004B010BDD4
:100630005C13FF1F6C13FF1F6813FF1F7FB5154C62
:10064000154A002602210420267003F003FC134BF8
:1006500001AD1E70124B314628461E6003F074FD3A
:1006600095E807000F4B83E807000F48FFF746FFA8
:100670000D48FFF74BFF30B903F054FB0B4A022142
:10068000012003F0E7FBFFF7BBFF0123237004B059
:1006900070BD00BF6913FF1F7CCF00006813FF1FF0
:1006A0006C13FF1F5C13FF1F5913FF1F87CF000040
:1006B000014B1878704700BF6913FF1F10B504463F
:1006C00006F090F90E4B19680E4B8842A0EB010121
:1006D00038BF01F1FF31994209D90B490B4803F0AA
:1006E00037FDFFF78DFF2046FFF7E8FF06E00748DC
:1006F00003F02EFD0549204603F0C6FC204610BD40
:100700006C13FF1F40420F003F420F005C13FF1F9E
:100710000021014803F018BD5C13FF1F024A0C21A1
:10072000042003F097BB00BFB7CF00002DE9FF47BF
:10073000614A80460C4604200C2103F08BFB5F4984
:10074000022000F095FA064638B903F0EBFA5C4A4D
:100750000C21012003F07EFBAAE04246594968467D
:1007600008F072FF6946002000F026FC564A054654
:1007700003460C21042003F0A3FB002D03DA03F051
:10078000D1FA524A0DE02746802247F8048B2946C9
:100790003B46012000F07CFB002808DA03F0C2FA97
:1007A0004B4A0C21012003F055FB002680E004F1A8
:1007B00084094B4680222946022000F069FB00286C
:1007C00003DA03F0AFFA434AEBE72946032000F0CF
:1007D000C5FB2946C4F80401042000F0BFFB2946EC
:1007E000C4F80801052000F0B9FB4FF00608C4F872
:1007F0000C01D4F820A12946404600F0AFFB0AF1D5
:10080000440AD4F8203144F82A0003F1440254F891
:100810002220A2BB304A0C21032003F01BFB2368DB
:100820002E4A0C21032003F04BFB4B462C4A0C2193
:10083000032003F087FB3B462A4A0C21032003F0E8
:1008400081FBD4F80431284A0C21032003F038FB43
:10085000D4F80831254A0C21032003F031FBD4F8E9
:100860000C31234A0C21032003F02AFBD4F8203159
:10087000204A0C21032003F023FB002308E008F1A9
:1008800001080133B8F10A0FC4F82031B1D1C1E732
:10089000D4F820215D1CDBB2934209D24433164ABE
:1008A00054F823300C21032003F00AFB2B46EFE71A
:1008B000304604B0BDE8F087BFCF0000CDCF0000C8
:1008C000DACF0000BBF8000011D000002FD00000EC
:1008D00054D0000070D0000089D0000097D00000F4
:1008E000A5D00000B3D00000C1D00000CFD00000E0
:1008F000DDD00000EBD00000F9D00000C36819443F
:1009000004F0C0BD2DE9F043344DADF5017DEE6836
:10091000814688462846A96904F0B4FD04210846AA
:10092000EC682F4A334603F0CBFA042123462D4AC4
:10093000084603F0C5FAA64236D2B4F5007F03D3C9
:10094000A4F50077BE4202D9A41B374601E04FF45C
:10095000007404213B46244A084603F0B1FA3946A4
:100960001E4804F08FFD224669461C4804F0E8FC4E
:100970000446C0EB08011948FFF7C0FF04210846F0
:10098000EB681A4A03F09CFA042123460846184AE9
:1009900003F096FA22466946104804F0A5FF0F4876
:1009A00004F0A0FD3C46C6E70421124A084603F0C5
:1009B00051FA3146094804F065FD42464946074868
:1009C00004F092FF054804F08DFD04210A4A084610
:1009D00003F040FA0DF5017DBDE8F0837013FF1FB1
:1009E00007D1000013D100001CD1000027D1000066
:1009F00030D1000039D1000063D1000038B50122A8
:100A000004460D4605F0ECF9024628B92946204671
:100A1000BDE8384005F0E4B9012038BD0421F8B53F
:100A2000344A354F354C364D084603F013FA00234F
:100A30003B702370FE232B7003F010FE064603F07C
:100A4000FBFDA8701EB103F06DF92E4A07E02946A0
:100A50002D48FFF7D3FF38B903F064F92B4A04217E
:100A6000012003F0F7F914E02749294804F0BCFB02
:100A70000421012308463B7003F04AF948B10421E0
:100A80000846244A03F0E6F932460721204804F0DC
:100A9000A7FE0F220121204804F086F918B903F0BF
:100AA00041F91E4A07E01C491D48FFF7A7FF40B95E
:100AB00003F038F91B4A04210120BDE8F84003F097
:100AC000C9B91749184804F08FFB042101230846CF
:100AD000237003F01DF958B104210846134A03F0AE
:100AE000B9F9002207211048BDE8F84004F078BEAB
:100AF000F8BD00BF6FD10000BC13FF1F0814FF1F1B
:100B00000914FF1F77D100001014FF1F9AD10000B5
:100B1000E413FF1FCCD100000C14FF1FE9D100002B
:100B20009413FF1F0CD20000C013FF1F3ED2000021
:100B30000A7902714A7942718A7982718A6882607F
:100B4000CA68C2600A6902610A7D02758A698261A7
:100B5000CA69C2610A6A02627047FFFF30B50421A8
:100B60008FB00546394A084603F074F9384B0593AF
:100B7000384B9B790024012B8DF818408DF81A40D2
:100B800005D803F0CFF8344A042102203DE02B5D64
:100B90002F2B19D08BB904210846304A03F05AF99B
:100BA000042108462A4603F055F903232A46294919
:100BB00005A804F05FFD60BB22E00134102CE6D1F3
:100BC00003F0B0F8264A1EE02246294601A805F0A7
:100BD0008BFD0EAB53FA84F30421002203F8342C6E
:100BE0000846204A03F036F90421084601AA03F01A
:100BF00031F9012301AA174905A804F03BFDB0B95A
:100C000003F090F8184A0421012003F023F9002092
:100C10001AE0104804F092FC18B903F083F8134A64
:100C2000F1E705A90B48FFF783FF01200CE0094815
:100C300004F084FC0028F0D005A90648FFF778FFEF
:100C4000601C2844FFF78AFF0FB030BD5BD2000064
:100C5000100801007013FF1F68D2000095D2000039
:100C6000C9D20000E9D200009FD20000B4D2000037
:100C700038B50D4604210446184A084603F0EAF840
:100C8000174804F05BFC012C0AD1164B1B782BB9DA
:100C900003F048F8144A042102201AE013490BE03B
:100CA000022C11D1124B1B782BB903F03BF8114ADF
:100CB000042120460DE010490948FFF739FF284676
:100CC000BDE83840FFF74ABF03F02CF80B4A042177
:100CD000012003F0BFF8002038BD00BFFED20000A5
:100CE0007013FF1FBC13FF1F07D30000E413FF1F87
:100CF0000814FF1F32D30000C013FF1F5DD3000094
:100D000038B50D46042104460B4A084603F0A2F804
:100D10000A4B9B79012B05D129462046BDE8384076
:100D2000FFF7F0BD02F0FEFF054A04210120BDE8F7
:100D3000384003F08FB800BF5CD100007013FF1F74
:100D40007ED30000F0B50E46042191B00746484A14
:100D5000084603F07FF847488479012C7ED10021B2
:100D600004F090FB054640B902F0DCFF2046424A01
:100D7000042103F06FF8284678E00025AE421FD921
:100D8000402269463B4804F0DBFA90B100211DF88F
:100D900001300A2B01F1010108D10135AE4205D124
:100DA000091A3448FFF7AAFD3546E7E78842EED135
:100DB000E4E70A212F48013504F068FEAE42F8D876
:100DC0002C4804F08FFB04212C4A084603F042F81B
:100DD0000024A74221D940226946264804F0B0FAEF
:100DE000D8B100211DF801203B2A09D10134A742C6
:100DF0000FD10131091A1F48FFF780FD204A27E073
:100E00000D2A04D1091A1B48FFF778FD05E00A2ACC
:100E1000F8D001318842E5D1DBE704210846194AC0
:100E20003C1B03F017F8204605F056FD3B22054613
:100E300003460119994202D003F8012BFAE7214633
:100E40002846FFF75DFF0121284605F047FD0E4AC1
:100E50000421084602F0FEFF012007E002F062FFD5
:100E600001200A4A042102F0F5FF002011B0F0BD74
:100E7000A0D300007013FF1FEED30000B0D300001A
:100E8000BAD30000C7D30000D8D300007ED300003F
:100E9000F8B50E460421074614460846274A1D4663
:100EA00002F0D8FF31463846FFF74CFF28B902F070
:100EB00039FF234A042101200BE0621E2946214804
:100EC00004F03EFA041E09DC02F02CFF1E4A042145
:100ED000022002F0BFFF4FF0FF30F8BD2A190023B7
:100EE00002F8013C2A46104612F8011B3B2903D1A7
:100EF000002202701C4606E00D29F9D00A29F7D01D
:100F000001339C42EFD104213B4608460F4A02F0D0
:100F1000D7FF0421334608460D4A02F0D1FF0421D1
:100F20002B4608460B4A03F00DF8042108462346D9
:100F3000094A02F0C5FF2046F8BD00BF00D40000FA
:100F400010D400007013FF1F23D4000034D400001D
:100F500048D400005CD4000069D4000030B50D46D0
:100F6000042185B00446114A084602F073FF6B461F
:100F7000102229462046FFF78BFF00280ADD68462D
:100F800007F05EFD042104460346094A084602F0C4
:100F900097FF07E002F0C6FE064A0421022002F095
:100FA00059FF0024204605B030BD00BFA1D4000089
:100FB000B1D40000C5D400002DE9F04F8A460421C9
:100FC00093B081464D4A084602F044FF4C4884796C
:100FD000012C40F08580002104F054FA18B902F089
:100FE000A1FE484A07E0504608F0EAFB1F2805D951
:100FF00002F098FE444A0421204676E00026A346EB
:1010000035460DF10808402241463D4804F098F964
:101010000421074683B2CDF800803C4A084602F01E
:10102000D1FF1FB904213A4A08465EE05B4600241E
:1010300012AA224412F8402C3B2A02D10136013474
:101040000CE00A2A08D10421324A084602F002FFC5
:1010500001350134002601E0002B3BD0B14539D1E8
:1010600004212D4A084602F0F5FEE11B2448FFF753
:1010700045FC40224146224804F062F9042183B233
:10108000264ACDF800800746084602F09BFF5046EE
:1010900008F096FB042183B2CDF800A0204A084650
:1010A00002F090FF0023BB4224D01AF803403CB961
:1010B00012AA134413F8403C3B2B1BD04E4609E0C8
:1010C00018F803203B2A03D0944201D10133EAE708
:1010D0004E46002401340023A7429B46A8D890E73F
:1010E00002F020FE0F4A0421012002F0B3FE4FF06F
:1010F000FF3000E0284613B0BDE8F08FA4D5000013
:101100007013FF1FEED30000B5D50000CBD5000053
:10111000D6D50000F1D5000008D6000019D6000091
:1011200022D600007ED300000D4A002393700D4AA2
:1011300093700D4A0221116082F820300B4A116031
:1011400082F820300A4A0B491371116093710A4AE0
:10115000137111609371094A137111609371704793
:101160000914FF1F0C14FF1F1014FF1F9413FF1FFF
:10117000E413FF1F10080100C013FF1F7013FF1FAF
:1011800010B502F0D7FD032002F0ACFD04210020D1
:1011900002F0B8FD03210A2002F0B4FD032108206B
:1011A00002F0B0FD0321092002F0ACFD1F4C032129
:1011B000052002F0A7FD41F2883005F031FC2246FF
:1011C0000021032002F046FE194A0021032002F00C
:1011D00041FE184A0021032002F03CFE164A00217D
:1011E000032002F037FE22460021032002F032FEE7
:1011F000124A0021032002F02DFE114A0021032093
:1012000002F028FEFFF71AFAFFF708FCFFF786FA4C
:1012100000F084F8FFF734F902F000FD094A0021DC
:101220000320BDE8104002F015BE00BF2BD6000021
:1012300052D6000079D60000A0D60000D5FE0000EE
:10124000C7D60000DBD6000070B5CCB002F090FB32
:101250000146002840D0264C264D274A0021042074
:1012600002F0F8FD02F06CFC2146284602F0EAFB91
:10127000014678B3214A0021042002F0EBFD082347
:101280001F4A00950021042002F09CFE08231D4AFD
:1012900000940021042002F095FE00221646134619
:1012A0000A21A85C01FB0303A05C0132082A01FBB0
:1012B0000606F6D1144A0021042002F001FE33464E
:1012C000124A0021042002F0FBFD03A91048FFF799
:1012D0002DFA05E00F4A00E00F4A042002F0BAFDA3
:1012E00002F09CFB40F6B83005F09AFB4CB070BDA4
:1012F0004014FF1F3814FF1FFBD6000008D7000062
:101300001BD700002FD7000043D7000052D70000A2
:101310000D00990061D7000076D7000008B5094A92
:101320000521042002F096FD46F2A81005F0F6FB18
:10133000A42005F069FC044A00231370034A1370CB
:1013400008BD00BFA2D700005414FF1F4814FF1FA0
:10135000024A00231370024A137070475414FF1F8F
:101360004814FF1F704710B55821044605F0B6FA1F
:10137000204610BD0F2A38B504461D4617DD00F182
:10138000140201F1100351F8040B42F8040B9942C6
:10139000F9D1226B0021201D05F040FA1023E362F1
:1013A00084F83450802384F83530012038BD002083
:1013B00038BD40F3C01303F01B0383EA4000C0B202
:1013C0007047FFFF2DE9F04F044685B042B901F1A7
:1013D0000F03029304F10F030027B24E019382E042
:1013E000B04DB14F002001F10F0E4B7BEE5C0B783E
:1013F0005E40C35D73400B708B7BEE5C4B7873403B
:101400004B70CB7BEE5C8B7873408B700B7BEE5C10
:10141000CB785E400B4603F8036F13F801CF13F847
:10142000046C73458CEA06061E70F6D101300A285A
:10143000DBD1631E4D1E04F10F0613F8017F15F872
:10144000010FB34280EA07001870F6D1BFE7DD78DC
:1014500013F8010D454099421D71F8D14B7BF35CA7
:101460005840914BDB1B5B7A58408B7B0870F05CDB
:101470004B7843404B70CB7BF05C8B7843408B7058
:101480000B7BF05CCB784340CB70002F57D1607A58
:10149000637B60736079607260786071A07AA57810
:1014A0006370A070A37BE079A572A579A371E3783E
:1014B000E070E07AE071E07BA573E373E072631E95
:1014C00001F1FF3C13F8010F784D15F800E01CF80E
:1014D000010F8EEA0000187001988342F2D10137A3
:1014E0000A2F00F0CF8012B101F10C03AFE7631EA9
:1014F0004D1E13F801EF15F8010F8EEA0000305C65
:10150000187001988342F4D1607963786070607AD2
:101510006071607B6072A078A57A6373A072A37912
:10152000E07AA570A57BA373E37BE073E079E072BA
:10153000E078A571E071E3700FB1092F7FD000232F
:10154000009342E06B1C05F1020A05F1030914F84F
:1015500005B0E05C14F809E014F80A80039388EA07
:101560000E088BEA000080EA0808FFF722FF8BEAEA
:10157000080E80EA0E006055039B14F80A00E55C33
:101580006840FFF716FF88EA0505039B6840E054B2
:1015900014F80A5014F809006840FFF70AFF88EAB7
:1015A0000505684004F80A0014F809508BEA0500A4
:1015B000FFF7FFFE009B88EA0508013380EA080078
:1015C000042B04F80900009336D0009B9D00EDB277
:1015D000002AB7D005F1020B14F805A014F80B008F
:1015E0008AEA0000FFF7E5FEFFF7E3FE05F10109D7
:1015F00005F1030814F809E0039014F808008EEAD6
:101600000000FFF7D6FEFFF7D4FE039B8AEA030A29
:1016100004F805A014F809E080EA0E0E04F809E0C9
:1016200014F80BE083EA0E0304F80B3014F80830CA
:10163000584004F8080085E7002A7FF428AF4B7B68
:10164000F05C0B785840184BFB5C43400B708B7B75
:10165000F05C4B7843404B70CB7BF05C8B78434025
:101660008B700B7BF05CCB7858400B4603F8030F74
:1016700013F8015F13F8040C684018700298834255
:10168000F6D12CE75AB9631E01390F3413F8010F54
:1016900011F8012F9C4282EA00021A70F6D105B0BF
:1016A000BDE8F08F48D9000048DA000052DA0000A7
:1016B000F0B58E46C16A102985B01DD100F1140520
:1016C0006E4600F12404EC4628686968374603C773
:1016D0000835A5423E46F7D111467046103251F802
:1016E000044B40F8044B9142F9D170461A466146CA
:1016F000FFF768FE012000E0002005B0F0BDFFFF0D
:101700000022C26280F83420FF2280F83520024A8D
:10171000026010220263704738D9000070B5044699
:101720001546A2B183684068D618864208DD02F0EB
:10173000F9FA084A0621012002F08CFB002070BD56
:101740002068184404F0D0FFA3681D44A560012060
:1017500070BD00BF52DB0000704710B54FF4EC7154
:10176000044605F0BBF8204610BDFFFF2DE9F0410F
:1017700042680468DFF888E15F4E84EA121303F0E0
:101780000F3384EA030082EA03135C4A80EA804450
:101790002240504080EA9242584883EA83442040E5
:1017A000434083EA904382EA530000F0553082EAD6
:1017B000000583EA400080EA152202F0FF1280EA69
:1017C000020485EA022282EA540000F055304240C9
:1017D000130984EA400000F47F4403F0706323435C
:1017E000040404F47F042343C0F30740034322F0BE
:1017F0007042083100275EF8270030B195069C063C
:1018000045EA920544EA930405E0D506DC0645EA7C
:10181000520544EA530425F07042D009C2F3811CFA
:1018200000F03C004CEA00004FEA923CC2F343381F
:101830000CF0300C48EA0C0C40300CF1800C56F8DF
:10184000208056F82C0005F03F0C48EA000056F8BE
:101850002C504FEA525C28430CF0060CC2F30055A2
:101860004FEA925845EA0C0C08F038084CEA080C8C
:101870000CF1C00C24F0704356F82C504FEA132C96
:1018800005430CF03C0CC3F3C11040EA0C0C04F00F
:101890003F04C3F3C53000F5C07004F580740CF547
:1018A000A07C56F8208056F8240056F82C4048EAD0
:1018B000000020439C0DC3F3435C04F030044CEA69
:1018C000040404F5E074013756F824402043ACB218
:1018D00044EA0044000C000440EA15404FEAB474A6
:1018E0004FEAB060102F41F8084C41F8040C01F1A8
:1018F000080180D1BDE8F081E4E800000000CCCC14
:10190000E4F000002DE9F0414368076887EA131509
:1019100005F00F356F4083EA051585EA17439BB242
:1019200085EA030487EA034383EA940505F0333527
:1019300083EA050684EA850585EA162303F0FF138A
:101940005D4086EA032383EA550404F0553463407E
:1019500085EA44054FEA73734FEA7575A14C002A76
:1019600000F08A8001F180070E684A685E40C6F385
:10197000852CC6F3850E0CF1800C54F82E8054F89B
:101980002CE04FEA966C0CF5C07CC6F3854606F554
:10199000807654F82CC054F826605A4088EA0E0E1F
:1019A0004FEA32128EEA0C0E8EEA060E960E06F5FD
:1019B000E076103154F826608EEA060EC2F38506F2
:1019C000403654F826608EEA060EC2F38526C036ED
:1019D000C2F3854202F5A07254F8266054F8222022
:1019E0008EEA0606724051F8086C55406E404FEA88
:1019F000966CC6F3850E0CF5C07C54F82E8054F816
:101A00002CE051F8042C88EA0E0E8EEA0303C6F38C
:101A1000852E0EF1800EC6F3854606F5807654F8C5
:101A20002EE054F826606A404FEA321283EA0E0331
:101A30007340960E06F5E0768F4254F8266083EAEE
:101A40000603C2F3850606F1400654F8266083EAD1
:101A50000603C2F3852606F1C006C2F3854202F5ED
:101A6000A07254F8266054F8222083EA060383EA21
:101A700002037FF479AF88E0A1F180078E6FCA6F0F
:101A80005E40C6F3852CC6F3850E0CF1800C54F82D
:101A90002E8054F82CE04FEA966C0CF5C07CC6F30F
:101AA000854606F5807654F82CC054F826605A40D6
:101AB00088EA0E0E4FEA32128EEA0C0E8EEA060EFD
:101AC000960E06F5E076103954F826608EEA060E7A
:101AD000C2F38506403654F826608EEA060EC2F33D
:101AE0008526C036C2F3854202F5A07254F82660FE
:101AF00054F822208EEA06067240D1F880605540E4
:101B00006E404FEA966CC6F3850E0CF5C07C54F817
:101B10002E8054F82CE0D1F8842088EA0E0E8EEA4C
:101B20000303C6F3852E0EF1800EC6F3854606F537
:101B3000807654F82EE054F826606A404FEA32125C
:101B400083EA0E037340960E06F5E076B94254F828
:101B5000266083EA0603C2F3850606F1400654F8C0
:101B6000266083EA0603C2F3852606F1C006C2F3A7
:101B7000854202F5A07254F8266054F8222083EAC8
:101B8000060383EA02037FF479AF4FEAF5014FEAD7
:101B9000F30381EA530202F0553281EA020483EA38
:101BA000420383EA142101F0FF1183EA010284EA6F
:101BB000012181EA920303F03333594082EA83031F
:101BC00083EA114292B2534081EA024282EA13113F
:101BD00001F00F314A4083EA011302604360BDE81F
:101BE000F08100BFE4E0000013B50C461146026826
:101BF00000924268019268461A46FFF783FE009BF6
:101C000023701A0A62701A0C1B0EE370019BA270FB
:101C10001A0A237162711A0C1B0EA271E37102B0D1
:101C200010BD2DE9F04104461E46E36A102B0D4617
:101C300010460AD0182B26D0082B44D104F15802A4
:101C40000EB9012313E0002311E004F15807D83442
:101C500096B901233A46FFF7C7FF33462246294685
:101C60002846FFF7C1FF01233A4629462846FFF7D9
:101C7000BBFF0120BDE8F08100233A46FFF7B4FF27
:101C80000123224619E004F1580704F1D80804F5AD
:101C9000AC7466B901233A46FFF7A6FF33464246C5
:101CA00029462846FFF7A0FF01232246DDE700234F
:101CB0002246FFF799FF0123424629462846FFF7AF
:101CC00093FF0023D0E70020BDE8F0810022C2622C
:101CD00080F83420FF2280F83520024A0260082272
:101CE00002637047D4E00000F0B54D1E471E01F1BD
:101CF000070E802615F8014F334224F0010418BF67
:101D000044F00104754507F8014F4FEA5606F1D13A
:101D10000823934205DACC5C24F00104C454013357
:101D2000F7E7F0BDF8B500F1140604463046154655
:101D30001F46FFF7D9FF102A10D0182A1BD0082AF7
:101D400037D104F1130304F11B0213F8011F1972B8
:101D50009342FAD104F15801304608E004F15801E9
:101D60003046FFF703FD04F1D80104F11C00FFF732
:101D7000FDFC002311E004F158013046FFF7F6FCAA
:101D800004F1D80104F11C00FFF7F0FC04F5AC717C
:101D900004F12400FFF7EAFC402384F83530226B7D
:101DA0000021201D04F03AFD84F83470E562012022
:101DB000F8BD0020F8BD10B504460846002184E8AF
:101DC0000500A16004F02AFD204610BD08B5836817
:101DD00019444368994208DD01F0A4FF044A062132
:101DE000012002F037F8002008BD012008BD00BF27
:101DF00052DB000038B50D4601210446FFF7E6FF2F
:101E000028B1A3682268D554A3680133A36038BD04
:101E100013B5019104210446FFF7D8FF024630B103
:101E2000A36821680198C850A3680433A3601046D2
:101E300002B010BD73B5019103210446FFF7C6FF40
:101E400058B102ABA268216833F8046D8E528D1828
:101E50009B78AB70A3680333A36002B070BDFFFF33
:101E60002DE9F04F87B0056BDDF8448001914545C1
:101E7000044692461E46109F07DC98FBF5F305FBCF
:101E8000138515B900F1040920E001F04BFF224A47
:101E90000921012001F0DEFF1EE0019AF2B94A4655
:101EA000394602A801F050FC236802AAD3F80CB00E
:101EB000314653462046D84770B1226B31464846DA
:101EC00004F012FC236B01351F441E44236B98FB66
:101ED000F3F29542E1DB1AE0002019E023683A466C
:101EE000D3F80CB002A953462046D8470028F3D0B7
:101EF00002A90846236B4A4601F026FC226B3946AC
:101F0000484604F0F1FB226B02A93046D8E70120D5
:101F100007B0BDE8F08F00BF42F1000073B5054681
:101F200088680C461646F8B12A6B90FBF2F302FB68
:101F30001303CBB90B68801A05F13601184401F080
:101F40000EFCA268236801920022009311462846E5
:101F5000FFF786FF044608B9002419E02A6B291D03
:101F6000304604F0C1FB13E080212046FFF742FF1A
:101F70000028F1D0A0682A6B90FBF2F302FB130358
:101F80000BB10021F1E7801A236805F14601D5E77E
:101F9000204602B070BDFFFF08B528B190F835307B
:101FA000FF2B01D0012008BD01F0BCFE034A09212E
:101FB000022001F04FFF002008BD00BF59F10000D2
:101FC00040280FD0802801D050B901E00748704761
:101FD000082909D0064B0748102908BF1846704742
:101FE00005487047054870470548704773F1000081
:101FF00065F1000067F1000077F100006CF100006E
:1020000068F1000013B5C36A102B0446B8BF102353
:1020100000F1140200929BB2094A0921042001F048
:10202000D1FFE16A94F83500FFF7CAFF054A03467D
:102030000921042002B0BDE8104001F083BF00BFB9
:102040007FF1000084F100000C2908B50B4600F078
:102050008C80AF2900F08980002900F08680AE29AD
:102060005ED024D87E294FD010D81C2944D005D862
:102070000E2972D101F056FE3D4A68E01E293FD07C
:1020800040296AD101F04EFE3A4A60E09E293FD0D5
:1020900005D89D2961D101F045FE374A57E0A029B6
:1020A0003AD0A12959D101F03DFE344A4FE0CE2962
:1020B00042D010D8C12937D005D8BE294DD101F062
:1020C00031FE2F4A43E0CA2932D0CD2945D101F053
:1020D00029FE2C4A3BE0EE2932D005D8DE293CD13E
:1020E00001F020FE284A32E0F0292DD0F12934D128
:1020F00001F018FE254A2AE001F014FE244A26E0E9
:1021000001F010FE234A22E001F00CFE224A1EE0FC
:1021100001F008FE214A1AE001F004FE204A16E010
:1021200001F000FE1F4A12E001F0FCFD1E4A0EE025
:1021300001F0F8FD1D4A0AE001F0F4FD1C4A06E03A
:1021400001F0F0FD1B4A02E001F0ECFD1A4A082103
:10215000012001F07FFE002008BD184A082101205F
:1021600001F0AEFE01F0DEFDF5E7012008BD00BF85
:1021700091F10000CDF10000F7F1000036F200000F
:1021800069F20000A0F20000C4F20000FBF20000BF
:10219000ABF10000BCF10000E1F100000AF2000028
:1021A0001FF2000053F2000079F200008FF20000ED
:1021B000AFF20000DDF20000EBF2000011F30000CE
:1021C0002DE9F04F8DB01546179A9DF8609098460E
:1021D00004460E46002302B1137005AF84F8A03602
:1021E000012204A93846FFF7E6FD09F0040202F0D7
:1021F000FF030393002A0CBF0B231323002D08BFFA
:102200003D460293B3689A1CAB681344502B04DC20
:10221000029B169A1344502B07DD01F083FDB64A4A
:102220000821012001F016FEDFE019F00A0F07D0A7
:1022300094F86434FF2B03D101F074FDAF4AEFE74B
:1022400019F0020F5DD00421082001F061FD70B18A
:10225000AB4A0821042001F0FDFDD4F86C24138E54
:10226000043200920921A74A042001F0ABFEB168B4
:10227000AB682A68306801F0CFFA0146089028461A
:10228000FFF7C6FD002800F0B080D4F86C34AF68CA
:102290001B6B97FBF3FA03FB1A7ABAF1000F01D01C
:1022A0000137F6E7C5F808A039462846FFF78EFD46
:1022B000002800F09A8008ABAF6000930423184612
:1022C000914A082101F07EFE1FFA87FB2B680093DC
:1022D0008E4A5B460821042001F074FE2B68D4F876
:1022E0006C048DE8880052465146FFF7B9FD00287E
:1022F0007BD02B680093864A5B460821042001F0BE
:1023000061FE316819F0010F91F800A02CD0BAF1EC
:10231000AF0F29D094F86434FF2B25D00023C4F8E4
:10232000243704F21C77B2683846FFF7F7F9002823
:102330005BD0AA6829683846FFF7F0F9002854D026
:102340000DF1200B5A463946D4F86C04FFF7E6FD30
:1023500000284AD0D4F86C346E4A1B8ECDF800B0F9
:102360000821042001F02EFE402323710123637114
:10237000B2683168A01D04F0B7F9B768AA68296887
:102380000237261DF01904F0AFF9AA683A44D2B218
:102390003146204600F0E6FF38B31699029B0B4405
:1023A000DAB23146204600F0E7FF0228834602D920
:1023B0006379412B03D001F0B5FC574A30E7A1798E
:1023C00084F8A0162046E77900F028FD68B1BBF13B
:1023D000030F0AD027B1AF2F1CBFFF2384F864344A
:1023E00039462046FFF730FE10B94FF0FF357EE04A
:1023F000179B03B11F70039BABF10405EDB27BB3D8
:102400000FB1AF2F2CD194F86434FF2B28D0BAF140
:10241000AF0F1CBF0023C4F82437AF2F08D12A46C2
:1024200004F1080104F21C70FFF778F9C0B9DCE789
:10243000072D15D9A7B9ABF10C05EDB204F21C7A42
:102440002B1D2A4604F1080150461E44FFF766F989
:102450000028CAD039465046FFF7CCFC50BBC4E731
:10246000169BAB4203DA01F05DFC2C4AD8E6B8F1CA
:10247000000F3CD0002D3AD02A4604F10801404616
:1024800004F032F919F0080F31D001220195CDF88E
:10249000008043461146D4F86C04FFF7E1FC0028A5
:1024A000A3D0CDF80080ABB21D4A0821042001F072
:1024B00089FD1CE008AF3A465146D4F86C04FFF79A
:1024C0002DFD002891D0D4F86C34164A1B8E00974D
:1024D0000821042001F076FD08223946304606F036
:1024E000C9FD0028BCD001F01DFC0F4A98E6284623
:1024F0000DB0BDE8F08F00BFE1F3000021F3000054
:1025000033F300004AF3000053F3000057F30000D8
:1025100065F3000077F3000086F30000B9F30000D4
:10252000D8F300009CF30000ABF30000F0B589B0D5
:1025300004460F46154604A9012205A81E46FFF7CA
:102540003AFC394605A8FFF755FC9DF84030029348
:102550000F9B01930E9B00932A46334605A9204604
:10256000FFF72EFE09B0F0BD2DE9F04FCBB00546C8
:10257000049108200421904601F0CAFB40B10420D8
:10258000049B974A082101F09BFC4046FFF73AFD67
:1025900098F83530402B02D0802B06D00BB91A2486
:1025A00004E001F0BFFB8F4AF1E0AA24012207A951
:1025B00008A8FFF700FC049908A8FFF71BFC0023FC
:1025C00002930DF11F06102314AF009321463B46E2
:1025D000019608AA2846FFF7A9FF3378AF2B0446D7
:1025E00003D1082805D0102803D001F09BFB7E4AB8
:1025F000CDE0D8F83020002108F1040004F00EF9F5
:102600000DF1600A0122019400975346114640469D
:10261000FFF726FC002800F07C810DF1700B2246AC
:10262000514658460DF1800901F0A7F82146484669
:1026300001F0C0F820223AA90BA8FFF7BCFB224604
:1026400049460BA8FFF76AF8224659460BA8FFF740
:1026500065F8202242A90EA8FFF7ADFB6300002217
:1026600019460EA805931092FFF7B0FB059B00B129
:102670001093019300220B9B009311460E9B404642
:10268000FFF7EEFB002800F044810421082001F050
:102690003FFB88B3A3B20097544A1F460821042089
:1026A00001F090FC3B46524ACDF800A008210420DE
:1026B00001F088FC3B464F4ACDF800B008210420C9
:1026C00001F080FC3B464C4ACDF8009008210420E4
:1026D0007F0001F077FCBFB20B9B0093474A3B465B
:1026E0000821042001F06EFC0E9B0093444A3B46F7
:1026F0000821042001F066FC002324AF02938DE83A
:1027000050003B460EAAAF212846FFF70FFF337853
:102710000BB9844203D001F005FB3A4A37E028AEFA
:10272000012201940097334611464046FFF798FB7B
:10273000002800F0EE800DF1B00B494658462246C5
:1027400001F01BF80421082001F0E2FAB0B1A3B2B5
:1027500000972D4A1F460821042001F033FC3B4618
:102760002A4A00960821042001F02CFCCDF800B084
:102770003B46274A0821042001F024FC22462CA9CC
:10278000304606F077FC38B101F0CCFA214A082136
:10279000012001F05FFBBCE0182234A911A8FFF76B
:1027A0000AFB0422494611A8FEF7B8FF042251464D
:1027B00011A8FEF7B3FFD8F82C30082B42DD98F8AB
:1027C0003530402B28D0802B32D0002B3AD1042238
:1027D00021A911A8FEF7A2FF042219A92FE000BF2A
:1027E0001CF4000059F1000034F400004EF4000025
:1027F00058F400005EF4000068F400006EF400007D
:1028000075F4000080F400009AF40000A4F40000C5
:10281000AEF40000B8F4000004220DF1860111A806
:10282000FEF77CFF04220DF1660111A8FEF776FF8A
:10283000042223A911A8FEF771FF04221BA911A8E5
:10284000FEF76CFF98F83530139A1199802B0CBF66
:1028500005F58E6305F59963C5F86C34D5F86C04FD
:1028600003689C680023A047002852D0D5F86C4428
:10287000266B0DF1C009082E4FF010024FF0000139
:1028800048460CBF1B27872703F0C8FF32460021AC
:10289000201D03F0C3FF236B0193CDF800904B463E
:1028A000002201212046FFF7DBFA064688B3D4F860
:1028B00030A004F1360852464946404603F014FF62
:1028C0005146404600F063FF9DF9C030002B07DA07
:1028D000236B013B234493F836207A4083F836205B
:1028E000D4F8309004F1460318464A46414603F0B6
:1028F000FBFE494600F04BFF94F93630002B07DA17
:10290000236B013B1C4494F846305F4084F84670CA
:102910000EB9002611E00421082001F0F9F940B1B8
:102920000420084A082101F095FAD5F86C04FFF755
:1029300069FB9DF8103085F8643430464BB0BDE833
:10294000F08F00BFD2F400002DE9F04F0546ADB086
:102950000E4614469846834A0B460420082101F08F
:10296000AFFA95F86434FF2B07D101F0DBF97E4A0A
:102970000821022001F06EFA1FE00421082001F076
:10298000C7F9B0B1794A0821042001F063FAD5F8FB
:102990006C24138E043200920921754A042001F040
:1029A00011FB0420734A082101F054FA2046FFF776
:1029B00029FB2046FFF7F0FA08B90020CEE02822D4
:1029C0000DA907A8FFF7F7F9E26A04F11409102A24
:1029D000B8BF1022494607A8FEF7A0FED5F8683414
:1029E00095F864A41BB994F83570374300E0374676
:1029F00056451BD04046FFF7CFFA0028DDD0042112
:102A0000082001F085F938B104205B4A082101F063
:102A100021FA4046FFF7F6FAD8F82C200798102A3A
:102A2000B8BF102208F1140100F099FE94F8353077
:102A3000802B04D194F8341007A8FFF7DBF9C423E6
:102A4000079A8DF814300221099B8DF8157005A89E
:102A500000F0E2FE0DF1B008014648F8980D07A815
:102A6000FFF7D6F90423CDF80080444A0821184620
:102A700001F0A8FA564516D0E16A002310291A463B
:102A8000B8BF1021484600F0C7FE2CAC014644F800
:102A90002C0D07A8FFF7BCF904230094384A08213D
:102AA000184601F08FFA099B182B04DD212BB4BFC7
:102AB0002024282400E01824D5F86CB4DBF830304A
:102AC00094FBF3F803FB1848B8F1000F01D0013470
:102AD000F6E70DF15C0928224146484603F09EFEC8
:102AE000079B009301944B46424641465846FFF7E8
:102AF000B7F900283FF461AF079B00931FFA84F8F1
:102B00004346204A0821042001F05CFA43461E4A4D
:102B1000CDF800900821042001F054FA292221A9BF
:102B20000AA8FFF748F939460AA8FFF763F92246D1
:102B300049460AA8FEF7F2FD564504BFFF2385F873
:102B40006434042302930023019300930AAAC4214E
:102B50002846FFF7EBFCB0FA80F040092DB0BDE845
:102B6000F08F00BFE5F4000021F30000FAF400004C
:102B70004AF3000010F5000023F5000036F50000D0
:102B800048F500005BF5000067F5000070B50B46E6
:102B900088B005460C4616460821144A042001F068
:102BA0008FF9012204A905A8FFF705F9214605A818
:102BB000FFF720F905230293002401238DE8180074
:102BC0002846334605AA6421FFF7B0FC01280546D4
:102BD00008D1034600960420054A082101F0F2F9C5
:102BE000284600E0204608B070BD00BF74F5000024
:102BF0008DF5000070B505469AB00E4608200421F8
:102C000001F086F848B13246134906A806F01CFDCB
:102C100006AA0821042001F01DF9032205A906A82F
:102C2000FFF7C9F80024314606A8FFF703F902941C
:102C300001940094234606AA5A212846FFF776FC01
:102C400030B9FF2385F86434C5F86864012000E0DA
:102C500020461AB070BD00BFCBF700002DE9F0434D
:102C60009DB081460F460820042115461C46249E2F
:102C700001F04EF858B13A461F4900942B4608A877
:102C800006F0E2FC08AA0821042001F0E3F8002C79
:102C90002EDD302C4FF0070206A908A8A046A8BFD9
:102CA0004FF03008FFF787F8394608A8FFF7A2F879
:102CB000294608A8FFF7BEF8414608A8FFF7BAF86A
:102CC000052302930DF117030193CDF800803346DD
:102CD00008AABD214846FFF729FC9DF817300BB91B
:102CE000002801DC002004E0241A05440644CEE755
:102CF00001201DB0BDE8F08328F900002DE9F04364
:102D0000044687B0264600F05FF8234B46F85C3B4C
:102D100004F50D783046FEF7D9FF04F20C47404623
:102D2000FEF7D4FF3846FEF7EBFC04F58E60FEF7A5
:102D3000E7FC04F59960FEF7C9FF04F2A16178226F
:102D400004F21C70FFF737F80025FF234FF0180935
:102D500084F864344A462946C4F86C5484F8A05672
:102D6000C4F86854684603F059FD2B4669460822AA
:102D70003046FEF7D7FF2B464A4669464046FEF7E7
:102D8000D1FF2B46102269463846FEF7F3FA20465B
:102D900007B0BDE8F08300BF2CF10000FF2280F8EF
:102DA00064240022C0F8682400F0FABB054B1B68BD
:102DB0004FF00042DA625863DA6A002AFCDA986B54
:102DC000C0B270473807FF1F064A0260002280F831
:102DD000542080F8552080F8562080F8572080F83D
:102DE00058207047CC00010038B504469DF81050BB
:102DF0009DF8140084F8541084F8580084F8552085
:102E000084F8563084F85750012103F0B9FD94F846
:102E100057000121BDE8384003F0B2BD10B55B4A50
:102E20000C46A0B00A21042001F014F814F03F046D
:102E300000F0A980224656496846013C06F004FC91
:102E40002D2C00F29380DFE804F0171B1F23272BA3
:102E50002F9133373B913F439147914B4F53919182
:102E600091919191919191919191919157915B5FF4
:102E70006391676B6F797D8700F054FF45496EE081
:102E800000F050FF44496AE000F04CFF434966E01F
:102E900000F048FF424962E000F044FF41495EE033
:102EA00000F040FF40495AE000F03CFF3F4956E047
:102EB00000F038FF3E4952E000F034FF3D494EE05B
:102EC00000F030FF3C494AE000F02CFF3B493CE079
:102ED00000F028FF3A4942E000F024FF39493EE083
:102EE00000F020FF38493AE000F01CFF374936E097
:102EF00000F018FF364932E000F014FF35492EE0AB
:102F000000F010FF34492AE000F00CFF334926E0BE
:102F100000F008FF324922E000F004FF314906E0EA
:102F200000F000FF304902E000F0FCFE2F49684647
:102F300006F0B0FB0A210246032020E000F0F2FE7A
:102F40002B490CE000F0EEFE2A49684606F0A2FB91
:102F50000A210246022012E000F0E4FE26496846FB
:102F600006F098FB0A210246012008E000F0DAFE94
:102F70002249684606F08EFB0A210246002000F036
:102F800069FF002000E0012020B010BD12FB00000E
:102F900023FB000038FB000040FB00004AFB000060
:102FA00057FB00007DFB00008BFB0000A2FB000034
:102FB000C4FB0000D7FB0000F9FB00000BFC000085
:102FC00017FC000030FC000042FC000058FC000030
:102FD0006AFC00007FFC000094FC0000A9FC0000DB
:102FE000BFFC0000D6FC0000EFFC000007FD000065
:102FF0001CFD00003DFD00004AFD000056FD0000E4
:103000001FB50446002190F8570003F099FC0220F8
:1030100003F006FD124A0A21042000F01BFF0220E3
:10302000FFF7C4FE0020FFF7C1FE04AB0D4A03F812
:10303000010D0A2100930420012300F0C3FF0121A8
:1030400094F8570003F07CFC4FF4FA63013BFDD188
:103050009DF80F00431E5842584104B010BD00BFF8
:1030600069FD000085FD000070B506466524304608
:10307000FFF7C6FF054670B9013CA4B23CB900F0A9
:1030800051FE064A0A21012000F0E4FE03E00A2076
:1030900003F0C6FCEBE7284670BD00BF95FD0000BD
:1030A000F8B50F460646002190F85700144603F085
:1030B00047FC022003F0B4FC0D4A0A21042000F072
:1030C000C9FE0120FFF772FE013C7D1E3C44A54273
:1030D00004D015F8010FFFF769FEF8E7012196F813
:1030E000570003F02DFC4FF4FA63013BFDD1F8BD0E
:1030F000ACFD0000F0B5054689B03A4A3A4C0A21C9
:10310000042000F0A7FE012195F8580003F018FCF8
:103110000A2003F085FC002195F8580003F010FC0C
:103120004FF4C87003F07CFC012195F8580003F0BF
:1031300007FC0A2003F074FC95F8557095F856606A
:1031400095F85410204601F0EBF83946204601F07E
:103150009DF83146204601F04BF8204601F00CF86E
:10316000E37AF3B172B6E37AD90705D51F4AE3686B
:1031700011680B40A3611360E37A1B499A0705D5D8
:103180001B4A0B6910680340CB611360E37A164950
:103190005B0705D5174A4B69106803400B62136043
:1031A00062B62368144AD968914207D0134919605E
:1031B000DA6002F180421A61114A1A6003AC1422EB
:1031C0005521204603F02AFB214628461422FFF70A
:1031D00067FF009414230B4A0A21042000F0F2FE3A
:1031E00009B0F0BDCCFD00003807FF1F80E100E012
:1031F00084E100E088E100E00540003901403F0043
:1032000000003F80D2FD000030B59BB0FF248DF858
:103210000E40541C8DF80F40D44300238DF810400D
:10322000D4248DF80C308DF80D308DF81140DCB2BF
:10323000A24205D903AC1C44CD5CA5710133F6E76D
:103240000025911D2B46ECB28C4205F1010507DAF1
:103250000DF1680E744414F85C4C2344DBB2F2E7C1
:103260001AAC2144DB4301F85C3C1AAB02F10804C0
:103270001A4403AD002302F8553C2946E2B2FFF799
:103280000FFF0095A3B2034A0A21042000F09AFE22
:103290001BB030BDE6FD00002DE9F0410746884631
:1032A0001446FFF7E1FE064638B3002197F85700B1
:1032B00003F046FB022003F0B3FB114A0A2104206D
:1032C00000F0C8FD0320FFF771FD013C08F1FF3558
:1032D0004444A54208D0012003F0A2FB0020FFF7E0
:1032E00065FD05F8010FF4E7012197F8570003F099
:1032F00027FB4FF4FA63013BFDD13046BDE8F08176
:10330000EFFD000030B5144B87B0044604AD1868DB
:1033100002909B88ADF80C30204606222946FFF724
:10332000BBFF0446A0B10D4A00950A2104200623E4
:1033300000F048FE062202A9284605F09BFE38B19F
:1033400000F0F0FC064A0A21012000F083FD002471
:10335000204607B030BD00BF0CFB00000CFE000093
:1033600015FE000010B50446FFF74EFF2046BDE8ED
:103370001040FFF7C7BFFFFFF0B5531F4B2B97B0AF
:103380000D46174603D900F0CDFC314A2BE002AEC2
:103390003146FFF781FF002857D032460021381F01
:1033A000884207DD12F8013B13B91478FF2C22D0B4
:1033B0000131F5E70024274D0AE016AB1A4412F854
:1033C000503C254ADB43DBB29D4214BF1546002525
:1033D00000963B46214A0A21042000F0F3FD45B146
:1033E00000F0A0FC2A4601200A2100F033FD002055
:1033F0002BE0E0B229E016AA0A4412F84E4C12F86B
:103400004D2C2244B2F5807F1DD14A1D22449742A3
:1034100015DB0A1D9C4205DD581830440079E8543C
:103420000133F7E7224464B12B78D52B09D100256D
:103430009142C2DA735C1D44EDB20131F8E7084DE8
:10344000C6E7084DC4E7084DC2E717B0F0BD00BF9E
:10345000F7FE00002BFE0000D6FE000012FF000069
:1034600071FE0000A8FE000049FE00002DE9F843AF
:10347000044625460420894690460A21174A1F46DD
:1034800000F0E8FC022305F8043F0122294620460B
:10349000FFF768FF0646E8B10D2229462046FFF7F0
:1034A0006BFF062802D16379032B08D000F03AFCA9
:1034B0000B4A0A21012000F0CDFC00260AE0A37986
:1034C00089F80030E37988F80030237A3B70089B54
:1034D000627A1A703046BDE8F88300BF1CFF000016
:1034E0002FFF000070B5144A04460A21042000F0A2
:1034F000B1FC261D142201232271A2716371E371B4
:10350000042231462046FFF72DFF054688B10922E7
:1035100031462046FFF730FF022802D16379152B90
:1035200007D000F0FFFB054A0A21012000F092FCC1
:103530000025284670BD00BF49FF000053FF000072
:1035400070B5154A04460A21042000F083FC32239A
:103550002371FF23A37101230522E371261D032399
:103560006271237231462046FFF7FCFE054688B1A2
:10357000092231462046FFF7FFFE022802D1637977
:10358000332B07D000F0CEFB044A0A21012000F0C3
:1035900061FC0025284670BD64FF000080FF00002C
:1035A00070B5144A04460A21042000F053FC32236B
:1035B000237101236371261D0023A3710322314669
:1035C0002046FFF7CFFE054688B109223146204646
:1035D000FFF7D2FE022802D16379332B07D000F027
:1035E000A1FB054A0A21012000F034FC00252846F1
:1035F00070BD00BFA3FF0000B4FF00002DE9F0473D
:1036000004460E46994696B017460A21474A0420BA
:1036100000F020FC00234A223B70251D89F8003071
:1036200033607360227101226271A3710322294603
:103630002046FFF797FE8046002872D01C222946BC
:103640002046FFF799FE022802D963794B2B09D057
:1036500000F068FB364A0A21012000F0FBFB4FF026
:1036600000085EE0A579334A2B460A21042000F0C9
:1036700027FC012D55D1E57A042D08D0072D06D061
:103680002B462C4A0A21022000F01AFC49E004F1E2
:103690000C012A46304603F027F83D70277A637AFA
:1036A000A47A072D43EA072709D13378802B13D05A
:1036B000B7F5517F10D1202C0ED101230AE0042D43
:1036C0000AD13378802B07D1B7F5417F04D1202C64
:1036D00002D1032389F8003004210A2000F018FBEE
:1036E0008246F0B12B46144A00960A21042000F0CD
:1036F00069FC23463A46114902A805F0A5FF99F84E
:103700000030012B01D10E4902E0032B03D10D49FA
:1037100002A805F0BFFF02AA0A21042000F09AFBCC
:10372000D046404616B0BDE8F08700BFF301010067
:10373000E7FF0000020001000F0001001900010076
:10374000400001005300010070B500249C4205DADE
:103750000E5D155D754005550134F7E770BD30B558
:1037600001380C46631A9A4206DD14F8015B10F822
:10377000013F6B400370F5E730BD38B5541E0D4670
:103780002246013102F0B0FF2A78025538BD10B54B
:10379000034601391A1A914208DD1A7813F8014FCD
:1037A000520042EAD41203F8012CF3E7435C5B00B9
:1037B000435410BD37B5094B094C1B680193019B5D
:1037C0000246151AA94206DD02F8013B634303F5E0
:1037D00083432733F5E703B030BD00BFA821FF1FA7
:1037E0001DF3010030B503461C1AA14212DD13F887
:1037F000014B6240082402F0010552083DB182F0FD
:103800006D4282F4380282F4034282F02002013CCD
:10381000F1D1E9E7104630BD38B514464FF0FF321C
:103820001D46FFF7DFFF294602462046BDE8384027
:10383000FFF7D8BF30B52F4A2F4C99B00B2103208A
:1038400000F008FB00232D482370FFF753FC0DF117
:103850000F0300930DF10D020DF10E0303A927488C
:10386000FFF704FE002835D09DF80E109DF80D30AE
:103870009DF80C20009104A8214905F0E5FE04AA5A
:103880000B21042000F0E6FA9DF80F501D491E4858
:1038900015F0010F14BF0A46024615F0020F14BFBF
:1038A0000B46034615F0040F08BF0146009104A81B
:1038B000164905F0C9FE042004AA0B2100F0CAFA3B
:1038C0000E48FFF73DFE28B10C48FFF70BFE08B18C
:1038D0000123237023782BB900F024FA0C4A0B2122
:1038E000012002E00B4A0B21032000F0B3FA19B0CB
:1038F00030BD00BFEF000100601DFF1F6014FF1FFF
:103900000B010100E8000100EC00010032010100A0
:10391000660101007A01010010B50B210446104A2E
:10392000042000F097FA00210E48FFF763F9A0B1D8
:10393000224600210B48FFF729F970B12378102B9C
:1039400011BF094A094A074800211CBF0021A2F102
:103950005C00BDE81040FEF707BE002010BD00BFB0
:10396000880101006014FF1FBC14FF1F881BFF1F8C
:1039700030B5224A85B00B21042000F06BFA204BB1
:103980001C784CB900F0CEF91E4A0B21022000F041
:1039900061FAFFF74FFF2DE000250DF1070301AAA3
:1039A00002A919480195FFF729FE044628B900F03D
:1039B000B9F9164A0B21012009E09DF80730012BC7
:1039C0009DF8043006D133B1114A0B21042000F0D8
:1039D00041FA0FE033B90F4A0B21042000F03AFA04
:1039E000002407E000F09EF90B4A0B21022000F0B2
:1039F00031FA2C46204605B030BD00BF99010100C8
:103A0000601DFF1FAB0101006014FF1FE0010100FA
:103A1000070201001F0201003602010008B5074835
:103A2000FFF7BCF940B900F07DF9054A0B210220EF
:103A3000BDE8084000F00EBA08BD00BF6014FF1FCB
:103A40004D0201002DE9F041324A88B007460E468A
:103A500004200B2100F0FEF900212F48FFF7CAF8DF
:103A6000044618B900F05EF92C4A0AE00DF10F0285
:103A700000212948FFF78AF8044638B900F052F9C6
:103A8000274A0B21012000F0E5F93FE09DF80F30B7
:103A9000244A0B21042000F013FA9DF80F80B8F19E
:103AA000100F08D000F03EF91F4A0B21012000F052
:103AB000D1F900242AE01D491748FFF79BF8044676
:103AC00018B900F02FF91A4ADBE71A4A1248002108
:103AD000FEF74AFD044618B900F024F9164AD0E76B
:103AE000002204AD0095434611460B48FFF7B6F897
:103AF000044618B900F016F9104AC2E72B4603CB6A
:103B000006AB3860796003CB30607160204608B046
:103B1000BDE8F081650201006014FF1F7A02010018
:103B200093020100AE020100C80201001F40AA007A
:103B3000E6020100641DFF1FF70201000E030100F1
:103B400037B51A4A0B21042000F084F90DF1070063
:103B5000FFF7E2FE044638B900F0E4F8144A0B21FE
:103B6000012000F077F91EE09DF80730102B1AD0E5
:103B70000023104A10481946FEF7E6FE054618B91C
:103B800000F0D0F80D4A09E00A4A0B480021FEF780
:103B9000EBFC054638B900F0C5F8094A0B210120B5
:103BA00000F058F92C46204603B030BDC104010096
:103BB0004B040100881BFF1F6014FF1FCF0401008E
:103BC000A404010070B50F4D0F4C104E2846FFF7AE
:103BD00095F828460E4D0F49224604F0C3FA2846B0
:103BE000FEF774F828460C4D2246314604F0BAFA26
:103BF0002846FEF76BF8224631462846BDE870405D
:103C000004F0B0BA6014FF1FF806FF1F5917000038
:103C1000881BFF1F793C0000641DFF1F07B5104A79
:103C20000B21042000F016F9162206238DE80C0063
:103C30001421152305220B48FFF7D6F8FFF7FAFDEC
:103C40001023182208490948FEF76CF8084909486A
:103C50001023182203B05DF804EBFEF763B800BF31
:103C6000E00401006014FF1FEA040100881BFF1F2D
:103C7000D0000100641DFF1F0C4B10B5044603600B
:103C800000F59960FDF768FD04F58E60FDF76AFBAD
:103C900004F20C40FDF766FB04F50D70FDF75CFDCA
:103CA00004F15C00FDF758FD204610BD2CF100002A
:103CB00070B5044608460D4605F082FD23680246AD
:103CC000294620465B68BDE87040184703681B68BA
:103CD000184708B5FFF7ECFF08BD0368C9B21B68B9
:103CE0001847FFFF10B5054B054A19780023DCB2D1
:103CF000A14202D998540133F9E710BDFC06FF1F19
:103D00003C1FFF1F014B1954704700BF3C1FFF1F92
:103D1000034B185C884234BF00200120704700BF6D
:103D20003C1FFF1F024A136801331360704700BF36
:103D30005C1FFF1F08B50420FFF7D4FF014B0022D2
:103D40001A6008BD5C1FFF1F30B58FB004460D46DA
:103D5000FCF7AEFCA0B103A8FCF7B0FC4FF47A70FE
:103D60000599B1FBF0F101919DF8111000919DF8BA
:103D700010309DF80F201A4906A805F065FC07E0F1
:103D8000184B19491B680393039A06A805F05CFCBD
:103D900006A91648FFF78CFF052C10D8DFE804F0C1
:103DA000030507090B0D12490AE0124908E0124900
:103DB00006E0124904E0124902E0124900E012490B
:103DC0000A48FFF775FF2B46104A0B2106A805F09D
:103DD000EDFB06A90548FFF76BFF0FB030BD00BF34
:103DE00044050100A821FF1F60050100C008FF1F56
:103DF00066050100710501007C05010087050100D1
:103E0000920501009D050100A8050100B305010010
:103E1000052810B5144604D9FFF784FF0C460A495B
:103E200002200A4B1B7883420DD3FFF78DFF2146FA
:103E30000748FFF73DFF0A210548FFF74EFFBDE8A1
:103E4000104003F04FBD10BDBA0501003C1FFF1F1D
:103E5000C008FF1F052810B514460DD9FFF762FFF3
:103E60000D2996BF114B124A53F821201149022007
:103E7000BDE81040FFF7CCBF0F4B5B5C834213D310
:103E80000D2996BF094B0A4953F82110FFF75CFF33
:103E900021460A48FFF70CFF0A210848FFF71DFFDB
:103EA000BDE8104003F01EBD10BD00BF04050100B9
:103EB0003C050100BA0501003C1FFF1FC008FF1FA1
:103EC000052838B515461C460DD9FFF72BFF0D29DF
:103ED00096BF164B164A53F8212016490220BDE81A
:103EE0003840FFF795BF144B5B5C83421DD30D290F
:103EF00096BF0E4B0E4953F82110FFF725FF2946B8
:103F00000E48FFF7D5FE0E490C48FFF7E2FE0023EE
:103F100021460A22094802F09BFB0A210748FFF7C5
:103F2000DCFEBDE8384003F0DDBC38BD040501000F
:103F30003C050100BA0501003C1FFF1FC008FF1F20
:103F4000A3D00000052838B515461C460DD9FFF74B
:103F5000E9FE0D2996BF154B154A53F82120154946
:103F60000220BDE83840FFF753BF134B5B5C834230
:103F70001BD30D2996BF0D4B0D4953F82110FFF7A8
:103F8000E3FE29460D48FFF793FE0D490B48FFF766
:103F9000A0FE21460948FFF78BFE0A210748FFF7DC
:103FA0009CFEBDE8384003F09DBC38BD040501000F
:103FB0003C050100BA0501003C1FFF1FC008FF1FA0
:103FC000A3D0000070B5052816461D46049C0DD9E7
:103FD000FFF7A8FE0D2996BF1B4B1C4A53F8212062
:103FE0001B490220BDE87040FFF712BF194B5B5C14
:103FF000834228D30D2996BF134B144953F821103F
:10400000FFF7A2FE31461448FFF752FE2021124866
:10401000FFF75CFE013D661E2C44A6420BD016F84D
:10402000011F0D480023102202F012FB20210A4834
:10403000FFF74CFEF1E70A210748FFF74EFEBDE807
:10404000704003F04FBC70BD040501003C05010049
:10405000BA0501003C1FFF1FC008FF1F83709DF8B9
:104060000030C370B1F5FA6F9DF80430037128BFBA
:10407000A1F5FA619DF80830437128BF89B2039B0E
:1040800001704270836070470A7802704A7842700B
:104090008A788270CA78C2700A7902714A7942714C
:1040A0008A6882607047FFFF244B3C220B4430B586
:1040B000B3FBF2F402FB14314171B4FBF2F102FBE9
:1040C0001142182402714FF46162B3FBF2F2B2FBA9
:1040D000F4F104FB1122C270194AB3FBF2F300227F
:1040E0009BB20270017811F003040CBF0122002280
:1040F00002F5B6759D4207DAC2F57E42933213444B
:1041000001319BB20170EDE701220E4D4270417802
:104110006A1812F8012C1CB9022904BF0132D2B26C
:1041200092B2934204D39B1A01319BB24170EEE7E5
:10413000013383700023836030BD00BF80BC92C711
:10414000805101003506010010B5FFF7ADFF10BD2D
:1041500081607047C38B1B0441BFC38BC1F308014F
:1041600003F47E43194358BFC1F30E01C183C38BCF
:104170009BB2C3827047FFFF436819685A6810B545
:104180000C6822430A600268154911601549D16024
:1041900001F18041116114491160417A134A5C18A0
:1041A0000C3194F82C4053F8211002EBC4046468DD
:1041B0002160017A5C1803EB8101247EC96902EB5E
:1041C000C40464682160817A581803EB810390F875
:1041D00040005B6C02EBC0025268136010BD00BF70
:1041E00001401F000110003800001F80A8080100D6
:1041F0004368234A9A4270B518D10B2904D1214C47
:10420000227822F0030210E0072906D11D4C227803
:1042100022F0030242F0010207E01C2906D1194CEA
:10422000227822F0030242F002022270427A1A44FB
:1042300092F82C40A14221D003F12B05002215F861
:10424000016F8E4217D119680D6859680D4210D060
:104250000D4901EBC4040025646825609C1894F89E
:104260002C4001EBC40102F10C04496853F82430DE
:104270000B60427270BD0132042AE0D170BD00BFF4
:1042800008070100A421FF1FA80801004368214A74
:104290009A4270B518D10C2904D11F4C227822F013
:1042A0000C0210E0082906D11B4C227822F00C02E7
:1042B00042F0040207E0272906D1174C227822F0A9
:1042C0000C0242F008022270027A1A44147EA142C3
:1042D0001FD003F11705002215F8016F8E4215D18A
:1042E00019680D6859680D420ED00C4901EBC404E1
:1042F0000025646825609C1803EB8203247EDB693B
:1043000001EBC40149680B60027270BD0132042ADE
:10431000E2D170BD08070100A421FF1FA808010019
:104320004368254A9A4230B518D10D2904D1234C4F
:10433000227822F0300210E00E2906D11F4C22789C
:1043400022F0300242F0100207E01B2906D11B4C7C
:10435000227822F0300242F020022270827A1A443F
:1043600092F84040A14226D093F840208A4209D0DA
:1043700093F841208A4207D093F842208A421AD10A
:10438000022202E0002200E0012219680D6859684B
:104390000D420FD00A4901EBC40400256468256072
:1043A0009C1803EB820394F840405B6C01EBC40162
:1043B00049680B60827230BD08070100A421FF1F0D
:1043C000A808010070B5036B1A79304B1A70C36AE4
:1043D0001A792F4B1A70026B12791A70826A04468E
:1043E000002A3FD04368D9688A4203D9521A8262B0
:1043F000012110E0C36A511E1868FFF7ABFE236B62
:10440000A16A1868FFF7A6FEA16A002311F1FF3127
:1044100018BF0121A362E36A1B68186804F1240233
:104420009042226805D1D36894F8243043F00043C9
:104430000EE0D06810F0804F186815BF1D681D6829
:104440000088007814BF023501351D6040F000433C
:104450005363236B1A790F4B1A70A9B1E26A127970
:104460001A7070BD03680C491A63D962D96821F0CB
:104470008041D960032380F82530406B03681146E2
:104480001B68BDE87040184770BD00BF1F8000402A
:104490001C8000401B80004000000FFF08B5024850
:1044A000FFF790FF08BD00BF0007FF1F08B50248D7
:1044B000FFF788FF08BD00BF3807FF1F054A40F21D
:1044C00043434FF48861136053609160D36013617C
:1044D0005361704700D00440054A40F203130021A5
:1044E000136053609160D36013615361704700BFE4
:1044F00000D004400E4A116821F0080310B5136083
:104500000C4B0B40184340F460200B4910604FF4F3
:1045100080130C68240701D4013BFAD140F0080055
:104520001060064A136843F48013136010BD00BF87
:104530002C100B400700F0FF24100B4030100B40F4
:104540001E4A136843F0800310B513601C4B1C46D1
:104550001968C907FCD421688907F9D4194B186078
:104560004FF0807014681849144B2140013811B97C
:104570000028F7D102E008B1012907D0136843F4FD
:10458000702343F001031360012010BD1A68120666
:1045900005D51A6842F001121A60032010BD186890
:1045A0001A6810F4803017BF42F0011242F0010285
:1045B00005201A6008BF1A6010BD00BF30100B4004
:1045C00024100B400C100B4001000E00F8B50A4DF2
:1045D0000A4F642400262E600948FFF7B1FF013C12
:1045E00005D03B685B0705D50028F4D0F8BD00284E
:1045F00008BF0520F8BD00BF08100B4024100B4079
:104600000000DB0C70B5084D002306462B60074800
:10461000FFF796FF38B9064C064823682E60FFF76F
:104620008FFF00B9236870BD08100B4000001A37D7
:1046300010100B4000000229074B1A783AB99A78FB
:104640003AB15B78002B0CBF02200320704700209A
:1046500070470120704700BF601FFF1F9B4A13680F
:1046600043F400332DE9F04713609368984C43F40A
:1046700000539360D36843F00203D360136943F09F
:1046800002031361934A136823F001031360FFF7D9
:1046900023FF914B2360236813F08073FBD18F4A73
:1046A0008F4E13608F4B4FF481321A602823336092
:1046B0008D4B4FF010121A6041F29000FFF71AFF75
:1046C0008A4A13689D07FCD1FFF7F8FE884A89499A
:1046D0004FF6FF731360884B19604FF4FA7321682B
:1046E00041F00061216021680901FCD4013BF6D151
:1046F0001168824C41F0800111607C4A126863604D
:1047000012F4803F14BF0020022020706370A37059
:10471000A360002840F0D880794F18463B60FFF72F
:104720000FFF50B9774D78482B684FF4D5733B6035
:10473000FFF706FF28B105280AD001202070BDE848
:10474000F0872B682B68B3F5D57FF6D10123637012
:104750000020FFF757FF0028EFD12B6813F4401F0C
:1047600020D06378DFF8A8A1002B684B0CBF4FF472
:10477000401999468046484608F10108FFF742FF74
:10478000002840F09E802B68002B02DBD045F2D140
:1047900006E05F4B984503D05A4B1B685B0001D481
:1047A0000023637000233B605A48DFF85491FFF701
:1047B000C7FE0028C1D12B68C9F800005648DFF8B1
:1047C0004481FFF7BDFE0028B7D1D8F80030D8F8F3
:1047D00000305248DFF824811B0C1B046360C9F8C9
:1047E0000030FFF7ADFE0028A7D14D4A4D481368B1
:1047F0001B0E88F803304C4B1B6813F4400F14D188
:104800001368116802680068890201F4406141EA96
:104810009252511CC0F3C2120232C3F3032301FAB5
:1048200002F2093B02FA03F307E0012388F80230A1
:104830000368C3F3152301339B02C8F8083063688B
:104840003B603A48DFF8B480DFF8B490FFF778FEB9
:1048500000287FF472AF2B6835482A4F4FF400735D
:10486000C9F80030FFF76CFE00287FF466AF3B68A4
:10487000D8F80430C9F800302E48FFF761FE002850
:104880007FF45BAF3B682C480223C9F80030FFF788
:1048900057FE00287FF451AF3B68336823F00603CE
:1048A0003360336843F002033360FFF715FE4FF4C3
:1048B0009070FFF71FFEFFF701FE98F80000BDE8BB
:1048C000F0870120BDE8F087BDE8F0873080044024
:1048D0002C100B4000D0004000800001C0100B40A5
:1048E00028100B4004100B4044100B4024100B40C8
:1048F00030100B40BB007F1134100B40601FFF1FB6
:1049000008100B4010100B4000001A080000304047
:10491000A08601000000090200001A030000090936
:1049200018100B4014100B401C100B4000001B070C
:1049300000001A1000001A3700001A0670B5384B34
:104940001A780546002A68D15B7803B94902354CCC
:1049500035484FF6FF732360344B4FF481321960B2
:1049600043F8042CFFF7ECFD002857D1304B3148B9
:10497000314A1B6805F1400305F51075216841F0C7
:10498000200611F4E00F266009D041F4E003254A27
:1049900043F020031360FFF719FE012036E00168A1
:1049A0000905FCD5116843F8401C116843F83C1C0C
:1049B000116843F8381C116843F8341C116843F837
:1049C000301C116843F82C1C116843F8281C11682E
:1049D00043F8241C116843F8201C116843F81C1C80
:1049E000116843F8181C116843F8141C116843F847
:1049F000101C116843F80C1C116843F8081C11685E
:104A000043F8041C4033AB42B8D1002023689B0715
:104A1000FCD5044B094A1A6070BD032070BD00BF6D
:104A2000601FFF1F30100B4010003A1108100B40A0
:104A300010100B4024100B4020100B4022000001EE
:104A4000F8B5294B1A780546002A4BD15B7803B993
:104A50004902264C26484FF6FF732360254B4FF43E
:104A60008132196043F8042CFFF76AFD00283AD11F
:104A7000214BDFF88CE01B6805F50076274623689C
:104A80001A4AD906FBD53B6813F4E00F06D0136829
:104A900043F4E00343F01003136016E005F1400215
:104AA00055F8043BCEF80030AA42F9D123680F49EB
:104AB00043F010032360206810F4E00009D00B6875
:104AC00043F4E00343F010030B60FFF77FFD012088
:104AD00001E0B242D3D123689B07FCD5034B074AC0
:104AE0001A60F8BD0320F8BD601FFF1F30100B4097
:104AF00000003A1808100B4010100B401200000183
:104B000020100B40084B1A6842F480621A604FF084
:104B10000042DA62FF225A63DA6A002AFCDA024BA8
:104B2000986BC0B2704700BF00C00240064B1A68C5
:104B300042F480621A604FF00042DA625863DA6A27
:104B4000002AFCDA704700BF00C00240F0B5002A1E
:104B5000134E144F14BF4FF060544FF064540022B2
:104B600036F8125097FBF5F5A94204D3190707D57B
:104B700044F0806404E0551C172DF7D02A46EFE777
:104B800009495B0751F8222007D522F47043120926
:104B900002F4706244F000741A4322430260F0BDD4
:104BA000D8060100008793039C07010010B5044656
:104BB000FFF7CCFF204610BD13B5144C052818D8BC
:104BC000DFE800F00303070B0F1300230122104955
:104BD00012E0002301220F490EE0002301220E49BA
:104BE0000AE0002301220D4906E0002301220C49BE
:104BF00002E00C490023012201A8FFF7D7FF019B27
:104C000009482360FFF7B8FA02B010BD701FFF1FFC
:104C100000366E0100127A0000093D00C0C62D006A
:104C200080841E00801A06000007FF1FC37A10B59B
:104C3000E3B172B6C37ADC0705D5134AC3681468BA
:104C4000234083611360C37A9A0705D50F4A03692D
:104C500014682340C3611360C37A5B0705D50C4A0F
:104C60004369146823400362136062B60368DA681C
:104C70008A4207D0074A1A60D960074A41F080414A
:104C800019611A6010BD00BF80E100E084E100E01E
:104C900088E100E001403F0000003F80C37A83B11B
:104CA000D90742BF074B82691A60C37A9A0742BF8D
:104CB000054BC2691A60C37A5B0742BF034B026AA5
:104CC0001A60704700E100E004E100E008E100E064
:104CD00008B50121007801F033FE044B1A7822B1A7
:104CE000002203481A70FFF7D9FF08BD741FFF1F89
:104CF0000007FF1F10B5084B1A78044632B901228D
:104D00001A70064B06481968FFF790FF20780021BB
:104D1000BDE8104001F014BE741FFF1F701FFF1F7D
:104D20000007FF1F37B50A4B1A680092009D1C460A
:104D3000FFF7E8FEFF2807D023680193019B5B1B68
:104D40008B42F5D3002000E0012003B030BD00BF4E
:104D5000A821FF1F70B50C464FF496711646054604
:104D6000FFF7E0FF44F04000FFF7E0FE182126FACD
:104D700001F0C0B2FFF7DAFE083911F1080FF6D1E1
:104D800024B1082C14BFFF20872000E09520FFF7F6
:104D9000CDFE0021FFF7B6FE0306687003D5013192
:104DA000B1F5807FF6D170BD2DE9F04300234C4E64
:104DB000027085B0837033680193044688461046BC
:104DC0000121019F01F0BCFD0121207801F0D8FDF7
:104DD0000121207801F0B4FD424A136843F4805366
:104DE00013600620FFF7E8FE3F4B40481968FFF7C5
:104DF0001DFF0A21FF20FFF799FE013911F0FF0185
:104E0000F8D13A48FFF74AFF2046FFF773FF002228
:104E100011462046FFF79EFF01280546607007D027
:104E200033680293029BDB1BB3F5FA6FEFD94EE0B8
:104E30004FF4D57208212046FFF78CFF430701D5B8
:104E4000A5700BE00421FFF75DFE013911F0FF01B1
:104E50006070F8D1AA283AD10223A370A378022B5C
:104E60000CBF4FF080494FF0000900223721204647
:104E7000FFF770FF4A4629212046FFF76BFF0246E5
:104E8000607038B133680393039BDB1BB3F5FA6F93
:104E9000EBD91CE0A378022B12D13A212046FFF770
:104EA00059FFA0B9FFF72EFE00F0C000C02804BFD4
:104EB0000323A370FFF726FEFFF724FEFFF722FE71
:104EC0002046FFF705FF4046FFF776FE03E0204649
:104ED000FFF7FEFE0025284605B0BDE8F08300BFC1
:104EE000A821FF1F3C800440701FFF1F0007FF1F09
:104EF00037B50D4B1A680092009C05461946FFF71E
:104F000001FEFF28687008D10B680193019B1B1BF1
:104F1000B3F5967FF3D9002003E0A0F1FE035842D9
:104F2000584103B030BD00BFA821FF1F2DE9F0415B
:104F30008378032B0E46044618BF4E021546FFF732
:104F4000D9FE324611212046FFF704FF002844D144
:104F50002046FFF7CDFF00283FD0234B234A2448AB
:104F6000186005F5FD765A63A91C5A6305F5FE78AD
:104F70005A639E4641450FD0DF6A17F0F00FFBD011
:104F8000CEF83420DEF8387001F8017C4FEA272C87
:104F900001F802CC0231EDE7134A05F5007517461A
:104FA000B542114B0AD9D36A13F0F00FFBD0BB6B9B
:104FB000191206F8021B06F8013CF1E70B4A1860CB
:104FC0005A63DA6A12F0F00FFBD0074B20469B6B56
:104FD000FFF77EFE0120BDE8F0812046FFF778FE56
:104FE0000020BDE8F08100BF00C00240FFFF00903C
:104FF00000041F80F8B51D4B064618684FF00045A9
:1050000040F4806018600024DD62184659639E46B3
:105010002946C56A002DFCDA1D68175D45F48065D8
:105020001D60D9625F63DEF82C50002DFBDA151984
:1050300002346F781D68B4F5007F45F480651D600B
:10504000D9625F63E5D1094BDA6A002AFCDAFF20F6
:10505000FFF76CFDFF20FFF769FDFFF753FD707050
:1050600000F01F00431F58425841F8BD00C00240E5
:1050700070B5044616460D4631B38378032B18BF2E
:105080004D02FFF737FE2A4618212046FFF762FE41
:105090000546C8B93246FE212046FFF7ABFF98B15E
:1050A0004FF416712046FFF73DFE68B12A460D21E8
:1050B0002046FFF74FFE38B9FFF724FD20B9204600
:1050C000FFF706FE012070BD2046FFF701FE00201D
:1050D00070BDFFFF014B024A1A607047701FFF1F2F
:1050E0000320003800207047704710B500F1080217
:1050F00004460121006A00F0F5FD40B1E3692BB9D7
:10510000A368E361637963F07F036371012010BDDD
:1051100070B50546FFF7E9FF08B9002070BD2A6A9F
:10512000AB68167C1479023B03FA06F653693344E4
:105130005E1E3CB1301900F01BFD0028EDD0013C93
:10514000E4B2F6E72B6A1A7C4FF400739340AA6925
:105150001344AB61012070BD10B50446006900F036
:10516000D7FC18B1207D024B03EB401010BD00BFEF
:10517000841FFF1F70B54B1E01F10A02202403F8A3
:10518000014F9342FBD1441E0022072514F8013F32
:105190000BB32E2B04D10A2D22D008220A25F5E7C5
:1051A000104E16F8010F10B18342FAD118E0954263
:1051B00017D3A3F121065D2E13D8A3F16106192E92
:1051C00002F1010098BF203B0A44C0B298BFDBB295
:1051D00013700246DAE70878203818BF012070BD46
:1051E000002070BDF707010038B5827904460D46EE
:1051F0000AB1002038BD91F82030102B06D10223CF
:1052000083714B8CC2615B0183610CE0202BF0D178
:1052100003238371496AC16100F11802284600F036
:10522000F5FC0028E5D0002301206071237525627C
:10523000A360E360236138BD2DE9F041002580467D
:105240000E46471E2C4617F8013F202B0CD0082D88
:1052500005D12E210F48FEF739FD0134E4B238782C
:1052600002F010FB0134E4B201350B2DEBD198F8BC
:105270000B3003F01803102B05D12F210548FEF742
:1052800025FD0134E4B2B44201D22021F6E7BDE8A5
:10529000F08100BFC008FF1F07B50A22B0FBF2F380
:1052A00003F1300102FB130330338DF8053001A800
:1052B00000238DF804108DF8063004F081FA0146C1
:1052C00001A802F06FFA03B05DF804FB38B50D4D8C
:1052D0004112044601F2BC71284601F0F4F92D2177
:1052E0002846FEF7F3FCC4F34310FFF7D5FF28462A
:1052F0002D21FEF7EBFC04F01F00BDE83840FFF75E
:10530000CBBF00BFC008FF1F38B50C4D0446C00A14
:10531000FFF7C2FF3A212846FEF7D8FCC4F3451038
:10532000FFF7BAFF28463A21FEF7D0FC04F01F0031
:105330004000BDE83840FFF7AFBF00BFC008FF1F07
:105340002DE9F84F89468179044619B94FF0FF30AD
:10535000BDE8F88F4179C907F8D5C7688169DFF8DA
:10536000E4A0DFF8E4B0C91B914228BF11460F4604
:105370008846B8F1000F34D0A279E168206A022A89
:10538000C1F308054FEA512202D1406A104418E0E7
:105390000679013E1640F6B25DB956B911B9E26917
:1053A000A26006E004F10802A16800F0FDFB0028FD
:1053B000CCD0226AA068117C52690238884010441F
:1053C0003044C5F5007662794645A8BF4646530687
:1053D00002D4B6F5007F07D1DAF80020904214D14C
:1053E00002E03846BDE8F88F002100F091FB00286C
:1053F000ACD0134B1D44A81909F1FF32854212D0DD
:1054000015F8011B02F8011FF8E7DBF800502A78B5
:10541000FE2A0FD101464846FFF790FAB0FA80F015
:105420004009002892D0E2683244B144E260C6EB01
:1054300008089EE701464A462846FFF777FDF0E751
:10544000841FFF1F7007FF1F801FFF1F37B5837961
:10545000012B044601D800200FE0C36801220DF1A2
:105460000701C3F34315FFF76BFF0128F3D1E3688E
:1054700003481F33E36000EB451003B030BD00BFAD
:10548000841FFF1FF8B5837904460E460BB9002030
:10549000F8BD82698A42FAD3022B01D01EB9A660F8
:1054A000E6600120F8BD236AE0681B7C421E03F120
:1054B0000901731ECA40CB409A4200D828B9E2695C
:1054C000A2601D4604F1080709E09B1AF9E73A4675
:1054D000A168206A00F068FB013D0028D7D0002DAC
:1054E000F5D1DDE738B58379054613B390F905307A
:1054F000002B1ADA0121FFF72FFE0446C8B1AB7961
:10550000012B9CBFAB69C361EB6943831B0C838296
:10551000094B1B682BB100F1160118309847238BFB
:1055200063826B7903F07F036B71BDE8384000F054
:10553000C7BA002038BD00BF781FFF1F10B5044652
:10554000FFF7D0FF10B10023A371012010BDFFFFB2
:10555000F7B58379012B04460D460BD142799207AA
:1055600008D582698A4205D3002A3FD0E668FFF752
:1055700089FF08B900203AE03DB9E169206A00F0EE
:105580000BFC0028F6D0E5611EE001AAA168206AA4
:1055900000F00AFB0028EDD0206A164B90F820702E
:1055A00001994FF6F872102F08BF134699420BD29B
:1055B00000F0F2FB0028DDD06FF07042A168206A95
:1055C00000F04CFB0028D5D06379A56163F07F0320
:1055D00063712046FFF786FF0028CBD0B5422946ED
:1055E000204628BF3146FFF74DFF00E0184603B0C4
:1055F000F0BD00BFF8FFFF0F38B51C4B03EB4113A4
:105600001546DA7A12F0110F044604D015F0420F55
:1056100001D0002038BD164A2175126822615A8BCC
:10562000998A42EA0141E161DA7A12F0180203D163
:10563000DB69A361012309E0102AEAD104F1180211
:10564000206A00F0E3FA0028E3D00423A37105F0F8
:105650000F03002163716B06A160E16004D5204651
:10566000BDE83840FFF774BF012038BD841FFF1F1D
:105670007007FF1F2DE9F043847985B00646884600
:105680001F46002C77D101A91046FFF773FD0028B3
:1056900071D0D8F82030DFF8F8903362C8F80840AD
:1056A000C8F80C40D8F80C50D8F818309D4221D2D8
:1056B0004046FFF7CBFEC5F34315014600285AD0FC
:1056C000037873B1E52B58D00B2201A803F0D2FC6C
:1056D0000028E7D107F03003302B4CD03A4629465A
:1056E00045E034B9D9F80030357533610B78002BBB
:1056F00045D1012407F01203122B3CD134B1012112
:105700003046FFF729FD044650B934E098F80630DA
:10571000022B30D04046FFF7FBFC60B334751A4CC7
:1057200020220021204601F079F801AB03CB206054
:1057300061601A889B78A372144B22811B682BB17D
:1057400004F10E0104F11000984706E021222274B2
:10575000A373282208236274E373238A638223835A
:10576000E389E38200F0ACF928B1317D3A46304656
:10577000FFF742FF05E0002003E0002CB2D0012437
:1057800090E705B0BDE8F083841FFF1F781FFF1F5F
:105790007007FF1FF8B51F46837904460D4616466D
:1057A000E3B907F03003302B18D00B6A03625101C4
:1057B0002846FFF767FE88B12846FFF747FE68B125
:1057C00003785BB1E52B09D02E2B07D03A4606F0C3
:1057D0000F012046BDE8F840FFF70EBF0020F8BDDE
:1057E0002DE9F047002311F0030F8AB005460E465D
:1057F00017468360C36014BF4FF00E08984601F04F
:1058000001092846FFF722FE0446002864D00378E9
:10581000002B61D0E52BF4D02E2BF2D0C37A03F00D
:10582000080303F0FF0A002BEBD14FFA8AF3BB42C7
:105830000AF1010A04DA20212948FEF747FAF4E7C1
:1058400041462046FFF7F8FCB9F1000F09D0208B44
:10585000FFF73CFD20212248FEF738FAE08AFFF7E7
:1058600053FDE37A03F01803102B01D0B2070AD4DA
:105870001B4800F0DDFE7307C3D5E37A03F018037D
:10588000102BBED10AE020211548FEF71FFA002395
:105890000A22E169124800F0DBFEE9E7EC68114AF0
:1058A00001926409013C0023A4B28DF808308DF800
:1058B0000A3022460123294601A8FFF76BFF28B1D1
:1058C000BA1CD2B2314601A8FFF78AFF611C490118
:1058D0002846FFF7D7FD94E70AB0BDE8F08700BF80
:1058E000C008FF1F100801002DE9F74F8379012B35
:1058F0000446884617460BD14379990708D55B07BC
:105900000AD5A169E3688B4206D0FFF7BBFD18B941
:10591000012323710020A9E0B946DFF86CA13BE028
:10592000206A0679013E06EA552616F0FF06C5F301
:10593000080536D0216AA268087C4969C5F500735C
:105940001FFA83FBD945A2F1020238BF1FFA89FB77
:1059500082400A44BBF5007F164448D1DAF80020A3
:10596000964204BF4FF0FF32CAF80020414A106847
:105970000278FE2A36D131464046FFF761F8B0FA88
:1059800080F040090028C3D008F50078E26802EBF7
:105990000B03CBEB0909E360E568B9F1000FBFD158
:1059A0004BE0002DC6D1A16819B9E36993B1A3609A
:1059B000C0E701AA00F0F8F8002857D0236A2E4863
:1059C00093F82010019A4FF6F873102918BF034678
:1059D0009A4205D32046FFF788FB0028AAD197E713
:1059E000A260A7E742463146FFF742FBCAE77DB90E
:1059F000E168A26991420BD300F062F8002887D0D9
:105A00001E49CAF800600A7842F001020A7006E0F6
:105A10000121304600F07CF800283FF479AF184BA4
:105A20001D4405EB0B004246854204D012F8011BD1
:105A300005F8011BF8E7D844A8E7A3699D426379FC
:105A400001D9A56103E00F4A12681AB117B163F0DA
:105A50007F03637163791A0701D4384606E0204654
:105A6000FFF740FD00283FF453AFF6E703B0BDE871
:105A7000F08F00BF801FFF1FF8FFFF0F8421FF1F63
:105A8000841FFF1F781FFF1F7007FF1F07B502ABA2
:105A9000012203F8011D1946FFF726FF03B05DF848
:105AA00004FB10B50478FE2C03D0BDE81040FFF7CE
:105AB000DFBA1046FEF7C4FFB0FA80F0400910BD0F
:105AC00070B50E4B1A781C46B2B10D4E0D4B0E4AF6
:105AD00019683068FFF7E5FF08B9002070BD0B4D6D
