:1000000000000220990100001D690000E96800005D
:10001000E9680000E9680000E9680000E96800009C
:10002000E9680000E9680000E96800001D69000057
:100030001D690000E9680000C165000085660000D8
:100040001D6900001D6900001D6900001D69000098
:100050001D6900001D6900001D6900001D69000088
:100060001D6900001D6900001D6900001D69000078
:100070001D6900001D6900001D6900001D69000068
:100080001D6900001D6900001D6900001D69000058
:100090001D6900001D6900001D6900001D69000048
:1000A0004D650000596500001D6900001D690000D4
:1000B0001D6900001D6900001D690000356D00000C
:1000C0001D690000997B00001D690000F97C00009B
:1000D0001D690000217E00001D6900001D690000EF
:1000E0001D6900001D6900001D6900001D690000F8
:1000F0001D6900001D6900001D6900001D690000E8
:100100001D6900001D6900001D6900001D690000D7
:100110001D690000097000001D6900001D690000D4
:100120001D6900001D6900001D6900001D690000B7
:100130001D6900001D6900001D6900001D690000A7
:100140001D6900001D690000497F00001D69000055
:10015000718000001D6900001D6900001D6900001C
:100160001D6900001D690000656500001D69000033
:100170001D6900001D6900001D6900001D69000067
:100180001D6900001D6900001D6900001D69000057
:100190001D6900001D690000584B4CF2205210B53B
:1001A0001A804DF628121A8000BF00BF06F0BAFB75
:1001B000534B4FF030621A60524A9A60524ADA60EA
:1001C000524B4FF470021A60514A136813F4807353
:1001D00001BF50490B604FF4A85313604E4B4F4979
:1001E0001A78100742BF1A7842F008021A704C4B76
:1001F0002A221A704B4A4C4B8B4204D252F8040FFD
:1002000043F8040BF8E7494B494A0021934202D2D4
:1002100043F8041BFAE7474A4748002350F82310E5
:1002200042F823100133662BF8D1444B444A802115
:1002300003F8011B9342FBD1424B3E4A1A60424BEA
:100240008A221A70A3F5805324225A70A0221A70B1
:100250009A799107FCD59A79D206FCD43B4A9379D6
:1002600003F00C03082B394BF9D103221A714622F3
:100270005A719A799406FCD534498A79334B5006E1
:10028000FBD5334A4FF08271116009215160202261
:100290001A709A7902F00C020C2AFAD12D4B2E4AD0
:1002A0001A602E4B2E4A1A6000225A60072243F829
:1002B000042C2C4AC3F80C2D62B606F009FC154B31
:1002C0001B68DA0705D5284806F06CFB274B284A3F
:1002D0001A60284B1B785B0609D5244C244B2268F6
:1002E0009A4204D1204806F05DFB0023236008F009
:1002F000F5FB06F01DFB06F032FAFEE70E20054086
:1003000030800440823F04000100002B88ED00E0B3
:1003100010D0034014D0034002D007402013FF1F29
:1003200000E00740B00E0100F806FF1F2013FF1F7A
:100330009880FF1F0002FF1F0000000000E400E0A3
:1003400056E400E008ED00E00050064000400640A2
:100350004480044004800440C010050014E000E024
:10036000BFD4010000002020E2DDB15C1CE00340AE
:10037000A5C3945A00F00740FFFFFFFFFFFFFFFFF8
:10038000FFFFFFFFFFFFFFFFFFFFFFFFFFFFFFFF7D
:10039000FFFFFFFFFFFFFFFFFFFFFFFFFFFFFFFF6D
:1003A000FFFFFFFFFFFFFFFFFFFFFFFFFFFFFFFF5D
:1003B000FFFFFFFFFFFFFFFFFFFFFFFFFFFFFFFF4D
:1003C000FFFFFFFFFFFFFFFFFFFFFFFFFFFFFFFF3D
:1003D000FFFFFFFFFFFFFFFFFFFFFFFFFFFFFFFF2D
:1003E000FFFFFFFFFFFFFFFFFFFFFFFFFFFFFFFF1D
:1003F000FFFFFFFFFFFFFFFFFFFFFFFFFFFFFFFF0D
:10040000FFFFFFFFFFFFFFFFFFFFFFFFDEF9FFFF23
:1004100010B5054C237833B9044B13B10448AFF33E
:1004200000800123237010BD2013FF1F0000000077
:10043000AC0E0100084B10B51BB108490848AFF3DA
:1004400000800848036803B910BD074B002BFBD0A0
:10045000BDE81040184700BF000000002413FF1F34
:10046000AC0E01002013FF1F000000007047704712
:1004700010B50C21044606F073FA204610BDFFFFAC
:10048000034B044800211C22197006F00BBA00BF70
:100490005813FF1F3C13FF1F064807494160002205
:1004A000012382600161426103730376034A0449B8
:1004B00007F09ABE3C13FF1F94CE0000F806FF1F02
:1004C0006F040000012105F0E7BE90F8383090F885
:1004D00039209A4281BF5A1C1B1880F83820187E98
:1004E00098BF4FF0FF307047031103EB830300F018
:1004F0000F0000EB4300C0B27047FFFF08B5024891
:1005000005F08EFD012008BDE007FF1F38B50F4C38
:100510000125D0230221204684F83B3084F85E5028
:1005200084F85D5005F032FD2046FFF7CBFF2B46E7
:100530002A466821204605F02BFF2046FFF7C5FF1D
:1005400000F0E000E03818BF012038BDE007FF1FD1
:100550002DE9FF47294C0646D023012503212046DB
:1005600084F83B3084F85E5084F85D5005F00EFD51
:100570002046FFF7A7FF2B4607226821204605F0FB
:1005800007FF2046FFF7A1FF00F07F00FFF7ACFF59
:1005900082462046FFF799FFC0B2FFF7A5FF8146CC
:1005A0002046FFF792FFC0B2FFF79EFF804620462D
:1005B000FFF78BFFC0B2FFF797FF07462046FFF714
:1005C00084FF2046FFF781FFC0B2FFF78DFF05468D
:1005D0002046FFF77AFFC0B2FFF786FF002300F541
:1005E000FA6103938DE800073B462A4689B23046FC
:1005F00003F060FD304604B0BDE8F087E007FF1F60
:100600001FB501AC2046FFF7A3FF06F02DFA084BFB
:100610009DF809105A7991421FBF064A106094E86C
:10062000070083E80700044B01221A7004B010BDD4
:100630005C13FF1F6C13FF1F6813FF1F7FB5154C62
:10064000154A002602210420267003F0B1FB134B4B
:1006500001AD1E70124B314628461E6003F0B8FDF6
:1006600095E807000F4B83E807000F48FFF746FFA8
:100670000D48FFF74BFF30B903F002FB0B4A022194
:10068000012003F095FBFFF7BBFF0123237004B0AB
:1006900070BD00BF6913FF1F9CCE00006813FF1FD1
:1006A0006C13FF1F5C13FF1F5913FF1FA7CE000021
:1006B000014B1878704700BF6913FF1F10B504463F
:1006C00006F0D2F90E4B19680E4B8842A0EB0101DF
:1006D00038BF01F1FF31994209D90B490B4803F0AA
:1006E0007BFDFFF78DFF2046FFF7E8FF06E0074898
:1006F00003F072FD0549204603F0F2FC204610BDD0
:100700006C13FF1F40420F003F420F005C13FF1F9E
:100710000021014803F05CBD5C13FF1F30B50C21C4
:100720008BB00420394A3A4C03F042FB002539498A
:100730002560012000F0D2FC18B903F0A1FA364A76
:1007400009E003AA1C21284600F020FD1B2807D839
:1007500003F096FA314A0C21012003F029FB52E004
:100760002F4A0C21032003F023FB039B2D4A0C216D
:10077000032003F053FB0499684603F029FD6B4600
:10078000294A0C21032003F0CBFB05AB274A8DF847
:1007900023500C21032003F083FB099B244A0C21E6
:1007A000032003F03BFB099B2360B3F5007F09D9CD
:1007B00003F066FA1F4A0C21022003F0F9FA4FF405
:1007C0000073236023681C4A03EB830103EB4101A0
:1007D000890089B21C2000F0D9FC22682C235343E5
:1007E000984209D203F04CFA144A0C21012003F07C
:1007F000DFFA074B00221A60114A0C21032003F094
:10080000D7FA00F0B3FC0BB030BD00BFD7CE00006C
:100810008413FF1FE7CE0000F3CE000008CF0000D6
:1008200024CF000055CF000066CF000077CF000036
:1008300088CF000099CF00009413FF1FD7CF00008E
:10084000EECF000010B5114C114A0C21042003F02A
:10085000AFFAFFF763FF23689BB903F011FA0D4A63
:100860000C21022003F0A4FAFFF758FF236843B9D4
:1008700003F006FA084A0C210120BDE8104003F0FD
:1008800097BA064B80221A7310BD00BF8413FF1F56
:100890000BD0000013D000003FD000007013FF1FEA
:1008A00070B50E4A0C210446042003F081FA0C4B6B
:1008B0000C491A682C250023934206D005FB03102F
:1008C0000668A64209D00133F6E703F0D9F9022001
:1008D000054A0C2103F06CFA002070BD5FD00000C7
:1008E0008413FF1F9413FF1F6DD0000010B50C463A
:1008F000FFF7D6FF48B1836AA34206D1074A0C210D
:10090000042003F055FA012010BD03F0B9F9044AA0
:100910000C21022003F04CFA002010BD90D0000002
:10092000ABD0000030B53A4A89B00C21042003F066
:100930003FFA3849012000F0D1FB044638B903F0F2
:100940009FF9354A0C21012003F032FA5CE000F0F7
:10095000ABFC324A03460C21042003F05FFA00F09E
:10096000A3FC00281ADC2E4A0C21032003F020FAF5
:1009700001A8FFF7A3FE01A803F0C2FB0025059024
:1009800001230C2104A80493069503F00DF904AA91
:1009900007901021284600F02DFC2CE0002000F0EC
:1009A00091FC04AA1021002000F0F0FB0F2805D8CC
:1009B00003F066F91B4A0C21012018E00C2104A861
:1009C00003F0F2F8079B184A05460C21042003F0B7
:1009D00025FA2B46154A0C21042003F01FFA079B29
:1009E0009D4208D003F04CF9114A0C21002003F07D
:1009F000DFF9002408E004AB03CB0E4A106018684E
:100A00005160906000F0B2FB204609B030BD00BFDD
:100A1000C7D00000E2D00000EED000000AD10000F4
:100A200022D1000053D1000071D1000087D1000015
:100A30009DD100008813FF1F1FB5164A0C2104200A
:100A400003F0B6F91449012000F048FB044638B918
:100A500003F016F9114A0C21012003F0A9F915E061
:100A60000F4A106851686B4603C3906818600C21E8
:100A7000684603F099F86A4603901021002000F0C0
:100A8000B9FB002000F01EFC00F070FB204604B013
:100A900010BD00BFC2D10000E2D00000EED00000C7
:100AA0008813FF1FF0B5314A89B00C21042003F0F0
:100AB0007FF92F49012000F011FB054638B903F0FA
:100AC000DFF82C4A0C21012003F072F94BE000F012
:100AD000EBFB294F294A03460C21042003F09EF921
:100AE000B868182601387043103000F0EBFBB86886
:100AF000013802AC704331462246103000F046FB0C
:100B000033461F4A00940C21042003F05DFA14219F
:100B1000204603F049F8079B1A4A06460C21042098
:100B200003F07CF93346184A0C21042003F076F9CF
:100B3000079B9E4208D003F0A3F8144A0C21002022
:100B400003F036F900250EE0114B06AE224603CA2B
:100B5000B24218605960144603F10803F6D11068D8
:100B6000186000F003FB284609B0F0BDDED100009C
:100B7000E2D00000EED000008813FF1F0AD1000071
:100B8000F7D1000071D1000087D100009DD1000095
:100B90007013FF1F70B5214A8AB00C21042003F0A6
:100BA00007F91F49012000F099FA044638B903F00B
:100BB00067F81C4A0C21012003F0FAF82AE01A4BCE
:100BC00004AA03F11006154618685968144603C4B0
:100BD0000833B3422246F7D1186820601421284612
:100BE00002F0E2FF114C09902946182000F048FB62
:100BF000002000F067FB00F0B9FAA36801A80133F8
:100C0000A360FFF75BFD01A803F07AFA6060FFF7CD
:100C100013FF044620460AB070BD00BF04D2000096
:100C2000E2D00000EED000007013FF1F8813FF1FFA
:100C3000F0B5234A87B00C21042003F0B9F821490C
:100C4000012000F04BFA054638B903F019F81E4AA6
:100C50000C21012003F0ACF82FE01C4B6A4603F195
:100C600010076C4618685968164603C60833BB421D
:100C70003246F7D1186830601421204602F094FF04
:100C8000134B0590986818210138484322461030CC
:100C900000F0B0FA002000F015FB0C4B224604AE29
:100CA000144603CCB44218605960224603F108038D
:100CB000F6D12068186000F059FA284607B0F0BD58
:100CC0001AD20000E2D00000EED000007013FF1F27
:100CD0008813FF1F2DE9FF411F4C80460F46164623
:100CE0000C211E4A04201D4603F062F8237B012BD1
:100CF00003D802F0C5FF1A4A05E0FFF713FE40B91A
:100D000002F0BEFF174A01200C2103F051F8002029
:100D10001FE0154B9B6823B923706370A370E370C9
:100D200006E0FFF7BFFE0028EAD023680133236006
:100D3000002301A82373C4F808806773C4F80E6009
:100D40006582FFF7BBFC01A803F0DAF96060FFF7EA
:100D500021FF04B0BDE8F0817013FF1F34D2000002
:100D60004AD200008ED200008813FF1F30B5194A06
:100D700085B00C21042003F01BF8FFF793FE044616
:100D800028B902F07DFF144A0C2101201DE0134C0C
:100D9000237B43B102F074FF114A0C21012003F0C0
:100DA00007F8002413E001A801252573FFF786FC4E
:100DB00001A803F0A5F96060FFF73AFF044630B9D7
:100DC00002F05EFF074A0C21284602F0F1FF2046A0
:100DD00005B030BDBFD20000D6D200007013FF1F97
:100DE000F2D2000025D3000030B51A4A85B00C219C
:100DF000042002F0DDFFFFF755FE044628B902F09B
:100E00003FFF154A0C2101201EE0144C257B012DCB
:100E100008D002F035FF124A0C21012002F0C8FF71
:100E2000002413E0032301A82373FFF747FC01A864
:100E300003F066F96060FFF7FBFE044630B902F08C
:100E40001FFF084A0C21284602F0B2FF204605B0D9
:100E500030BD00BF42D30000D6D200007013FF1F88
:100E60005AD3000025D3000038B5012204460D46B0
:100E700004F0FAFF024628B929462046BDE838406A
:100E800004F0F2BF012038BD0421F8B5344A354FD3
:100E9000354C364D084602F08BFF00233B70237023
:100EA000FE232B7003F01EFC064603F009FCA8701D
:100EB0001EB102F0E5FE2E4A07E029462D48FFF755
:100EC000D3FF38B902F0DCFE2B4A0421012002F0E6
:100ED0006FFF14E02749294804F0CAF904210123CF
:100EE00008463B7002F0C2FE48B104210846244A7D
:100EF00002F05EFF32460721204804F0B5FC0F22C5
:100F00000121204803F094FF18B902F0B9FE1E4AEF
:100F100007E01C491D48FFF7A7FF40B902F0B0FEEB
:100F20001B4A04210120BDE8F84002F041BF1749E7
:100F3000184804F09DF9042101230846237002F0AB
:100F400095FE58B104210846134A02F031FF0022F1
:100F500007211048BDE8F84004F086BCF8BD00BF8A
:100F60008ED30000E46BFF1F306CFF1F316CFF1F3E
:100F700096D30000946BFF1FB9D300000C6CFF1FC9
:100F8000EBD30000346CFF1F08D40000BC6BFF1FC4
:100F90002BD40000E86BFF1F5DD400000A790271BA
:100FA0004A7942718A7982718A688260CA68C260AD
:100FB0000A6902610A7D02758A698261CA69C26131
:100FC0000A6A02627047FFFF30B504218FB0054600
:100FD000394A084602F0ECFE384B0593384B9B79B2
:100FE0000024012B8DF818408DF81A4005D802F026
:100FF00047FE344A042102203DE02B5D2F2B19D0FF
:101000008BB904210846304A02F0D2FE042108467A
:101010002A4602F0CDFE13232A46294905A804F0EA
:101020006DFB60BB22E00134102CE6D102F028FEFB
:10103000264A1EE02246294601A805F099FB0EAB80
:1010400053FA84F30421002203F8342C0846204A82
:1010500002F0AEFE0421084601AA02F0A9FE012317
:1010600001AA174905A804F049FBB0B902F008FE2F
:10107000184A0421012002F09BFE00201AE01048CB
:1010800004F0A0FA18B902F0FBFD134AF1E705A934
:101090000B48FFF783FF01200CE0094804F092FAA7
:1010A0000028F0D005A90648FFF778FF601C284407
:1010B000FFF78AFF0FB030BD7AD40000DC080100D2
:1010C000386CFF1F87D40000B4D40000E8D40000BF
:1010D00008D50000BED40000D3D4000038B50D46BA
:1010E00004210446184A084602F062FE174804F03C
:1010F00069FA012C0AD1164B1B782BB902F0C0FDFE
:10110000144A042102201AE013490BE0022C11D1E9
:10111000124B1B782BB902F0B3FD114A0421204673
:101120000DE010490948FFF739FF2846BDE838406F
:10113000FFF74ABF02F0A4FD0B4A0421012002F090
:1011400037FE002038BD00BF1DD50000386CFF1FE2
:10115000E46BFF1F26D500000C6CFF1F306CFF1FD7
:1011600051D50000E86BFF1F7CD5000008B50421B5
:101170000846044A02F01CFE0348BDE8084004F09B
:1011800021BA00BF93D50000386CFF1F2DE9F04154
:101190000F46144C0421064690460846124A02F0B7
:1011A00007FEA579012D11D13146204604F0AEF994
:1011B00028B902F065FD0D4A042128460BE03A46A5
:1011C00041462046BDE8F04104F0FEB802F058FD6B
:1011D000074A0421012002F0EBFD4FF0FF30BDE88B
:1011E000F08100BF386CFF1FA9D50000B2D5000008
:1011F000C6D500002DE9F0410F461B4E04210446E0
:1012000090460846194A02F0D3FDB579012D20D148
:101210002146304604F07AF918B902F031FD144A3B
:1012200011E03A464146304604F0A2FB041E03DAC0
:1012300002F026FD0F4A06E0304604F097F928B97F
:1012400002F01EFD0C4A0421284607E02046BDE8B6
:10125000F08102F015FD094A0421012002F0A8FDE9
:101260004FF0FF30BDE8F081386CFF1FE8D500007B
:10127000B2D50000F2D5000006D60000C6D50000A9
:1012800038B50D4604210446054A084602F090FD93
:10129000044B2A4621469869BDE83840FFF7AABFAB
:1012A00021D60000386CFF1F08B504210846034A08
:1012B00002F07EFD024B986908BD00BF2CD60000ED
:1012C000386CFF1F30B5C3B002AC22464FF48071BA
:1012D0000546FFF75BFF38B902F0D2FC0E4A042145
:1012E000012002F065FD14E0042108462B460B4A5C
:1012F00002F094FD0A4B0B4A9B690421084602F058
:101300008DFD042100944FF48073074A084602F0D3
:101310005BFE43B030BD00BF34D6000049D60000AC
:10132000386CFF1F57D6000065D600000D4A002319
:1013300093700D4A93700D4A0221116082F820309B
:101340000B4A116082F820300A4A0B491371116070
:1013500093710A4A137111609371094A13711160F4
:1013600093717047316CFF1F346CFF1F946BFF1F2C
:10137000BC6BFF1F0C6CFF1FDC080100E86BFF1F3C
:10138000386CFF1F10B502F083FC042002F058FCFB
:101390000421002002F064FC03210A2002F060FC1A
:1013A0000321082002F05CFC0321092002F058FC14
:1013B0000321052002F054FC1F4C03210E2002F0F3
:1013C0004FFC41F2883005F06DFB224600210320DE
:1013D00002F0EEFC194A0021032002F0E9FC184A51
:1013E0000021032002F0E4FC164A0021032002F051
:1013F000DFFC22460021032002F0DAFC124A002121
:10140000032002F0D5FC114A0021032002F0D0FC99
:10141000FFF714F9FFF738FDFFF714FA00F09EF814
:10142000FFF72EF802F076FB094A00210320BDE801
:10143000104002F0BDBC00BF73D600009AD6000079
:10144000C1D60000E8D600005DFF00000FD7000005
:1014500023D70000F7B502F049FA0146002857D01B
:10146000324D334E334A0021042002F0A1FC2946BC
:10147000304602F0A5FA0146002847D02E4A002146
:10148000042002F095FC08232C4A00960021042039
:1014900002F09AFD08232A4A00950021042002F058
:1014A00093FD00231C461F460A22F15C02FB07172E
:1014B000E95C0133082B02FB0414F6D13B46214AB8
:1014C0000021042002F0AAFC23461F4A0021042028
:1014D00002F0A4FC39462046FFF708FA054678B129
:1014E0001A4A0021032002F063FC03239622022102
:1014F0002046FFF7EFFBFFF739FCFFF775FC0BE029
:1015000002F0BEFB124A2946022003E0114A00E025
:10151000114A042002F04CFC02F03EFA40F6B830CA
:1015200003B0BDE8F04005F0BDBA00BF646CFF1F1A
:101530005C6CFF1F43D7000050D7000063D700004A
:1015400077D700008BD700009AD70000A9D70000FA
:10155000C7D70000ECD7000001D8000008B5094A41
:101560000521042002F024FC46F2A81005F018FB27
:10157000A42005F08BFB044A00231370034A137068
:1015800008BD00BF27D80000786CFF1F6C6CFF1FE0
:10159000024A00231370024A13707047786CFF1FD1
:1015A0006C6CFF1F704710B55821044605F0D8F940
:1015B000204610BD0F2A38B504461D4617DD00F140
:1015C000140201F1100351F8040B42F8040B994284
:1015D000F9D1226B0021201D05F064F91023E3628C
:1015E00084F83450802384F83530012038BD002041
:1015F00038BD40F3C01303F01B0383EA4000C0B2C0
:101600007047FFFF2DE9F04F044685B042B901F164
:101610000F03029304F10F030027B24E019382E0FF
:10162000B04DB14F002001F10F0E4B7BEE5C0B78FB
:101630005E40C35D73400B708B7BEE5C4B787340F8
:101640004B70CB7BEE5C8B7873408B700B7BEE5CCE
:10165000CB785E400B4603F8036F13F801CF13F805
:10166000046C73458CEA06061E70F6D101300A2818
:10167000DBD1631E4D1E04F10F0613F8017F15F830
:10168000010FB34280EA07001870F6D1BFE7DD789A
:1016900013F8010D454099421D71F8D14B7BF35C65
:1016A0005840914BDB1B5B7A58408B7B0870F05C99
:1016B0004B7843404B70CB7BF05C8B7843408B7016
:1016C0000B7BF05CCB784340CB70002F57D1607A16
:1016D000637B60736079607260786071A07AA578CE
:1016E0006370A070A37BE079A572A579A371E378FC
:1016F000E070E07AE071E07BA573E373E072631E53
:1017000001F1FF3C13F8010F784D15F800E01CF8CB
:10171000010F8EEA0000187001988342F2D1013760
:101720000A2F00F0CF8012B101F10C03AFE7631E66
:101730004D1E13F801EF15F8010F8EEA0000305C22
:10174000187001988342F4D1607963786070607A90
:101750006071607B6072A078A57A6373A072A379D0
:10176000E07AA570A57BA373E37BE073E079E07278
:10177000E078A571E071E3700FB1092F7FD00023ED
:10178000009342E06B1C05F1020A05F1030914F80D
:1017900005B0E05C14F809E014F80A80039388EAC5
:1017A0000E088BEA000080EA0808FFF722FF8BEAA8
:1017B000080E80EA0E006055039B14F80A00E55CF1
:1017C0006840FFF716FF88EA0505039B6840E05470
:1017D00014F80A5014F809006840FFF70AFF88EA75
:1017E0000505684004F80A0014F809508BEA050062
:1017F000FFF7FFFE009B88EA0508013380EA080036
:10180000042B04F80900009336D0009B9D00EDB234
:10181000002AB7D005F1020B14F805A014F80B004C
:101820008AEA0000FFF7E5FEFFF7E3FE05F1010994
:1018300005F1030814F809E0039014F808008EEA93
:101840000000FFF7D6FEFFF7D4FE039B8AEA030AE7
:1018500004F805A014F809E080EA0E0E04F809E087
:1018600014F80BE083EA0E0304F80B3014F8083088
:10187000584004F8080085E7002A7FF428AF4B7B26
:10188000F05C0B785840184BFB5C43400B708B7B33
:10189000F05C4B7843404B70CB7BF05C8B784340E3
:1018A0008B700B7BF05CCB7858400B4603F8030F32
:1018B00013F8015F13F8040C684018700298834213
:1018C000F6D12CE75AB9631E01390F3413F8010F12
:1018D00011F8012F9C4282EA00021A70F6D105B07D
:1018E000BDE8F08FCCD90000CCDA0000D6DA0000D9
:1018F000F0B58E46C16A102985B01DD100F11405DE
:101900006E4600F12404EC4628686968374603C730
:101910000835A5423E46F7D111467046103251F8BF
:10192000044B40F8044B9142F9D170461A46614687
:10193000FFF768FE012000E0002005B0F0BDFFFFCA
:101940000022C26280F83420FF2280F83520024A4B
:101950000260102202637047BCD9000070B50446D3
:101960001546A2B183684068D618864208DD02F0A9
:1019700087F9084A0621012002F01AFA002070BDFA
:101980002068184404F0F4FEA3681D44A5600120FB
:1019900070BD00BFD6DB0000704710B54FF4EC718E
:1019A000044604F0DDFF204610BDFFFF2DE9F041A5
:1019B00042680468DFF888E15F4E84EA121303F09E
:1019C0000F3384EA030082EA03135C4A80EA80440E
:1019D0002240504080EA9242584883EA83442040A3
:1019E000434083EA904382EA530000F0553082EA94
:1019F000000583EA400080EA152202F0FF1280EA27
:101A0000020485EA022282EA540000F05530424086
:101A1000130984EA400000F47F4403F07063234319
:101A2000040404F47F042343C0F30740034322F07B
:101A30007042083100275EF8270030B195069C06F9
:101A400045EA920544EA930405E0D506DC0645EA3A
:101A5000520544EA530425F07042D009C2F3811CB8
:101A600000F03C004CEA00004FEA923CC2F34338DD
:101A70000CF0300C48EA0C0C40300CF1800C56F89D
:101A8000208056F82C0005F03F0C48EA000056F87C
:101A90002C504FEA525C28430CF0060CC2F3005560
:101AA0004FEA925845EA0C0C08F038084CEA080C4A
:101AB0000CF1C00C24F0704356F82C504FEA132C54
:101AC00005430CF03C0CC3F3C11040EA0C0C04F0CD
:101AD0003F04C3F3C53000F5C07004F580740CF505
:101AE000A07C56F8208056F8240056F82C4048EA8E
:101AF000000020439C0DC3F3435C04F030044CEA27
:101B0000040404F5E074013756F824402043ACB2D5
:101B100044EA0044000C000440EA15404FEAB47463
:101B20004FEAB060102F41F8084C41F8040C01F165
:101B3000080180D1BDE8F0816CE900000000CCCC48
:101B40006CF100002DE9F0414368076887EA13153E
:101B500005F00F356F4083EA051585EA17439BB200
:101B600085EA030487EA034383EA940505F03335E5
:101B700083EA050684EA850585EA162303F0FF1348
:101B80005D4086EA032383EA550404F0553463403C
:101B900085EA44054FEA73734FEA7575A14C002A34
:101BA00000F08A8001F180070E684A685E40C6F343
:101BB000852CC6F3850E0CF1800C54F82E8054F859
:101BC0002CE04FEA966C0CF5C07CC6F3854606F512
:101BD000807654F82CC054F826605A4088EA0E0EDD
:101BE0004FEA32128EEA0C0E8EEA060E960E06F5BB
:101BF000E076103154F826608EEA060EC2F38506B0
:101C0000403654F826608EEA060EC2F38526C036AA
:101C1000C2F3854202F5A07254F8266054F82220DF
:101C20008EEA0606724051F8086C55406E404FEA45
:101C3000966CC6F3850E0CF5C07C54F82E8054F8D3
:101C40002CE051F8042C88EA0E0E8EEA0303C6F34A
:101C5000852E0EF1800EC6F3854606F5807654F883
:101C60002EE054F826606A404FEA321283EA0E03EF
:101C70007340960E06F5E0768F4254F8266083EAAC
:101C80000603C2F3850606F1400654F8266083EA8F
:101C90000603C2F3852606F1C006C2F3854202F5AB
:101CA000A07254F8266054F8222083EA060383EADF
:101CB00002037FF479AF88E0A1F180078E6FCA6FCD
:101CC0005E40C6F3852CC6F3850E0CF1800C54F8EB
:101CD0002E8054F82CE04FEA966C0CF5C07CC6F3CD
:101CE000854606F5807654F82CC054F826605A4094
:101CF00088EA0E0E4FEA32128EEA0C0E8EEA060EBB
:101D0000960E06F5E076103954F826608EEA060E37
:101D1000C2F38506403654F826608EEA060EC2F3FA
:101D20008526C036C2F3854202F5A07254F82660BB
:101D300054F822208EEA06067240D1F880605540A1
:101D40006E404FEA966CC6F3850E0CF5C07C54F8D5
:101D50002E8054F82CE0D1F8842088EA0E0E8EEA0A
:101D60000303C6F3852E0EF1800EC6F3854606F5F5
:101D7000807654F82EE054F826606A404FEA32121A
:101D800083EA0E037340960E06F5E076B94254F8E6
:101D9000266083EA0603C2F3850606F1400654F87E
:101DA000266083EA0603C2F3852606F1C006C2F365
:101DB000854202F5A07254F8266054F8222083EA86
:101DC000060383EA02037FF479AF4FEAF5014FEA95
:101DD000F30381EA530202F0553281EA020483EAF6
:101DE000420383EA142101F0FF1183EA010284EA2D
:101DF000012181EA920303F03333594082EA8303DD
:101E000083EA114292B2534081EA024282EA1311FC
:101E100001F00F314A4083EA011302604360BDE8DC
:101E2000F08100BF6CE1000013B50C46114602685A
:101E300000924268019268461A46FFF783FE009BB3
:101E400023701A0A62701A0C1B0EE370019BA270B9
:101E50001A0A237162711A0C1B0EA271E37102B08F
:101E600010BD2DE9F04104461E46E36A102B0D46D5
:101E700010460AD0182B26D0082B44D104F1580262
:101E80000EB9012313E0002311E004F15807D83400
:101E900096B901233A46FFF7C7FF33462246294643
:101EA0002846FFF7C1FF01233A4629462846FFF797
:101EB000BBFF0120BDE8F08100233A46FFF7B4FFE5
:101EC0000123224619E004F1580704F1D80804F56B
:101ED000AC7466B901233A46FFF7A6FF3346424683
:101EE00029462846FFF7A0FF01232246DDE700230D
:101EF0002246FFF799FF0123424629462846FFF76D
:101F000093FF0023D0E70020BDE8F0810022C262E9
:101F100080F83420FF2280F83520024A026008222F
:101F2000026370475CE10000F0B54D1E471E01F1F1
:101F3000070E802615F8014F334224F0010418BF24
:101F400044F00104754507F8014F4FEA5606F1D1F8
:101F50000823934205DACC5C24F00104C454013315
:101F6000F7E7F0BDF8B500F1140604463046154613
:101F70001F46FFF7D9FF102A10D0182A1BD0082AB5
:101F800037D104F1130304F11B0213F8011F197276
:101F90009342FAD104F15801304608E004F15801A7
:101FA0003046FFF703FD04F1D80104F11C00FFF7F0
:101FB000FDFC002311E004F158013046FFF7F6FC68
:101FC00004F1D80104F11C00FFF7F0FC04F5AC713A
:101FD00004F12400FFF7EAFC402384F83530226B3B
:101FE0000021201D04F05EFC84F83470E5620120BD
:101FF000F8BD0020F8BD10B504460846002184E86D
:102000000500A16004F04EFC204610BD08B58368B1
:1020100019444368994208DD01F032FE044A062162
:10202000012001F0C5FE002008BD012008BD00BF51
:10203000D6DB000038B50D4601210446FFF7E6FF68
:1020400028B1A3682268D554A3680133A36038BDC2
:1020500013B5019104210446FFF7D8FF024630B1C1
:10206000A36821680198C850A3680433A360104690
:1020700002B010BD73B5019103210446FFF7C6FFFE
:1020800058B102ABA268216833F8046D8E528D18E6
:102090009B78AB70A3680333A36002B070BDFFFFF1
:1020A0002DE9F04F87B0056BDDF84480019145457F
:1020B000044692461E46109F07DC98FBF5F305FB8D
:1020C000138515B900F1040920E001F0D9FD224A79
:1020D0000921012001F06CFE1EE0019AF2B94A4686
:1020E000394602A801F01AFB236802AAD3F80CB003
:1020F000314653462046D84770B1226B3146484698
:1021000004F036FB236B01351F441E44236B98FB00
:10211000F3F29542E1DB1AE0002019E023683A4629
:10212000D3F80CB002A953462046D8470028F3D074
:1021300002A90846236B4A4601F0F0FA226B3946A1
:10214000484604F015FB226B02A93046D8E701206F
:1021500007B0BDE8F08F00BFCAF1000073B50546B7
:1021600088680C461646F8B12A6B90FBF2F302FB26
:102170001303CBB90B68801A05F13601184401F03E
:10218000D8FAA268236801920022009311462846DB
:10219000FFF786FF044608B9002419E02A6B291DC1
:1021A000304604F0E5FA13E080212046FFF742FFB5
:1021B0000028F1D0A0682A6B90FBF2F302FB130316
:1021C0000BB10021F1E7801A236805F14601D5E73C
:1021D000204602B070BDFFFF40280FD0802801D0FC
:1021E00050B901E007487047082909D0064B074855
:1021F000102908BF184670470548704705487047C2
:1022000005487047FBF10000EDF10000EFF1000020
:10221000FFF10000F4F10000F0F1000013B5C36A13
:10222000102B0446B8BF102300F1140200929BB299
:10223000094A0921042001F0C7FEE16A94F835003B
:10224000FFF7CAFF054A03460921042002B0BDE892
:10225000104001F025BE00BF07F200000CF20000A4
:102260000C2908B50B4600F08C80AF2900F089805E
:10227000002900F08680AE295ED024D87E294FD078
:1022800010D81C2944D005D80E2972D101F0F8FCD1
:102290003D4A68E01E293FD040296AD101F0F0FC98
:1022A0003A4A60E09E293FD005D89D2961D101F0CE
:1022B000E7FC374A57E0A0293AD0A12959D101F0CB
:1022C000DFFC344A4FE0CE2942D010D8C12937D0A4
:1022D00005D8BE294DD101F0D3FC2F4A43E0CA29CD
:1022E00032D0CD2945D101F0CBFC2C4A3BE0EE2980
:1022F00032D005D8DE293CD101F0C2FC284A32E0B8
:10230000F0292DD0F12934D101F0BAFC254A2AE078
:1023100001F0B6FC244A26E001F0B2FC234A22E098
:1023200001F0AEFC224A1EE001F0AAFC214A1AE0AC
:1023300001F0A6FC204A16E001F0A2FC1F4A12E0C0
:1023400001F09EFC1E4A0EE001F09AFC1D4A0AE0D4
:1023500001F096FC1C4A06E001F092FC1B4A02E0E8
:1023600001F08EFC1A4A0821012001F021FD002015
:1023700008BD184A0821012001F050FD01F080FC41
:10238000F5E7012008BD00BF19F2000055F200007A
:102390007FF20000BEF20000F1F2000028F300001E
:1023A0004CF3000083F3000033F2000044F200001D
:1023B00069F2000092F20000A7F20000DBF20000D8
:1023C00001F3000017F3000037F3000065F300008D
:1023D00073F3000099F300002DE9F04F8DB015461E
:1023E000179A9DF86090984604460E46002302B165
:1023F000137005AF84F8A036012204A93846FFF710
:10240000FAFD09F0040202F0FF030393002A0CBF57
:102410000B231323002D08BF3D460293B3689A1C7B
:10242000AB681344502B04DC029B169A1344502BC8
:1024300007DD01F025FCB64A0821012001F0B8FCB7
:10244000DFE019F00A0F07D094F86434FF2B03D1B2
:1024500001F016FCAF4AEFE719F0020F5DD004213E
:10246000082001F003FC70B1AB4A0821042001F000
:102470009FFCD4F86C24138E043200920921A74AE1
:10248000042001F0A1FDB168AB682A68306801F052
:10249000ADF9014608902846FFF7DAFD002800F064
:1024A000B080D4F86C34AF681B6B97FBF3FA03FB76
:1024B0001A7ABAF1000F01D00137F6E7C5F808A083
:1024C00039462846FFF7A2FD002800F09A8008ABA5
:1024D000AF60009304231846914A082101F074FD6F
:1024E0001FFA87FB2B6800938E4A5B460821042065
:1024F00001F06AFD2B68D4F86C048DE88800524620
:102500005146FFF7CDFD00287BD02B680093864A0B
:102510005B460821042001F057FD316819F0010FD6
:1025200091F800A02CD0BAF1AF0F29D094F8643400
:10253000FF2B25D00023C4F8243704F21C77B2689F
:102540003846FFF70BFA00285BD0AA68296838469E
:10255000FFF704FA002854D00DF1200B5A463946F3
:10256000D4F86C04FFF7FAFD00284AD0D4F86C3494
:102570006E4A1B8ECDF800B00821042001F024FD26
:102580004023237101236371B2683168A01D04F0F8
:10259000EFF8B768AA6829680237261DF01904F019
:1025A000E7F8AA683A44D2B23146204600F0C4FEA9
:1025B00038B31699029B0B44DAB23146204600F03C
:1025C000C5FE0228834602D96379412B03D001F06E
:1025D00057FB574A30E7A17984F8A0162046E779DF
:1025E00000F006FC68B1BBF1030F0AD027B1AF2F92
:1025F0001CBFFF2384F8643439462046FFF730FEC1
:1026000010B94FF0FF357EE0179B03B11F70039B9D
:10261000ABF10405EDB27BB30FB1AF2F2CD194F821
:102620006434FF2B28D0BAF1AF0F1CBF0023C4F8CD
:102630002437AF2F08D12A4604F1080104F21C7098
:10264000FFF78CF9C0B9DCE7072D15D9A7B9ABF1B5
:102650000C05EDB204F21C7A2B1D2A4604F1080188
:1026600050461E44FFF77AF90028CAD03946504632
:10267000FFF7E0FC50BBC4E7169BAB4203DA01F066
:10268000FFFA2C4AD8E6B8F1000F3CD0002D3AD022
:102690002A4604F10801404604F06AF819F0080FD0
:1026A00031D001220195CDF8008043461146D4F87F
:1026B0006C04FFF7F5FC0028A3D0CDF80080ABB286
:1026C0001D4A0821042001F07FFC1CE008AF3A46B7
:1026D0005146D4F86C04FFF741FD002891D0D4F89E
:1026E0006C34164A1B8E00970821042001F06CFC04
:1026F00008223946304606F0F7FC0028BCD001F02D
:10270000BFFA0F4A98E628460DB0BDE8F08F00BF2B
:1027100069F40000A9F30000BBF30000D2F300004D
:10272000DBF30000DFF30000EDF30000FFF3000037
:102730000EF4000041F4000060F4000024F40000F6
:1027400033F40000F0B589B004460F46154604A9DD
:10275000012205A81E46FFF74EFC394605A8FFF7E3
:1027600069FC9DF8403002930F9B01930E9B0093F0
:102770002A46334605A92046FFF72EFE09B0F0BDD4
:102780002DE9F04FCBB00546049108200421904676
:1027900001F06CFA40B10420049B974A082101F033
:1027A0003DFB4046FFF73AFD98F83530402B02D00C
:1027B000802B06D00BB91A2404E001F061FA8F4A8D
:1027C000F1E0AA24012207A908A8FFF714FC049944
:1027D00008A8FFF72FFC002302930DF11F0610231A
:1027E00014AF009321463B46019608AA2846FFF7FE
:1027F000A9FF3378AF2B044603D1082805D0102851
:1028000003D001F03DFA7E4ACDE0D8F83020002117
:1028100008F1040004F046F80DF1600A0122019469
:102820000097534611464046FFF73AFC002800F057
:102830007C810DF1700B2246514658460DF18009FE
:1028400000F085FF2146484600F09EFF20223AA96D
:102850000BA8FFF7D0FB224649460BA8FFF77EF8EE
:10286000224659460BA8FFF779F8202242A90EA864
:10287000FFF7C1FB6300002219460EA805931092D2
:10288000FFF7C4FB059B00B11093019300220B9B43
:10289000009311460E9B4046FFF702FC002800F013
:1028A00044810421082001F0E1F988B3A3B2009724
:1028B000544A1F460821042001F086FB3B46524A39
:1028C000CDF800A00821042001F07EFB3B464F4AD2
:1028D000CDF800B00821042001F076FB3B464C4ABD
:1028E000CDF80090082104207F0001F06DFBBFB2FD
:1028F0000B9B0093474A3B460821042001F064FBF0
:102900000E9B0093444A3B460821042001F05CFBE7
:10291000002324AF02938DE850003B460EAAAF215E
:102920002846FFF70FFF33780BB9844203D001F03C
:10293000A7F93A4A37E028AE0122019400973346BE
:1029400011464046FFF7ACFB002800F0EE800DF189
:10295000B00B49465846224600F0F9FE04210820F3
:1029600001F084F9B0B1A3B200972D4A1F460821A7
:10297000042001F029FB3B462A4A00960821042046
:1029800001F022FBCDF800B03B46274A0821042085
:1029900001F01AFB22462CA9304606F0A5FB38B1FF
:1029A00001F06EF9214A0821012001F001FABCE092
:1029B000182234A911A8FFF71EFB0422494611A8CA
:1029C000FEF7CCFF0422514611A8FEF7C7FFD8F846
:1029D0002C30082B42DD98F83530402B28D0802B46
:1029E00032D0002B3AD1042221A911A8FEF7B6FF5C
:1029F000042219A92FE000BFA4F40000E1F10000B7
:102A0000BCF40000D6F40000E0F40000E6F400009E
:102A1000F0F40000F6F40000FDF4000008F50000FA
:102A200022F500002CF5000036F5000040F500000E
:102A300004220DF1860111A8FEF790FF04220DF18A
:102A4000660111A8FEF78AFF042223A911A8FEF748
:102A500085FF04221BA911A8FEF780FF98F83530E6
:102A6000139A1199802B0CBF05F58E6305F59963B8
:102A7000C5F86C34D5F86C0403689C680023A04743
:102A8000002852D0D5F86C44266B0DF1C009082EF1
:102A90004FF010024FF0000148460CBF1B2787275C
:102AA00003F000FF32460021201D03F0FBFE236BE4
:102AB0000193CDF800904B46002201212046FFF7FC
:102AC000EFFA064688B3D4F830A004F1360852462F
:102AD0004946404603F04CFE5146404600F041FE58
:102AE0009DF9C030002B07DA236B013B234493F898
:102AF00036207A4083F83620D4F8309004F146032B
:102B000018464A46414603F033FE494600F029FE86
:102B100094F93630002B07DA236B013B1C4494F800
:102B200046305F4084F846700EB9002611E004215B
:102B3000082001F09BF840B10420084A082101F068
:102B400037F9D5F86C04FFF769FB9DF8103085F86C
:102B5000643430464BB0BDE8F08F00BF5AF500003A
:102B600070B50B4688B005460C4616460821144A37
:102B7000042001F053F9012204A905A8FFF73BFA4C
:102B8000214605A8FFF756FA0523029300240123E6
:102B90008DE818002846334605AA6421FFF7D2FDC8
:102BA0000128054608D1034600960420054A08215D
:102BB00001F00AFA284600E0204608B070BD00BFC8
:102BC000FCF5000015F6000070B505469AB00E46FB
:102BD0000820042101F04AF848B13246134906A8FA
:102BE00006F06CFD06AA0821042001F0E1F803229A
:102BF00005A906A8FFF7FFF90024314606A8FFF74C
:102C000039FA029401940094234606AA5A212846D0
:102C1000FFF798FD30B9FF2385F86434C5F8686480
:102C2000012000E020461AB070BD00BF53F800003C
:102C30002DE9F0439DB081460F460820042115463A
:102C40001C46249E01F012F858B13A461F490094E0
:102C50002B4608A806F032FD08AA0821042001F03E
:102C6000A7F8002C2EDD302C4FF0070206A908A88B
:102C7000A046A8BF4FF03008FFF7BDF9394608A8B5
:102C8000FFF7D8F9294608A8FFF7F4F9414608A844
:102C9000FFF7F0F9052302930DF117030193CDF827
:102CA0000080334608AABD214846FFF74BFD9DF83A
:102CB00017300BB9002801DC002004E0241A054479
:102CC0000644CEE701201DB0BDE8F083B0F9000056
:102CD0002DE9F043044687B0264600F05FF8234B09
:102CE00046F85C3B04F50D783046FFF70FF904F227
:102CF0000C474046FFF70AF93846FEF721FE04F577
:102D00008E60FEF71DFE04F59960FFF7FFF804F2F0
:102D1000A161782204F21C70FFF76DF90025FF23F2
:102D20004FF0180984F864344A462946C4F86C54B4
:102D300084F8A056C4F86854684603F0B3FD2B46E7
:102D4000694608223046FFF70DF92B464A46694688
:102D50004046FFF707F92B46102269463846FEF732
:102D600029FC204607B0BDE8F08300BFB4F10000A5
:102D7000FF2280F864240022C0F8682400F0FABB27
:102D8000054B1B684FF00042DA625863DA6A002A8A
:102D9000FCDA986BC0B270473807FF1F064A026022
:102DA000002280F8542080F8552080F8562080F8C2
:102DB000572080F8582070475401010038B5044668
:102DC0009DF810509DF8140084F8541084F85800B1
:102DD00084F8552084F8563084F85750012103F0C8
:102DE00011FE94F857000121BDE8384003F00ABEF7
:102DF00010B55B4A0C46A0B00A21042000F0D8FFB1
:102E000014F03F0400F0A980224656496846013C70
:102E100006F054FC2D2C00F29380DFE804F0171B21
:102E20001F23272B2F9133373B913F439147914BE2
:102E30004F53919191919191919191919191919102
:102E400057915B5F6391676B6F797D8700F018FF27
:102E500045496EE000F014FF44496AE000F010FFBD
:102E6000434966E000F00CFF424962E000F008FFD1
:102E700041495EE000F004FF40495AE000F000FFE5
:102E80003F4956E000F0FCFE3E4952E000F0F8FEFB
:102E90003D494EE000F0F4FE3C494AE000F0F0FE0F
:102EA0003B493CE000F0ECFE3A4942E000F0E8FE2D
:102EB00039493EE000F0E4FE38493AE000F0E0FE37
:102EC000374936E000F0DCFE364932E000F0D8FE4B
:102ED00035492EE000F0D4FE34492AE000F0D0FE5F
:102EE000334926E000F0CCFE324922E000F0C8FE73
:102EF000314906E000F0C4FE304902E000F0C0FEB7
:102F00002F49684606F000FC0A210246032020E013
:102F100000F0B6FE2B490CE000F0B2FE2A496846EC
:102F200006F0F2FB0A210246022012E000F0A8FEA1
:102F30002649684606F0E8FB0A210246012008E01F
:102F400000F09EFE2249684606F0DEFB0A2102469A
:102F5000002000F02DFF002000E0012020B010BD77
:102F60009AFB0000ABFB0000C0FB0000C8FB0000A8
:102F7000D2FB0000DFFB000005FC000013FC00009A
:102F80002AFC00004CFC00005FFC000081FC0000FB
:102F900093FC00009FFC0000B8FC0000CAFC00008D
:102FA000E0FC0000F2FC000007FD00001CFD00003A
:102FB00031FD000047FD00005EFD000077FD0000D0
:102FC0008FFD0000A4FD0000C5FD0000D2FD000043
:102FD000DEFD00001FB50446002190F8570003F005
:102FE000F1FC022003F05EFD124A0A21042000F0E9
:102FF000DFFE0220FFF7C4FE0020FFF7C1FE04AB96
:103000000D4A03F8010D0A2100930420012300F06A
:10301000DBFF012194F8570003F0D4FC4FF4FA636E
:10302000013BFDD19DF80F00431E5842584104B0AA
:1030300010BD00BFF1FD00000DFE000070B506469A
:1030400065243046FFF7C6FF054670B9013CA4B2BF
:103050003CB900F015FE064A0A21012000F0A8FE46
:1030600003E00A2003F01EFDEBE7284670BD00BF19
:103070001DFE0000F8B50F460646002190F85700E7
:10308000144603F09FFC022003F00CFD0D4A0A21B8
:10309000042000F08DFE0120FFF772FE013C7D1E32
:1030A0003C44A54204D015F8010FFFF769FEF8E78C
:1030B000012196F8570003F085FC4FF4FA63013BB9
:1030C000FDD1F8BD34FE0000F0B5054689B03A4A9E
:1030D0003A4C0A21042000F06BFE012195F85800BB
:1030E00003F070FC0A2003F0DDFC002195F8580085
:1030F00003F068FC4FF4C87003F0D4FC012195F88C
:10310000580003F05FFC0A2003F0CCFC95F85570E2
:1031100095F8566095F85410204601F045F9394667
:10312000204601F0F7F83146204601F0A5F8204688
:1031300001F066F8E37AF3B172B6E37AD90705D500
:103140001F4AE36811680B40A3611360E37A1B49CF
:103150009A0705D51B4A0B6910680340CB611360C1
:10316000E37A16495B0705D5174A4B691068034097
:103170000B62136062B62368144AD968914207D083
:1031800013491960DA6002F180421A61114A1A602B
:1031900003AC14225521204603F084FB2146284627
:1031A0001422FFF767FF009414230B4A0A2104201E
:1031B00000F00AFF09B0F0BD54FE00003807FF1F01
:1031C00080E100E084E100E088E100E005400039B2
:1031D00001403F0000003F805AFE000030B59BB028
:1031E000FF248DF80E40541C8DF80F40D44300236B
:1031F0008DF81040D4248DF80C308DF80D308DF8FA
:103200001140DCB2A24205D903AC1C44CD5CA571CF
:103210000133F6E70025911D2B46ECB28C4205F1F7
:10322000010507DA0DF1680E744414F85C4C234470
:10323000DBB2F2E71AAC2144DB4301F85C3C1AAB89
:1032400002F108041A4403AD002302F8553C294654
:10325000E2B2FFF70FFF0095A3B2034A0A21042050
:1032600000F0B2FE1BB030BD6EFE00002DE9F04153
:10327000074688461446FFF7E1FE064638B30021AC
:1032800097F8570003F09EFB022003F00BFC114A55
:103290000A21042000F08CFD0320FFF771FD013CA2
:1032A00008F1FF354444A54208D0012003F0FAFBA1
:1032B0000020FFF765FD05F8010FF4E7012197F8FD
:1032C000570003F07FFB4FF4FA63013BFDD130461A
:1032D000BDE8F08177FE000030B5144B87B004469E
:1032E00004AD186802909B88ADF80C302046062289
:1032F0002946FFF7BBFF0446A0B10D4A00950A21FD
:103300000420062300F060FE062202A9284605F0EC
:10331000EBFE38B100F0B4FC064A0A21012000F0AF
:1033200047FD0024204607B030BD00BF94FB0000DD
:1033300094FE00009DFE000010B50446FFF74EFF0E
:103340002046BDE81040FFF7C7BFFFFFF0B5531F91
:103350004B2B97B00D46174603D900F091FC314A2C
:103360002BE002AE3146FFF781FF002857D03246EE
:103370000021381F884207DD12F8013B13B9147889
:10338000FF2C22D00131F5E70024274D0AE016ABCF
:103390001A4412F8503C254ADB43DBB29D4214BF6D
:1033A0001546002500963B46214A0A21042000F0DC
:1033B0000BFE45B100F064FC2A4601200A2100F012
:1033C000F7FC00202BE0E0B229E016AA0A4412F82C
:1033D0004E4C12F84D2C2244B2F5807F1DD14A1D6F
:1033E0002244974215DB0A1D9C4205DD58183044E3
:1033F0000079E8540133F7E7224464B12B78D52BE8
:1034000009D100259142C2DA735C1D44EDB201314D
:10341000F8E7084DC6E7084DC4E7084DC2E717B006
:10342000F0BD00BF7FFF0000B3FE00005EFF0000A4
:103430009AFF0000F9FE000030FF0000D1FE0000FE
:103440002DE9F843044625460420894690460A2182
:10345000174A1F4600F0ACFC022305F8043F012286
:1034600029462046FFF768FF0646E8B10D222946A7
:103470002046FFF76BFF062802D16379032B08D0A3
:1034800000F0FEFB0B4A0A21012000F091FC00260F
:103490000AE0A37989F80030E37988F80030237ACC
:1034A0003B70089B627A1A703046BDE8F88300BF13
:1034B000A4FF0000B7FF000070B5144A04460A21BB
:1034C000042000F075FC261D142201232271A27134
:1034D0006371E371042231462046FFF72DFF054654
:1034E00088B1092231462046FFF730FF022802D179
:1034F0006379152B07D000F0C3FB054A0A21012090
:1035000000F056FC0025284670BD00BFD1FF00002A
:10351000DBFF000070B5154A04460A21042000F0C4
:1035200047FC32232371FF23A37101230522E3719A
:10353000261D03236271237231462046FFF7FCFEED
:10354000054688B1092231462046FFF7FFFE0228D2
:1035500002D16379332B07D000F092FB044A0A2191
:10356000012000F025FC0025284670BDECFF00007E
:103570000800010070B5144A04460A21042000F036
:1035800017FC3223237101236371261D0023A371CD
:10359000032231462046FFF7CFFE054688B10922B7
:1035A00031462046FFF7D2FE022802D16379332B41
:1035B00007D000F065FB054A0A21012000F0F8FB66
:1035C0000025284670BD00BF2B0001003C00010013
:1035D0002DE9F04704460E46994696B017460A2153
:1035E000474A042000F0E4FB00234A223B70251DDB
:1035F00089F8003033607360227101226271A37117
:10360000032229462046FFF797FE8046002872D005
:103610001C2229462046FFF799FE022802D9637929
:103620004B2B09D000F02CFB364A0A21012000F078
:10363000BFFB4FF000085EE0A579334A2B460A2114
:10364000042000F0EBFB012D55D1E57A042D08D0C4
:10365000072D06D02B462C4A0A21022000F0DEFB63
:1036600049E004F10C012A46304603F081F83D7030
:10367000277A637AA47A072D43EA072709D133789A
:10368000802B13D0B7F5517F10D1202C0ED1012300
:103690000AE0042D0AD13378802B07D1B7F5417F9A
:1036A00004D1202C02D1032389F8003004210A2000
:1036B00000F0DCFA8246F0B12B46144A00960A214B
:1036C000042000F081FC23463A46114902A805F087
:1036D000F5FF99F80030012B01D10E4902E0032BD0
:1036E00003D10D4902A806F00FF802AA0A2104200E
:1036F00000F05EFBD046404616B0BDE8F08700BF44
:103700007B0201006F0001008A00010097000100A8
:10371000A1000100C8000100DB00010070B5002419
:103720009C4205DA0E5D155D754005550134F7E7DD
:1037300070BD30B501380C46631A9A4206DD14F8A4
:10374000015B10F8013F6B400370F5E730BD38B501
:10375000541E0D462246013103F00AF82A7802551C
:1037600038BD10B5034601391A1A914208DD1A789E
:1037700013F8014F520042EAD41203F8012CF3E788
:10378000435C5B00435410BD37B5094B094C1B68C3
:103790000193019B0246151AA94206DD02F8013B7E
:1037A000634303F583432733F5E703B030BD00BF20
:1037B000CC79FF1F1DF3010030B503461C1AA1424E
:1037C00012DD13F8014B6240082402F00105520893
:1037D0003DB182F06D4282F4380282F4034282F0FD
:1037E0002002013CF1D1E9E7104630BD38B514465E
:1037F0004FF0FF321D46FFF7DFFF29460246204605
:10380000BDE83840FFF7D8BF30B52F4A2F4C99B0EC
:103810000B21032000F0CCFA00232D482370FFF782
:1038200053FC0DF10F0300930DF10D020DF10E038A
:1038300003A92748FFF704FE002835D09DF80E1095
:103840009DF80D309DF80C20009104A8214905F049
:1038500035FF04AA0B21042000F0AAFA9DF80F50AE
:103860001D491E4815F0010F14BF0A46024615F007
:10387000020F14BF0B46034615F0040F08BF0146A4
:10388000009104A8164905F019FF042004AA0B2191
:1038900000F08EFA0E48FFF73DFE28B10C48FFF706
:1038A0000BFE08B10123237023782BB900F0E8F94F
:1038B0000C4A0B21012002E00B4A0B21032000F0EF
:1038C00077FA19B030BD00BF770101008475FF1F82
:1038D000846CFF1F9301010070010100740101005D
:1038E000BA010100EE0101000202010030B5224AD6
:1038F00085B00B21042000F05BFA204B1C784CB9FA
:1039000000F0BEF91E4A0B21022000F051FAFFF729
:103910007BFF2DE000250DF1070301AA02A919483C
:103920000195FFF755FE044628B900F0A9F9164A9B
:103930000B21012009E09DF80730012B9DF8043090
:1039400006D133B1114A0B21042000F031FA0FE007
:1039500033B90F4A0B21042000F02AFA002407E0B3
:1039600000F08EF90B4A0B21022000F021FA2C46C0
:10397000204605B030BD00BF210201008475FF1F45
:1039800033020100846CFF1F680201008F020100F6
:10399000A7020100BE02010008B50748FFF7E8F9D9
:1039A00040B900F06DF9054A0B210220BDE808403E
:1039B00000F0FEB908BD00BF846CFF1FD5020100F6
:1039C0002DE9F041324A88B007460E4604200B210B
:1039D00000F0EEF900212F48FFF7F6F8044618B979
:1039E00000F04EF92C4A0AE00DF10F02002129489F
:1039F000FFF7B6F8044638B900F042F9274A0B2120
:103A0000012000F0D5F93FE09DF80F30244A0B214A
:103A1000042000F003FA9DF80F80B8F1100F08D0D1
:103A200000F02EF91F4A0B21012000F0C1F90024FB
:103A30002AE01D491748FFF7C7F8044618B900F0F7
:103A40001FF91A4ADBE71A4A12480021FEF798FECE
:103A5000044618B900F014F9164AD0E7002204AD64
:103A60000095434611460B48FFF7E2F8044618B9A3
:103A700000F006F9104AC2E72B4603CB06AB3860CC
:103A8000796003CB30607160204608B0BDE8F081FA
:103A9000ED020100846CFF1F020301001B03010003
:103AA00036030100500301001F40AA006E0301000D
:103AB0008875FF1F7F0301009603010070B50F4D4D
:103AC0000F4C104E2846FFF703F928460E4D0F49BC
:103AD000224604F089FB2846FEF718FA28460C4DCA
:103AE0002246314604F080FB2846FEF70FFA2246B4
:103AF00031462846BDE8704004F076BB846CFF1F59
:103B0000F806FF1F99190000AC73FF1F713B0000FE
:103B10008875FF1F07B5104A0B21042000F048F9F3
:103B2000162206238DE80C001421152305220B48CC
:103B3000FFF744F9FFF768FE1023182208490948E7
:103B4000FEF710FA084909481023182203B05DF85F
:103B500004EBFEF707BA00BF68050100846CFF1F85
:103B600072050100AC73FF1F580101008875FF1F2B
:103B70000C4B10B50446036000F59960FDF70CFF8F
:103B800004F58E60FDF70EFD04F20C40FDF70AFD12
:103B900004F50D70FDF700FF04F15C00FDF7FCFE7D
:103BA000204610BDB4F10000F8B521F00101002558
:103BB000064647182C46BE421FD036F8023B4FF649
:103BC000F1721C44B4FBF2F102FB114425440420C1
:103BD000B5FBF2F102FB1155094A0E2100F01EF966
:103BE0002346084A0E21042000F018F92B46064A05
:103BF0000E21042000F012F9DDE744EA0540F8BD8B
:103C00008A050100910501009805010070B5044680
:103C100008460D4605F014FE236802462946204654
:103C20005B68BDE87040184703681B68184708B513
:103C3000FFF7ECFF08BD0368C9B21B681847FFFF18
:103C400010B5054B054A19780023DCB2A14202D910
:103C500098540133F9E710BDFC06FF1F6077FF1F82
:103C6000014B1954704700BF6077FF1F034B185C6E
:103C7000884234BF00200120704700BF6077FF1FDB
:103C8000024A136801331360704700BF8077FF1F3B
:103C900008B50420FFF7D4FF014B00221A6008BDCD
:103CA0008077FF1F30B58FB004460D46FCF700FD4E
:103CB000A0B103A8FCF702FD4FF47A700599B1FB9F
:103CC000F0F101919DF8111000919DF810309DF8D0
:103CD0000F201A4906A805F0F1FC07E0184B194916
:103CE0001B680393039A06A805F0E8FC06A916488A
:103CF000FFF78CFF052C10D8DFE804F00305070957
:103D00000B0D12490AE0124908E0124906E0124977
:103D100004E0124902E0124900E012490A48FFF7A4
:103D200075FF2B46104A0B2106A805F079FC06A961
:103D30000548FFF76BFF0FB030BD00BFE405010081
:103D4000CC79FF1F00060100C008FF1F0606010016
:103D5000110601001C0601002706010032060100C1
:103D60003D0601004806010053060100052810B574
:103D7000144604D9FFF784FF0C460A4902200A4B77
:103D80001B7883420DD3FFF78DFF21460748FFF7CD
:103D90003DFF0A210548FFF74EFFBDE8104003F044
:103DA000E3BD10BD5A0601006077FF1FC008FF1F6A
:103DB000052810B514460DD9FFF762FF0E2996BFEE
:103DC000114B124A53F8212011490220BDE810403E
:103DD000FFF7CCBF0F4B5B5C834213D30E2996BF1A
:103DE000094B0A4953F82110FFF75CFF21460A48A6
:103DF000FFF70CFF0A210848FFF71DFFBDE8104040
:103E000003F0B2BD10BD00BFA0050100DC0501003C
:103E10005A0601006077FF1FC008FF1F052838B54C
:103E200015461C460DD9FFF72BFF0E2996BF164BE2
:103E3000164A53F8212016490220BDE83840FFF702
:103E400095BF144B5B5C83421DD30E2996BF0E4B6E
:103E50000E4953F82110FFF725FF29460E48FFF7BA
:103E6000D5FE0E490C48FFF7E2FE002321460A2248
:103E7000094802F031FC0A210748FFF7DCFEBDE8E3
:103E8000384003F071BD38BDA0050100DC0501001C
:103E90005A0601006077FF1FC008FF1FD3F600001D
:103EA000052838B515461C460DD9FFF7E9FE0E2941
:103EB00096BF154B154A53F8212015490220BDE83D
:103EC0003840FFF753BF134B5B5C83421BD30E2973
:103ED00096BF0D4B0D4953F82110FFF7E3FE29461D
:103EE0000D48FFF793FE0D490B48FFF7A0FE214652
:103EF0000948FFF78BFE0A210748FFF79CFEBDE843
:103F0000384003F031BD38BDA0050100DC050100DB
:103F10005A0601006077FF1FC008FF1FD3F600009C
:103F200030B505288BB015461C460CD9FFF7A8FE06
:103F30000E2996BF1C4B1D4A53F821201C49022014
:103F4000FFF714FF2DE01B4B5B5C834229D30E2946
:103F500096BF154B154953F82110FFF7A3FE2946CC
:103F60001548FFF753FE15491348FFF760FE6179C6
:103F7000039121790291E178019121786378A27807
:103F800001F5FA61009105A80D4905F097FB05A917
:103F90000948FFF73BFE0B490748FFF737FE03F0E0
:103FA000E3FC0BB030BD00BFA0050100DC05010043
:103FB0005A0601006077FF1FC008FF1FD3F60000FC
:103FC0006C0601005CFF000070B5052816461D4612
:103FD000049C0DD9FFF754FE0E2996BF1B4B1C4ABB
:103FE00053F821201B490220BDE87040FFF7BEBEF8
:103FF000194B5B5C834228D30E2996BF134B14499F
:1040000053F82110FFF74EFE31461448FFF7FEFD2E
:1040100020211248FFF708FE013D661E2C44A642EF
:104020000BD016F8011F0D480023102202F054FB9C
:1040300020210A48FFF7F8FDF1E70A210748FFF7BA
:10404000FAFDBDE8704003F08FBC70BDA005010013
:10405000DC0501005A0601006077FF1FC008FF1F42
:10406000B0F5FA6F30B528BFA0F5FA60104D28BF43
:1040700080B292B200230133DCB2A14205D9EC1820
:1040800014F8014C224492B2F5E7022903D98307C0
:1040900004BF013292B200EBC003C11C00EBC300AD
:1040A00000EB8000431E03EBA100104480B230BD42
:1040B0000107010083709DF80030C370B1F5FA6FFD
:1040C0009DF80430037128BFA1F5FA619DF808300E
:1040D000437128BF89B2039B0170427083607047AF
:1040E0000A7802704A7842708A788270CA78C27000
:1040F0000A7902714A7942718A6882607047FFFFCB
:1041000010B50446827841780078FFF7A9FFE2787D
:10411000182303FB002023793C2202FB0030637943
:1041200002FB00330148184410BD00BF80436D38C6
:10413000244B3C220B4430B5B3FBF2F402FB1431A8
:104140004171B4FBF2F102FB1142182402714FF4E9
:104150006162B3FBF2F2B2FBF4F104FB1122C27014
:10416000194AB3FBF2F300229BB20270017811F0FE
:1041700003040CBF0122002202F5B6759D4207DA46
:10418000C2F57E429332134401319BB20170EDE7D8
:1041900001220E4D427041786A1812F8012C1CB9A8
:1041A000022904BF0132D2B292B2934204D39B1AC5
:1041B00001319BB24170EEE70133837000238360CD
:1041C00030BD00BF80BC92C78051010001070100D3
:1041D00010B5FFF7ADFF10BD81607047C38B1B04A6
:1041E00041BFC38BC1F3080103F47E43194358BF99
:1041F000C1F30E01C183C38B9BB2C3827047FFFF23
:10420000436819685A6810B50C6822430A6002684E
:10421000154911601549D16001F1804111611449BE
:104220001160417A134A5C180C3194F82C4053F811
:10423000211002EBC40464682160017A5C1803EB6E
:104240008101247EC96902EBC40464682160817A1B
:10425000581803EB810390F840005B6C02EBC0023E
:104260005268136010BD00BF01401F0001100038EC
:1042700000001F80740901004368234A9A4270B508
:1042800018D10B2904D1214C227822F0030210E02E
:10429000072906D11D4C227822F0030242F00102C8
:1042A00007E01C2906D1194C227822F0030242F0C3
:1042B00002022270427A1A4492F82C40A14221D084
:1042C00003F12B05002215F8016F8E4217D11968F2
:1042D0000D6859680D4210D00D4901EBC40400254A
:1042E000646825609C1894F82C4001EBC40102F12D
:1042F0000C04496853F824300B60427270BD0132DF
:10430000042AE0D170BD00BFD4070100C879FF1FA7
:10431000740901004368214A9A4270B518D10C29EA
:1043200004D11F4C227822F00C0210E0082906D19B
:104330001B4C227822F00C0242F0040207E02729ED
:1043400006D1174C227822F00C0242F008022270AB
:10435000027A1A44147EA1421FD003F117050022ED
:1043600015F8016F8E4215D119680D6859680D4214
:104370000ED00C4901EBC4040025646825609C182C
:1043800003EB8203247EDB6901EBC40149680B6007
:10439000027270BD0132042AE2D170BDD40701005F
:1043A000C879FF1F740901004368254A9A4230B555
:1043B00018D10D2904D1234C227822F0300210E0CC
:1043C0000E2906D11F4C227822F0300242F0100252
:1043D00007E01B2906D11B4C227822F0300242F064
:1043E00020022270827A1A4492F84040A14226D0DC
:1043F00093F840208A4209D093F841208A4207D09E
:1044000093F842208A421AD1022202E0002200E000
:10441000012219680D6859680D420FD00A4901EB55
:10442000C4040025646825609C1803EB820394F89B
:1044300040405B6C01EBC40149680B60827230BD87
:10444000D4070100C879FF1F7409010070B5036B20
:104450001A79304B1A70C36A1A792F4B1A70026B93
:1044600012791A70826A0446002A3FD04368D968DC
:104470008A4203D9521A8262012110E0C36A511E96
:104480001868FFF7ABFE236BA16A1868FFF7A6FE5A
:10449000A16A002311F1FF3118BF0121A362E36A71
:1044A0001B68186804F124029042226805D1D36881
:1044B00094F8243043F000430EE0D06810F0804FB1
:1044C000186815BF1D681D680088007814BF023584
:1044D00001351D6040F000435363236B1A790F4B85
:1044E0001A70A9B1E26A12791A7070BD03680C499A
:1044F0001A63D962D96821F08041D960032380F81A
:104500002530406B036811461B68BDE870401847B2
:1045100070BD00BF1F8000401C8000401B80004019
:1045200000000FFF08B50248FFF790FF08BD00BF6D
:104530000007FF1F08B50248FFF788FF08BD00BF4E
:104540003807FF1F054A40F243434FF48861136068
:1045500053609160D36013615361704700D0044091
:10456000054A40F203130021136053609160D36049
:1045700013615361704700BF00D004400E4A1168B8
:1045800021F0080310B513600C4B0B40184340F4A6
:1045900060200B4910604FF480130C68240701D48D
:1045A000013BFAD140F008001060064A136843F45A
:1045B0008013136010BD00BF2C100B400700F0FFEC
:1045C00024100B4030100B401E4A136843F0800348
:1045D00010B513601C4B1C461968C907FCD4216830
:1045E0008907F9D4194B18604FF080701468184986
:1045F000144B2140013811B90028F7D102E008B16D
:10460000012907D0136843F4702343F001031360BA
:10461000012010BD1A68120605D51A6842F0011271
:104620001A60032010BD18681A6810F4803017BF94
:1046300042F0011242F0010205201A6008BF1A6020
:1046400010BD00BF30100B4024100B400C100B406D
:1046500001000E00F8B50A4D0A4F642400262E60B2
:104660000948FFF7B1FF013C05D03B685B0705D562
:104670000028F4D0F8BD002808BF0520F8BD00BF11
:1046800008100B4024100B400000DB0C70B5084DE7
:10469000002306462B600748FFF796FF38B9064C03
:1046A000064823682E60FFF78FFF00B9236870BDAE
:1046B00008100B4000001A3710100B4000000229B0
:1046C000074B1A783AB99A783AB15B78002B0CBF4D
:1046D000022003207047002070470120704700BF70
:1046E0008477FF1F9B4A136843F400332DE9F0479A
:1046F00013609368984C43F400539360D36843F07D
:104700000203D360136943F002031361934A1368F1
:1047100023F001031360FFF723FF914B236023680D
:1047200013F08073FBD18F4A8F4E13608F4B4FF481
:1047300081321A60282333608D4B4FF010121A60BB
:1047400041F29000FFF71AFF8A4A13689D07FCD1D7
:10475000FFF7F8FE884A89494FF6FF731360884BCC
:1047600019604FF4FA73216841F0006121602168FB
:104770000901FCD4013BF6D11168824C41F0800163
:1047800011607C4A1268636012F4803F14BF0020FD
:10479000022020706370A370A360002840F0D880CE
:1047A000794F18463B60FFF70FFF50B9774D7848B7
:1047B0002B684FF4D5733B60FFF706FF28B105283F
:1047C0000AD001202070BDE8F0872B682B68B3F574
:1047D000D57FF6D1012363700020FFF757FF002833
:1047E000EFD12B6813F4401F20D06378DFF8A8A125
:1047F000002B684B0CBF4FF4401999468046484641
:1048000008F10108FFF742FF002840F09E802B6866
:10481000002B02DBD045F2D106E05F4B984503D078
:104820005A4B1B685B0001D40023637000233B607C
:104830005A48DFF85491FFF7C7FE0028C1D12B6812
:10484000C9F800005648DFF84481FFF7BDFE002894
:10485000B7D1D8F80030D8F800305248DFF82481BA
:104860001B0C1B046360C9F80030FFF7ADFE002885
:10487000A7D14D4A4D4813681B0E88F803304C4BA6
:104880001B6813F4400F14D11368116802680068A4
:10489000890201F4406141EA9252511CC0F3C212F4
:1048A0000232C3F3032301FA02F2093B02FA03F3D3
:1048B00007E0012388F802300368C3F315230133AE
:1048C0009B02C8F8083063683B603A48DFF8B48060
:1048D000DFF8B490FFF778FE00287FF472AF2B6802
:1048E00035482A4F4FF40073C9F80030FFF76CFECB
:1048F00000287FF466AF3B68D8F80430C9F8003070
:104900002E48FFF761FE00287FF45BAF3B682C4820
:104910000223C9F80030FFF757FE00287FF451AF9B
:104920003B68336823F006033360336843F00203C7
:104930003360FFF715FE4FF49070FFF71FFEFFF78F
:1049400001FE98F80000BDE8F0870120BDE8F0877F
:10495000BDE8F087308004402C100B4000D00040B0
:1049600000800001C0100B4028100B4004100B40C9
:1049700044100B4024100B4030100B40BB007F1143
:1049800034100B408477FF1F08100B4010100B40B1
:1049900000001A0800003040A08601000000090253
:1049A00000001A030000090918100B4014100B40F6
:1049B0001C100B4000001B0700001A1000001A37E3
:1049C00000001A0670B5384B1A780546002A68D1DF
:1049D0005B7803B94902354C35484FF6FF732360C5
:1049E000344B4FF48132196043F8042CFFF7ECFD8F
:1049F000002857D1304B3148314A1B6805F140033C
:104A000005F51075216841F0200611F4E00F2660CD
:104A100009D041F4E003254A43F020031360FFF777
:104A200019FE012036E001680905FCD5116843F83C
:104A3000401C116843F83C1C116843F8381C11688D
:104A400043F8341C116843F8301C116843F82C1CDF
:104A5000116843F8281C116843F8241C116843F8B6
:104A6000201C116843F81C1C116843F8181C1168BD
:104A700043F8141C116843F8101C116843F80C1C0F
:104A8000116843F8081C116843F8041C4033AB421A
:104A9000B8D1002023689B07FCD5044B094A1A6053
:104AA00070BD032070BD00BF8477FF1F30100B4026
:104AB00010003A1108100B4010100B4024100B404E
:104AC00020100B4022000001F8B5294B1A7805464A
:104AD000002A4BD15B7803B94902264C26484FF691
:104AE000FF732360254B4FF48132196043F8042C87
:104AF000FFF76AFD00283AD1214BDFF88CE01B68F4
:104B000005F50076274623681A4AD906FBD53B6887
:104B100013F4E00F06D0136843F4E00343F01003EE
:104B2000136016E005F1400255F8043BCEF8003062
:104B3000AA42F9D123680F4943F01003236020688B
:104B400010F4E00009D00B6843F4E00343F01003D5
:104B50000B60FFF77FFD012001E0B242D3D1236853
:104B60009B07FCD5034B074A1A60F8BD0320F8BD2C
:104B70008477FF1F30100B4000003A1808100B40DC
:104B800010100B401200000120100B40084B1A6857
:104B900042F480621A604FF00042DA62FF225A63E8
:104BA000DA6A002AFCDA024B986BC0B2704700BF89
:104BB00000C00240064B1A6842F480621A604FF04F
:104BC0000042DA625863DA6A002AFCDA704700BFF2
:104BD00000C00240F0B5002A134E144F14BF4FF02E
:104BE00060544FF06454002236F8125097FBF5F5EC
:104BF000A94204D3190707D544F0806404E0551C8A
:104C0000172DF7D02A46EFE709495B0751F8222014
:104C100007D522F47043120902F4706244F0007464
:104C20001A4322430260F0BDA407010000879303EA
:104C30006808010010B50446FFF7CCFF204610BD00
:104C400013B5144C052818D8DFE800F00303070B50
:104C50000F1300230122104912E0002301220F4903
:104C60000EE0002301220E490AE0002301220D4933
:104C700006E0002301220C4902E00C490023012236
:104C800001A8FFF7D7FF019B09482360FFF7B8FA97
:104C900002B010BD9477FF1F00366E0100127A003B
:104CA00000093D00C0C62D0080841E00801A060049
:104CB0000007FF1FC37A10B5E3B172B6C37ADC07F1
:104CC00005D5134AC3681468234083611360C37A0F
:104CD0009A0705D50F4A036914682340C36113601E
:104CE000C37A5B0705D50C4A436914682340036205
:104CF000136062B60368DA688A4207D0074A1A600E
:104D0000D960074A41F0804119611A6010BD00BFA7
:104D100080E100E084E100E088E100E001403F0044
:104D200000003F80C37A83B1D90742BF074B826935
:104D30001A60C37A9A0742BF054BC2691A60C37AE8
:104D40005B0742BF034B026A1A60704700E100E054
:104D500004E100E008E100E008B50121007801F07D
:104D600031FE044B1A7822B1002203481A70FFF773
:104D7000D9FF08BD9877FF1F0007FF1F10B5084B2C
:104D80001A78044632B901221A70064B064819688F
:104D9000FFF790FF20780021BDE8104001F012BE1F
:104DA0009877FF1F9477FF1F0007FF1F37B50A4B47
:104DB0001A680092009D1C46FFF7E8FEFF2807D006
:104DC00023680193019B5B1B8B42F5D3002000E01D
:104DD000012003B030BD00BFCC79FF1F70B50C4679
:104DE0004FF4967116460546FFF7E0FF44F0400089
:104DF000FFF7E0FE182126FA01F0C0B2FFF7DAFE55
:104E0000083911F1080FF6D124B1082C14BFFF2086
:104E1000872000E09520FFF7CDFE0021FFF7B6FECA
:104E20000306687003D50131B1F5807FF6D170BDFE
:104E30002DE9F04300234C4E027085B08370336837
:104E400001930446884610460121019F01F0BAFDF6
:104E50000121207801F0D6FD0121207801F0B2FD7A
:104E6000424A136843F4805313600620FFF7E8FEBC
:104E70003F4B40481968FFF71DFF0A21FF20FFF74D
:104E800099FE013911F0FF01F8D13A48FFF74AFFC6
:104E90002046FFF773FF002211462046FFF79EFFD2
:104EA00001280546607007D033680293029BDB1B24
:104EB000B3F5FA6FEFD94EE04FF4D57208212046D2
:104EC000FFF78CFF430701D5A5700BE00421FFF726
:104ED0005DFE013911F0FF016070F8D1AA283AD1C6
:104EE0000223A370A378022B0CBF4FF080494FF030
:104EF0000009002237212046FFF770FF4A4629218A
:104F00002046FFF76BFF0246607038B133680393A9
:104F1000039BDB1BB3F5FA6FEBD91CE0A378022BE4
:104F200012D13A212046FFF759FFA0B9FFF72EFE14
:104F300000F0C000C02804BF0323A370FFF726FEC3
:104F4000FFF724FEFFF722FE2046FFF705FF40464D
:104F5000FFF776FE03E02046FFF7FEFE0025284619
:104F600005B0BDE8F08300BFCC79FF1F3C80044052
:104F70009477FF1F0007FF1F37B50D4B1A6800928B
:104F8000009C05461946FFF701FEFF28687008D10E
:104F90000B680193019B1B1BB3F5967FF3D900208F
:104FA00003E0A0F1FE035842584103B030BD00BFFA
:104FB000CC79FF1F2DE9F0418378032B0E46044680
:104FC00018BF4E021546FFF7D9FE32461121204682
:104FD000FFF704FF002844D12046FFF7CDFF00284B
:104FE0003FD0234B234A2448186005F5FD765A63C9
:104FF000A91C5A6305F5FE785A639E4641450FD0B9
:10500000DF6A17F0F00FFBD0CEF83420DEF83870EE
:1050100001F8017C4FEA272C01F802CC0231EDE7C0
:10502000134A05F500751746B542114B0AD9D36AE4
:1050300013F0F00FFBD0BB6B191206F8021B06F839
:10504000013CF1E70B4A18605A63DA6A12F0F00F7C
:10505000FBD0074B20469B6BFFF77EFE0120BDE88F
:10506000F0812046FFF778FE0020BDE8F08100BF08
:1050700000C00240FFFF009000041F80F8B51D4BE8
:10508000064618684FF0004540F480601860002420
:10509000DD62184659639E462946C56A002DFCDA32
:1050A0001D68175D45F480651D60D9625F63DEF899
:1050B0002C50002DFBDA151902346F781D68B4F5F9
:1050C000007F45F480651D60D9625F63E5D1094BBF
:1050D000DA6A002AFCDAFF20FFF76CFDFF20FFF7F9
:1050E00069FDFFF753FD707000F01F00431F584229
:1050F0005841F8BD00C0024070B5044616460D4642
:1051000031B38378032B18BF4D02FFF737FE2A46D1
:1051100018212046FFF762FE0546C8B93246FE2137
:105120002046FFF7ABFF98B14FF416712046FFF70A
:105130003DFE68B12A460D212046FFF74FFE38B9E3
:10514000FFF724FD20B92046FFF706FE012070BDC1
:105150002046FFF701FE002070BDFFFF014B024A11
:105160001A6070479477FF1F0320003800207047B3
:10517000704710B500F1080204460121006A00F0F2
:10518000F5FD40B1E3692BB9A368E361637963F08E
:105190007F036371012010BD70B50546FFF7E9FF7D
:1051A00008B9002070BD2A6AAB68167C1479023BEE
:1051B00003FA06F6536933445E1E3CB1301900F021
:1051C0001BFD0028EDD0013CE4B2F6E72B6A1A7C07
:1051D0004FF400739340AA691344AB61012070BD82
:1051E00010B50446006900F0D7FC18B1207D024BD1
:1051F00003EB401010BD00BFA877FF1F70B54B1E1A
:1052000001F10A02202403F8014F9342FBD1441E0E
:105210000022072514F8013F0BB32E2B04D10A2DD1
:1052200022D008220A25F5E7104E16F8010F10B11A
:105230008342FAD118E0954217D3A3F121065D2EDF
:1052400013D8A3F16106192E02F1010098BF203B8B
:105250000A44C0B298BFDBB213700246DAE708789E
:10526000203818BF012070BD002070BDC3080100A8
:1052700038B5827904460D460AB1002038BD91F850
:105280002030102B06D1022383714B8CC2615B014D
:1052900083610CE0202BF0D103238371496AC16143
:1052A00000F11802284600F0F5FC0028E5D00023A4
:1052B0000120607123752562A360E360236138BD1E
:1052C0002DE9F041002580460E46471E2C4617F872
:1052D000013F202B0CD0082D05D12E210F48FEF7C1
:1052E000A3FC0134E4B2387802F00EFB0134E4B2DE
:1052F00001350B2DEBD198F80B3003F01803102B70
:1053000005D12F210548FEF78FFC0134E4B2B442E9
:1053100001D22021F6E7BDE8F08100BFC008FF1FE1
:1053200007B50A22B0FBF2F303F1300102FB1303CD
:1053300030338DF8053001A800238DF804108DF866
:10534000063004F07DFA014601A802F06DFA03B0C0
:105350005DF804FB38B50D4D4112044601F2BC71F5
:10536000284601F0F4F92D212846FEF75DFCC4F330
:105370004310FFF7D5FF28462D21FEF755FC04F01A
:105380001F00BDE83840FFF7CBBF00BFC008FF1FBC
:1053900038B50C4D0446C00AFFF7C2FF3A21284633
:1053A000FEF742FCC4F34510FFF7BAFF28463A2146
:1053B000FEF73AFC04F01F004000BDE83840FFF75C
:1053C000AFBF00BFC008FF1F2DE9F84F89468179A4
:1053D000044619B94FF0FF30BDE8F88F4179C9078D
:1053E000F8D5C7688169DFF8E4A0DFF8E4B0C91B2D
:1053F000914228BF11460F468846B8F1000F34D0BD
:10540000A279E168206A022AC1F308054FEA512215
:1054100002D1406A104418E00679013E1640F6B207
:105420005DB956B911B9E269A26006E004F108025B
:10543000A16800F0FDFB0028CCD0226AA068117C96
:1054400052690238884010443044C5F500766279CC
:105450004645A8BF4646530602D4B6F5007F07D19D
:10546000DAF80020904214D102E03846BDE8F88F07
:10547000002100F091FB0028ACD0134B1D44A8196B
:1054800009F1FF32854212D015F8011B02F8011F05
:10549000F8E7DBF800502A78FE2A0FD1014648468B
:1054A000FFF790FAB0FA80F04009002892D0E26845
:1054B0003244B144E260C6EB08089EE701464A4622
:1054C0002846FFF777FDF0E7A877FF1F7007FF1F5B
:1054D000A477FF1F37B58379012B044601D800203C
:1054E0000FE0C36801220DF10701C3F34315FFF775
:1054F0006BFF0128F3D1E36803481F33E36000EB3F
:10550000451003B030BD00BFA877FF1FF8B5837901
:1055100004460E460BB90020F8BD82698A42FAD3D0
:10552000022B01D01EB9A660E6600120F8BD236AF7
:10553000E0681B7C421E03F10901731ECA40CB4088
:105540009A4200D828B9E269A2601D4604F1080712
:1055500009E09B1AF9E73A46A168206A00F068FB67
:10556000013D0028D7D0002DF5D1DDE738B583798E
:10557000054613B390F90530002B1ADA0121FFF725
:105580002FFE0446C8B1AB79012B9CBFAB69C36148
:10559000EB6943831B0C8382094B1B682BB100F121
:1055A000160118309847238B63826B7903F07F03D1
:1055B0006B71BDE8384000F0C7BA002038BD00BFAD
:1055C0009C77FF1F10B50446FFF7D0FF10B10023F2
:1055D000A371012010BDFFFFF7B58379012B0446AD
:1055E0000D460BD14279920708D582698A4205D3CC
:1055F000002A3FD0E668FFF789FF08B900203AE0AB
:105600003DB9E169206A00F00BFC0028F6D0E561A5
:105610001EE001AAA168206A00F00AFB0028EDD074
:10562000206A164B90F8207001994FF6F872102FEF
:1056300008BF134699420BD200F0F2FB0028DDD0E0
:105640006FF07042A168206A00F04CFB0028D5D0B2
:105650006379A56163F07F0363712046FFF786FFDE
:105660000028CBD0B5422946204628BF3146FFF757
:105670004DFF00E0184603B0F0BD00BFF8FFFF0F7C
:1056800038B51C4B03EB41131546DA7A12F0110FB3
:10569000044604D015F0420F01D0002038BD164A50
:1056A0002175126822615A8B998A42EA0141E161AF
:1056B000DA7A12F0180203D1DB69A361012309E051
:1056C000102AEAD104F11802206A00F0E3FA002857
:1056D000E3D00423A37105F00F03002163716B066F
:1056E000A160E16004D52046BDE83840FFF774BFF3
:1056F000012038BDA877FF1F7007FF1F2DE9F04379
:10570000847985B0064688461F46002C77D101A9CA
:105710001046FFF773FD002871D0D8F82030DFF86D
:10572000F8903362C8F80840C8F80C40D8F80C501C
:10573000D8F818309D4221D24046FFF7CBFEC5F382
:105740004315014600285AD0037873B1E52B58D091
:105750000B2201A803F0C8FC0028E7D107F03003B2
:10576000302B4CD03A46294645E034B9D9F80030C0
:10577000357533610B78002B45D1012407F01203F6
:10578000122B3CD134B101213046FFF729FD0446EC
:1057900050B934E098F80630022B30D04046FFF77D
:1057A000FBFC60B334751A4C20220021204601F026
:1057B00079F801AB03CB206061601A889B78A372F3
:1057C000144B22811B682BB104F10E0104F110006F
:1057D000984706E021222274A373282208236274CA
:1057E000E373238A63822383E389E38200F0ACF9C5
:1057F00028B1317D3A463046FFF742FF05E00020F0
:1058000003E0002CB2D0012490E705B0BDE8F0839E
:10581000A877FF1F9C77FF1F7007FF1FF8B51F4673
:10582000837904460D461646E3B907F03003302B62
:1058300018D00B6A036251012846FFF767FE88B152
:105840002846FFF747FE68B103785BB1E52B09D026
:105850002E2B07D03A4606F00F012046BDE8F8404F
:10586000FFF70EBF0020F8BD2DE9F047002311F02F
:10587000030F8AB005460E4617468360C36014BF07
:105880004FF00E08984601F001092846FFF722FE66
:105890000446002864D00378002B61D0E52BF4D0B7
:1058A0002E2BF2D0C37A03F0080303F0FF0A002B7B
:1058B000EBD14FFA8AF3BB420AF1010A04DA202144
:1058C0002948FEF7B1F9F4E741462046FFF7F8FC16
:1058D000B9F1000F09D0208BFFF73CFD20212248B1
:1058E000FEF7A2F9E08AFFF753FDE37A03F018030D
:1058F000102B01D0B2070AD41B4800F0DDFE73075D
:10590000C3D5E37A03F01803102BBED10AE020219F
:105910001548FEF789F900230A22E169124800F0D0
:10592000DBFEE9E7EC68114A01926409013C0023BF
:10593000A4B28DF808308DF80A302246012329469A
:1059400001A8FFF76BFF28B1BA1CD2B2314601A8FB
:10595000FFF78AFF611C49012846FFF7D7FD94E74E
:105960000AB0BDE8F08700BFC008FF1FDC080100D7
:105970002DE9F74F8379012B0446884617460BD152
:105980004379990708D55B070AD5A169E3688B427B
:1059900006D0FFF7BBFD18B9012323710020A9E051
:1059A000B946DFF86CA13BE0206A0679013E06EAC1
:1059B000552616F0FF06C5F3080536D0216AA26801
:1059C000087C4969C5F500731FFA83FBD945A2F12C
:1059D000020238BF1FFA89FB82400A44BBF5007FF0
:1059E000164448D1DAF80020964204BF4FF0FF3247
:1059F000CAF80020414A10680278FE2A36D13146A2
:105A00004046FFF761F8B0FA80F040090028C3D0A3
:105A100008F50078E26802EB0B03CBEB0909E360C1
:105A2000E568B9F1000FBFD14BE0002DC6D1A168E8
:105A300019B9E36993B1A360C0E701AA00F0F8F8CF
:105A4000002857D0236A2E4893F82010019A4FF669
:105A5000F873102918BF03469A4205D32046FFF772
:105A600088FB0028AAD197E7A260A7E74246314603
:105A7000FFF742FBCAE77DB9E168A26991420BD307
:105A800000F062F8002887D01E49CAF800600A7842
:105A900042F001020A7006E00121304600F07CF875
:105AA00000283FF479AF184B1D4405EB0B0042462C
:105AB000854204D012F8011B05F8011BF8E7D84411
:105AC000A8E7A3699D42637901D9A56103E00F4A64
:105AD00012681AB117B163F07F03637163791A0713
