:10000000F8FF0220990100002D8C0000F98B000000
:10001000F98B0000F98B0000F98B0000F98B0000D0
:10002000F98B0000F98B0000F98B00002D8C00008B
:100030002D8C0000F98B0000D1880000958900000C
:100040002D8C00002D8C00002D8C00002D8C0000CC
:100050002D8C00002D8C00002D8C00002D8C0000BC
:100060002D8C00002D8C00002D8C00002D8C0000AC
:100070002D8C00002D8C00002D8C00002D8C00009C
:100080002D8C00002D8C00002D8C00002D8C00008C
:100090002D8C00002D8C00002D8C00002D8C00007C
:1000A0005D880000698800002D8C00002D8C000008
:1000B0002D8C00002D8C00002D8C0000B9910000CB
:1000C0002D8C0000B9A500002D8C000019A70000A0
:1000D0002D8C000041A800002D8C00002D8C00000C
:1000E0002D8C00002D8C00002D8C0000316800004C
:1000F0002D8C00002D8C00002D8C00002D8C00001C
:100100002D8C00002D8C00002D8C00002D8C00000B
:100110002D8C0000AD9400002D8C00002D8C000073
:100120002D8C00002D8C00002D8C00002D8C0000EB
:100130002D8C00002D8C00002D8C00002D8C0000DB
:100140002D8C00002D8C000069A900002D8C000072
:1001500091AA00002D8C00002D8C00002D8C000039
:100160002D8C00002D8C0000758800002D8C000067
:100170002D8C00002D8C00002D8C00002D8C00009B
:100180002D8C00002D8C00002D8C00002D8C00008B
:100190002D8C00002D8C0000584B4CF2205210B5D5
:1001A0001A804DF628121A8000BF00BF08F042FDE9
:1001B000534B4FF030621A60524A9A60524ADA60EA
:1001C000524B4FF470021A60514A136813F4807353
:1001D00001BF50490B604FF4A85313604E4B4F4979
:1001E0001A78100742BF1A7842F008021A704C4B76
:1001F0002A221A704B4A4C4B8B4204D252F8040FFD
:1002000043F8040BF8E7494B494A0021934202D2D4
:1002100043F8041BFAE7474A4748002350F82310E5
:1002200042F823100133662BF8D1444B444A802115
:1002300003F8011B9342FBD1424B3E4A1A60424BEA
:100240008A221A70A3F5805324225A70A0221A70B1
:100250009A799107FCD59A79D206FCD43B4A9379D6
:1002600003F00C03082B394BF9D103221A714622F3
:100270005A719A799406FCD534498A79334B5006E1
:10028000FBD5334A4FF08271116009215160202261
:100290001A709A7902F00C020C2AFAD12D4B2E4AD0
:1002A0001A602E4B2E4A1A6000225A60072243F829
:1002B000042C2C4AC3F80C2D62B608F0BDFD154B7A
:1002C0001B68DA0705D5284808F012FD274B284A95
:1002D0001A60284B1B785B0609D5244C244B2268F6
:1002E0009A4204D1204808F003FD002323600BF05C
:1002F00005F908F0A5FC08F0BAFBFEE70E20054062
:1003000030800440823F04000100002B88ED00E0B3
:1003100010D0034014D0034002D007402013FF1F29
:1003200000E0074014410100F806FF1F2013FF1FE3
:10033000188100200002FF1F0000000000E400E020
:1003400056E400E008ED00E00050064000400640A2
:100350004480044004800440C010050014E000E024
:10036000BFD4010000002020CC11CF5C1CE0034072
:10037000A5C3945A00F00740FFFFFFFFFFFFFFFFF8
:10038000FFFFFFFFFFFFFFFFFFFFFFFFFFFFFFFF7D
:10039000FFFFFFFFFFFFFFFFFFFFFFFFFFFFFFFF6D
:1003A000FFFFFFFFFFFFFFFFFFFFFFFFFFFFFFFF5D
:1003B000FFFFFFFFFFFFFFFFFFFFFFFFFFFFFFFF4D
:1003C000FFFFFFFFFFFFFFFFFFFFFFFFFFFFFFFF3D
:1003D000FFFFFFFFFFFFFFFFFFFFFFFFFFFFFFFF2D
:1003E000FFFFFFFFFFFFFFFFFFFFFFFFFFFFFFFF1D
:1003F000FFFFFFFFFFFFFFFFFFFFFFFFFFFFFFFF0D
:10040000FFFFFFFFFFFFFFFFFFFFFFFFDEF9FFFF23
:1004100010B5054C237833B9044B13B10448AFF33E
:1004200000800123237010BD2013FF1F0000000077
:1004300010410100084B10B51BB108490848AFF343
:1004400000800848036803B910BD074B002BFBD0A0
:10045000BDE81040184700BF000000002413FF1F34
:10046000104101002013FF1F00000000704770477B
:1004700010B50C21044608F019FC204610BDFFFF02
:1004800010B50C4A04460121042005F0F1FD0123BA
:10049000237063701923A3707823E37005F030FF95
:1004A000207105F02FFF0523A37100236071E37114
:1004B000082010BDADF800002DE9F8430646894636
:1004C00017460121154A042005F0D2FD144A9378FD
:1004D00055785D43202D38462C4628BF20240BF04C
:1004E000AFFE85B24FF00208AC4286F8008086F875
:1004F000019006D205F02CFD0A4A0121404605F084
:10050000B7FDA54228BF2546ACB222463946B01CED
:1005100008F0B6FAA01CC0B2BDE8F883C5F8000028
:100520003C13FF1FDBF8000010B5064A044601210A
:10053000042005F09DFDFF23032020706370A3704D
:1005400010BD00BFFBF8000010B5054A04460121AC
:10055000042005F08DFD04232370012010BD00BF91
:100560000FF9000038B5074A04460D460420012162
:1005700005F07EFD052323702B0A6370A570032010
:1005800038BD00BF2BF9000010B5054A0446012113
:10059000042005F06DFD06232370012010BD00BF6F
:1005A0003FF9000010B5054A04460121042005F07A
:1005B0005FFD07232370012010BD00BF51F900002B
:1005C00010B5054A04460121042005F051FD082319
:1005D0002370012010BD00BF63F9000010B50A4A66
:1005E00004460121042005F043FD2046092300F8BC
:1005F000013B064A064B07490BF070FD01232377A8
:10060000002363771E2010BD74F90000591F8A0073
:10061000E471AB0088F9000010B5012188B00446F0
:100620000A4A042005F024FD094B22781A706278EA
:100630005A70A2789A706846E278DA70FFF720FF65
:10064000694602F0E1F808B010BD00BFC3F9000030
:100650003C13FF1F30B50F4A0F4C85B005460121F2
:10066000042005F005FD294601A805F039FE029B8E
:10067000A360A91C9DF80C30237301A805F030FE7F
:10068000029B63619DF80C30237602F037F905B0C8
:1006900030BD00BFD7F900003C13FF1F00B5084A6A
:1006A00089B00121042005F0E3FC01F075FB6846E8
:1006B000FFF76AFF694602F0A7F809B05DF804FB8E
:1006C000EBF9000008B5054A0121042005F0D0FC33
:1006D00002F014F9BDE8084001F028BBFEF9000063
:1006E00008B5054A0121042005F0C2FC01F054FBC5
:1006F000BDE8084002F002B912FA000000B5074A4E
:1007000089B00121042005F0B3FC6846FFF74AFFD9
:10071000694602F079F809B05DF804FB26FA00009A
:1007200008B505F015FC0121034A084605F0A0FCB8
:10073000BDE8084002F0F0B83BFA000008B5044AF2
:100740000121042005F094FCBDE8084002F0D6B871
:1007500060FA000008B5044A0121042005F088FC75
:10076000BDE8084002F0CAB876FA000000B5074AB2
:1007700089B00121042005F07BFC6846FFF720FFCB
:10078000694602F041F809B05DF804FB8BFA0000FD
:1007900030B5044695B0224A0121042005F068FCDA
:1007A0002288ADF80C202246A37852F8030F8DF86A
:1007B0000E30516804AB03C30025906818602246D0
:1007C0008DF81D5052F80F0F8DF80F50516808AB7F
:1007D00003C390681860134A8DF82D5003AB0121B4
:1007E000042005F0B1FC04AB0F4A0121042005F000
:1007F000ABFC1B3408AB0D4A0121042005F0A4FC1E
:1008000002230B4A00940121042005F023FD0CA8CB
:10081000FFF7E4FE0CA901F0F7FF15B030BD00BFF3
:10082000A0FA0000B4FA0000C7FA0000DAFA0000EB
:10083000EDFA0000112803BF0878B0FA80F04009F3
:1008400000207047142804D10878431E58425841AC
:10085000704700207047142803BF0878B0FA80F072
:1008600040090020704708B505F0C0F8003018BFF7
:10087000012008BD08B505F0B9F8B0FA80F04009CC
:1008800008BD132804D10878031F58425841704707
:1008900000207047132803BF0878B0FA80F04009A1
:1008A00000207047132806D10878013802288CBF31
:1008B00000200120704700207047012002F014B989
:1008C000022002F011B9FFFF10B51A4A90B00121C1
:1008D000042005F0CDFB184B1A78022A1C4609D1DA
:1008E000FFF7C1FF10B9FFF7E8FF18B16846FFF73F
:1008F0001BFE0BE02378032B0CD1FFF7BBFF48B1A5
:10090000FFF7DBFF30B96846FFF71EFE694601F0CE
:100910007BFF0DE0FFF7D1FF40B1FFF7D1FF10B132
:1009200000F086FC04E000F031FB01E001F0E6FF9E
:1009300010B010BD00FB00005813FF1FF0B50646B5
:1009400089B0264A0121042005F092FBF378B4789F
:10095000234A3778757803EB0424A4B22346012197
:10096000042005F0B7FBFFF7A8FF58B1FFF7A8FF79
:10097000E4B218B1204600F021FC0BE0204600F064
:10098000DDFA07E005F032F8064618B1214601F01D
:1009900043F930B96846FFF7F7FD694601F034FFC7
:1009A00019E005EB0725ADB22946304601F068F99C
:1009B00083B2ED1AADB22A46E1B2304601F068FAD0
:1009C0000028E7D029466846FFF7CCFD694601F0CC
:1009D0001BFF01F075F909B0F0BD00BF0CFB000072
:1009E00020FB000038B53C4A05460C460420012196
:1009F00005F03EFBA5F11000072862D8DFE800F003
:100A00006A04161A40616156237833B1012B09D16B
:100A1000601CBDE83840FFF71DBE601CBDE83840D3
:100A2000FFF7FABD05F094FA2C4A4DE0BDE83840D6
:100A3000FFF74ABF2378052B1ED8DFE803F0030831
:100A40000C111519601CBDE83840FFF777BFBDE8F1
:100A50003840FFF723BE601CBDE83840FFF732BEC8
:100A6000BDE83840FFF73CBEBDE83840FFF746BE62
:100A7000BDE83840FFF754BE05F06AFA184A23E093
:100A80002378012B0AD005D3022B0BD1BDE83840C7
:100A9000FFF76CBEBDE83840FFF750BEBDE83840F8
:100AA000FFF758BE05F054FA0E4A0DE0237823B93B
:100AB000A01CBDE83840FFF76BBE05F049FA0A4AB2
:100AC00002E005F045FA094A01210846BDE8384030
:100AD00005F0CEBA38BD00BF29FB000030FB000096
:100AE00045FB000059FB00006FFB000088FB000085
:100AF00038B5084A04460D460420012105F0B8FA2D
:100B000029462046FFF796FE10B1034B01221A70CA
:100B100038BD00BF94FB00005813FF1F38B50A4AC8
:100B200004460D460420012105F0A2FA102C01D143
:100B3000002205E029462046FFF784FE10B102227C
:100B4000024B1A7038BD00BFA8FB00005813FF1FEE
:100B500038B50F4A04460D460420012105F088FAF5
:100B6000102C01D100220FE029462046FFF773FE2A
:100B700008B1012208E0122C08D1FFF774FE10B969
:100B8000FFF79BFE10B10322024B1A7038BD00BF65
:100B9000BCFB00005813FF1F38B5124A04460D462F
:100BA0000420012105F064FA102C01D1002213E089
:100BB000FFF760FE28B929462046FFF762FE70B9AC
:100BC00004E0FFF77AFE0028F5D108E02946204628
:100BD000FFF760FE28B10422034B1A7038BD0222D1
:100BE000FAE738BDCFFB00005813FF1F38B5114A94
:100BF00004460D460420012105F03AFA102C01D1DB
:100C0000002214E029462046FFF74CFE08B10322DB
:100C10000DE0FFF72FFE28B929462046FFF731FEE9
:100C200020B938BDFFF749FE0028F5D10222024B5A
:100C30001A7038BDE7FB00005813FF1F10B50D4AAE
:100C40000121042005F014FA00240B4B0B481C7002
:100C50001C22214607F0AEFF2146012001F020FFB3
:100C60002146022001F01CFF00F0FCF8BDE8104016
:100C700000F0C8B9F7FB00005813FF1F3C13FF1F1B
:100C800070B52F4A2F4E04460D460420012105F071
:100C9000EFF929462046FFF7A5FE3378042B1DD82F
:100CA000DFE803F003080D12170029462046FFF77E
:100CB0001FFF1CE029462046FFF730FF17E02946BA
:100CC0002046FFF745FF12E029462046FFF764FF64
:100CD0000DE029462046FFF789FF08E005F038F9C6
:100CE000194A0121002005F0C3F901F095F9347883
:100CF000012C05D80021012001F0D2FE002111E0D5
:100D0000022C06D10121084601F0CAFE002120462E
:100D100009E0032C15BF012100210846012001F044
:100D2000BFFE0121022001F0BBFE3378012B87BFFB
:100D30000121084600210120BDE8704001F0B0BE4D
:100D400002FC00005813FF1F0CFC000010B50D4AF8
:100D500004460121042005F08BF9A4F110000728B6
:100D600007D8DFE800F00D040D0404060604012096
:100D700010BD05F0EDF80121034A084605F078F9A9
:100D8000002010BD1AFC000088FB000038B51E4A88
:100D900005460C460420012105F06AF9A5F1100072
:100DA000072823D8DFE800F02904290A1722221D8A
:100DB000012C24D905F0CCF8144A1AE0052C06D8E9
:100DC000DFE804F01D1B031B1B1D022038BD05F0CE
:100DD000BFF80F4A0DE0022C0FD905F0B9F80D4A03
:100DE00007E074B105F0B4F80B4A02E005F0B0F882
:100DF0000A4A0121084605F03BF9002038BD0420CD
:100E000038BD1D2038BD00BF28FC000030FB0000AD
:100E100045FB000059FB00006FFB000088FB000051
:100E20000648074941600022012382600161426156
:100E300003730376034A044909F0E6BE3C13FF1F1F
:100E400094F80000F806FF1F6F040000014B002219
:100E50001A7070476113FF1F014B00221A70704710
:100E60006013FF1F08B5064A1021042005F000F9A1
:100E7000044A00231360044A1370044A137008BD27
:100E8000CDFC00005C13FF1F6113FF1F6013FF1FE9
:100E9000074A10B510210446042005F0E9F8054B77
:100EA000186884428BBF0022001B1A60186010BDB6
:100EB00037FC00005C13FF1F10B5054A04461021E3
:100EC000042005F0D5F8034B1A6814441C6010BDCB
:100ED0003AFC00005C13FF1F08B50420094A1021EA
:100EE00005F0C6F8084B186801F040F848B1074B08
:100EF00001221A70816A064A0068BDE8084004F0C1
:100F000097BE08BD3FFC00005C13FF1F6113FF1F6D
:100F10004D0E000008B5064A0420102105F0A8F87F
:100F2000044B054801221A70BDE8084004F0B6BE23
:100F300049FC00006013FF1F590E000010B5124A53
:100F400004461021042005F093F8601E05281AD8E5
:100F5000DFE800F003050A0C1115052000E0012070
:100F6000BDE81040FFF794BF012000E00520BDE878
:100F70001040FFF7A1BFBDE81040FFF7ADBFBDE8CF
:100F80001040FFF7C7BF10BDEEFC000000B5154ACA
:100F9000A3B01021042005F06BF8134B1B780BB1A4
:100FA000124A15E0124B1B780BB1124A10E0124B9B
:100FB000186800F0DBFF08B9104A09E00346104941
:100FC00053F8142B0093031D12A80BF087F812AAF4
:100FD0000A2102A8FFF770FA02A901F015FC23B05C
:100FE0005DF804FB07FD00006113FF1F55FC0000C6
:100FF0006013FF1F75FC00005C13FF1F95FC0000D1
:10100000B5FC00001FB5094A102101AC042005F011
:101010002FF8204600F0DEFA94E80700044B83E83E
:101020000700044B03221A7004B010BDC8FC000076
:101030006413FF1F6213FF1F30B5184C23786278CA
:1010400003F5FA6318441144CAB280B242F20F7138
:10105000002808BF08460C21B2FBF1F501FB152260
:1010600012F0FF0289B0A37803D0022A08BF01233F
:1010700000E00A46002103916179029121790191F2
:1010800005ADE17800910146284605F067F995E83D
:10109000070084E8070009B030BD00BF6413FF1FDC
:1010A00030B51E4B1B7887B0052B2ED8DFE803F038
:1010B00003080B101419002300931A46012115E0B0
:1010C0000121002001E000210120FFF7B5FF23E00E
:1010D00000230093012208E0002200920123114620
:1010E00004E00123009300231A4619460C4C03AD7B
:1010F00002A805F0D5F902AA2146284605F0C0F954
:1011000095E8070084E8070006E004F021FF054A9F
:101110001121012004F0ACFF07B030BD6213FF1FA6
:101120006413FF1FD7FC000030B5214B1B7887B03C
:10113000052B34D8DFE803F003090D13181E002334
:1011400000931A464FF0FF311AE04FF0FF310020B4
:1011500002E000214FF0FF30FFF76EFF26E0002392
:1011600000934FF0FF320AE0002200924FF0FF336D
:10117000114605E04FF0FF33009300231A4619464D
:101180000C4C03AD02A805F08BF902AA21462846B3
:1011900005F076F995E8070084E8070006E004F01A
:1011A000D7FE054A1121012004F062FF07B030BDCF
:1011B0006213FF1F6413FF1FD7FC00001FB5044616
:1011C000184A0420102104F053FF601E052826D879
:1011D000DFE800F0030609101822FFF761FF1EE0A8
:1011E000FFF7A2FF1BE0104A13780BB1013B07E0A9
:1011F000052305E00C4A1378052B14BF01330023A7
:1012000013700CE001AC204600F0E4F994E807000C
:10121000064B83E8070002E0044800F005FA04B03A
:1012200010BD00BFE9FC00006213FF1F6413FF1F25
:1012300010B5244AA8B01021042004F019FF224B55
:101240001B78052B34D8DFE803F0030507090B0DE5
:101250001E4908E01E4906E01E4904E01E4902E05E
:101260001E4900E01E4906A80AF07EFF1D4906A897
:101270004B788A78059088684FF47A74B0FBF4F064
:1012800004904879039008790290C8780190097811
:1012900001F5FA61009118A813490AF01FFF18AA76
:1012A0000A2108A8FFF708F908A901F0ADFA06E03D
:1012B00004F04EFE0D4A1121012004F0D9FE28B0A1
:1012C00010BD00BF02FD00006213FF1F10FD0000F3
:1012D00016FD00001CFD000022FD000028FD00009E
:1012E0002EFD00006413FF1F34FD0000D7FC00003A
:1012F0000021014805F0C0B86413FF1F012107F069
:1013000053B990F8383090F839209A4281BF5A1C6E
:101310001B1880F83820187E98BF4FF0FF307047B8
:10132000031103EB830300F00F0000EB4300C0B296
:1013300070470A23B0FBF3F203FB120343EA0210E7
:10134000C0B2704708B5024806F0F2FF012008BDA0
:10135000E407FF1F38B50F4C0125D023022120469A
:1013600084F83B3084F85E5084F85D5006F096FFB8
:101370002046FFF7C3FF2B462A466821204607F088
:101380008FF92046FFF7BDFF00F0E000E03818BFFE
:10139000012038BDE407FF1FF8B5284C0D46012693
:1013A000D0270321204684F83B7084F85E6084F8DF
:1013B0005D6006F073FF6879FFF7BBFF01462046CA
:1013C00006F06CFF2879FFF7B4FF0146204606F0CF
:1013D00065FFE878FFF7ADFF0146204606F05EFFA7
:1013E000A878FFF7A6FF0146204606F057FF002128
:1013F000204606F053FF6878FFF79BFF0146204622
:1014000006F04CFF2878FFF794FF0146204606F0CF
:1014100045FF2046FFF772FF0221204684F83B700B
:1014200084F85E6084F85D6006F038FF0021204695
:1014300006F034FF2046FFF761FFF8BDE407FF1F09
:101440002DE9FF47294C0646D023012503212046DC
:1014500084F83B3084F85E5084F85D5006F01EFF3F
:101460002046FFF74BFF2B4607226821204607F056
:1014700017F92046FFF745FF00F07F00FFF750FF08
:1014800082462046FFF73DFFC0B2FFF749FF814685
:101490002046FFF736FFC0B2FFF742FF80462046E6
:1014A000FFF72FFFC0B2FFF73BFF07462046FFF7CD
:1014B00028FF2046FFF725FFC0B2FFF731FF0546A2
:1014C0002046FFF71EFFC0B2FFF72AFF002300F5FA
:1014D000FA6103938DE800073B462A4689B23046FD
:1014E00004F03CFF304604B0BDE8F087E407FF1F7E
:1014F0001FB501AC2046FFF7A3FF9DF806301F2B58
:1015000007D89DF805300C2B03D89DF80730182B11
:1015100005D90C4A0221012004F0AAFD10E007F0D1
:1015200057FC094B9DF809105A79914205D0074A9A
:10153000106094E8070083E80700054B01221A7049
:1015400004B010BD68FD00007413FF1F8413FF1F5B
:101550008013FF1F7FB5154C154A00260221042079
:10156000267004F085FD134B01AD1E70124B314601
:1015700028461E6004F080FF95E807000F4B83E8C3
:1015800007000F48FFF7DEFE0D48FFF7E3FE30B916
:1015900004F0DEFC0B4A0221012004F069FDFFF794
:1015A000A7FF0123237004B070BD00BF8113FF1F8C
:1015B0008CFD00008013FF1F8413FF1F7413FF1F97
:1015C0007013FF1F97FD0000014B1878704700BF94
:1015D0008113FF1F10B5044607F0FAFB0E4B196884
:1015E0000E4B8842A0EB010138BF01F1FF31994257
:1015F00009D90B490B4804F050FFFFF779FF20464B
:10160000FFF7E8FF06E0074804F047FF05492046DA
:1016100004F0BAFE204610BD8413FF1F40420F00A5
:101620003F420F007413FF1F10B502210446054A04
:10163000042004F01DFD21460348BDE81040FFF7DB
:10164000ABBE00BFC7FD00007013FF1F00210148A3
:1016500004F012BF7413FF1F30B50C218BB00420AF
:10166000394A3A4C04F004FD00253949256001202F
:1016700000F00EFE18B904F06BFC364A09E003AA2C
:101680001C21284600F05CFE1B2807D804F060FCF3
:10169000314A0C21012004F0EBFC52E02F4A0C21CE
:1016A000032004F0E5FC039B2D4A0C21032004F0E9
:1016B00011FD0499684604F0DFFE6B46294A0C21AF
:1016C000032004F07BFD05AB274A8DF823500C2145
:1016D000032004F039FD099B244A0C21032004F067
:1016E000F9FC099B2360B3F5007F09D904F030FCB5
:1016F0001F4A0C21022004F0BBFC4FF4007323604E
:1017000023681C4A03EB830103EB4101890089B282
:101710001C2000F015FE22682C235343984209D266
:1017200004F016FC144A0C21012004F0A1FC074B24
:1017300000221A60114A0C21032004F099FC00F0E9
:10174000EFFD0BB030BD00BFD4FD0000A013FF1FA4
:10175000E4FD0000F0FD000005FE000021FE000099
:1017600052FE000063FE000074FE000085FE0000D3
:1017700096FE0000B013FF1FD4FE0000EBFE000039
:1017800010B5124C124A0C21042004F071FCFFF732
:1017900063FF23689BB904F0DBFB0E4A0C21022097
:1017A00004F066FCFFF758FF236843B904F0D0FB50
:1017B000094A0C210120BDE8104004F059BC074B38
:1017C00080221A73064B00221A7010BDA013FF1F4F
:1017D00008FF000010FF00003CFF00008813FF1FFF
:1017E0009C13FF1F70B50E4A0C210446042004F020
:1017F0003FFC0C4B0C491A682C250023934206D061
:1018000005FB03100668A64209D00133F6E704F091
:101810009FFB0220054A0C2104F02AFC002070BD29
:101820005CFF0000A013FF1FB013FF1F6AFF000042
:1018300010B50C46FFF7D6FF48B1836AA34206D124
:10184000074A0C21042004F013FC012010BD04F011
:101850007FFB044A0C21022004F00AFC002010BD8A
:101860008DFF0000A8FF000030B53A4A89B00C2176
:10187000042004F0FDFB3849012000F009FD044676
:1018800038B904F065FB354A0C21012004F0F0FB67
:101890005CE000F0E3FD324A03460C21042004F032
:1018A00019FC00F0DBFD00281ADC2E4A0C21032075
:1018B00004F0DEFB01A8FFF78DFE01A804F074FD23
:1018C0000025059001230C2104A80493069504F03B
:1018D00085FA04AA07901021284600F065FD2CE047
:1018E000002000F0C9FD04AA1021002000F028FD0E
:1018F0000F2805D804F02CFB1B4A0C21012018E00E
:101900000C2104A804F06AFA079B184A05460C212A
:10191000042004F0DFFB2B46154A0C21042004F0C0
:10192000D9FB079B9D4208D004F012FB114A0C2101
:10193000002004F09DFB002408E004AB03CB0E4A1A
:10194000106018685160906000F0EAFC204609B011
:1019500030BD00BFC4FF0000DFFF0000EBFF000050
:10196000070001001F000100500001006E0001008F
:10197000840001009A000100A413FF1F1FB5164A3E
:101980000C21042004F074FB1449012000F080FCB9
:10199000044638B904F0DCFA114A0C21012004F0A5
:1019A00067FB15E00F4A106851686B4603C39068E7
:1019B00018600C21684604F011FA6A460390102161
:1019C000002000F0F1FC002000F056FD00F0A8FC23
:1019D000204604B010BD00BFBF000100DFFF0000C3
:1019E000EBFF0000A413FF1FF0B5314A89B00C21B2
:1019F000042004F03DFB2F49012000F049FC05467E
:101A000038B904F0A5FA2C4A0C21012004F030FB6F
:101A10004BE000F023FD294F294A03460C21042006
:101A200004F058FBB868182601387043103000F0F5
:101A300023FDB868013802AC7043314622461030AD
:101A400000F07EFC33461F4A00940C21042004F071
:101A500001FC1421204604F0C1F9079B1A4A0646EE
:101A60000C21042004F036FB3346184A0C210420D4
:101A700004F030FB079B9E4208D004F069FA144A38
:101A80000C21002004F0F4FA00250EE0114B06AE04
:101A9000224603CAB24218605960144603F1080393
:101AA000F6D11068186000F03BFC284609B0F0BD84
:101AB000DB000100DFFF0000EBFF0000A413FF1FAD
:101AC00007000100F40001006E0001008400010025
:101AD0009A0001008813FF1F70B5214A8AB00C21BB
:101AE000042004F0C5FA1F49012000F0D1FB044690
:101AF00038B904F02DFA1C4A0C21012004F0B8FA80
:101B00002AE01A4B04AA03F1100615461868596812
:101B1000144603C40833B3422246F7D11868206044
:101B20001421284604F05AF9114C0990294618202E
:101B300000F080FC002000F09FFC00F0F1FBA368A7
:101B400001A80133A360FFF745FD01A804F02CFCB8
:101B50006060FFF713FF044620460AB070BD00BF67
:101B600001010100DFFF0000EBFF00008813FF1FF1
:101B7000A413FF1FF0B5234A87B00C21042004F002
:101B800077FA2149012000F083FB054638B904F0BB
:101B9000DFF91E4A0C21012004F06AFA2FE01C4BE9
:101BA0006A4603F110076C4618685968164603C662
:101BB0000833BB423246F7D1186830601421204602
:101BC00004F00CF9134B059098681821013848432C
:101BD0002246103000F0E8FB002000F04DFC0C4BDA
:101BE000224604AE144603CCB44218605960224623
:101BF00003F10803F6D12068186000F091FB284635
:101C000007B0F0BD17010100DFFF0000EBFF00008F
:101C10008813FF1FA413FF1F38B5154A04460D464D
:101C200004200C2104F024FA2046FFF7DBFD0446D3
:101C3000A8B10123013D03FA05F52B460D4A0C21FD
:101C4000042004F047FA0420A38C0B4A0C2104F072
:101C500041FAA38C2B420CBF0120002038BD04F0B8
:101C600077F9064A0C21022004F002FA204638BD1A
:101C700031010100410101004D0101005901010044
:101C800038B50D4A04460D4604200C2104F0F0F945
:101C90002046FFF7A7FD044628B1C08C64236843A3
:101CA000B0FBF3F038BD04F053F9044A0C210220D4
:101CB00004F0DEF9204638BD6D0101005901010034
:101CC00038B5154A0C21042004F0D2F9FFF78CFE38
:101CD000044628B904F03CF9104A0C21012016E012
:101CE0000F4B1A7B42B104F033F90E4A0C2101204C
:101CF00004F0BEF900240CE001251D73FFF73AFF44
:101D0000044630B904F024F9074A0C21284604F0AF
:101D1000AFF9204638BD00BF830101009A010100E0
:101D20008813FF1FB6010100E901010038B5154A0B
:101D30000C21042004F09CF9FFF756FE044628B954
:101D400004F006F9104A0C21012017E00F4B1D7B0F
:101D5000012D08D004F0FCF80D4A0C21012004F0FC
:101D600087F900240CE003221A73FFF703FF0446EF
:101D700030B904F0EDF8074A0C21284604F078F950
:101D8000204638BD060201009A0101008813FF1F9A
:101D90001E020100E90101001FB5194A0C210420AF
:101DA00004F066F9FFF720FE044618B904F0D0F8F5
:101DB000144A1DE0144C237B012B08D904F0C8F809
:101DC000124A0C21012004F053F9002414E043F0DE
:101DD000100301A82373FFF7FDFB01A804F0E4FA48
:101DE0006060FFF7C7FE044630B904F0B1F8084A56
:101DF0000C21012004F03CF9204604B010BD00BFC6
:101E0000520201009A0101008813FF1F68020100BD
:101E1000E90101001FB5194A0C21042004F028F93A
:101E2000FFF7E2FD044618B904F092F8144A1DE0E9
:101E3000144C237B012B08D904F08AF8124A0C2198
:101E4000012004F015F9002414E043F0200301A858
:101E50002373FFF7BFFB01A804F0A6FA6060FFF749
:101E600089FE044630B904F073F8084A0C210120B9
:101E700004F0FEF8204604B010BD00BFA30201002C
:101E80009A0101008813FF1F68020100E9010100A7
:101E90002DE9F0432E4C85B08146884617460C212B
:101EA0002C4A04201E4604F0E3F8237B012B17D8AC
:101EB00004F04EF8284A0C21012004F0D9F801A8BA
:101EC000FFF788FB01A804F06FFA6368C01A1428B2
:101ED00039D9224A0C21022004F0CAF8FFF79AFFF0
:101EE000FFF7C2FC054618B904F032F81C4A0EE0B0
:101EF0001C4B9B6823B923706370A370E3700EE0E2
:101F0000FFF772FD054638B904F022F8164A0C2195
:101F1000012004F0ADF817E02368013323600023AB
:101F200001A82373C4F8089084F80D80C4F80E70DB
:101F30006682FFF74FFB01A804F036FA6060FFF7F6
:101F4000CBFD054600E00025284605B0BDE8F0833E
:101F50008813FF1FBA020100D00201001403010020
:101F60006B030100A413FF1F9C03010010B5084A76
:101F700004460C21042004F07BF8064B1B68A342A6
:101F800083BF054B2C2000FB0430002010BD00BF98
:101F9000D9030100A013FF1FB013FF1FF0B5194DA7
:101FA000194A85B007460E4604200C2104F060F85B
:101FB0002A78164968460AF091F86B46144A0C21B3
:101FC000042004F0C1F86946012000F061F90446DC
:101FD00040B903F0BDFF01200E4A0C2104F048F87F
:101FE00020460DE000F07CFA3A46B1B2002000F045
:101FF000DBF900F095F92B78013303F01F032B7008
:1020000005B0F0BD9C13FF1FF0030100FD030100AC
:102010000804010020040100704738B5012204467D
:102020000D4606F0A9F8024628B929462046BDE823
:10203000384006F0A1B8012038BDFFFF0421F8B5F3
:10204000344A354F354C364D084604F011F800231C
:102050003B702370FE232B7004F0C8FC064604F08E
:10206000B3FCA8701EB103F073FF2E4A07E02946A7
:102070002D48FFF7D2FF38B903F06AFF2B4A04213D
:10208000012003F0F5FF14E02749294805F078FA0C
:102090000421012308463B7003F050FF48B104219E
:1020A0000846244A03F0E4FF32460721204805F0A1
:1020B00063FD0F220121204805F03EF818B903F016
:1020C00047FF1E4A07E01C491D48FFF7A6FF40B91D
:1020D00003F03EFF1B4A04210120BDE8F84003F055
:1020E000C7BF1749184805F04BFA042101230846D9
:1020F000237003F023FF58B104210846134A03F06C
:10210000B7FF002207211048BDE8F84005F034BDB4
:10211000F8BD00BF3F040100006CFF1F4C6CFF1FA7
:102120004D6CFF1F47040100B06BFF1F6A040100E4
:10213000286CFF1F9C040100506CFF1FB9040100B4
:10214000D86BFF1FDC040100046CFF1F0E050100AB
:102150000A7902714A7942718A7982718A68826049
:10216000CA68C2600A6902610A7D02758A69826171
:10217000CA69C2610A6A02627047FFFF30B5042172
:102180008FB00546394A084603F072FF384B059375
:10219000384B9B790024012B8DF818408DF81A409C
:1021A00005D803F0D5FE344A042102203DE02B5D22
:1021B0002F2B19D08BB904210846304A03F058FF61
:1021C000042108462A4603F053FF13232A462949CF
:1021D00005A805F01BFC60BB22E00134102CE6D101
:1021E00003F0B6FE264A1EE02246294601A806F064
:1021F00047FC0EAB53FA84F30421002203F8342C7D
:102200000846204A03F034FF0421084601AA03F0DF
:102210002FFF012301AA174905A805F0F7FBB0B964
:1022200003F096FE184A0421012003F021FF00204C
:102230001AE0104805F04EFB18B903F089FE134A66
:10224000F1E705A90B48FFF783FF01200CE00948DF
:1022500005F040FB0028F0D005A90648FFF778FFFD
:10226000601C2844FFF78AFF0FB030BD2B0501002A
:10227000383B0100546CFF1F380501006505010063
:1022800099050100B90501006F05010084050100F1
:1022900038B50D4604210446184A084603F0E8FE06
:1022A000174805F017FB012C0AD1164B1B782BB9E8
:1022B00003F04EFE144A042102201AE013490BE0F9
:1022C000022C11D1124B1B782BB903F041FE114A9D
:1022D000042120460DE010490948FFF739FF284640
:1022E000BDE83840FFF74ABF03F032FE0B4A042135
:1022F000012003F0BDFE002038BD00BFCE05010067
:10230000546CFF1F006CFF1FD7050100286CFF1FD6
:102310004C6CFF1F02060100046CFF1F2D0601001C
:1023200008B504210846044A03F0A2FE0348BDE8AC
:10233000084005F0CFBA00BF44060100546CFF1FEF
:102340002DE9F0410F46144C0421064690460846FC
:10235000124A03F08DFEA579012D11D13146204698
:1023600005F05CFA28B903F0F3FD0D4A0421284674
:102370000BE03A4641462046BDE8F04105F0ACB9D5
:1023800003F0E6FD074A0421012003F071FE4FF03F
:10239000FF30BDE8F08100BF546CFF1F5A060100FA
:1023A00063060100770601002DE9F0410F461B4E40
:1023B0000421044690460846194A03F059FEB579AF
:1023C000012D20D12146304605F028FA18B903F036
:1023D000BFFD144A11E03A464146304605F050FC34
:1023E000041E03DA03F0B4FD0F4A06E0304605F0A0
:1023F00045FA28B903F0ACFD0C4A0421284607E051
:102400002046BDE8F08103F0A3FD094A0421012024
:1024100003F02EFE4FF0FF30BDE8F081546CFF1F3B
:102420009906010063060100A3060100B70601003A
:102430007706010038B50D4604210446054A0846D2
:1024400003F016FE044B2A4621469869BDE8384041
:10245000FFF7AABFD2060100546CFF1F08B5042184
:102460000846034A03F004FE024B986908BD00BF0A
:10247000DD060100546CFF1F30B5C3B002AC22462C
:102480004FF480710546FFF75BFF38B903F060FD3C
:102490000E4A0421012003F0EBFD14E02B460C4A08
:1024A0000421052003F016FE0A4B0B4A9B69042108
:1024B000052003F00FFE00944FF48073074A0421B7
:1024C000052003F0C7FE43B030BD00BFE5060100A4
:1024D000FA060100546CFF1F0807010016070100EF
:1024E00008B504210846044A03F0C2FD0021034850
:1024F000BDE8084005F0F8B924070100546CFF1F3F
:102500000D4A002393700D4A93700D4A0221116009
:1025100082F820300B4A116082F820300A4A0B49B9
:102520001371116093710A4A137111609371094A12
:1025300013711160937170474D6CFF1F506CFF1F3A
:10254000B06BFF1FD86BFF1F286CFF1F383B0100CB
:10255000046CFF1F546CFF1F70B5084C084E2546D5
:102560000849074800F0E6F9207018B105493078AD
:10257000FEF786FB2B78002BF2D170BD796CFF1F24
:10258000786CFF1F7A6CFF1F10B503F0E9FC042084
:1025900003F0BEFC0421002003F0CAFC03210A2042
:1025A00003F0C6FC0321082003F0C2FC032109202C
:1025B00003F0BEFC0321052003F0BAFC03210E202A
:1025C00003F0B6FC03210F2003F0B2FC2E4C0321D4
:1025D000012003F0ADFC41F2883006F017FC2246E2
:1025E0000021032003F044FD284A0021032003F0CA
:1025F0003FFD274A0021032003F03AFD254A002130
:10260000032003F035FD22460021032003F030FDB6
:10261000214A0021032003F02BFD204A0021032042
:1026200003F026FDFEF796FF00F018FAFFF706FD0F
:10263000FFF7A6F800F086F8FEF700FB012003F094
:1026400073FB174A0021032003F012FD154B0222F1
:102650001A70154B45F2E4711980144B1A6800206A
:10266000186002F04002124842F02A0201601A602B
:10267000104A114911601A6842F040021A600F4B6B
:102680004FF400621A6010BD2D07010054070100CD
:102690007B070100A2070100B52F0100C907010057
:1026A000DD070100F8770020FA7700200090034052
:1026B000089003407007FF1F5925000004E100E067
:1026C00008B50420054A002103F0D2FC03F028FAE3
:1026D0004FF4FA70BDE8084006F098BBFD07010012
:1026E00038B5074A04460D460420052103F0C0FC16
:1026F000A0B20DB140F48070BDE8384006F0BEBC19
:102700009D06010010B50D4A04460521042003F082
:10271000AFFC06F017FD002809DC094A052102205C
:1027200003F0A6FC4FF47A63013BFDD1F1E706F01C
:1027300019FD2070C0F3002010BD00BF702E0100F5
:102740000808010008B5094A0521042003F090FC9F
:1027500046F2A81006F0D8FBA42006F04BFC044A71
:1027600000231370034A137008BD00BF1D08010049
:10277000C86CFF1FBC6CFF1F37B506F0E3FC041EDE
:102780001D4D07DD1D4A0521042003F071FC0023C7
:102790002B702EE0032006F0DBFA012826D1184A20
:1027A0000521042003F064FC2A78164B82B91B68CB
:1027B0000093009B13F1650F8ABFAB606433642301
:1027C0006B604FF0010398BFAA602B70002011E0EE
:1027D0001B680193019BA9686A685B1A9A424FF0D3
:1027E000000406D22C70FFF7ADFF02E00020287035
:1027F00000E0204603B030BDC86CFF1F2608010072
:1028000041080100447A00202DE9F04186B00D46D0
:10281000064600910346344A0521042003F01AFDC0
:1028200006F1FF386F1EA8440024474508D017F86A
:10283000010F0021FFF754FF3B781C44E4B2F4E79A
:1028400001212046FFF74CFF284A294C13680493C6
:10285000049B274F991D8ABFA3600533052390462B
:10286000636098BF00224FF0010398BFA2602370FD
:102870002378B3B1D8F800300593059BB9687A681E
:102880005B1A9A420DD21A4B00221A7004E09DF88E
:102890000F302BB3AA2B18D129463046FFF7B4FFCF
:1028A0001FE0FFF769FF0028E2D00DF10F00FFF7EE
:1028B00029FF04460028EAD003F04AFB01200D4A14
:1028C000052103F0D5FB00200BE0FF2BE4D003F043
:1028D0003FFB0120084A052103F0CAFB204600E027
:1028E000012006B0BDE8F08157080100447A0020BD
:1028F000BC6CFF1F690801009608010008B505219E
:102900000420044A03F0B4FB01210020BDE8084084
:10291000FFF7E6BEC308010008B505210420044AFC
:1029200003F0A6FB0121FF20BDE80840FFF7D8BE59
:10293000D00801002DE9FF4705460E463B4A052118
:10294000042003F095FBFFF717FF00286AD0284604
:10295000FFF7D8FE002865D02F7807F0F803102B7A
:1029600060D10123324A00950521042003F072FC56
:102970002878FEF7EBF934468146C6EB04085FFA87
:1029800088F8C1450CD92046FFF7BCFE23781F44C8
:102990000134FFB20028F0D003F0DAFA254A22E031
:1029A00031782878FEF7F2F94FF0000982465FFA95
:1029B00089F303EB08049A45E4B20AD93019FFF70A
:1029C000A1FE335D1F44FFB209F101090028EED0DA
:1029D000E2E704A8002300F8013DFFF793FE38B1B9
:1029E00003F0B6FA144A0521012003F041FB19E077
:1029F0009DF80F30BB4203D003F0AAFA0F4AF2E76A
:102A00000134E4B2012C4FF0040083BF009623464A
:102A10000B4A00959CBF01230A4A052103F01AFCCA
:102A2000204600E0002004B0BDE8F087DE08010089
:102A3000E7080100F40801002B0901006809010002
:102A40008F090100A7090100024A00231370024AFE
:102A500013707047C86CFF1FBC6CFF1F08B50F4A8E
:102A60000F21042003F004FB0121232006F07EF94E
:102A70000121242006F07AF90221202006F076F9BF
:102A800002211F2006F072F902211E2006F06EF9C5
:102A900002211D20BDE8084006F068B9C109010007
:102AA00038B50F4A05460C4604200F2103F0E0FA22
:102AB000012D0CD0022D01D1242009E003F048FAA9
:102AC000084A0F210120BDE8384003F0D1BA232085
:102AD0000CB1012100E02146BDE8384006F018B9EC
:102AE000CB090100D809010070B5114A0F21064633
:102AF000042003F0BDFA202006F02AF905461F2025
:102B000006F026F904461E2006F022F9800040EA6D
:102B100044041D2006F01CF925436CB244EAC000B1
:102B200026EA000010F00F0018BF012070BD00BFA2
:102B3000FB090100704710B55821044606F0B6F8AD
:102B4000204610BD0F2A38B504461D4617DD00F19A
:102B5000140201F1100351F8040B42F8040B9942DE
:102B6000F9D1226B0021201D06F024F81023E36226
:102B700084F83450802384F83530012038BD00209B
:102B800038BD40F3C01303F01B0383EA4000C0B21A
:102B90007047FFFF2DE9F04F044685B042B901F1BF
:102BA0000F03029304F10F030027B24E019382E05A
:102BB000B04DB14F002001F10F0E4B7BEE5C0B7856
:102BC0005E40C35D73400B708B7BEE5C4B78734053
:102BD0004B70CB7BEE5C8B7873408B700B7BEE5C29
:102BE000CB785E400B4603F8036F13F801CF13F860
:102BF000046C73458CEA06061E70F6D101300A2873
:102C0000DBD1631E4D1E04F10F0613F8017F15F88A
:102C1000010FB34280EA07001870F6D1BFE7DD78F4
:102C200013F8010D454099421D71F8D14B7BF35CBF
:102C30005840914BDB1B5B7A58408B7B0870F05CF3
:102C40004B7843404B70CB7BF05C8B7843408B7070
:102C50000B7BF05CCB784340CB70002F57D1607A70
:102C6000637B60736079607260786071A07AA57828
:102C70006370A070A37BE079A572A579A371E37856
:102C8000E070E07AE071E07BA573E373E072631EAD
:102C900001F1FF3C13F8010F784D15F800E01CF826
:102CA000010F8EEA0000187001988342F2D10137BB
:102CB0000A2F00F0CF8012B101F10C03AFE7631EC1
:102CC0004D1E13F801EF15F8010F8EEA0000305C7D
:102CD000187001988342F4D1607963786070607AEB
:102CE0006071607B6072A078A57A6373A072A3792B
:102CF000E07AA570A57BA373E37BE073E079E072D3
:102D0000E078A571E071E3700FB1092F7FD0002347
:102D1000009342E06B1C05F1020A05F1030914F867
:102D200005B0E05C14F809E014F80A80039388EA1F
:102D30000E088BEA000080EA0808FFF722FF8BEA02
:102D4000080E80EA0E006055039B14F80A00E55C4B
:102D50006840FFF716FF88EA0505039B6840E054CA
:102D600014F80A5014F809006840FFF70AFF88EACF
:102D70000505684004F80A0014F809508BEA0500BC
:102D8000FFF7FFFE009B88EA0508013380EA080090
:102D9000042B04F80900009336D0009B9D00EDB28F
:102DA000002AB7D005F1020B14F805A014F80B00A7
:102DB0008AEA0000FFF7E5FEFFF7E3FE05F10109EF
:102DC00005F1030814F809E0039014F808008EEAEE
:102DD0000000FFF7D6FEFFF7D4FE039B8AEA030A42
:102DE00004F805A014F809E080EA0E0E04F809E0E2
:102DF00014F80BE083EA0E0304F80B3014F80830E3
:102E0000584004F8080085E7002A7FF428AF4B7B80
:102E1000F05C0B785840184BFB5C43400B708B7B8D
:102E2000F05C4B7843404B70CB7BF05C8B7843403D
:102E30008B700B7BF05CCB7858400B4603F8030F8C
:102E400013F8015F13F8040C68401870029883426D
:102E5000F6D12CE75AB9631E01390F3413F8010F6C
:102E600011F8012F9C4282EA00021A70F6D105B0D7
:102E7000BDE8F08F240A0100240B01002E0B010095
:102E8000F0B58E46C16A102985B01DD100F1140538
:102E90006E4600F12404EC4628686968374603C78B
:102EA0000835A5423E46F7D111467046103251F81A
:102EB000044B40F8044B9142F9D170461A466146E2
:102EC000FFF768FE012000E0002005B0F0BDFFFF25
:102ED0000022C26280F83420FF2280F83520024AA6
:102EE0000260102202637047140A010070B50446A4
:102EF0001546A2B183684068D618864208DD03F003
:102F000027F8084A0621012003F0B2F8002070BD1E
:102F10002068184405F0B4FDA3681D44A560012095
:102F200070BD00BF2E0C0100704710B54FF4EC715E
:102F3000044605F0BBFE204610BDFFFF2DE9F04121
:102F400042680468DFF888E15F4E84EA121303F0F8
:102F50000F3384EA030082EA03135C4A80EA804468
:102F60002240504080EA9242584883EA83442040FD
:102F7000434083EA904382EA530000F0553082EAEE
:102F8000000583EA400080EA152202F0FF1280EA81
:102F9000020485EA022282EA540000F055304240E1
:102FA000130984EA400000F47F4403F07063234374
:102FB000040404F47F042343C0F30740034322F0D6
:102FC0007042083100275EF8270030B195069C0654
:102FD00045EA920544EA930405E0D506DC0645EA95
:102FE000520544EA530425F07042D009C2F3811C13
:102FF00000F03C004CEA00004FEA923CC2F3433838
:103000000CF0300C48EA0C0C40300CF1800C56F8F7
:10301000208056F82C0005F03F0C48EA000056F8D6
:103020002C504FEA525C28430CF0060CC2F30055BA
:103030004FEA925845EA0C0C08F038084CEA080CA4
:103040000CF1C00C24F0704356F82C504FEA132CAE
:1030500005430CF03C0CC3F3C11040EA0C0C04F027
:103060003F04C3F3C53000F5C07004F580740CF55F
:10307000A07C56F8208056F8240056F82C4048EAE8
:10308000000020439C0DC3F3435C04F030044CEA81
:10309000040404F5E074013756F824402043ACB230
:1030A00044EA0044000C000440EA15404FEAB474BE
:1030B0004FEAB060102F41F8084C41F8040C01F1C0
:1030C000080180D1BDE8F081C41901000000CCCC1A
:1030D000C42101002DE9F0414368076887EA131510
:1030E00005F00F356F4083EA051585EA17439BB25B
:1030F00085EA030487EA034383EA940505F0333540
:1031000083EA050684EA850585EA162303F0FF13A2
:103110005D4086EA032383EA550404F05534634096
:1031200085EA44054FEA73734FEA7575A14C002A8E
:1031300000F08A8001F180070E684A685E40C6F39D
:10314000852CC6F3850E0CF1800C54F82E8054F8B3
:103150002CE04FEA966C0CF5C07CC6F3854606F56C
:10316000807654F82CC054F826605A4088EA0E0E37
:103170004FEA32128EEA0C0E8EEA060E960E06F515
:10318000E076103154F826608EEA060EC2F385060A
:10319000403654F826608EEA060EC2F38526C03605
:1031A000C2F3854202F5A07254F8266054F822203A
:1031B0008EEA0606724051F8086C55406E404FEAA0
:1031C000966CC6F3850E0CF5C07C54F82E8054F82E
:1031D0002CE051F8042C88EA0E0E8EEA0303C6F3A5
:1031E000852E0EF1800EC6F3854606F5807654F8DE
:1031F0002EE054F826606A404FEA321283EA0E034A
:103200007340960E06F5E0768F4254F8266083EA06
:103210000603C2F3850606F1400654F8266083EAE9
:103220000603C2F3852606F1C006C2F3854202F505
:10323000A07254F8266054F8222083EA060383EA39
:1032400002037FF479AF88E0A1F180078E6FCA6F27
:103250005E40C6F3852CC6F3850E0CF1800C54F845
:103260002E8054F82CE04FEA966C0CF5C07CC6F327
:10327000854606F5807654F82CC054F826605A40EE
:1032800088EA0E0E4FEA32128EEA0C0E8EEA060E15
:10329000960E06F5E076103954F826608EEA060E92
:1032A000C2F38506403654F826608EEA060EC2F355
:1032B0008526C036C2F3854202F5A07254F8266016
:1032C00054F822208EEA06067240D1F880605540FC
:1032D0006E404FEA966CC6F3850E0CF5C07C54F830
:1032E0002E8054F82CE0D1F8842088EA0E0E8EEA65
:1032F0000303C6F3852E0EF1800EC6F3854606F550
:10330000807654F82EE054F826606A404FEA321274
:1033100083EA0E037340960E06F5E076B94254F840
:10332000266083EA0603C2F3850606F1400654F8D8
:10333000266083EA0603C2F3852606F1C006C2F3BF
:10334000854202F5A07254F8266054F8222083EAE0
:10335000060383EA02037FF479AF4FEAF5014FEAEF
:10336000F30381EA530202F0553281EA020483EA50
:10337000420383EA142101F0FF1183EA010284EA87
:10338000012181EA920303F03333594082EA830337
:1033900083EA114292B2534081EA024282EA131157
:1033A00001F00F314A4083EA011302604360BDE837
:1033B000F08100BFC411010013B50C46114602682C
:1033C00000924268019268461A46FFF783FE009B0E
:1033D00023701A0A62701A0C1B0EE370019BA27014
:1033E0001A0A237162711A0C1B0EA271E37102B0EA
:1033F00010BD2DE9F04104461E46E36A102B0D4630
:1034000010460AD0182B26D0082B44D104F15802BC
:103410000EB9012313E0002311E004F15807D8345A
:1034200096B901233A46FFF7C7FF3346224629469D
:103430002846FFF7C1FF01233A4629462846FFF7F1
:10344000BBFF0120BDE8F08100233A46FFF7B4FF3F
:103450000123224619E004F1580704F1D80804F5C5
:10346000AC7466B901233A46FFF7A6FF33464246DD
:1034700029462846FFF7A0FF01232246DDE7002367
:103480002246FFF799FF0123424629462846FFF7C7
:1034900093FF0023D0E70020BDE8F0810022C26244
:1034A00080F83420FF2280F83520024A026008228A
:1034B00002637047B4110100F0B54D1E471E01F1C3
:1034C000070E802615F8014F334224F0010418BF7F
:1034D00044F00104754507F8014F4FEA5606F1D153
:1034E0000823934205DACC5C24F00104C454013370
:1034F000F7E7F0BDF8B500F114060446304615466E
:103500001F46FFF7D9FF102A10D0182A1BD0082A0F
:1035100037D104F1130304F11B0213F8011F1972D0
:103520009342FAD104F15801304608E004F1580101
:103530003046FFF703FD04F1D80104F11C00FFF74A
:10354000FDFC002311E004F158013046FFF7F6FCC2
:1035500004F1D80104F11C00FFF7F0FC04F5AC7194
:1035600004F12400FFF7EAFC402384F83530226B95
:103570000021201D05F01EFB84F83470E562012057
:10358000F8BD0020F8BD10B504460846002184E8C7
:103590000500A16005F00EFB204610BD08B583684C
:1035A00019444368994208DD02F0D2FC044A06211E
:1035B000012002F05DFD002008BD012008BD00BF14
:1035C0001022010013B503210446FFF7E7FF70B195
:1035D00002A9002341F8043D2268A3681A4403337A
:1035E00010889278ADF804008A700198A36002B048
:1035F00010BD10B504460846002184E80500A1600E
:1036000005F0D8FA204610BD08B583681944436810
:10361000994208DD02F09CFC044A0621012002F0D8
:1036200027FD002008BD012008BD00BF2E0C0100B1
:1036300038B50D4601210446FFF7E6FF28B1A3681F
:103640002268D554A3680133A36038BD13B5019136
:1036500004210446FFF7D8FF024630B1A368216871
:103660000198C850A3680433A360104602B010BD8F
:1036700073B5019103210446FFF7C6FF58B102ABB1
:10368000A268216833F8046D8E528D189B78AB7058
:10369000A3680333A36002B070BDFFFF2DE9F04FB4
:1036A00087B0056BDDF8448001914545044692469C
:1036B0001E46109F07DC98FBF5F305FB138515B933
:1036C00000F1040920E002F043FC224A0921012014
:1036D00002F0CEFC1EE0019AF2B94A46394602A831
:1036E00001F046FE236802AAD3F80CB031465346D7
:1036F0002046D84770B1226B3146484605F0C0F9E4
:10370000236B01351F441E44236B98FBF3F2954253
:10371000E1DB1AE0002019E023683A46D3F80CB048
:1037200002A953462046D8470028F3D002A90846EC
:10373000236B4A4601F01CFE226B3946484605F0D1
:103740009FF9226B02A93046D8E7012007B0BDE8F7
:10375000F08F00BF2222010073B5054688680C4631
:103760001646F8B12A6B90FBF2F302FB1303CBB9B8
:103770000B68801A05F13601184401F004FEA268B6
:10378000236801920022009311462846FFF786FF26
:10379000044608B9002419E02A6B291D304605F0BB
:1037A0006FF913E080212046FFF742FF0028F1D097
:1037B000A0682A6B90FBF2F302FB13030BB100210C
:1037C000F1E7801A236805F14601D5E7204602B0EB
:1037D00070BDFFFF08B528B190F83530FF2B01D040
:1037E000012008BD02F0B4FB034A0921022002F0C7
:1037F0003FFC002008BD00BF3922010040280FD047
:10380000802801D050B901E007487047082909D045
:10381000064B0748102908BF1846704705487047EF
:1038200005487047054870475322010045220100B2
:1038300047220100572201004C22010048220100CA
:1038400013B5C36A102B0446B8BF102300F114024D
:1038500000929BB2094A0921042002F0FBFCE16AB4
:1038600094F83500FFF7CAFF054A034609210420F2
:1038700002B0BDE8104002F067BC00BF5F2201004B
:1038800064220100437802781B0243EA0233C278C3
:103890008078134343EA001080B270470C2908B5C2
:1038A0000B4600F08C80AF2900F08980002900F0E1
:1038B0008680AE295ED024D87E294FD010D81C290E
:1038C00044D005D80E2972D102F042FB3D4A68E08F
:1038D0001E293FD040296AD102F03AFB3A4A60E003
:1038E0009E293FD005D89D2961D102F031FB374A8E
:1038F00057E0A0293AD0A12959D102F029FB344A36
:103900004FE0CE2942D010D8C12937D005D8BE29E2
:103910004DD102F01DFB2F4A43E0CA2932D0CD29F8
:1039200045D102F015FB2C4A3BE0EE2932D005D8F8
:10393000DE293CD102F00CFB284A32E0F0292DD0E0
:10394000F12934D102F004FB254A2AE002F000FB01
:10395000244A26E002F0FCFA234A22E002F0F8FAB8
:10396000224A1EE002F0F4FA214A1AE002F0F0FACC
:10397000204A16E002F0ECFA1F4A12E002F0E8FAE0
:103980001E4A0EE002F0E4FA1D4A0AE002F0E0FAF4
:103990001C4A06E002F0DCFA1B4A02E002F0D8FA08
:1039A0001A4A0821012002F063FB002008BD184AD2
:1039B0000821012002F08EFB02F0CAFAF5E701208F
:1039C00008BD00BF71220100AD220100D722010015
:1039D000162301004923010080230100A4230100D4
:1039E000DB2301008B2201009C220100C122010087
:1039F000EA220100FF2201003323010059230100C4
:103A00006F2301008F230100BD230100CB230100A0
:103A1000F12301002DE9F04F8DB01546179A9DF85E
:103A20006090984604460E46002302B1137005AF1D
:103A300084F8A036012204A93846FFF7DAFD09F020
:103A4000040202F0FF030393002A0CBF0B2313238D
:103A5000002D08BF3D460293B3689A1CAB6813441F
:103A6000502B04DC029B169A1344502B07DD02F006
:103A70006FFAB64A0821012002F0FAFADFE019F0E5
:103A80000A0F07D094F86434FF2B03D102F060FAD8
:103A9000AF4AEFE719F0020F5DD00421082002F0D1
:103AA0004DFA70B1AB4A0821042002F0E1FAD4F8D3
:103AB0006C24138E043200920921A74A042002F0DC
:103AC000C9FBB168AB682A68306801F0B9FC0146EF
:103AD00008902846FFF7BAFD002800F0B080D4F81F
:103AE0006C34AF681B6B97FBF3FA03FB1A7ABAF1DD
:103AF000000F01D00137F6E7C5F808A0394628467F
:103B0000FFF782FD002800F09A8008ABAF600093B9
:103B100004231846914A082102F09CFB1FFA87FBF8
:103B20002B6800938E4A5B460821042002F092FB2A
:103B30002B68D4F86C048DE8880052465146FFF794
:103B4000ADFD00287BD02B680093864A5B46082198
:103B5000042002F07FFB316819F0010F91F800A0FA
:103B60002CD0BAF1AF0F29D094F86434FF2B25D0B4
:103B70000023C4F8243704F21C77B2683846FFF7F4
:103B8000B5F900285BD0AA6829683846FFF7AEF976
:103B9000002854D00DF1200B5A463946D4F86C0455
:103BA000FFF7DAFD00284AD0D4F86C346E4A1B8E39
:103BB000CDF800B00821042002F04CFB4023237113
:103BC00001236371B2683168A01D04F059FFB76822
:103BD000AA6829680237261DF01904F051FFAA6867
:103BE0003A44D2B23146204601F0D0F938B31699A2
:103BF000029B0B44DAB23146204601F0D1F902288B
:103C0000834602D96379412B03D002F0A1F9574AC8
:103C100030E7A17984F8A0162046E77900F012FF7A
:103C200068B1BBF1030F0AD027B1AF2F1CBFFF2330
:103C300084F8643439462046FFF730FE10B94FF05F
:103C4000FF357EE0179B03B11F70039BABF10405AA
:103C5000EDB27BB30FB1AF2F2CD194F86434FF2BAE
:103C600028D0BAF1AF0F1CBF0023C4F82437AF2F00
:103C700008D12A4604F1080104F21C70FFF736F956
:103C8000C0B9DCE7072D15D9A7B9ABF10C05EDB22A
:103C900004F21C7A2B1D2A4604F1080150461E44EA
:103CA000FFF724F90028CAD039465046FFF7C0FC78
:103CB00050BBC4E7169BAB4203DA02F049F92C4A29
:103CC000D8E6B8F1000F3CD0002D3AD02A4604F1D6
:103CD0000801404604F0D4FE19F0080F31D001224B
:103CE0000195CDF8008043461146D4F86C04FFF7E7
:103CF000D5FC0028A3D0CDF80080ABB21D4A082126
:103D0000042002F0A7FA1CE008AF3A465146D4F866
:103D10006C04FFF721FD002891D0D4F86C34164ACA
:103D20001B8E00970821042002F094FA08223946DD
:103D3000304607F0E9FE0028BCD002F009F90F4A2E
:103D400098E628460DB0BDE8F08F00BFC124010001
:103D500001240100132401002A240100332401005E
:103D60003724010045240100572401006624010086
:103D700099240100B82401007C2401008B24010057
:103D8000F0B589B004460F46154604A9012205A8DE
:103D90001E46FFF72EFC394605A8FFF749FC9DF8A3
:103DA000403002930F9B01930E9B00932A463346AB
:103DB00005A92046FFF72EFE09B0F0BD2DE9F04F12
:103DC000CBB00546049108200421904602F0B6F8D5
:103DD00040B10420049B974A082102F07BF9404639
:103DE000FFF72EFD98F83530402B02D0802B06D0FF
:103DF0000BB91A2404E002F0ABF88F4AF1E0AA24D0
:103E0000012207A908A8FFF7F4FB049908A8FFF707
:103E10000FFC002302930DF11F06102314AF009333
:103E200021463B46019608AA2846FFF7A9FF3378AA
:103E3000AF2B044603D1082805D0102803D002F088
:103E400087F87E4ACDE0D8F83020002108F1040040
:103E500004F0B0FE0DF1600A012201940097534670
:103E600011464046FFF71AFC002800F07C810DF156
:103E7000700B2246514658460DF1800901F091FA27
:103E80002146484601F0AAFA20223AA90BA8FFF7DA
:103E9000B0FB224649460BA8FFF728F822465946B0
:103EA0000BA8FFF723F8202242A90EA8FFF7A1FBD9
:103EB0006300002219460EA805931092FFF7A4FB99
:103EC000059B00B11093019300220B9B00931146B8
:103ED0000E9B4046FFF7E2FB002800F044810421DE
:103EE000082002F02BF888B3A3B20097544A1F466B
:103EF0000821042002F0AEF93B46524ACDF800A05A
:103F00000821042002F0A6F93B464F4ACDF800B044
:103F10000821042002F09EF93B464C4ACDF800905F
:103F2000082104207F0002F095F9BFB20B9B00939B
:103F3000474A3B460821042002F08CF90E9B00936F
:103F4000444A3B460821042002F084F9002324AFB0
:103F500002938DE850003B460EAAAF212846FFF79A
:103F60000FFF33780BB9844203D001F0F1FF3A4AD6
:103F700037E028AE012201940097334611464046AF
:103F8000FFF78CFB002800F0EE800DF1B00B4946E6
:103F90005846224601F005FA0421082001F0CEFF20
:103FA000B0B1A3B200972D4A1F460821042002F0A9
:103FB00051F93B462A4A00960821042002F04AF9AA
:103FC000CDF800B03B46274A0821042002F042F910
:103FD00022462CA9304607F097FD38B101F0B8FF12
:103FE000214A0821012002F043F8BCE0182234A93C
:103FF00011A8FFF7FEFA0422494611A8FEF776FF42
:104000000422514611A8FEF771FFD8F82C30082B76
:1040100042DD98F83530402B28D0802B32D0002B51
:104020003AD1042221A911A8FEF760FF042219A9A0
:104030002FE000BFFC2401003922010014250100FB
:104040002E250100382501003E25010048250100EC
:104050004E25010055250100602501007A2501004B
:10406000842501008E2501009825010004220DF110
:10407000860111A8FEF73AFF04220DF1660111A88E
:10408000FEF734FF042223A911A8FEF72FFF042214
:104090001BA911A8FEF72AFF98F83530139A119939
:1040A000802B0CBF05F58E6305F59963C5F86C345C
:1040B000D5F86C0403689C680023A047002852D000
:1040C000D5F86C44266B0DF1C009082E4FF0100294
:1040D0004FF0000148460CBF1B27872704F06AFDFC
:1040E00032460021201D04F065FD236B0193CDF8BD
:1040F00000904B46002201212046FFF7CFFA0646EA
:1041000088B3D4F830A004F13608524649464046F8
:1041100004F0B6FC5146404601F04DF99DF9C0301F
:10412000002B07DA236B013B234493F836207A40B7
:1041300083F83620D4F8309004F1460318464A46F6
:10414000414604F09DFC494601F035F994F93630BA
:10415000002B07DA236B013B1C4494F846305F4088
:1041600084F846700EB9002611E00421082001F001
:10417000E5FE40B10420084A082101F079FFD5F896
:104180006C04FFF75DFB9DF8103085F86434304611
:104190004BB0BDE8F08F00BFB22501002DE9F04F14
:1041A0000546ADB00E4614469846834A0B46042099
:1041B000082101F08FFF95F86434FF2B07D101F03F
:1041C000C7FE7E4A0821022001F052FF1FE00421B1
:1041D000082001F0B3FEB0B1794A0821042001F0B3
:1041E00047FFD5F86C24138E043200920921754ADA
:1041F000042002F02FF80420734A082101F038FF50
:104200002046FFF71DFB2046FFF7E4FA08B900201F
:10421000CEE028220DA907A8FFF7EBF9E26A04F126
:104220001409102AB8BF1022494607A8FEF75EFEFF
:10423000D5F8683495F864A41BB994F83570374301
:1042400000E0374656451BD04046FFF7C3FA00282A
:10425000DDD00421082001F071FE38B104205B4A52
:10426000082101F005FF4046FFF7EAFAD8F82C20B4
:104270000798102AB8BF102208F1140101F083F842
:1042800094F83530802B04D194F8341007A8FFF748
:10429000CFF9C423079A8DF814300221099B8DF8B9
:1042A000157005A801F0CCF80DF1B008014648F8EA
:1042B000980D07A8FFF7CAF90423CDF80080444AF7
:1042C0000821184601F0C6FF564516D0E16A0023C2
:1042D00010291A46B8BF1021484601F0B1F82CAC9D
:1042E000014644F82C0D07A8FFF7B0F90423009409
:1042F000384A0821184601F0ADFF099B182B04DD50
:10430000212BB4BF2024282400E01824D5F86CB455
:10431000DBF8303094FBF3F803FB1848B8F1000FDA
:1043200001D00134F6E70DF15C09282241464846E8
:1043300004F040FC079B009301944B4642464146E3
:104340005846FFF7ABF900283FF461AF079B009395
:104350001FFA84F84346204A0821042001F07AFF1E
:1043600043461E4ACDF800900821042001F072FF58
:10437000292221A90AA8FFF73CF939460AA8FFF724
:1043800057F9224649460AA8FEF7B0FD564504BF34
:10439000FF2385F8643404230293002301930093E0
:1043A0000AAAC4212846FFF7EBFCB0FA80F04009C6
:1043B0002DB0BDE8F08F00BFC5250100012401002C
:1043C000DA2501002A240100F0250100032601005E
:1043D00016260100282601003B2601004726010081
:1043E00070B50B4688B005460C4616460821144A9F
:1043F000042001F06FFE012204A905A8FFF7F9F8D7
:10440000214605A8FFF714F9052302930024012390
:104410008DE818002846334605AA6421FFF7B0FC52
:104420000128054608D1034600960420054A0821C4
:1044300001F010FF284600E0204608B070BD00BF24
:10444000542601006D26010010B58EB00EAB044657
:1044500003F8211D0F4A009308210123042001F0D5
:10446000F9FE10220AA907A8FFF7C3F89DF8171054
:1044700007A8FFF7DDF806230293002301930093BA
:1044800007AA54212046FFF77BFCB0FA80F04009D0
:104490000EB010BD8B2701002DE9F0410746B2B0E8
:1044A0000E460420082115463B4A01F0E1FD70222A
:1044B0000021304604F07EFB54221DA906A8FFF718
:1044C00062F80523DDF8188002930DF117030193BC
:1044D0003C230093002243466A213846FFF750FCF4
:1044E000041E53DB9DF81710AF294FF000020DD1C9
:1044F00004230293C4F154030093019208EB0403D4
:104500003846FFF73DFC002801DA3FE0104604443E
:104510000023214606A80893FFF740F800B107944E
:104520000320002394FBF0F42C702A78DCB2A24222
:1045300003F1010706D906A8FFF744F83B4646F801
:104540002400F2E70421082001F0F8FC044608B931
:1045500001241CE02B780BB1002205E00F4A082152
:10456000042001F085FD12E02B78541CD2B2934256
:10457000EED956F822300A4909A807F0AFFD09AA7A
:104580000821042001F074FD2246EDE700242046B6
:1045900032B0BDE8F08100BF082801001E280100EC
:1045A000322801002DE9F0419AB007460E46082056
:1045B000042190461D469DF8804001F0BFFC78B173
:1045C00000212046FFF71AF9324600901B492B467E
:1045D00006A807F083FD06AA0821042001F048FD83
:1045E000FF2C08D101F0B4FC0120154A082101F08C
:1045F0003FFD00201EE0052204A906A8FEF7F9FFF2
:10460000314606A8FFF734F8414606A8FFF710F830
:1046100045EA040106A8FFF70BF8052302930023DF
:104620000193009306AACA213846FFF7A9FBB0FA06
:1046300080F040091AB0BDE8F08100BF4A280100AF
:104640008128010030B505469BB00C4608200421A6
:1046500001F074FC48B12246104906A807F03EFD5F
:1046600006AA0821042001F003FD032205A906A8DB
:10467000FEF7BFFF214606A8FEF7FAFF05230293C7
:1046800000230193009306AADA212846FFF778FB5E
:10469000B0FA80F040091BB030BD00BF9228010085
:1046A000F0B59FB002AD0C460DF107022946064653
:1046B000FFF7F2FE90B100239DF807701A46D9B2B9
:1046C0008F4206D955F823100133A14208BF0122B9
:1046D000F5E71AB121463046FFF7B4FF1FB0F0BD31
:1046E00070B505469AB00E460820042101F026FC5C
:1046F00048B13246134906A807F0F0FC06AA082183
:10470000042001F0B5FC032205A906A8FEF771FFFD
:104710000024314606A8FEF7ABFF029401940094F2
:10472000234606AA5A212846FFF72AFB30B9FF2361
:1047300085F86434C5F86864012000E020461AB0AA
:1047400070BD00BFAB280100F0B506469DB00D4618
:104750000820042117461C4601F0F0FB50B12A4600
:104760001E49234608A807F0B9FC08AA082104201E
:1047700001F07EFC3846FFF785F80722074606A9B8
:1047800008A8FEF736FF294608A8FEF751FF0021CA
:1047900008A8FEF74DFF022108A8ADF81670FEF735
:1047A00033FF38B10A9B089ABDF81610D1520A9B04
:1047B00002330A93214608A8FEF75AFF0523029305
:1047C00000230193009308AACD213046FFF7D8FAC1
:1047D000B0FA80F040091DB0F0BD00BFD129010042
:1047E0002DE9F0439DB081460F460820042115466F
:1047F0001C46249E01F0A2FB58B13A461F49009482
:104800002B4608A807F06AFC08AA0821042001F03A
:104810002FFC002C2EDD302C4FF0070206A908A833
:10482000A046A8BF4FF03008FEF7E3FE394608A8BF
:10483000FEF7FEFE294608A8FEF71AFF414608A823
:10484000FEF716FF052302930DF117030193CDF830
:104850000080334608AABD214846FFF791FA9DF82B
:1048600017300BB9002801DC002004E0241A0544AD
:104870000644CEE701201DB0BDE8F083082A010000
:104880002DE9F0439DB08146884608200421164654
:104890001D46249F01F052FB58B142462049009525
:1048A000334608A807F01AFC08AA0821042001F0E2
:1048B000DFFB002D30DD342D4FF03C0208A905A8A8
:1048C0002C46A8BF3424FEF794FE414605A8FEF707
:1048D000AFFE314605A8FEF7CBFE214605A8FEF740
:1048E000C7FE2246394605A8FEF700FB05230293C2
:1048F0000DF1130301930023009305AA3D214846BF
:10490000FFF73EFA9DF8133003B908B1002004E028
:104910002D1B26442744CCE701201DB0BDE8F083C1
:10492000352A01002DE9F043044687B0264600F001
:104930005FF8234B46F85C3B04F50D783046FEF7F4
:10494000ADFD04F20C474046FEF7A8FD3846FEF7E1
:10495000BFFA04F58E60FEF7BBFA04F59960FEF726
:104960009DFD04F2A161782204F21C70FEF741FE65
:104970000025FF234FF0180984F864344A4629467D
:10498000C4F86C5484F8A056C4F86854684604F01F
:1049900011F92B46694608223046FEF7ABFD2B463F
:1049A0004A4669464046FEF7A5FD2B461022694659
:1049B0003846FEF7C7F8204607B0BDE8F08300BFD1
:1049C0000C220100FF2280F864240022C0F8682431
:1049D00000F0FABB054B1B684FF00042DA625863E7
:1049E000DA6A002AFCDA986BC0B270473807FF1FFA
:1049F000064A0260002280F8542080F8552080F892
:104A0000562080F8572080F858207047AC310100BC
:104A100038B504469DF810509DF8140084F85410E1
:104A200084F8580084F8552084F8563084F857509C
:104A3000012104F09BF994F857000121BDE83840AA
:104A400004F094B910B55B4A0C46A0B00A210420CA
:104A500001F00EFB14F03F0400F0A98022465649F5
:104A60006846013C07F03AFB2D2C00F29380DFE80A
:104A700004F0171B1F23272B2F9133373B913F4304
:104A80009147914B4F539191919191919191919126
:104A90009191919157915B5F6391676B6F797D877E
:104AA00001F056FA45496EE001F052FA44496AE0D5
:104AB00001F04EFA434966E001F04AFA424962E0E9
:104AC00001F046FA41495EE001F042FA40495AE0FD
:104AD00001F03EFA3F4956E001F03AFA3E4952E011
:104AE00001F036FA3D494EE001F032FA3C494AE025
:104AF00001F02EFA3B493CE001F02AFA3A4942E043
:104B000001F026FA39493EE001F022FA38493AE04C
:104B100001F01EFA374936E001F01AFA364932E060
:104B200001F016FA35492EE001F012FA34492AE074
:104B300001F00EFA334926E001F00AFA324922E088
:104B400001F006FA314906E001F002FA304902E0CC
:104B500001F0FEF92F49684607F0E6FA0A210246FD
:104B6000032020E001F0F4F92B490CE001F0F0F90A
:104B70002A49684607F0D8FA0A210246022012E0C4
:104B800001F0E6F92649684607F0CEFA0A21024606
:104B9000012008E001F0DCF92249684607F0C4FA78
:104BA0000A210246002001F063FA002000E0012003
:104BB00020B010BDF22B0100032C0100182C0100C5
:104BC000202C01002A2C0100372C01005D2C010053
:104BD0006B2C0100822C0100A42C0100B72C0100D9
:104BE000D92C0100EB2C0100F72C0100102D010045
:104BF000222D0100382D01004A2D01005F2D0100FA
:104C0000742D0100892D01009F2D0100B62D01009A
:104C1000CF2D0100E72D0100FC2D01001D2E01000C
:104C20002A2E0100362E01001FB50446002190F8FF
:104C3000570004F06DF8022004F0E8F8124A0A2147
:104C4000042001F015FA0220FFF7C4FE0020FFF750
:104C5000C1FE04AB0D4A03F8010D0A2100930420A4
:104C6000012301F0F7FA012194F8570004F050F8FD
:104C70004FF4FA63013BFDD19DF80F00431E5842EB
:104C8000584104B010BD00BF492E0100652E01003F
:104C900070B5064665243046FFF7C6FF054670B975
:104CA000013CA4B23CB901F053F9064A0A210120A3
:104CB00001F0DEF903E00A2004F0A8F8EBE728464B
:104CC00070BD00BF752E0100F8B50F4606460021E5
:104CD00090F85700144604F01BF8022004F096F8F0
:104CE0000D4A0A21042001F0C3F90120FFF772FEEA
:104CF000013C7D1E3C44A54204D015F8010FFFF78E
:104D000069FEF8E7012196F8570004F001F84FF426
:104D1000FA63013BFDD1F8BD8C2E0100F0B50546CC
:104D200089B03A4A3A4C0A21042001F0A1F9012144
:104D300095F8580003F0ECFF0A2004F067F8002112
:104D400095F8580003F0E4FF4FF4C87004F05EF8E3
:104D5000012195F8580003F0DBFF0A2004F056F813
:104D600095F8557095F8566095F85410204601F066
:104D70008FFC3946204601F041FC3146204601F0C7
:104D8000EFFB204601F0B0FBE37AF3B172B6E37AB1
:104D9000D90705D51F4AE36811680B40A36113606A
:104DA000E37A1B499A0705D51B4A0B691068034033
:104DB000CB611360E37A16495B0705D5174A4B6947
:104DC000106803400B62136062B62368144AD96806
:104DD000914207D013491960DA6002F180421A61EA
:104DE000114A1A6003AC14225521204603F0E2FE5A
:104DF000214628461422FFF767FF009414230B4A2C
:104E00000A21042001F026FA09B0F0BDAC2E010001
:104E10003807FF1F80E100E084E100E088E100E066
:104E20000540003901403F0000003F80B22E0100E4
:104E300030B59BB0FF248DF80E40541C8DF80F4008
:104E4000D44300238DF81040D4248DF80C308DF815
:104E50000D308DF81140DCB2A24205D903AC1C44E0
:104E6000CD5CA5710133F6E70025911D2B46ECB210
:104E70008C4205F1010507DA0DF1680E744414F84F
:104E80005C4C2344DBB2F2E71AAC2144DB4301F86B
:104E90005C3C1AAB02F108041A4403AD002302F88B
:104EA000553C2946E2B2FFF70FFF0095A3B2034A33
:104EB0000A21042001F0CEF91BB030BDC62E01003E
:104EC0002DE9F041074688461446FFF7E1FE064605
:104ED00038B3002197F8570003F01AFF022003F0BF
:104EE00095FF114A0A21042001F0C2F80320FFF7C0
:104EF00071FD013C08F1FF354444A54208D0012072
:104F000003F084FF0020FFF765FD05F8010FF4E7CB
:104F1000012197F8570003F0FBFE4FF4FA63013BC1
:104F2000FDD13046BDE8F081CF2E010030B5144BE5
:104F300087B0044604AD186802909B88ADF80C3029
:104F4000204606222946FFF7BBFF0446A0B10D4AC2
:104F500000950A210420062301F07CF9062202A90B
:104F6000284606F0D1FD38B100F0F2FF064A0A21CA
:104F7000012001F07DF80024204607B030BD00BFBD
:104F8000EC2B0100EC2E0100F52E010010B50446BB
:104F9000FFF74EFF2046BDE81040FFF7C7BFFFFFF9
:104FA000F0B5531F4B2B97B00D46174603D900F0B1
:104FB000CFFF314A2BE002AE3146FFF781FF0028D8
:104FC00057D032460021381F884207DD12F8013BD6
:104FD00013B91478FF2C22D00131F5E70024274DB6
:104FE0000AE016AB1A4412F8503C254ADB43DBB208
:104FF0009D4214BF1546002500963B46214A0A21D2
:10500000042001F027F945B100F0A2FF2A46012053
:105010000A2101F02DF800202BE0E0B229E016AAC9
:105020000A4412F84E4C12F84D2C2244B2F5807FFF
:105030001DD14A1D2244974215DB0A1D9C4205DD05
:10504000581830440079E8540133F7E7224464B13A
:105050002B78D52B09D100259142C2DA735C1D440F
:10506000EDB20131F8E7084DC6E7084DC4E7084D39
:10507000C2E717B0F0BD00BFD72F01000B2F010012
:10508000B62F0100F22F0100512F0100882F0100DF
:10509000292F01002DE9F8430446254604208946BE
:1050A00090460A21174A1F4600F0E2FF022305F846
:1050B000043F012229462046FFF768FF0646E8B173
:1050C0000D2229462046FFF76BFF062802D163799F
:1050D000032B08D000F03CFF0B4A0A21012000F00E
:1050E000C7FF00260AE0A37989F80030E37988F841
:1050F0000030237A3B70089B627A1A703046BDE814
:10510000F88300BFFC2F01000F30010070B5144A76
:1051100004460A21042000F0ABFF261D14220123BF
:105120002271A2716371E371042231462046FFF7B8
:105130002DFF054688B1092231462046FFF730FF92
:10514000022802D16379152B07D000F001FF054A30
:105150000A21012000F08CFF0025284670BD00BF09
:10516000293001003330010070B5154A04460A2188
:10517000042000F07DFF32232371FF23A37101235C
:105180000522E371261D03236271237231462046F6
:10519000FFF7FCFE054688B1092231462046FFF79D
:1051A000FFFE022802D16379332B07D000F0D0FE36
:1051B000044A0A21012000F05BFF0025284670BD4B
:1051C000443001006030010070B5144A04460A21E1
:1051D000042000F04DFF3223237101236371261D4B
:1051E0000023A371032231462046FFF7CFFE054678
:1051F00088B1092231462046FFF7D2FE022802D1AB
:105200006379332B07D000F0A3FE054A0A21012061
:1052100000F02EFF0025284670BD00BF833001003E
:10522000943001002DE9F04704460E46994696B0A9
:1052300017460A21474A042000F01AFF00234A2299
:105240003B70251D89F800303360736022710122A4
:105250006271A371032229462046FFF797FE80461C
:10526000002872D01C2229462046FFF799FE02280A
:1052700002D963794B2B09D000F06AFE364A0A2125
:10528000012000F0F5FE4FF000085EE0A579334AFA
:105290002B460A21042000F01DFF012D55D1E57A8F
:1052A000042D08D0072D06D02B462C4A0A210220B7
:1052B00000F010FF49E004F10C012A46304603F0EB
:1052C000DFFB3D70277A637AA47A072D43EA07272C
:1052D00009D13378802B13D0B7F5517F10D1202C12
:1052E0000ED101230AE0042D0AD13378802B07D197
:1052F000B7F5417F04D1202C02D1032389F8003077
:1053000004210A2000F01AFE8246F0B12B46144A0E
:1053100000960A21042000F09DFF23463A461149D9
:1053200002A806F0DBFE99F80030012B01D10E49EE
:1053300002E0032B03D10D4902A806F0F5FE02AAF4
:105340000A21042000F094FED046404616B0BDE885
:10535000F08700BFD4320100C7300100E230010005
:10536000EF300100F930010020310100333101003C
:1053700070B500249C4205DA0E5D155D754005553B
:105380000134F7E770BD30B501380C46631A9A4214
:1053900006DD14F8015B10F8013F6B400370F5E780
:1053A00030BD38B5541E0D462246013103F068FB6E
:1053B0002A78025538BD10B5034601391A1A9142B0
:1053C00008DD1A7813F8014F520042EAD41203F8AC
:1053D000012CF3E7435C5B00435410BD37B5094B28
:1053E000094C1B680193019B0246151AA94206DD70
:1053F00002F8013B634303F583432733F5E703B02A
:1054000030BD00BF447A00201DF3010030B50346D3
:105410001C1AA14212DD13F8014B6240082402F06D
:10542000010552083DB182F06D4282F4380282F4E7
:10543000034282F02002013CF1D1E9E7104630BD81
:1054400038B514464FF0FF321D46FFF7DFFF2946FF
:1054500002462046BDE83840FFF7D8BF30B52F4A96
:105460002F4C99B00B21032000F002FE00232D48A1
:105470002370FFF753FC0DF10F0300930DF10D02A4
:105480000DF10E0303A92748FFF704FE002835D0CD
:105490009DF80E109DF80D309DF80C20009104A889
:1054A000214906F01BFE04AA0B21042000F0E0FDB8
:1054B0009DF80F501D491E4815F0010F14BF0A46F4
:1054C000024615F0020F14BF0B46034615F0040FF9
:1054D00008BF0146009104A8164906F0FFFD04200C
:1054E00004AA0B2100F0C4FD0E48FFF73DFE28B1D1
:1054F0000C48FFF70BFE08B10123237023782BB96A
:1055000000F026FD0C4A0B21012002E00B4A0B2182
:10551000032000F0ADFD19B030BD00BFCF31010058
:10552000D475FF1FD46CFF1FEB310100C83101009F
:10553000CC31010012320100463201005A32010022
:1055400010B50B210446104A042000F091FD002103
:105550000E48FFF7C5F8A0B1224600210B48FEF720
:105560003FFF70B12378102B11BF094A094A074841
:1055700000211CBF0021A2F15C00BDE81040FEF735
:105580001DBC002010BD00BF68320100D46CFF1F9D
:10559000306DFF1FFC73FF1F30B5224A85B00B2111
:1055A000042000F065FD204B1C784CB900F0D0FCC5
:1055B0001E4A0B21022000F05BFDFFF74FFF2DE09C
:1055C00000250DF1070301AA02A919480195FFF76B
:1055D00029FE044628B900F0BBFC164A0B21012025
:1055E00009E09DF80730012B9DF8043006D133B156
:1055F000114A0B21042000F03BFD0FE033B90F4AA4
:105600000B21042000F034FD002407E000F0A0FC92
:105610000B4A0B21022000F02BFD2C46204605B042
:1056200030BD00BF79320100D475FF1F8C320100FC
:10563000D46CFF1FC1320100E832010000330100C9
:105640001733010008B50748FFF7BCF940B900F06F
:105650007FFC054A0B210220BDE8084000F008BD90
:1056600008BD00BFD46CFF1F2E3301002DE9F041AF
:10567000324A88B007460E4604200B2100F0F8FCA1
:1056800000212F48FFF72CF8044618B900F060FC01
:105690002C4A42E00DF10F0200212948FEF7A0FE3E
:1056A000044618B900F054FC274A36E09DF80F3044
:1056B000264A0B21042000F00DFD9DF80F80B8F163
:1056C000100F08D000F044FC214A0B21012000F00B
:1056D000CFFC00242EE01F491948FFF701F80446CB
:1056E00018B900F035FC1C4A17E01C4A1448002188
:1056F000FEF764FB044618B900F02AFC184A0CE0D7
:10570000002204AD0095434611460D48FFF768F8A6
:10571000044638B900F01CFC124A0B21012000F0AD
:10572000A7FC07E02B4603CB06AB3860796003CBC0
:1057300030607160204608B0BDE8F081463301005A
:10574000D46CFF1F5B330100743301008F33010001
:10575000A93301001F40AA00C7330100E875FF1FED
:10576000D8330100EF33010070B5054688B00C4610
:10577000434A0B21042000F07BFC04AE28686968D2
:10578000334603C32068616806AB03C33D493E4806
:10579000FEF786FF044618B900F0DAFB3B4A67E0E3
:1057A0003B4D384995F8353000930F220123364898
:1057B000FEF7F8FE044618B900F0CAFB354A57E078
:1057C00030493148FEF78CFF044618B900F0C0FBA1
:1057D000314A4DE0314A0021A2F50D70FEF7EEFA94
:1057E000044618B900F0B4FB2D4A41E000232A46D4
:1057F00019462548FEF7D2FC044618B900F0A8FB6C
:10580000284A35E02A4600211F48FEF7D7FA044609
:1058100018B900F09DFB244A2AE0F0211A48FEF74F
:1058200013FE044618B900F093FB204A20E000253F
:10583000102303AA294614488DF80C508DF80D50FA
:105840008DF80E508DF80F50FEF77EFF044618B904
:1058500000F07EFB164A0BE0009610232A462946EC
:105860000948FFF70DF8044630B900F071FB114A02
:105870000B21012000F0FCFB204608B070BD00BFEA
:10588000FF3301001F40AA00D46CFF1F1534010034
:10589000E875FF1F263401003B340100086FFF1F2D
:1058A0005A340100823401009E340100BF340100EB
:1058B000D7340100F234010037B5224A0B2104200D
:1058C00000F0D6FB0DF10700FFF73AFE044618B9C9
:1058D00000F03EFB1C4A2BE09DF8073073B31B49D8
:1058E0001B48FEF7DDFE054650B90146194A184827
:1058F000FEF764FA044618B900F02AFB164A17E0CE
:10590000164A00231946A2F15C00FEF747FC044644
:1059100018B900F01DFB124A0AE0104A0021A2F15A
:105920005C00FEF74BFA044638B900F011FB0D4A53
:105930000B21012000F09CFB00E02C46204603B028
:1059400030BD00BF1A3501002C3501001F40AA00F0
:10595000D46CFF1FFC73FF1F44350100306DFF1F27
:10596000683501008535010037B51A4A0B2104203E
:1059700000F07EFB0DF10700FFF7E2FD044638B9A9
:1059800000F0E6FA144A0B21012000F071FB1EE042
:105990009DF80730102B1AD00023104A10481946E2
:1059A000FEF7FCFB054618B900F0D2FA0D4A09E0F3
:1059B0000A4A0B480021FEF701FA054638B900F003
:1059C000C7FA094A0B21012000F052FB2C46204661
:1059D00003B030BDA23501002C350100FC73FF1F60
:1059E000D46CFF1FB03501008535010008B5044AAD
:1059F0000B21042000F03CFB024B186808BD00BFDF
:105A0000C1350100D875FF1FF0B5364A87B004468E
:105A10000D4604200B2100F02BFB334B334A1B684F
:105A20000B21042000F056FB314B324A1B680B213E
:105A3000042000F04FFB304A0B21042000F018FB3B
:105A4000FFF73AFF18B900F083FA2C4A0AE02C4A13
:105A50000B21042000F00CFBFFF786FF28B900F0B3
:105A600077FA284A0B21012037E0274A0B2104202E
:105A700000F0FEFA02AE00230A2204AFF118B5FBD3
:105A8000F2F002FB1055CD71FD18013BB4FBF2F1B1
:105A900013F1080F02FB1144EC7105460C46EDD1E1
:105AA0001A4A0B21042000F0E3FA0823184A009652
:105AB0000B21042000F0CEFB0B21042000970823CB
:105AC000144A00F0C7FB39463046FFF74DFE08B1D7
:105AD000114A00E0114A0B21042000F0C9FA07B076
