:100000000000022099010000F5590000C1590000CC
:10001000C1590000C1590000C1590000C159000078
:10002000C1590000C1590000C1590000F559000034
:10003000F5590000C1590000995600005D570000B5
:10004000F5590000F5590000F5590000F559000078
:10005000F5590000F5590000F5590000F559000068
:10006000F5590000F5590000F5590000F559000058
:10007000F5590000F5590000F5590000F559000048
:10008000F5590000F5590000F5590000F559000038
:10009000F5590000F5590000F5590000F559000028
:1000A000C53A0000D13A0000F5590000F5590000AA
:1000B000F5590000F5590000F55900000D5E0000EB
:1000C000F5590000716C0000F5590000D16D000079
:1000D000F5590000F96E0000F5590000F5590000CF
:1000E000F5590000F5590000F5590000F5590000D8
:1000F000F5590000F5590000F5590000F5590000C8
:10010000F5590000F5590000F5590000F5590000B7
:10011000F5590000E1600000F5590000F5590000B4
:10012000F5590000F5590000F5590000F559000097
:10013000F5590000F5590000F5590000F559000087
:10014000F5590000F559000021700000F559000034
:1001500049710000F5590000F5590000F5590000FB
:10016000F5590000F5590000DD3A0000F55900008E
:10017000F5590000F5590000F5590000F559000047
:10018000F5590000F5590000F5590000F559000037
:10019000F5590000F5590000584B4CF2205210B5AB
:1001A0001A804DF628121A8000BF00BF05F026FC09
:1001B000534B4FF030621A60524A9A60524ADA60EA
:1001C000524B4FF470021A60514A136813F4807353
:1001D00001BF50490B604FF4A85313604E4B4F4979
:1001E0001A78100742BF1A7842F008021A704C4B76
:1001F0002A221A704B4A4C4B8B4204D252F8040FFD
:1002000043F8040BF8E7494B494A0021934202D2D4
:1002100043F8041BFAE7474A4748002350F82310E5
:1002200042F823100133662BF8D1444B444A802115
:1002300003F8011B9342FBD1424B3E4A1A60424BEA
:100240008A221A70A3F5805324225A70A0221A70B1
:100250009A799107FCD59A79D206FCD43B4A9379D6
:1002600003F00C03082B394BF9D103221A714622F3
:100270005A719A799406FCD534498A79334B5006E1
:10028000FBD5334A4FF08271116009215160202261
:100290001A709A7902F00C020C2AFAD12D4B2E4AD0
:1002A0001A602E4B2E4A1A6000225A60072243F829
:1002B000042C2C4AC3F80C2D62B605F075FC154BC6
:1002C0001B68DA0705D5284805F0D8FB274B284AD4
:1002D0001A60284B1B785B0609D5244C244B2268F6
:1002E0009A4204D1204805F0C9FB0023236007F09F
:1002F00061FC05F089FB05F09EFAFEE70E20054043
:1003000030800440823F04000100002B88ED00E0B3
:1003100010D0034014D0034002D007402013FF1F29
:1003200000E0074010FC0000F806FF1F2013FF1F2D
:100330007828FF1F0002FF1F0000000000E400E01B
:1003400056E400E008ED00E00050064000400640A2
:100350004480044004800440C010050014E000E024
:10036000BFD401000000202012421E5C1CE00340AC
:10037000A5C3945A00F00740FFFFFFFFFFFFFFFFF8
:10038000FFFFFFFFFFFFFFFFFFFFFFFFFFFFFFFF7D
:10039000FFFFFFFFFFFFFFFFFFFFFFFFFFFFFFFF6D
:1003A000FFFFFFFFFFFFFFFFFFFFFFFFFFFFFFFF5D
:1003B000FFFFFFFFFFFFFFFFFFFFFFFFFFFFFFFF4D
:1003C000FFFFFFFFFFFFFFFFFFFFFFFFFFFFFFFF3D
:1003D000FFFFFFFFFFFFFFFFFFFFFFFFFFFFFFFF2D
:1003E000FFFFFFFFFFFFFFFFFFFFFFFFFFFFFFFF1D
:1003F000FFFFFFFFFFFFFFFFFFFFFFFFFFFFFFFF0D
:10040000FFFFFFFFFFFFFFFFFFFFFFFFDEF9FFFF23
:1004100010B5054C237833B9044B13B10448AFF33E
:1004200000800123237010BD2013FF1F0000000077
:100430000CFC0000084B10B51BB108490848AFF38D
:1004400000800848036803B910BD074B002BFBD0A0
:10045000BDE81040184700BF000000002413FF1F34
:100460000CFC00002013FF1F0000000070477047C5
:1004700010B50C21044605F0DFFA204610BDFFFF41
:10048000034B044800211C22197005F077BA00BF05
:100490005813FF1F3C13FF1F064807494160002205
:1004A000012382600161426103730376034A0449B8
:1004B00006F006BF3C13FF1F54BF0000F806FF1FE5
:1004C0006F040000012103F0A3B990F8383090F8D0
:1004D00039209A4281BF5A1C1B1880F83820187E98
:1004E00098BF4FF0FF307047031103EB830300F018
:1004F0000F0000EB4300C0B27047FFFF08B5024891
:1005000003F04AF8012008BD6C07FF1F38B50F4CF7
:100510000125D0230221204684F83B3084F85E5028
:1005200084F85D5002F0EEFF2046FFF7CBFF2B462C
:100530002A466821204603F0E7F92046FFF7C5FF69
:1005400000F0E000E03818BF012038BD6C07FF1F45
:100550002DE9FF47294C0646D023012503212046DB
:1005600084F83B3084F85E5084F85D5002F0CAFF96
:100570002046FFF7A7FF2B4607226821204603F0FD
:10058000C3F92046FFF7A1FF00F07F00FFF7ACFFA3
:1005900082462046FFF799FFC0B2FFF7A5FF8146CC
:1005A0002046FFF792FFC0B2FFF79EFF804620462D
:1005B000FFF78BFFC0B2FFF797FF07462046FFF714
:1005C00084FF2046FFF781FFC0B2FFF78DFF05468D
:1005D0002046FFF77AFFC0B2FFF786FF002300F541
:1005E000FA6103938DE800073B462A4689B23046FC
:1005F00002F0F8FE304604B0BDE8F0876C07FF1F3C
:100600001FB501AC2046FFF7A3FF05F099FA084B90
:100610009DF809105A7991421FBF064A106094E86C
:10062000070083E80700044B01221A7004B010BDD4
:100630005C13FF1F6C13FF1F6813FF1F7FB5154C62
:10064000154A002602210420267002F0C7FD134B34
:1006500001AD1E70124B314628461E6002F038FF75
:1006600095E807000F4B83E807000F48FFF746FFA8
:100670000D48FFF74BFF30B902F018FD0B4A02217D
:10068000012002F0ABFDFFF7BBFF0123237004B094
:1006900070BD00BF6913FF1F5CBF00006813FF1F20
:1006A0006C13FF1F5C13FF1F5913FF1F67BF000070
:1006B000014B1878704700BF6913FF1F10B504463F
:1006C00005F03EFA0E4B19680E4B8842A0EB010173
:1006D00038BF01F1FF31994209D90B490B4802F0AB
:1006E000FBFEFFF78DFF2046FFF7E8FF06E0074817
:1006F00002F0F2FE0549204602F08AFE204610BDB7
:100700006C13FF1F40420F003F420F005C13FF1F9E
:100710000021014802F0DCBE5C13FF1F38B5012246
:1007200004460D4604F010FF024628B9294620462B
:10073000BDE8384004F008BF012038BD0421F8B5F9
:10074000344A354F354C364D084602F047FD0023FC
:100750003B702370FE232B7003F04AFC064603F027
:1007600035FCA8701EB102F0A1FC2E4A07E0294614
:100770002D48FFF7D3FF38B902F098FC2B4A04212B
:10078000012002F02BFD14E02749294804F096F9D6
:100790000421012308463B7002F07EFC48B104218D
:1007A0000846244A02F01AFD32460721204804F088
:1007B000E7FB0F220121204803F0C0FF18B902F027
:1007C00075FC1E4A07E01C491D48FFF7A7FF40B90A
:1007D00002F06CFC1B4A04210120BDE8F84002F045
:1007E000FDBC1749184804F069F9042101230846A3
:1007F000237002F051FC58B104210846134A02F05C
:10080000EDFC002207211048BDE8F84004F0B8BB19
:10081000F8BD00BFFFBF0000BC13FF1F0814FF1F7F
:100820000914FF1F07C000001014FF1F2AC000009A
:10083000E413FF1F5CC000000C14FF1F79C0000010
:100840009413FF1F9CC00000C013FF1FCEC0000008
:100850000D4A002393700D4A93700D4A02211160D6
:1008600082F820300B4A116082F820300A4A0B4986
:100870001371116093710A4A137111609371094ADF
:1008800013711160937170470914FF1F0C14FF1F3F
:100890001014FF1F9413FF1FE413FF1FC0F6000086
:1008A000C013FF1F7013FF1F10B502F007FC0321D8
:1008B0000A2002F0EBFB0321082002F0E7FB1E4CAC
:1008C0000321092002F0E2FB41F2883005F056F9DD
:1008D00022460021032002F081FC184A0021032057
:1008E00002F07CFC164A0021032002F077FC154A36
:1008F0000021032002F072FC22460021032002F0B6
:100900006DFC114A0021032002F068FC0F4A00210F
:10091000032002F063FCFFF791FEFFF70FFF00F0EA
:1009200065F8FFF7ADFD02F03DFB094A0021032009
:10093000BDE8104002F052BC28C400004FC40000C3
:1009400076C400009DC4000015ED0000C4C4000082
:10095000D8C4000037B500211B4A042002F03EFC39
:1009600002F00CFA014610B3184C194D194A002137
:10097000042002F033FC2146284602F069FA0146C1
:1009800098B1154A0021042002F028FC00950823A4
:10099000124A0021042002F0D9FC00940823104AD6
:1009A0000021042002F0D2FC05E00E4A00E00E4ACD
:1009B000042002F013FC02F037FA41F2883003B051
:1009C000BDE8304005F0DAB8F8C400004014FF1F5D
:1009D0003814FF1F03C5000010C5000023C5000028
:1009E00037C500004BC5000060C5000008B5094AC6
:1009F0000521042002F0F2FB46F2A81005F03CF9B4
:100A0000842005F0AFF9044A00231370034A1370E1
:100A100008BD00BF77C500005414FF1F4814FF1F16
:100A2000024A00231370024A137070475414FF1FC8
:100A30004814FF1F704710B55821044604F0FCFF0E
:100A4000204610BD0F2A38B504461D4617DD00F1BB
:100A5000140201F1100351F8040B42F8040B9942FF
:100A6000F9D1226B0021201D04F088FF1023E362DE
:100A700084F83450802384F83530012038BD0020BC
:100A800038BD40F3C01303F01B0383EA4000C0B23B
:100A90007047FFFF2DE9F04F044685B042B901F1E0
:100AA0000F03029304F10F030027B24E019382E07B
:100AB000B04DB14F002001F10F0E4B7BEE5C0B7877
:100AC0005E40C35D73400B708B7BEE5C4B78734074
:100AD0004B70CB7BEE5C8B7873408B700B7BEE5C4A
:100AE000CB785E400B4603F8036F13F801CF13F881
:100AF000046C73458CEA06061E70F6D101300A2894
:100B0000DBD1631E4D1E04F10F0613F8017F15F8AB
:100B1000010FB34280EA07001870F6D1BFE7DD7815
:100B200013F8010D454099421D71F8D14B7BF35CE0
:100B30005840914BDB1B5B7A58408B7B0870F05C14
:100B40004B7843404B70CB7BF05C8B7843408B7091
:100B50000B7BF05CCB784340CB70002F57D1607A91
:100B6000637B60736079607260786071A07AA57849
:100B70006370A070A37BE079A572A579A371E37877
:100B8000E070E07AE071E07BA573E373E072631ECE
:100B900001F1FF3C13F8010F784D15F800E01CF847
:100BA000010F8EEA0000187001988342F2D10137DC
:100BB0000A2F00F0CF8012B101F10C03AFE7631EE2
:100BC0004D1E13F801EF15F8010F8EEA0000305C9E
:100BD000187001988342F4D1607963786070607A0C
:100BE0006071607B6072A078A57A6373A072A3794C
:100BF000E07AA570A57BA373E37BE073E079E072F4
:100C0000E078A571E071E3700FB1092F7FD0002368
:100C1000009342E06B1C05F1020A05F1030914F888
:100C200005B0E05C14F809E014F80A80039388EA40
:100C30000E088BEA000080EA0808FFF722FF8BEA23
:100C4000080E80EA0E006055039B14F80A00E55C6C
:100C50006840FFF716FF88EA0505039B6840E054EB
:100C600014F80A5014F809006840FFF70AFF88EAF0
:100C70000505684004F80A0014F809508BEA0500DD
:100C8000FFF7FFFE009B88EA0508013380EA0800B1
:100C9000042B04F80900009336D0009B9D00EDB2B0
:100CA000002AB7D005F1020B14F805A014F80B00C8
:100CB0008AEA0000FFF7E5FEFFF7E3FE05F1010910
:100CC00005F1030814F809E0039014F808008EEA0F
:100CD0000000FFF7D6FEFFF7D4FE039B8AEA030A63
:100CE00004F805A014F809E080EA0E0E04F809E003
:100CF00014F80BE083EA0E0304F80B3014F8083004
:100D0000584004F8080085E7002A7FF428AF4B7BA1
:100D1000F05C0B785840184BFB5C43400B708B7BAE
:100D2000F05C4B7843404B70CB7BF05C8B7843405E
:100D30008B700B7BF05CCB7858400B4603F8030FAD
:100D400013F8015F13F8040C68401870029883428E
:100D5000F6D12CE75AB9631E01390F3413F8010F8D
:100D600011F8012F9C4282EA00021A70F6D105B0F8
:100D7000BDE8F08F84C7000084C800008EC8000062
:100D8000F0B58E46C16A102985B01DD100F1140559
:100D90006E4600F12404EC4628686968374603C7AC
:100DA0000835A5423E46F7D111467046103251F83B
:100DB000044B40F8044B9142F9D170461A46614603
:100DC000FFF768FE012000E0002005B0F0BDFFFF46
:100DD0000022C26280F83420FF2280F83520024AC7
:100DE000026010220263704774C7000070B50446A9
:100DF0001546A2B183684068D618864208DD02F025
:100E000055F9084A0621012002F0E8F9002070BDDA
:100E10002068184404F018FDA3681D44A560012053
:100E200070BD00BF8EC90000704710B54FF4EC7163
:100E3000044604F001FE204610BDFFFF2DE9F041FD
:100E400042680468DFF888E15F4E84EA121303F019
:100E50000F3384EA030082EA03135C4A80EA804489
:100E60002240504080EA9242584883EA834420401E
:100E7000434083EA904382EA530000F0553082EA0F
:100E8000000583EA400080EA152202F0FF1280EAA2
:100E9000020485EA022282EA540000F05530424002
:100EA000130984EA400000F47F4403F07063234395
:100EB000040404F47F042343C0F30740034322F0F7
:100EC0007042083100275EF8270030B195069C0675
:100ED00045EA920544EA930405E0D506DC0645EAB6
:100EE000520544EA530425F07042D009C2F3811C34
:100EF00000F03C004CEA00004FEA923CC2F3433859
:100F00000CF0300C48EA0C0C40300CF1800C56F818
:100F1000208056F82C0005F03F0C48EA000056F8F7
:100F20002C504FEA525C28430CF0060CC2F30055DB
:100F30004FEA925845EA0C0C08F038084CEA080CC5
:100F40000CF1C00C24F0704356F82C504FEA132CCF
:100F500005430CF03C0CC3F3C11040EA0C0C04F048
:100F60003F04C3F3C53000F5C07004F580740CF580
:100F7000A07C56F8208056F8240056F82C4048EA09
:100F8000000020439C0DC3F3435C04F030044CEAA2
:100F9000040404F5E074013756F824402043ACB251
:100FA00044EA0044000C000440EA15404FEAB474DF
:100FB0004FEAB060102F41F8084C41F8040C01F1E1
:100FC000080180D1BDE8F08124D700000000CCCC1E
:100FD00024DF00002DE9F0414368076887EA131514
:100FE00005F00F356F4083EA051585EA17439BB27C
:100FF00085EA030487EA034383EA940505F0333561
:1010000083EA050684EA850585EA162303F0FF13C3
:101010005D4086EA032383EA550404F055346340B7
:1010200085EA44054FEA73734FEA7575A14C002AAF
:1010300000F08A8001F180070E684A685E40C6F3BE
:10104000852CC6F3850E0CF1800C54F82E8054F8D4
:101050002CE04FEA966C0CF5C07CC6F3854606F58D
:10106000807654F82CC054F826605A4088EA0E0E58
:101070004FEA32128EEA0C0E8EEA060E960E06F536
:10108000E076103154F826608EEA060EC2F385062B
:10109000403654F826608EEA060EC2F38526C03626
:1010A000C2F3854202F5A07254F8266054F822205B
:1010B0008EEA0606724051F8086C55406E404FEAC1
:1010C000966CC6F3850E0CF5C07C54F82E8054F84F
:1010D0002CE051F8042C88EA0E0E8EEA0303C6F3C6
:1010E000852E0EF1800EC6F3854606F5807654F8FF
:1010F0002EE054F826606A404FEA321283EA0E036B
:101100007340960E06F5E0768F4254F8266083EA27
:101110000603C2F3850606F1400654F8266083EA0A
:101120000603C2F3852606F1C006C2F3854202F526
:10113000A07254F8266054F8222083EA060383EA5A
:1011400002037FF479AF88E0A1F180078E6FCA6F48
:101150005E40C6F3852CC6F3850E0CF1800C54F866
:101160002E8054F82CE04FEA966C0CF5C07CC6F348
:10117000854606F5807654F82CC054F826605A400F
:1011800088EA0E0E4FEA32128EEA0C0E8EEA060E36
:10119000960E06F5E076103954F826608EEA060EB3
:1011A000C2F38506403654F826608EEA060EC2F376
:1011B0008526C036C2F3854202F5A07254F8266037
:1011C00054F822208EEA06067240D1F8806055401D
:1011D0006E404FEA966CC6F3850E0CF5C07C54F851
:1011E0002E8054F82CE0D1F8842088EA0E0E8EEA86
:1011F0000303C6F3852E0EF1800EC6F3854606F571
:10120000807654F82EE054F826606A404FEA321295
:1012100083EA0E037340960E06F5E076B94254F861
:10122000266083EA0603C2F3850606F1400654F8F9
:10123000266083EA0603C2F3852606F1C006C2F3E0
:10124000854202F5A07254F8266054F8222083EA01
:10125000060383EA02037FF479AF4FEAF5014FEA10
:10126000F30381EA530202F0553281EA020483EA71
:10127000420383EA142101F0FF1183EA010284EAA8
:10128000012181EA920303F03333594082EA830358
:1012900083EA114292B2534081EA024282EA131178
:1012A00001F00F314A4083EA011302604360BDE858
:1012B000F08100BF24CF000013B50C461146026830
:1012C00000924268019268461A46FFF783FE009B2F
:1012D00023701A0A62701A0C1B0EE370019BA27035
:1012E0001A0A237162711A0C1B0EA271E37102B00B
:1012F00010BD2DE9F04104461E46E36A102B0D4651
:1013000010460AD0182B26D0082B44D104F15802DD
:101310000EB9012313E0002311E004F15807D8347B
:1013200096B901233A46FFF7C7FF334622462946BE
:101330002846FFF7C1FF01233A4629462846FFF712
:10134000BBFF0120BDE8F08100233A46FFF7B4FF60
:101350000123224619E004F1580704F1D80804F5E6
:10136000AC7466B901233A46FFF7A6FF33464246FE
:1013700029462846FFF7A0FF01232246DDE7002388
:101380002246FFF799FF0123424629462846FFF7E8
:1013900093FF0023D0E70020BDE8F0810022C26265
:1013A00080F83420FF2280F83520024A02600822AB
:1013B0000263704714CF0000F0B54D1E471E01F1C7
:1013C000070E802615F8014F334224F0010418BFA0
:1013D00044F00104754507F8014F4FEA5606F1D174
:1013E0000823934205DACC5C24F00104C454013391
:1013F000F7E7F0BDF8B500F114060446304615468F
:101400001F46FFF7D9FF102A10D0182A1BD0082A30
:1014100037D104F1130304F11B0213F8011F1972F1
:101420009342FAD104F15801304608E004F1580122
:101430003046FFF703FD04F1D80104F11C00FFF76B
:10144000FDFC002311E004F158013046FFF7F6FCE3
:1014500004F1D80104F11C00FFF7F0FC04F5AC71B5
:1014600004F12400FFF7EAFC402384F83530226BB6
:101470000021201D04F082FA84F83470E562012016
:10148000F8BD0020F8BD10B504460846002184E8E8
:101490000500A16004F072FA204610BD08B583680B
:1014A00019444368994208DD01F000FE044A062110
:1014B000012001F093FE002008BD012008BD00BFFF
:1014C0008EC9000038B50D4601210446FFF7E6FF3E
:1014D00028B1A3682268D554A3680133A36038BD3E
:1014E00013B5019104210446FFF7D8FF024630B13D
:1014F000A36821680198C850A3680433A36010460C
:1015000002B010BD73B5019103210446FFF7C6FF79
:1015100058B102ABA268216833F8046D8E528D1861
:101520009B78AB70A3680333A36002B070BDFFFF6C
:101530002DE9F04F87B0056BDDF8448001914545FA
:10154000044692461E46109F07DC98FBF5F305FB08
:10155000138515B900F1040920E001F0A7FD224A26
:101560000921012001F03AFE1EE0019AF2B94A4633
:10157000394602A801F01AFB236802AAD3F80CB07E
:10158000314653462046D84770B1226B3146484613
:1015900004F05AF9236B01351F441E44236B98FB5A
:1015A000F3F29542E1DB1AE0002019E023683A46A5
:1015B000D3F80CB002A953462046D8470028F3D0F0
:1015C00002A90846236B4A4601F0F0FA226B39461D
:1015D000484604F039F9226B02A93046D8E70120C9
:1015E00007B0BDE8F08F00BF82DF000073B505468D
:1015F00088680C461646F8B12A6B90FBF2F302FBA2
:101600001303CBB90B68801A05F13601184401F0B9
:10161000D8FAA26823680192002200931146284656
:10162000FFF786FF044608B9002419E02A6B291D3C
:10163000304604F009F913E080212046FFF742FF0D
:101640000028F1D0A0682A6B90FBF2F302FB130391
:101650000BB10021F1E7801A236805F14601D5E7B7
:10166000204602B070BDFFFF40280FD0802801D077
:1016700050B901E007487047082909D0064B0748D0
:10168000102908BF1846704705487047054870473D
:1016900005487047B3DF0000A5DF0000A7DF0000AA
:1016A000B7DF0000ACDF0000A8DF000013B5C36A9D
:1016B000102B0446B8BF102300F1140200929BB215
:1016C000094A0921042001F041FEE16A94F835003D
:1016D000FFF7CAFF054A03460921042002B0BDE80E
:1016E000104001F0F3BD00BFBFDF0000C4DF000009
:1016F0000C2908B50B4600F08C80AF2900F08980DA
:10170000002900F08680AE295ED024D87E294FD0F3
:1017100010D81C2944D005D80E2972D101F0C6FC7E
:101720003D4A68E01E293FD040296AD101F0BEFC45
:101730003A4A60E09E293FD005D89D2961D101F049
:10174000B5FC374A57E0A0293AD0A12959D101F078
:10175000ADFC344A4FE0CE2942D010D8C12937D051
:1017600005D8BE294DD101F0A1FC2F4A43E0CA297A
:1017700032D0CD2945D101F099FC2C4A3BE0EE292D
:1017800032D005D8DE293CD101F090FC284A32E065
:10179000F0292DD0F12934D101F088FC254A2AE026
:1017A00001F084FC244A26E001F080FC234A22E078
:1017B00001F07CFC224A1EE001F078FC214A1AE08C
:1017C00001F074FC204A16E001F070FC1F4A12E0A0
:1017D00001F06CFC1E4A0EE001F068FC1D4A0AE0B4
:1017E00001F064FC1C4A06E001F060FC1B4A02E0C8
:1017F00001F05CFC1A4A0821012001F0EFFC0020F6
:1018000008BD184A0821012001F01EFD01F04EFC20
:10181000F5E7012008BD00BFD1DF00000DE00000AA
:1018200037E0000076E00000A9E00000E0E0000002
:1018300004E100003BE10000EBDF0000FCDF000002
:1018400021E000004AE000005FE0000093E00000BB
:10185000B9E00000CFE00000EFE000001DE1000073
:101860002BE1000051E100002DE9F04F8DB015464D
:10187000179A9DF86090984604460E46002302B1E0
:10188000137005AF84F8A036012204A93846FFF78B
:10189000FAFD09F0040202F0FF030393002A0CBFD3
:1018A0000B231323002D08BF3D460293B3689A1CF7
:1018B000AB681344502B04DC029B169A1344502B44
:1018C00007DD01F0F3FBB64A0821012001F086FC98
:1018D000DFE019F00A0F07D094F86434FF2B03D12E
:1018E00001F0E4FBAF4AEFE719F0020F5DD00421ED
:1018F000082001F0D1FB70B1AB4A0821042001F0AF
:101900006DFCD4F86C24138E043200920921A74A8E
:10191000042001F01BFDB168AB682A68306801F053
:10192000ADF9014608902846FFF7DAFD002800F0DF
:10193000B080D4F86C34AF681B6B97FBF3FA03FBF1
:101940001A7ABAF1000F01D00137F6E7C5F808A0FE
:1019500039462846FFF7A2FD002800F09A8008AB20
:10196000AF60009304231846914A082101F0EEFC71
:101970001FFA87FB2B6800938E4A5B4608210420E0
:1019800001F0E4FC2B68D4F86C048DE88800524622
:101990005146FFF7CDFD00287BD02B680093864A87
:1019A0005B460821042001F0D1FC316819F0010FD9
:1019B00091F800A02CD0BAF1AF0F29D094F864347C
:1019C000FF2B25D00023C4F8243704F21C77B2681B
:1019D0003846FFF70BFA00285BD0AA68296838461A
:1019E000FFF704FA002854D00DF1200B5A4639466F
:1019F000D4F86C04FFF7FAFD00284AD0D4F86C3410
:101A00006E4A1B8ECDF800B00821042001F09EFC28
:101A10004023237101236371B2683168A01D03F074
:101A200013FFB768AA6829680237261DF01903F06A
:101A30000BFFAA683A44D2B23146204600F0C4FEF9
:101A400038B31699029B0B44DAB23146204600F0B7
:101A5000C5FE0228834602D96379412B03D001F0E9
:101A600025FB574A30E7A17984F8A0162046E7798C
:101A700000F006FC68B1BBF1030F0AD027B1AF2F0D
:101A80001CBFFF2384F8643439462046FFF730FE3C
:101A900010B94FF0FF357EE0179B03B11F70039B19
:101AA000ABF10405EDB27BB30FB1AF2F2CD194F89D
:101AB0006434FF2B28D0BAF1AF0F1CBF0023C4F849
:101AC0002437AF2F08D12A4604F1080104F21C7014
:101AD000FFF78CF9C0B9DCE7072D15D9A7B9ABF131
:101AE0000C05EDB204F21C7A2B1D2A4604F1080104
:101AF00050461E44FFF77AF90028CAD039465046AE
:101B0000FFF7E0FC50BBC4E7169BAB4203DA01F0E1
:101B1000CDFA2C4AD8E6B8F1000F3CD0002D3AD0CF
:101B20002A4604F10801404603F08EFE19F0080F22
:101B300031D001220195CDF8008043461146D4F8FA
:101B40006C04FFF7F5FC0028A3D0CDF80080ABB201
:101B50001D4A0821042001F0F9FB1CE008AF3A46B9
:101B60005146D4F86C04FFF741FD002891D0D4F819
:101B70006C34164A1B8E00970821042001F0E6FB06
:101B800008223946304606F01BFB0028BCD001F085
:101B90008DFA0F4A98E628460DB0BDE8F08F00BFD9
:101BA00021E2000061E1000073E100008AE1000031
:101BB00093E1000097E10000A5E10000B7E100001B
:101BC000C6E10000F9E1000018E20000DCE10000DD
:101BD000EBE10000F0B589B004460F46154604A9B4
:101BE000012205A81E46FFF74EFC394605A8FFF75F
:101BF00069FC9DF8403002930F9B01930E9B00936C
:101C00002A46334605A92046FFF72EFE09B0F0BD4F
:101C10002DE9F04FCBB005460491082004219046F1
:101C200001F03AFA40B10420049B974A082101F0E0
:101C30000BFB4046FFF73AFD98F83530402B02D0B9
:101C4000802B06D00BB91A2404E001F02FFA8F4A3A
:101C5000F1E0AA24012207A908A8FFF714FC0499BF
:101C600008A8FFF72FFC002302930DF11F06102395
:101C700014AF009321463B46019608AA2846FFF779
:101C8000A9FF3378AF2B044603D1082805D01028CC
:101C900003D001F00BFA7E4ACDE0D8F830200021C5
:101CA00008F1040003F06AFE0DF1600A01220194BC
:101CB0000097534611464046FFF73AFC002800F0D3
:101CC0007C810DF1700B2246514658460DF180097A
:101CD00000F085FF2146484600F09EFF20223AA9E9
:101CE0000BA8FFF7D0FB224649460BA8FFF77EF86A
:101CF000224659460BA8FFF779F8202242A90EA8E0
:101D0000FFF7C1FB6300002219460EA8059310924D
:101D1000FFF7C4FB059B00B11093019300220B9BBE
:101D2000009311460E9B4046FFF702FC002800F08E
:101D300044810421082001F0AFF988B3A3B20097D1
:101D4000544A1F460821042001F000FB3B46524A3A
:101D5000CDF800A00821042001F0F8FA3B464F4AD4
:101D6000CDF800B00821042001F0F0FA3B464C4ABF
:101D7000CDF80090082104207F0001F0E7FABFB2FF
:101D80000B9B0093474A3B460821042001F0DEFAF2
:101D90000E9B0093444A3B460821042001F0D6FAEA
:101DA000002324AF02938DE850003B460EAAAF21DA
:101DB0002846FFF70FFF33780BB9844203D001F0B8
:101DC00075F93A4A37E028AE01220194009733466C
:101DD00011464046FFF7ACFB002800F0EE800DF105
:101DE000B00B49465846224600F0F9FE042108206F
:101DF00001F052F9B0B1A3B200972D4A1F46082155
:101E0000042001F0A3FA3B462A4A00960821042048
:101E100001F09CFACDF800B03B46274A0821042087
:101E200001F094FA22462CA9304606F0C9F938B1DF
:101E300001F03CF9214A0821012001F0CFF9BCE072
:101E4000182234A911A8FFF71EFB0422494611A845
:101E5000FEF7CCFF0422514611A8FEF7C7FFD8F8C1
:101E60002C30082B42DD98F83530402B28D0802BC1
:101E700032D0002B3AD1042221A911A8FEF7B6FFD7
:101E8000042219A92FE000BF5CE2000099DF0000E6
:101E900074E200008EE2000098E200009EE2000082
:101EA000A8E20000AEE20000B5E20000C0E20000DF
:101EB000DAE20000E4E20000EEE20000F8E20000F6
:101EC00004220DF1860111A8FEF790FF04220DF106
:101ED000660111A8FEF78AFF042223A911A8FEF7C4
:101EE00085FF04221BA911A8FEF780FF98F8353062
:101EF000139A1199802B0CBF05F58E6305F5996334
:101F0000C5F86C34D5F86C0403689C680023A047BE
:101F1000002852D0D5F86C44266B0DF1C009082E6C
:101F20004FF010024FF0000148460CBF1B278727D7
:101F300003F024FD32460021201D03F01FFD236B1A
:101F40000193CDF800904B46002201212046FFF777
:101F5000EFFA064688B3D4F830A004F136085246AA
:101F60004946404603F070FC5146404600F041FEB1
:101F70009DF9C030002B07DA236B013B234493F813
:101F800036207A4083F83620D4F8309004F14603A6
:101F900018464A46414603F057FC494600F029FEE0
:101FA00094F93630002B07DA236B013B1C4494F87C
:101FB00046305F4084F846700EB9002611E00421D7
:101FC000082001F069F840B10420084A082101F016
:101FD00005F9D5F86C04FFF769FB9DF8103085F81A
:101FE000643430464BB0BDE8F08F00BF12E3000010
:101FF00070B50B4688B005460C4616460821144AB3
:10200000042001F021F9012204A905A8FFF73BFAF9
:10201000214605A8FFF756FA052302930024012361
:102020008DE818002846334605AA6421FFF7D2FD43
:102030000128054608D1034600960420054A0821D8
:1020400001F084F9284600E0204608B070BD00BFCA
:10205000B4E30000CDE3000070B505469AB00E462B
:102060000820042101F018F848B13246134906A8A7
:1020700006F090FB06AA0821042001F0AFF8032225
:1020800005A906A8FFF7FFF90024314606A8FFF7C7
:1020900039FA029401940094234606AA5A2128464C
:1020A000FFF798FD30B9FF2385F86434C5F86864FC
:1020B000012000E020461AB070BD00BF0BE6000012
:1020C0002DE9F0439DB081460F46082004211546B6
:1020D0001C46249E00F0E0FF58B13A461F49009488
:1020E0002B4608A806F056FB08AA0821042001F098
:1020F00075F8002C2EDD302C4FF0070206A908A839
:10210000A046A8BF4FF03008FFF7BDF9394608A830
:10211000FFF7D8F9294608A8FFF7F4F9414608A8BF
:10212000FFF7F0F9052302930DF117030193CDF8A2
:102130000080334608AABD214846FFF74BFD9DF8B5
:1021400017300BB9002801DC002004E0241A0544F4
:102150000644CEE701201DB0BDE8F08368E700002B
:102160002DE9F043044687B0264600F05FF8234B84
:1021700046F85C3B04F50D783046FFF70FF904F2A2
:102180000C474046FFF70AF93846FEF721FE04F5F2
:102190008E60FEF71DFE04F59960FFF7FFF804F26C
:1021A000A161782204F21C70FFF76DF90025FF236E
:1021B0004FF0180984F864344A462946C4F86C5430
:1021C00084F8A056C4F86854684603F0D7FB2B4641
:1021D000694608223046FFF70DF92B464A46694604
:1021E0004046FFF707F92B46102269463846FEF7AE
:1021F00029FC204607B0BDE8F08300BF6CDF00007B
:10220000FF2280F864240022C0F8682400F0FABBA2
:10221000054B1B684FF00042DA625863DA6A002A05
:10222000FCDA986BC0B270477C08FF1F064A026058
:10223000002280F8542080F8552080F8562080F83D
:10224000572080F8582070470CEF000038B504463E
:102250009DF810509DF8140084F8541084F858002C
:1022600084F8552084F8563084F85750012103F043
:1022700035FC94F857000121BDE8384003F02EBC2E
:1022800010B55B4A0C46A0B00A21042000F0A6FF5E
:1022900014F03F0400F0A980224656496846013CEC
:1022A00006F078FA2D2C00F29380DFE804F0171B7B
:1022B0001F23272B2F9133373B913F439147914B5E
:1022C0004F5391919191919191919191919191917E
:1022D00057915B5F6391676B6F797D8700F0E6FED6
:1022E00045496EE000F0E2FE44496AE000F0DEFE9F
:1022F000434966E000F0DAFE424962E000F0D6FEB3
:1023000041495EE000F0D2FE40495AE000F0CEFEC6
:102310003F4956E000F0CAFE3E4952E000F0C6FEDA
:102320003D494EE000F0C2FE3C494AE000F0BEFEEE
:102330003B493CE000F0BAFE3A4942E000F0B6FE0C
:1023400039493EE000F0B2FE38493AE000F0AEFE16
:10235000374936E000F0AAFE364932E000F0A6FE2A
:1023600035492EE000F0A2FE34492AE000F09EFE3E
:10237000334926E000F09AFE324922E000F096FE52
:10238000314906E000F092FE304902E000F08EFE96
:102390002F49684606F024FA0A210246032020E06D
:1023A00000F084FE2B490CE000F080FE2A496846CC
:1023B00006F016FA0A210246022012E000F076FE2C
:1023C0002649684606F00CFA0A210246012008E078
:1023D00000F06CFE2249684606F002FA0A21024625
:1023E000002000F0FBFE002000E0012020B010BD26
:1023F00052E9000063E9000078E9000080E900008C
:102400008AE9000097E90000BDE90000CBE900007F
:10241000E2E9000004EA000017EA000039EA0000DF
:102420004BEA000057EA000070EA000082EA000070
:1024300098EA0000AAEA0000BFEA0000D4EA00001F
:10244000E9EA0000FFEA000016EB00002FEB0000B5
:1024500047EB00005CEB00007DEB00008AEB000026
:1024600096EB00001FB50446002190F8570003F0DA
:1024700015FB022003F082FB124A0A21042000F01F
:10248000ADFE0220FFF7C4FE0020FFF7C1FE04AB43
:102490000D4A03F8010D0A2100930420012300F0E6
:1024A00055FF012194F8570003F0F8FA4FF4FA634E
:1024B000013BFDD19DF80F00431E5842584104B026
:1024C00010BD00BFA9EB0000C5EB000070B50646CB
:1024D00065243046FFF7C6FF054670B9013CA4B23B
:1024E0003CB900F0E3FD064A0A21012000F076FE27
:1024F00003E00A2003F042FBEBE7284670BD00BF73
:10250000D5EB0000F8B50F460646002190F85700BD
:10251000144603F0C3FA022003F030FB0D4A0A21EF
:10252000042000F05BFE0120FFF772FE013C7D1EDF
:102530003C44A54204D015F8010FFFF769FEF8E707
:10254000012196F8570003F0A9FA4FF4FA63013B12
:10255000FDD1F8BDECEB0000F0B5054689B03A4A74
:102560003A4C0A21042000F039FE012195F8580068
:1025700003F094FA0A2003F001FB002195F85800BB
:1025800003F08CFA4FF4C87003F0F8FA012195F8C3
:10259000580003F083FA0A2003F0F0FA95F855701A
:1025A00095F8566095F85410204601F083FB3946A3
:1025B000204601F035FB3146204601F0E3FA204683
:1025C00001F0A4FAE37AF3B172B6E37AD90705D53C
:1025D0001F4AE36811680B40A3611360E37A1B494B
:1025E0009A0705D51B4A0B6910680340CB6113603D
:1025F000E37A16495B0705D5174A4B691068034013
:102600000B62136062B62368144AD968914207D0FE
:1026100013491960DA6002F180421A61114A1A60A6
:1026200003AC14225521204603F0A8F92146284680
:102630001422FFF767FF009414230B4A0A21042099
:1026400000F084FE09B0F0BD0CEC00007C08FF1F18
:1026500080E100E084E100E088E100E0054000392D
:1026600001403F0000003F8012EC000030B59BB0FD
:10267000FF248DF80E40541C8DF80F40D4430023E6
:102680008DF81040D4248DF80C308DF80D308DF875
:102690001140DCB2A24205D903AC1C44CD5CA5714B
:1026A0000133F6E70025911D2B46ECB28C4205F173
:1026B000010507DA0DF1680E744414F85C4C2344EC
:1026C000DBB2F2E71AAC2144DB4301F85C3C1AAB05
:1026D00002F108041A4403AD002302F8553C2946D0
:1026E000E2B2FFF70FFF0095A3B2034A0A210420CC
:1026F00000F02CFE1BB030BD26EC00002DE9F041AF
:10270000074688461446FFF7E1FE064638B3002127
:1027100097F8570003F0C2F9022003F02FFA114A8C
:102720000A21042000F05AFD0320FFF771FD013C4F
:1027300008F1FF354444A54208D0012003F01EFAF9
:102740000020FFF765FD05F8010FF4E7012197F878
:10275000570003F0A3F94FF4FA63013BFDD1304673
:10276000BDE8F0812FEC000030B5144B87B0044673
:1027700004AD186802909B88ADF80C302046062204
:102780002946FFF7BBFF0446A0B10D4A00950A2178
:102790000420062300F0DAFD062202A9284605F0EF
:1027A0000FFD38B100F082FC064A0A21012000F03A
:1027B00015FD0024204607B030BD00BF4CE90000E5
:1027C0004CEC000055EC000010B50446FFF74EFF3E
:1027D0002046BDE81040FFF7C7BFFFFFF0B5531F0D
:1027E0004B2B97B00D46174603D900F05FFC314ADA
:1027F0002BE002AE3146FFF781FF002857D032466A
:102800000021381F884207DD12F8013B13B9147804
:10281000FF2C22D00131F5E70024274D0AE016AB4A
:102820001A4412F8503C254ADB43DBB29D4214BFE8
:102830001546002500963B46214A0A21042000F057
:1028400085FD45B100F032FC2A4601200A2100F046
:10285000C5FC00202BE0E0B229E016AA0A4412F8D9
:102860004E4C12F84D2C2244B2F5807F1DD14A1DEA
:102870002244974215DB0A1D9C4205DD581830445E
:102880000079E8540133F7E7224464B12B78D52B63
:1028900009D100259142C2DA735C1D44EDB20131C9
:1028A000F8E7084DC6E7084DC4E7084DC2E717B082
:1028B000F0BD00BF37ED00006BEC000016ED00002E
:1028C00052ED0000B1EC0000E8EC000089EC0000E3
:1028D0002DE9F843044625460420894690460A21FE
:1028E000174A1F4600F07AFC022305F8043F012234
:1028F00029462046FFF768FF0646E8B10D22294623
:102900002046FFF76BFF062802D16379032B08D01E
:1029100000F0CCFB0B4A0A21012000F05FFC0026EE
:102920000AE0A37989F80030E37988F80030237A47
:102930003B70089B627A1A703046BDE8F88300BF8E
:102940005CED00006FED000070B5144A04460A21EA
:10295000042000F043FC261D142201232271A271E1
:102960006371E371042231462046FFF72DFF0546CF
:1029700088B1092231462046FFF730FF022802D1F4
:102980006379152B07D000F091FB054A0A2101203D
:1029900000F024FC0025284670BD00BF89ED000032
:1029A00093ED000070B5154A04460A21042000F09A
:1029B00015FC32232371FF23A37101230522E37148
:1029C000261D03236271237231462046FFF7FCFE69
:1029D000054688B1092231462046FFF7FFFE02284E
:1029E00002D16379332B07D000F060FB044A0A213F
:1029F000012000F0F3FB0025284670BDA4ED000087
:102A0000C0ED000070B5144A04460A21042000F00D
:102A1000E5FB3223237101236371261D0023A3717B
:102A2000032231462046FFF7CFFE054688B1092232
:102A300031462046FFF7D2FE022802D16379332BBC
:102A400007D000F033FB054A0A21012000F0C6FB45
:102A50000025284670BD00BFE3ED0000F4ED000046
:102A60002DE9F04704460E46994696B017460A21CE
:102A7000474A042000F0B2FB00234A223B70251D88
:102A800089F8003033607360227101226271A37192
:102A9000032229462046FFF797FE8046002872D081
:102AA0001C2229462046FFF799FE022802D96379A5
:102AB0004B2B09D000F0FAFA364A0A21012000F027
:102AC0008DFB4FF000085EE0A579334A2B460A21C2
:102AD000042000F0B9FB012D55D1E57A042D08D072
:102AE000072D06D02B462C4A0A21022000F0ACFB11
:102AF00049E004F10C012A46304602F0A5FE3D7083
:102B0000277A637AA47A072D43EA072709D1337815
:102B1000802B13D0B7F5517F10D1202C0ED101237B
:102B20000AE0042D0AD13378802B07D1B7F5417F15
:102B300004D1202C02D1032389F8003004210A207B
:102B400000F0AAFA8246F0B12B46144A00960A21F8
:102B5000042000F0FBFB23463A46114902A805F089
:102B600019FE99F80030012B01D10E4902E0032B28
:102B700003D10D4902A805F033FE02AA0A21042060
:102B800000F02CFBD046404616B0BDE8F08700BFF1
:102B900033F0000027EE000042EE00004FEE000090
:102BA00059EE000080EE000093EE000070B50024A6
:102BB0009C4205DA0E5D155D754005550134F7E759
:102BC00070BD30B501380C46631A9A4206DD14F820
:102BD000015B10F8013F6B400370F5E730BD38B57D
:102BE000541E0D462246013102F02EFE2A7802556F
:102BF00038BD10B5034601391A1A914208DD1A781A
:102C000013F8014F520042EAD41203F8012CF3E703
:102C1000435C5B00435410BD37B5094B094C1B683E
:102C20000193019B0246151AA94206DD02F8013BF9
:102C3000634303F583432733F5E703B030BD00BF9B
:102C4000AC21FF1F1DF3010030B503461C1AA14241
:102C500012DD13F8014B6240082402F0010552080E
:102C60003DB182F06D4282F4380282F4034282F078
:102C70002002013CF1D1E9E7104630BD38B51446D9
:102C80004FF0FF321D46FFF7DFFF29460246204680
:102C9000BDE83840FFF7D8BF30B52F4A2F4C99B068
:102CA0000B21032000F09AFA00232D482370FFF730
:102CB00053FC0DF10F0300930DF10D020DF10E0306
:102CC00003A92748FFF704FE002835D09DF80E1011
:102CD0009DF80D309DF80C20009104A8214905F0C5
:102CE00059FD04AA0B21042000F078FA9DF80F503A
:102CF0001D491E4815F0010F14BF0A46024615F083
:102D0000020F14BF0B46034615F0040F08BF01461F
:102D1000009104A8164905F03DFD042004AA0B21EA
:102D200000F05CFA0E48FFF73DFE28B10C48FFF7B3
:102D30000BFE08B10123237023782BB900F0B6F9FC
:102D40000C4A0B21012002E00B4A0B21032000F06A
:102D500045FA19B030BD00BF2FEF0000601DFF1F06
:102D60006014FF1F4BEF000028EF00002CEF000065
:102D700072EF0000A6EF0000BAEF000030B5224A63
:102D800085B00B21042000F029FA204B1C784CB9A7
:102D900000F08CF91E4A0B21022000F01FFAFFF709
:102DA0007BFF2DE000250DF1070301AA02A91948B8
:102DB0000195FFF755FE044628B900F077F9164A49
:102DC0000B21012009E09DF80730012B9DF804300C
:102DD00006D133B1114A0B21042000F0FFF90FE0B6
:102DE00033B90F4A0B21042000F0F8F9002407E062
:102DF00000F05CF90B4A0B21022000F0EFF92C46A1
:102E0000204605B030BD00BFD9EF0000601DFF1F98
:102E1000EBEF00006014FF1F20F0000047F00000FF
:102E20005FF0000076F0000008B50748FFF7E8F90A
:102E300040B900F03BF9054A0B210220BDE80840EB
:102E400000F0CCB908BD00BF6014FF1F8DF000007A
:102E50002DE9F041324A88B007460E4604200B2186
:102E600000F0BCF900212F48FFF7F6F8044618B926
:102E700000F01CF92C4A0AE00DF10F02002129484C
:102E8000FFF7B6F8044638B900F010F9274A0B21CD
:102E9000012000F0A3F93FE09DF80F30244A0B21F8
:102EA000042000F0D1F99DF80F80B8F1100F08D080
:102EB00000F0FCF81F4A0B21012000F08FF90024DC
:102EC0002AE01D491748FFF7C7F8044618B900F073
:102ED000EDF81A4ADBE71A4A12480021FEF798FE7D
:102EE000044618B900F0E2F8164AD0E7002204AD13
:102EF0000095434611460B48FFF7E2F8044618B91F
:102F000000F0D4F8104AC2E72B4603CB06AB38607A
:102F1000796003CB30607160204608B0BDE8F08175
:102F2000A5F000006014FF1FBAF00000D3F000000D
:102F3000EEF0000008F100001F40AA0026F100009A
:102F4000641DFF1F37F100004EF1000070B50F4DFA
:102F50000F4C104E2846FFF703F928460E4D0F4937
:102F6000224604F0ADF92846FEF718FA28460C4D23
:102F70002246314604F0A4F92846FEF70FFA22460D
:102F800031462846BDE8704004F09AB96014FF1F2E
:102F9000F806FF1F290E0000881BFF1F01300000EC
:102FA000641DFF1F07B5104A0B21042000F016F91D
:102FB000162206238DE80C001421152305220B4848
:102FC000FFF744F9FFF768FE102318220849094863
:102FD000FEF710FA084909481023182203B05DF8DB
:102FE00004EBFEF707BA00BF20F300006014FF1FD8
:102FF0002AF30000881BFF1F10EF0000641DFF1F55
:103000000C4B10B50446036000F59960FDF70CFF0A
:1030100004F58E60FDF70EFD04F20C40FDF70AFD8D
:1030200004F50D70FDF700FF04F15C00FDF7FCFEF8
:10303000204610BD6CDF000070B5044608460D4602
:1030400005F05EFC23680246294620465B68BDE821
:103050007040184703681B68184708B5FFF7ECFF76
:1030600008BD0368C9B21B681847FFFF10B5054BC0
:10307000054A19780023DCB2A14202D998540133E1
:10308000F9E710BDFC06FF1F3C1FFF1F014B195441
:10309000704700BF3C1FFF1F034B185C884234BFC2
:1030A00000200120704700BF3C1FFF1F024A136829
:1030B00001331360704700BF5C1FFF1F08B5042079
:1030C000FFF7D4FF014B00221A6008BD5C1FFF1FF1
:1030D00030B58FB004460D46FDF7EAFAA0B103A85B
:1030E000FDF7ECFA4FF47A700599B1FBF0F101911C
:1030F0009DF8111000919DF810309DF80F201A498D
:1031000006A805F047FB07E0184B19491B68039315
:10311000039A06A805F03EFB06A91648FFF78CFFA8
:10312000052C10D8DFE804F0030507090B0D124940
:103130000AE0124908E0124906E0124904E0124987
:1031400002E0124900E012490A48FFF775FF2B46DA
:10315000104A0A2106A805F0CFFA06A90548FFF78C
:103160006BFF0FB030BD00BF84F30000AC21FF1F28
:10317000A0F30000C008FF1FA6F30000B1F3000099
:10318000BCF30000C7F30000D2F30000DDF3000041
:10319000E8F30000F3F30000052810B5144604D945
:1031A000FFF784FF0C460A4902200A4B1B78834232
:1031B0000DD3FFF78DFF21460748FFF73DFF0A219A
:1031C0000548FFF74EFFBDE8104003F039BC10BDC5
:1031D000FAF300003C1FFF1FC008FF1F052810B5B1
:1031E00014460DD9FFF762FF0D2996BF114B124A05
:1031F00053F8212011490220BDE81040FFF7CCBF51
:103200000F4B5B5C834213D30D2996BF094B0A49D0
:1032100053F82110FFF75CFF21460A48FFF70CFF27
:103220000A210848FFF71DFFBDE8104003F008BC65
:1032300010BD00BF44F300007CF30000FAF300006F
:103240003C1FFF1FC008FF1F052838B515461C4648
:103250000DD9FFF72BFF0D2996BF164B164A53F8D1
:10326000212016490220BDE83840FFF795BF144BD6
:103270005B5C83421DD30D2996BF0E4B0E4953F85C
:103280002110FFF725FF29460E48FFF7D5FE0E490E
:103290000C48FFF7E2FE002321460A22094802F00B
:1032A00087FA0A210748FFF7DCFEBDE8384003F043
:1032B000C7BB38BD44F300007CF30000FAF3000004
:1032C0003C1FFF1FC008FF1F8BE40000052838B516
:1032D00015461C460DD9FFF7E9FE0D2996BF154B83
:1032E000154A53F8212015490220BDE83840FFF760
:1032F00053BF134B5B5C83421BD30D2996BF0D4B11
:103300000D4953F82110FFF7E3FE29460D48FFF75A
:1033100093FE0D490B48FFF7A0FE21460948FFF731
:103320008BFE0A210748FFF79CFEBDE8384003F0FA
:1033300087BB38BD44F300007CF30000FAF30000C3
:103340003C1FFF1FC008FF1F8BE4000070B505285D
:1033500016461D46049C0DD9FFF7A8FE0D2996BF01
:103360001B4B1C4A53F821201B490220BDE870402A
:10337000FFF712BF194B5B5C834228D30D2996BF20
:10338000134B144953F82110FFF7A2FE314614489D
:10339000FFF752FE20211248FFF75CFE013D661E3A
:1033A0002C44A6420BD016F8011F0D480023102212
:1033B00002F0FEF920210A48FFF74CFEF1E70A214E
:1033C0000748FFF74EFEBDE8704003F039BB70BD03
:1033D00044F300007CF30000FAF300003C1FFF1FE1
:1033E000C008FF1F83709DF80030C370B1F5FA6FFD
:1033F0009DF80430037128BFA1F5FA619DF80830EB
:10340000437128BF89B2039B01704270836070478B
:103410000A7802704A7842708A788270CA78C270DC
:103420000A7902714A7942718A6882607047FFFFA7
:10343000244B3C220B4430B5B3FBF2F402FB1431B5
:103440004171B4FBF2F102FB1142182402714FF4F6
:103450006162B3FBF2F2B2FBF4F104FB1122C27021
:10346000194AB3FBF2F300229BB20270017811F00B
:1034700003040CBF0122002202F5B6759D4207DA53
:10348000C2F57E429332134401319BB20170EDE7E5
:1034900001220E4D427041786A1812F8012C1CB9B5
:1034A000022904BF0132D2B292B2934204D39B1AD2
:1034B00001319BB24170EEE70133837000238360DA
:1034C00030BD00BF80BC92C78051010071F4000084
:1034D00010B5FFF7ADFF10BD816070470020704749
:1034E00090F8392090F83800101A704790F838306A
:1034F00090F839209A4286BF1B18187E4FF0FF3093
:1035000070477047B0F85E302BB190F85D30202BDB
:1035100003D901230371002070475A1C034480F82B
:103520005D2083F83B100120704738B50446B0F8A1
:103530005E001546A0B194F85D30C3F121029542BA
:1035400082BF01201546207104F13B0018442A4631
:1035500002F07AF994F85D302B4484F85D30284607
:1035600038BDFFFF43691A685B6812681A420ED0C3
:10357000074B9942036901D82C2204E0054A914285
:1035800094BF1C2212225A70036904229A71704758
:103590007F1A06003F420F0070B50023456980F88E
:1035A000383080F8393080F85C3080F85D3080F851
:1035B0005E3080F85F3029686A680E68436632437F
:1035C00083660A6002699370466990F86110124A36
:1035D00031440D7A4B7B02EBC5051B026D6803F489
:1035E000E06343F064032B6090F862303344997CCD
:1035F000DB7D02EBC1021B025268084903F4E06361
:1036000043F064031360FFF7ADFF036920225A7192
:10361000036980229A7070BDD4F60000A086010074
:1036200038B50269D578EDB215F0100F044605F0F3
:10363000400303D103F0FF012BB92AE01021D17020
:10364000002BF7D138BD05F0040505F0FF02374B1C
:10365000CDB100221A70636E84F85D2003B19847E3
:1036600094F85D3023B9012284F85D2084F83B3062
:103670002369D0229A70236994F83B201A710123A0
:1036800084F85C304DE00121197084F839202369F9
:103690002DE022699379DBB203F06000602809D144
:1036A00003F0DF039371A36E23B184F8381094F80C
:1036B0003900984723699A7802F0100202F0FF015E
:1036C000D2B115F0010512D194F85C2094F85D1088
:1036D000914281BF511C121984F85C1092F83B2072
:1036E0008CBF1A711D712369D0229A7019E0C02213
:1036F0009A7023691B7914E084F860109A7942F07B
:1037000020029A7123691A7994F839301F2BD2B2AA
:1037100007D80649097821B1591C234484F8391087
:103720001A7623690222DA7038BD00BF601FFF1FBE
:103730002DE9F347344D354F2B680093DDF80080B9
:1037400004460021C8262269D3789B0658D52B68E9
:103750000193019BC8EB03030F2BF4D9002947D138
:10376000626994F8613013440521187A02F0B6F9C1
:10377000626994F861301344012193F812A0504615
:1037800002F0ACF94FF009090021504602F086F929
:103790003346013BFDD10121504602F07FF933460B
:1037A000013BFDD1B9F10109EED1606994F86120C6
:1037B0000244117A537B07EBC1011B02496803F4F1
:1037C000E06343F064030B6094F8623003449A7C36
:1037D000DB7D07EBC2021B02526803F4E06343F097
:1037E000640313604FF4C873013BFDD10121AAE7C4
:1037F000102BA8D000209070236980229A7000E0DE
:10380000012002B0BDE8F087AC21FF1FD4F6000014
:103810002DE9FF4103691222DA700269937803F0FF
:10382000200304460D4603F0FF0613B1B423937042
:1038300008E0FFF77DFF002860D0236984F85F600F
:10384000B0229A702F4B21691A680092009ECA78A4
:1038500002F0200202F0FF00002A45D000200227DB
:1038600094F85D20C1B28A4235D96618226996F86B
:103870003B6016711A680392DDF80C802669F278B5
:10388000D2B202F0020E0EF0FF0CBEF1000F0BD10F
:10389000920609D51A680292029AC8EB0202052A1A
:1038A000EDD986F802C026E0F7702669F278D2B228
:1038B00012F0100F02D112F0200F03D18023B37049
:1038C000042009E0D20700F10100C9D500290CBF8E
:1038D0000220032001E0002015B1236980229A70A4
:1038E000002384F85E300AE01A680192019A921B64
:1038F000042AACD98870236980229A70042004B00D
:10390000BDE8F081AC21FF1F2DE9F043994600236B
:1039100080F8383080F83930036917461222DA709F
:103920000269937803F0200389B00546884603F0C6
:10393000FF0413B1B423937009E0FFF7F9FE0028E8
:1039400000F0B9802B6985F85F40B0229A705C4E18
:103950002A69336800930099D37803F0200303F0B9
:10396000FF0433B933680193019B5B1A042BF3D92D
:1039700017E04FEA480848F001085FFA88F882F833
:1039800004803368029302992A69D37803F0020312
:1039900003F0FF044BB933680393039B5B1A052BB9
:1039A000F3D994702B69802210E00223D3702B6925
:1039B000D87810F0110403D080229A7000247AE0A5
:1039C00037B9B9F1000F14BF8022A0229A7072E0BB
:1039D000012F0CBFA822A0229A702B691B7900200E
:1039E0000221A824012F2A6933682BD00493DDF823
:1039F00010C0D37803F0020303F0FF0E4BB9336815
:103A00000593059BCCEB0303052BF2D982F802E06A
:103A10004BE0D1702A69D378DBB213F0100F49D193
:103A20009B0647D5013FFFB2012F08BF94702B6959
:103A30001F289FBF421C40191B7903768CBF1B793E
:103A4000D0B2CFE70693069CD37803F0020303F0CD
:103A5000FF013BB933680793079B1B1B052BF3D969
:103A6000917022E00223D3702A69D378DBB2D906A1
:103A70000AD51023D370C823013BFDD12A6993785E
:103A800003F0F703937015E09B0613D5B0239370F2
:103A90001F282B699FBF421C40191B7903768CBFDE
:103AA0001B79D0B2B9F1000F02D02B6980229A7035
:103AB00085F839000446204609B0BDE8F08300BF10
:103AC000AC21FF1F0148FFF7ABBD00BF6C07FF1F14
:103AD0000148FFF7A5BD00BFD807FF1F0148FFF74A
:103AE0009FBD00BF0007FF1FC38B1B0441BFC38BDB
:103AF000C1F3080103F47E43194358BFC1F30E011B
:103B0000C183C38B9BB2C3827047FFFF43681968B0
:103B10005A6810B50C6822430A60026815491160A2
:103B20001549D16001F18041116114491160417A58
:103B3000134A5C180C3194F82C4053F8211002EB16
:103B4000C40464682160017A5C1803EB8101247E5F
:103B5000C96902EBC40464682160817A581803EBD8
:103B6000810390F840005B6C02EBC0025268136066
:103B700010BD00BF01401F000110003800001F8071
:103B8000D4F600004368234A9A4270B518D10B2935
:103B900004D1214C227822F0030210E0072906D13B
:103BA0001D4C227822F0030242F0010207E01C299A
:103BB00006D1194C227822F0030242F00202227050
:103BC000427A1A4492F82C40A14221D003F12B05ED
:103BD000002215F8016F8E4217D119680D685968D7
:103BE0000D4210D00D4901EBC40400256468256026
:103BF0009C1894F82C4001EBC40102F10C044968B4
:103C000053F824300B60427270BD0132042AE0D1B7
:103C100070BD00BFC8F50000A821FF1FD4F600004A
:103C20004368214A9A4270B518D10C2904D11F4C1F
:103C3000227822F00C0210E0082906D11B4C2278D1
:103C400022F00C0242F0040207E0272906D1174CAB
:103C5000227822F00C0242F008022270027A1A4402
:103C6000147EA1421FD003F11705002215F8016F41
:103C70008E4215D119680D6859680D420ED00C4955
:103C800001EBC4040025646825609C1803EB8203E3
:103C9000247EDB6901EBC40149680B60027270BDD0
:103CA0000132042AE2D170BDC8F50000A821FF1F2F
:103CB000D4F600004368254A9A4230B518D10D2940
:103CC00004D1234C227822F0300210E00E2906D1D4
:103CD0001F4C227822F0300242F0100207E01B292C
:103CE00006D11B4C227822F0300242F020022270D2
:103CF000827A1A4492F84040A14226D093F840209C
:103D00008A4209D093F841208A4207D093F8422092
:103D10008A421AD1022202E0002200E00122196840
:103D20000D6859680D420FD00A4901EBC404002503
:103D3000646825609C1803EB820394F840405B6C38
:103D400001EBC40149680B60827230BDC8F5000008
:103D5000A821FF1FD4F6000070B5036B1A79304B11
:103D60001A70C36A1A792F4B1A70026B12791A7083
:103D7000826A0446002A3FD04368D9688A4203D940
:103D8000521A8262012110E0C36A511E1868FFF7BF
:103D9000ABFE236BA16A1868FFF7A6FEA16A002399
:103DA00011F1FF3118BF0121A362E36A1B68186893
:103DB00004F124029042226805D1D36894F824309B
:103DC00043F000430EE0D06810F0804F186815BF34
:103DD0001D681D680088007814BF023501351D601C
:103DE00040F000435363236B1A790F4B1A70A9B14B
:103DF000E26A12791A7070BD03680C491A63D962BD
:103E0000D96821F08041D960032380F82530406BC8
:103E1000036811461B68BDE87040184770BD00BFBD
:103E20001F8000401C8000401B80004000000FFFEE
:103E300008B50248FFF790FF08BD00BF4408FF1F08
:103E400008B50248FFF788FF08BD00BF7C08FF1FC8
:103E5000054A40F243434FF4886113605360916018
:103E6000D36013615361704700D00440054A40F2AB
:103E700003130021136053609160D3601361536199
:103E8000704700BF00D004400E4A116821F00803BB
:103E900010B513600C4B0B40184340F460200B49E5
:103EA00010604FF480130C68240701D4013BFAD151
:103EB00040F008001060064A136843F48013136052
:103EC00010BD00BF2C100B400700F0FF24100B406A
:103ED00030100B401E4A136843F0800310B5136086
:103EE0001C4B1C461968C907FCD421688907F9D402
:103EF000194B18604FF0807014681849144B21401A
:103F0000013811B90028F7D102E008B1012907D022
:103F1000136843F4702343F001031360012010BDC4
:103F20001A68120605D51A6842F001121A600320B9
:103F300010BD18681A6810F4803017BF42F00112E3
:103F400042F0010205201A6008BF1A6010BD00BFD0
:103F500030100B4024100B400C100B4001000E00E1
:103F6000F8B50A4D0A4F642400262E600948FFF771
:103F7000B1FF013C05D03B685B0705D50028F4D0B4
:103F8000F8BD002808BF0520F8BD00BF08100B4091
:103F900024100B400000DB0C70B5084D00230646D2
:103FA0002B600748FFF796FF38B9064C0648236890
:103FB0002E60FFF78FFF00B9236870BD08100B401B
:103FC00000001A3710100B4000000229074B1A7826
:103FD0003AB99A783AB15B78002B0CBF02200320E3
:103FE0007047002070470120704700BF641FFF1F0B
:103FF0009B4A136843F400332DE9F047136093683C
:10400000984C43F400539360D36843F00203D360A9
:10401000136943F002031361934A136823F0010309
:104020001360FFF723FF914B2360236813F0807325
:10403000FBD18F4A8F4E13608F4B4FF481321A6041
:10404000282333608D4B4FF010121A6041F290001C
:10405000FFF71AFF8A4A13689D07FCD1FFF7F8FEA5
:10406000884A89494FF6FF731360884B19604FF4F3
:10407000FA73216841F00061216021680901FCD4D4
:10408000013BF6D11168824C41F0800111607C4AFD
:104090001268636012F4803F14BF00200220207079
:1040A0006370A370A360002840F0D880794F184651
:1040B0003B60FFF70FFF50B9774D78482B684FF4FE
:1040C000D5733B60FFF706FF28B105280AD0012011
:1040D0002070BDE8F0872B682B68B3F5D57FF6D14B
:1040E000012363700020FFF757FF0028EFD12B68F2
:1040F00013F4401F20D06378DFF8A8A1002B684B91
:104100000CBF4FF4401999468046484608F1010813
:10411000FFF742FF002840F09E802B68002B02DB57
:10412000D045F2D106E05F4B984503D05A4B1B684F
:104130005B0001D40023637000233B605A48DFF822
:104140005491FFF7C7FE0028C1D12B68C9F80000C1
:104150005648DFF84481FFF7BDFE0028B7D1D8F8F4
:104160000030D8F800305248DFF824811B0C1B04C3
:104170006360C9F80030FFF7ADFE0028A7D14D4AB3
:104180004D4813681B0E88F803304C4B1B6813F422
:10419000400F14D11368116802680068890201F4A5
:1041A000406141EA9252511CC0F3C2120232C3F381
:1041B000032301FA02F2093B02FA03F307E00123A9
:1041C00088F802300368C3F3152301339B02C8F853
:1041D000083063683B603A48DFF8B480DFF8B49099
:1041E000FFF778FE00287FF472AF2B6835482A4F1E
:1041F0004FF40073C9F80030FFF76CFE00287FF41D
:1042000066AF3B68D8F80430C9F800302E48FFF795
:1042100061FE00287FF45BAF3B682C480223C9F89D
:104220000030FFF757FE00287FF451AF3B6833683A
:1042300023F006033360336843F002033360FFF773
:1042400015FE4FF49070FFF71FFEFFF701FE98F880
:104250000000BDE8F0870120BDE8F087BDE8F087E9
:10426000308004402C100B4000D000400080000142
:10427000C0100B4028100B4004100B4044100B40A2
:1042800024100B4030100B40BB007F1134100B404A
:10429000641FFF1F08100B4010100B4000001A088D
:1042A00000003040A08601000000090200001A034F
:1042B0000000090918100B4014100B401C100B4093
:1042C00000001B0700001A1000001A3700001A0631
:1042D00070B5384B1A780546002A68D15B7803B967
:1042E0004902354C35484FF6FF732360344B4FF489
:1042F0008132196043F8042CFFF7ECFD002857D1F8
:10430000304B3148314A1B6805F1400305F5107503
:10431000216841F0200611F4E00F266009D041F435
:10432000E003254A43F020031360FFF719FE012044
:1043300036E001680905FCD5116843F8401C116896
:1043400043F83C1C116843F8381C116843F8341CCE
:10435000116843F8301C116843F82C1C116843F8AD
:10436000281C116843F8241C116843F8201C1168AC
:1043700043F81C1C116843F8181C116843F8141CFE
:10438000116843F8101C116843F80C1C116843F8BD
:10439000081C116843F8041C4033AB42B8D100201C
:1043A00023689B07FCD5044B094A1A6070BD0320A3
:1043B00070BD00BF641FFF1F30100B4010003A118A
:1043C00008100B4010100B4024100B4020100B4025
:1043D00022000001F8B5294B1A780546002A4BD176
:1043E0005B7803B94902264C26484FF6FF732360D9
:1043F000254B4FF48132196043F8042CFFF76AFD16
:1044000000283AD1214BDFF88CE01B6805F50076D7
:10441000274623681A4AD906FBD53B6813F4E00FF8
:1044200006D0136843F4E00343F01003136016E072
:1044300005F1400255F8043BCEF80030AA42F9D10C
:1044400023680F4943F010032360206810F4E00054
:1044500009D00B6843F4E00343F010030B60FFF74F
:104460007FFD012001E0B242D3D123689B07FCD538
:10447000034B074A1A60F8BD0320F8BD641FFF1FF5
:1044800030100B4000003A1808100B4010100B4081
:104490001200000120100B40084B1A6842F48062A1
:1044A0001A604FF00042DA62FF225A63DA6A002A89
:1044B000FCDA024B986BC0B2704700BF00C00240EC
:1044C000064B1A6842F480621A604FF00042DA62CA
:1044D0005863DA6A002AFCDA704700BF00C0024065
:1044E000F0B5002A134E144F14BF4FF060544FF034
:1044F0006454002236F8125097FBF5F5A94204D314
:10450000190707D544F0806404E0551C172DF7D037
:104510002A46EFE709495B0751F8222007D522F424
:104520007043120902F4706244F000741A4322438B
:104530000260F0BD98F50000008793035CF6000070
:1045400010B50446FFF7CCFF204610BD13B5144C40
:10455000052818D8DFE800F00303070B0F1300232A
:104560000122104912E0002301220F490EE000232E
:1045700001220E490AE0002301220D4906E0002332
:1045800001220C4902E00C490023012201A8FFF797
:10459000D7FF019B09482360FFF7B8FA02B010BDAE
:1045A000741FFF1F00366E0100127A0000093D00E3
:1045B000C0C62D0080841E00801A06004408FF1F1C
:1045C000C37A10B5E3B172B6C37ADC0705D5134AD6
:1045D000C3681468234083611360C37A9A0705D5C2
:1045E0000F4A036914682340C3611360C37A5B07F1
:1045F00005D50C4A4369146823400362136062B610
:104600000368DA688A4207D0074A1A60D960074A05
:1046100041F0804119611A6010BD00BF80E100E0E7
:1046200084E100E088E100E001403F0000003F80BD
:10463000C37A83B1D90742BF074B82691A60C37A34
:104640009A0742BF054BC2691A60C37A5B0742BF33
:10465000034B026A1A60704700E100E004E100E0E9
:1046600008E100E008B50121007801F017FA044BD9
:104670001A7822B1002203481A70FFF7D9FF08BD4B
:10468000781FFF1F4408FF1F10B5084B1A78044617
:1046900032B901221A70064B06481968FFF790FFDD
:1046A00020780021BDE8104001F0F8B9781FFF1F05
:1046B000741FFF1F4408FF1F37B50A4B1A6800928A
:1046C000009D1C46FFF7E8FEFF2807D023680193F2
:1046D000019B5B1B8B42F5D3002000E0012003B05F
:1046E00030BD00BFAC21FF1F70B50C464FF4967172
:1046F00016460546FFF7E0FF44F04000FFF7E0FEF6
:10470000182126FA01F0C0B2FFF7DAFE083911F1DC
:10471000080FF6D124B1082C14BFFF20872000E039
:104720009520FFF7CDFE0021FFF7B6FE0306687067
:1047300003D50131B1F5807FF6D170BD2DE9F0438D
:1047400000234C4E027085B0837033680193044699
:10475000884610460121019F01F0A0F9012120782F
:1047600001F0BCF90121207801F098F9424A136860
:1047700043F4805313600620FFF7E8FE3F4B4048A8
:104780001968FFF71DFF0A21FF20FFF799FE013985
:1047900011F0FF01F8D13A48FFF74AFF2046FFF732
:1047A00073FF002211462046FFF79EFF01280546B1
:1047B000607007D033680293029BDB1BB3F5FA6F7E
:1047C000EFD94EE04FF4D57208212046FFF78CFF59
:1047D000430701D5A5700BE00421FFF75DFE013909
:1047E00011F0FF016070F8D1AA283AD10223A3701A
:1047F000A378022B0CBF4FF080494FF00009002234
:1048000037212046FFF770FF4A4629212046FFF74F
:104810006BFF0246607038B133680393039BDB1B68
:10482000B3F5FA6FEBD91CE0A378022B12D13A2131
:104830002046FFF759FFA0B9FFF72EFE00F0C00099
:10484000C02804BF0323A370FFF726FEFFF724FE52
:10485000FFF722FE2046FFF705FF4046FFF776FEF2
:1048600003E02046FFF7FEFE0025284605B0BDE820
:10487000F08300BFAC21FF1F3C800440741FFF1F6A
:104880004408FF1F37B50D4B1A680092009C05467F
:104890001946FFF701FEFF28687008D10B680193E5
:1048A000019B1B1BB3F5967FF3D9002003E0A0F119
:1048B000FE035842584103B030BD00BFAC21FF1F7A
:1048C0002DE9F0418378032B0E46044618BF4E02B3
:1048D0001546FFF7D9FE324611212046FFF704FFA7
:1048E000002844D12046FFF7CDFF00283FD0234BBE
:1048F000234A2448186005F5FD765A63A91C5A63BB
:1049000005F5FE785A639E4641450FD0DF6A17F0E1
:10491000F00FFBD0CEF83420DEF8387001F8017CBF
:104920004FEA272C01F802CC0231EDE7134A05F5D6
:1049300000751746B542114B0AD9D36A13F0F00F30
:10494000FBD0BB6B191206F8021B06F8013CF1E71D
:104950000B4A18605A63DA6A12F0F00FFBD0074B6B
:1049600020469B6BFFF77EFE0120BDE8F0812046CC
:10497000FFF778FE0020BDE8F08100BF00C00240D4
:10498000FFFF009000041F80F8B51D4B0646186815
:104990004FF0004540F4806018600024DD62184646
:1049A00059639E462946C56A002DFCDA1D68175DCD
:1049B00045F480651D60D9625F63DEF82C50002DE0
:1049C000FBDA151902346F781D68B4F5007F45F4E1
:1049D00080651D60D9625F63E5D1094BDA6A002A00
:1049E000FCDAFF20FFF76CFDFF20FFF769FDFFF702
:1049F00053FD707000F01F00431F58425841F8BD2E
:104A000000C0024070B5044616460D4631B38378A7
:104A1000032B18BF4D02FFF737FE2A461821204608
:104A2000FFF762FE0546C8B93246FE212046FFF771
:104A3000ABFF98B14FF416712046FFF73DFE68B109
:104A40002A460D212046FFF74FFE38B9FFF724FD17
:104A500020B92046FFF706FE012070BD2046FFF773
:104A600001FE002070BDFFFF014B024A1A60704733
:104A7000741FFF1F03200038704710B500F10802B3
:104A800004460121006A00F0E1FC40B1E3692BB962
:104A9000A368E361637963F07F036371012010BD54
:104AA00010B50446006900F003FC18B1207D024BEC
:104AB00003EB401010BD00BF881FFF1F38B582797F
:104AC00004460D460AB1002038BD91F82030102B65
:104AD00006D1022383714B8CC2615B0183610CE0C0
:104AE000202BF0D103238371496AC16100F11802C0
:104AF000284600F03FFC0028E5D00023012060712B
:104B000023752562A360E360236138BD2DE9F04180
:104B1000002580460E46471E2C4617F8013F202BE5
:104B20000CD0082D05D12E210F48FEF793FA013441
:104B3000E4B2387801F054FF0134E4B201350B2DB2
:104B4000EBD198F80B3003F01803102B05D12F216F
:104B50000548FEF77FFA0134E4B2B44201D22021C5
:104B6000F6E7BDE8F08100BFC008FF1F07B50A22C5
:104B7000B0FBF2F303F1300102FB130330338DF885
:104B8000053001A800238DF804108DF8063003F0DD
:104B9000B7FE014601A801F0B3FE03B05DF804FBC7
:104BA00038B50D4D4112044601F2BC71284600F0A3
:104BB0003AFE2D212846FEF74DFAC4F34310FFF7C5
:104BC000D5FF28462D21FEF745FA04F01F00BDE869
:104BD0003840FFF7CBBF00BFC008FF1F38B50C4DF2
:104BE0000446C00AFFF7C2FF3A212846FEF732FA10
:104BF000C4F34510FFF7BAFF28463A21FEF72AFA18
:104C000004F01F004000BDE83840FFF7AFBF00BF11
:104C1000C008FF1F2DE9F84F89468179044619B96C
:104C20004FF0FF30BDE8F88F4179C907F8D5C76864
:104C30008169DFF8E4A0DFF8E4B0C91B914228BF26
:104C400011460F468846B8F1000F34D0A279E168CA
:104C5000206A022AC1F308054FEA512202D1406AB4
:104C6000104418E00679013E1640F6B25DB956B917
:104C700011B9E269A26006E004F10802A16800F03F
:104C800047FB0028CCD0226AA068117C5269023808
:104C9000884010443044C5F5007662794645A8BF87
:104CA0004646530602D4B6F5007F07D1DAF8002055
:104CB000904214D102E03846BDE8F88F002100F0A0
:104CC000F7FA0028ACD0134B1D44A81909F1FF32A4
:104CD000854212D015F8011B02F8011FF8E7DBF836
:104CE00000502A78FE2A0FD101464846FFF7F0FA15
:104CF000B0FA80F04009002892D0E2683244B14412
:104D0000E260C6EB08089EE701464A462846FFF7E0
:104D1000D7FDF0E7881FFF1FB408FF1F841FFF1F88
:104D200037B58379012B044601D800200FE0C36812
:104D300001220DF10701C3F34315FFF76BFF0128B3
:104D4000F3D1E36803481F33E36000EB451003B081
:104D500030BD00BF881FFF1FF8B5837904460E469B
:104D60000BB90020F8BD82698A42FAD3022B01D028
:104D70001EB9A660E6600120F8BD236AE0681B7CCE
:104D8000421E03F10901731ECA40CB409A4200D86B
:104D900028B9E269A2601D4604F1080709E09B1AE0
:104DA000F9E73A46A168206A00F0B2FA013D00280E
:104DB000D7D0002DF5D1DDE738B58379054613B39B
:104DC00090F90530002B1ADA0121FFF769FE04463D
:104DD000C8B1AB79012B9CBFAB69C361EB6943835D
:104DE0001B0C8382094B1B682BB100F11601183094
:104DF0009847238B63826B7903F07F036B71BDE867
:104E0000384000F02DBA002038BD00BF7C1FFF1FC6
:104E1000F7B58379012B04460D460BD142799207F1
:104E200008D582698A4205D3002A3FD0E668FFF799
:104E300093FF08B900203AE03DB9E169206A00F02B
:104E40005FFB0028F6D0E5611EE001AAA168206A98
:104E500000F05EFA0028EDD0206A164B90F8207022
:104E600001994FF6F872102F08BF134699420BD2E2
:104E700000F046FB0028DDD06FF07042A168206A88
:104E800000F0A0FA0028D5D06379A56163F07F0314
:104E900063712046FFF790FF0028CBD0B54229462A
:104EA000204628BF3146FFF757FF00E0184603B001
:104EB000F0BD00BFF8FFFF0F38B51C4B03EB4113EB
:104EC0001546DA7A12F0110F044604D015F0420F9D
:104ED00001D0002038BD164A2175126822615A8B14
:104EE000998A42EA0141E161DA7A12F0180203D1AB
:104EF000DB69A361012309E0102AEAD104F1180259
:104F0000206A00F037FA0028E3D00423A37105F0EB
:104F10000F03002163716B06A160E16004D5204698
:104F2000BDE83840FFF774BF012038BD881FFF1F60
:104F3000B408FF1FF8B51F46837904460D46164690
:104F4000E3B907F03003302B18D00B6A036251012C
:104F50002846FFF701FF88B12846FFF7E1FE68B158
:104F600003785BB1E52B09D02E2B07D03A4606F02B
:104F70000F012046BDE8F840FFF79EBF0020F8BDB6
:104F80002DE9F047002311F0030F8AB005460E46C5
:104F900017468360C36014BF4FF00E08984601F0B7
:104FA00001092846FFF7BCFE0446002864D00378B8
:104FB000002B61D0E52BF4D02E2BF2D0C37A03F076
:104FC000080303F0FF0A002BEBD14FFA8AF3BB4230
:104FD0000AF1010A04DA20212948FEF73BF8F4E738
:104FE00041462046FFF792FDB9F1000F09D0208B12
:104FF000FFF7D6FD20212248FEF72CF8E08AFFF7C4
:10500000EDFDE37A03F01803102B01D0B2070AD4A8
:105010001B4800F0BDFB7307C3D5E37A03F0180308
:10502000102BBED10AE020211548FEF713F800230B
:105030000A22E169124800F0BBFBE9E7EC68114A7B
:1050400001926409013C0023A4B28DF808308DF868
:105050000A3022460123294601A8FFF76BFF28B139
:10506000BA1CD2B2314601A8FFF78AFF611C490180
:105070002846FFF771FE94E70AB0BDE8F08700BF4D
:10508000C008FF1FC0F600002DE9F74F8379012B00
:105090000446884617460BD14379990708D55B0724
:1050A0000AD5A169E3688B4206D0FFF755FE18B90F
:1050B000012323710020A9E0B946DFF86CA13BE091
:1050C000206A0679013E06EA552616F0FF06C5F36A
:1050D000080536D0216AA268087C4969C5F50073C5
:1050E0001FFA83FBD945A2F1020238BF1FFA89FBE0
:1050F00082400A44BBF5007F164448D1DAF800200C
:10510000964204BF4FF0FF32CAF80020414A1068AF
:105110000278FE2A36D131464046FFF75BF9B0FAF5
:1051200080F040090028C3D008F50078E26802EB5F
:105130000B03CBEB0909E360E568B9F1000FBFD1C0
:105140004BE0002DC6D1A16819B9E36993B1A36002
:10515000C0E701AA00F0DCF8002857D0236A2E48E7
:1051600093F82010019A4FF6F873102918BF0346E0
:105170009A4205D32046FFF780FC0028AAD197E782
:10518000A260A7E742463146FFF73CFCCAE77DB97B
:10519000E168A26991420BD300F062F8002887D041
:1051A0001E49CAF800600A7842F001020A7006E05F
:1051B0000121304600F07CF800283FF479AF184B0D
:1051C0001D4405EB0B004246854204D012F8011B3A
:1051D00005F8011BF8E7D844A8E7A3699D42637965
:1051E00001D9A56103E00F4A12681AB117B163F043
:1051F0007F03637163791A0701D4384606E02046BD
:10520000FFF7DAFD00283FF453AFF6E703B0BDE83F
:10521000F08F00BF841FFF1FF8FFFF0F8821FF1FC3
:10522000881FFF1F7C1FFF1FB408FF1F07B502ABBD
:10523000012203F8011D1946FFF726FF03B05DF8B0
:1052400004FB10B50478FE2C03D0BDE81040FFF736
:10525000D9BB1046FFF7BEF8B0FA80F0400910BD88
:1052600070B50E4B1A781C46B2B10D4E0D4B0E4A5E
:1052700019683068FFF7E5FF08B9002070BD0B4DD5
:10528000296839B1084A3068FFF7DBFF0028F4D0FD
:1052900000232B6000232370012070BD8821FF1F95
:1052A000841FFF1FB408FF1F881FFF1F801FFF1FE1
:1052B000134B1A68824270B505460E461C4618D03C
:1052C000FFF7CEFF08B9002070BD0E4B18680378B9
:1052D000FE2B07D129460C48FEF7FAFFB0FA80F002
:1052E000400903E0084A2946FFF7EAFA0028EAD015
:1052F0002560064B197831431970012070BD00BF3D
:10530000B408FF1F841FFF1F881FFF1F8821FF1F76
:10531000C36801338B4270B505460C46164601D270
:10532000002070BD90F82020C369102A0CBF080A25
:10533000C80918440D4B1B68984208D195F82030D5
:10534000102B0B4B09D1E4B233F814300BE00021E1
:10535000FFF7AEFF0028F1D1E2E704F07F0453F835
:10536000243023F070433360012070BDB408FF1F68
:10537000881FFF1F2DE9F74302AEDFF8448046F88F
:10538000041D0546174600244FF400793246019962
:105390002846FFF7BDFF78B12B7C95F8202009FA4D
:1053A00003F31C444FF6F873102A18BF4346019AC2
:1053B0009A42EBD33C60012003B0BDE8F08300BF0C
:1053C000F8FFFF0F0129F8B506460C46174601D82D
:1053D0000020F8BDC36801339942F9D890F8203015
:1053E000C569102B0CBF0B0ACB091D44134B1B685E
:1053F0009D4208D196F82030102B114B0AD1E4B20F
:1054000023F814700AE000212846FFF751FF002816
:10541000F0D1DDE704F07F0443F82470094A1378E3
:1054200043F001031370337E012B82BFB368ED1884
:10543000054B4FF0010088BF1D60F8BDB408FF1F89
:10544000881FFF1F8821FF1F801FFF1F2DE9F74FB7
:10545000146806468B4617461CB101344FF0000A0B
:1054600005E04B1ED3F1000A04684AEB030AF36817
:10547000254603F101094FF00008F36898451DD255
:105480004D4588BF022501AA2946304688BF2C46D3
:10549000FFF73EFF90B1019A6B1C0AB11C4602E077
:1054A0001A1B934503D008F101081D46E5E76FF08C
:1054B000704229463046FFF785FF58B900201CE0AE
:1054C00005F1FF382A4641463046FFF77BFF0028AA
:1054D000F4D04546AC42F3D3396831B93C60BAF1F7
:1054E000000F09D00134346006E022463046FFF751
:1054F00069FF0028F2D1E1E7012003B0BDE8F08F99
:1055000073B502230F4E036005460C4601AA2146DF
:105510002846FFF7FDFE88B1002221462846FFF706
:1055200051FF58B195F82020019C4FF6F873102ACE
:1055300018BF33469C42E9D3012000E0002002B0AE
:1055400070BD00BFF8FFFF0FF8B53D4B0446196072
:105550001546DAB1042A01D90020F8BD0021084619
:10556000FFF7A6FE0028F7D0364A02EB051393F8A2
:10557000AE315B06F0D11B3502EB0515D5F80A30CC
:10558000632BE9D9D5F80650002DE5D00021284637
:10559000FFF78EFE0028DFD02A4BB3F80B20B2F5C0
:1055A000007FD9D1197C0029D6D0DA89002AD3D03E
:1055B0005A7B002AD0D0217600212271217401204B
:1055C00094F810E000FA0EF18A4206D00EF10101C3
:1055D000BEF1070F2174F3D9BEE7D88A08B101469E
:1055E00001E0184A516ADA89A1602A44E261B3F8FD
:1055F00011701E7C678401FB06207A0102F2FF1203
:1056000000EB622260626261B3F8131009B90D49C0
:10561000096AAD1A294421FA0EF540F6F472954252
:10562000E56001D80C2307E04FF6F472954285BF80
:10563000DB6A63621023202384F820300120F8BD48
:10564000841FFF1F881FFF1FEFF3108072B6B0FA90
:1056500080F04009704700B162B67047F8B50C4E53
:105660000C4F0025FFF7F0FF346802466CB1636908
:1056700033600BB19D6100E03B601046FFF7EBFF2C
:105680006577A36820469847ECE7FFF7E4FFF8BD8D
:105690008C21FF1F9021FF1FFFF7E0BF15490B680A
:1056A00030B513B98360C36009E004681A68944296
:1056B00007D20025121B8360C560D8601A6008609D
:1056C00015E002681C689968121B026061B10C68E1
:1056D000A2420B46F5D28160C968C160D860C1683A
:1056E000A21A88601A6002E08160C3609860022399
:1056F000037530BD9421FF1F70B5164D2C68002630
:10570000BCB1236813B1013B236012E0A26802B16F
:10571000D36020692A60036826751B682246002131
:10572000984763681BB123602046FFF7B7FF2C68DA
:10573000E6E7FFF789FF084B00221C681A60FFF7B5
:105740008AFF2CB1A5682046FFF7A8FF2C46F8E792
:1057500070BD00BF9421FF1FA421FF1F024A1368E0
:1057600001331360FFF7C8BFAC21FF1FF8B5064631
:105770000C468F180025BC4207D0336814F8011B73
:105780001B68304698470544F5E72846F8BDFFFFFB
:1057900007B5064B1B88ADF80430036802225B682E
:1057A00001A9984703B05DF804FB00BFD0F60000E4
:1057B00070B505468AB022B90368C9B21B6898471C
:1057C0002FE0012A08BF0A2209B1212004E030227B
:1057D0008DF82520212014E0B1FBF2F602FB161112
:1057E000CCB2092994BF04F1300104F137010AACAD
:1057F0000444C9B204F8241C314616B10138C0B2C1
:10580000EAE733B10138C0B20AAB03442D2203F8F2
:10581000242C2B6801A9C0F1220201445B682846B0
:1058200098470AB070BD0029BABF49422D23002312
:105830000A22FFF7BDBF08B5FBF736F8FBF78AF879
:1058400001F050F9FAE7FFFF844641EA000313F044
:1058500003036DD1403A41D351F8043B40F8043B77
:1058600051F8043B40F8043B51F8043B40F8043B3A
:1058700051F8043B40F8043B51F8043B40F8043B2A
:1058800051F8043B40F8043B51F8043B40F8043B1A
:1058900051F8043B40F8043B51F8043B40F8043B0A
:1058A00051F8043B40F8043B51F8043B40F8043BFA
:1058B00051F8043B40F8043B51F8043B40F8043BEA
:1058C00051F8043B40F8043B51F8043B40F8043BDA
:1058D00051F8043B40F8043B403ABDD2303211D37A
:1058E00051F8043B40F8043B51F8043B40F8043BBA
:1058F00051F8043B40F8043B51F8043B40F8043BAA
:10590000103AEDD20C3205D351F8043B40F8043B79
:10591000043AF9D2043208D0D2071CBF11F8013B77
:1059200000F8013B01D30B8803806046704700BF3D
:10593000082A13D38B078DD010F003038AD0C3F14C
:105940000403D21ADB071CBF11F8013B00F8013B2E
:1059500080D331F8023B20F8023B7BE7043AD9D3ED
:10596000013A11F8013B00F8013BF9D20B780370C2
:105970004B7843708B7883706046704701B5EAB10D
:10598000102A17DB00F0070333B1C3F10803D21A62
:10599000013B00F8011BFBDCC9B241EA012141EAED
:1059A00001418C46D308013BE0E8021CFBDC12F00D
:1059B000070203D0013A00F8011BFBDC01BD00BF68
:1059C00008B50B4D2C462B68580301D500F088FB19
:1059D0002368590501D500F019FA23681A0501D585
:1059E00001F046F92368DB04EDD501F0F1F9EAE7AF
:1059F0003480044008B5FFF7E3FFFFFF014B10229E
:105A00001A807047002005407047FFFF094908B51C
:105A10000B6868B16A461844A2F50052904206D35A
:105A200002F0C2F80C2303604FF0FF3008BD08609D
:105A3000184608BDB808FF1F02F0ECB830B50346A1
:105A40000020B3FBF2F402FB1433092B94BF303374
:105A50003733DBB20B5423460CB10130F1E70A189F
:105A600023465470C41AA34206DACC5C1578CD5490
:105A700002F801490133F5E7084630BD044B0549FA
:105A800000221A600A60044A106010221A607047EF
:105A900014D0034004D0034000D003403F2810B589
:105AA00018D80D4B53F8302092F880423CB10123B6
:105AB00011B182F8803010BD82F8003110BD03EBC7
:105AC000C0035B681A6811B142F0030201E022F0E2
:105AD00002021A6010BD00BFD4F600003F2810B5C6
