:10000000F8FF022099010000F1850000BD85000085
:10001000BD850000BD850000BD850000BD850000D8
:10002000BD850000BD850000BD850000F185000094
:10003000F1850000BD850000958200005983000015
:10004000F1850000F1850000F1850000F1850000D8
:10005000F1850000F1850000F1850000F1850000C8
:10006000F1850000F1850000F1850000F1850000B8
:10007000F1850000F1850000F1850000F1850000A8
:10008000F1850000F1850000F1850000F185000098
:10009000F1850000F1850000F1850000F185000088
:1000A000018200000D820000F1850000F185000052
:1000B000F1850000F1850000F18500007D8B0000D6
:1000C000F18500007D9F0000F1850000DDA00000AB
:1000D000F185000005A20000F1850000F185000017
:1000E000F1850000F1850000F18500002982000003
:1000F000F1850000F1850000F1850000F185000028
:10010000F1850000F1850000F1850000F185000017
:10011000F1850000718E0000F1850000F18500007E
:10012000F1850000F1850000F1850000F1850000F7
:10013000F1850000F1850000F1850000F1850000E7
:10014000F1850000F18500002DA30000F18500007D
:1001500055A40000F1850000F1850000F185000044
:10016000F1850000F185000019820000F185000092
:10017000F1850000F1850000F1850000F1850000A7
:10018000F1850000F1850000F1850000F185000097
:10019000F1850000F1850000584B4CF2205210B55B
:1001A0001A804DF628121A8000BF00BF08F024FA0A
:1001B000534B4FF030621A60524A9A60524ADA60EA
:1001C000524B4FF470021A60514A136813F4807353
:1001D00001BF50490B604FF4A85313604E4B4F4979
:1001E0001A78100742BF1A7842F008021A704C4B76
:1001F0002A221A704B4A4C4B8B4204D252F8040FFD
:1002000043F8040BF8E7494B494A0021934202D2D4
:1002100043F8041BFAE7474A4748002350F82310E5
:1002200042F823100133662BF8D1444B444A802115
:1002300003F8011B9342FBD1424B3E4A1A60424BEA
:100240008A221A70A3F5805324225A70A0221A70B1
:100250009A799107FCD59A79D206FCD43B4A9379D6
:1002600003F00C03082B394BF9D103221A714622F3
:100270005A719A799406FCD534498A79334B5006E1
:10028000FBD5334A4FF08271116009215160202261
:100290001A709A7902F00C020C2AFAD12D4B2E4AD0
:1002A0001A602E4B2E4A1A6000225A60072243F829
:1002B000042C2C4AC3F80C2D62B608F09FFA154B9B
:1002C0001B68DA0705D5284808F0F4F9274B284AB7
:1002D0001A60284B1B785B0609D5244C244B2268F6
:1002E0009A4204D1204808F0E5F9002323600AF07F
:1002F000E7FD08F087F908F09CF8FEE70E200540BE
:1003000030800440823F04000100002B88ED00E0B3
:1003100010D0034014D0034002D007402013FF1F29
:1003200000E00740C8380100F806FF1F2013FF1F38
:10033000F880FF1F0002FF1F0000000000E400E043
:1003400056E400E008ED00E00050064000400640A2
:100350004480044004800440C010050014E000E024
:10036000BFD40100000020202B53BF5C1CE00340E1
:10037000A5C3945A00F00740FFFFFFFFFFFFFFFFF8
:10038000FFFFFFFFFFFFFFFFFFFFFFFFFFFFFFFF7D
:10039000FFFFFFFFFFFFFFFFFFFFFFFFFFFFFFFF6D
:1003A000FFFFFFFFFFFFFFFFFFFFFFFFFFFFFFFF5D
:1003B000FFFFFFFFFFFFFFFFFFFFFFFFFFFFFFFF4D
:1003C000FFFFFFFFFFFFFFFFFFFFFFFFFFFFFFFF3D
:1003D000FFFFFFFFFFFFFFFFFFFFFFFFFFFFFFFF2D
:1003E000FFFFFFFFFFFFFFFFFFFFFFFFFFFFFFFF1D
:1003F000FFFFFFFFFFFFFFFFFFFFFFFFFFFFFFFF0D
:10040000FFFFFFFFFFFFFFFFFFFFFFFFDEF9FFFF23
:1004100010B5054C237833B9044B13B10448AFF33E
:1004200000800123237010BD2013FF1F0000000077
:10043000C4380100084B10B51BB108490848AFF398
:1004400000800848036803B910BD074B002BFBD0A0
:10045000BDE81040184700BF000000002413FF1F34
:10046000C43801002013FF1F0000000070477047D0
:1004700010B50C21044608F0FBF8204610BDFFFF24
:1004800010B50C4A04460121042005F0D7FA0123D7
:10049000237063701923A3707823E37005F036FC92
:1004A000207105F035FC0523A37100236071E37111
:1004B000082010BD6DF200002DE9F843064689467C
:1004C00017460121154A042005F0B8FA144A93781A
:1004D00055785D43202D38462C4628BF20240BF04C
:1004E0008FFB85B24FF00208AC4286F8008086F898
:1004F000019006D205F00AFA0A4A0121404605F0A9
:100500009DFAA54228BF2546ACB222463946B01C0A
:1005100007F098FFA01CC0B2BDE8F88385F2000088
:100520003C13FF1F9BF2000010B5064A0446012150
:10053000042005F083FAFF23032020706370A3706A
:1005400010BD00BFBBF2000010B5054A04460121F2
:10055000042005F073FA04232370012010BD00BFAE
:10056000CFF2000038B5074A04460D4604200121A9
:1005700005F064FA052323702B0A6370A57003202D
:1005800038BD00BFEBF2000010B5054A044601215A
:10059000042005F053FA06232370012010BD00BF8C
:1005A000FFF2000010B5054A04460121042005F0C1
:1005B00045FA07232370012010BD00BF11F300008E
:1005C00010B5054A04460121042005F037FA082336
:1005D0002370012010BD00BF23F3000010B50A4AAC
:1005E00004460121042005F029FA2046092300F8D9
:1005F000013B064A064B07490BF052FA01232377C9
:10060000002363771E2010BD34F30000591F8A00B9
:10061000E471AB0048F3000010B5012188B0044636
:100620000A4A042005F00AFA094B22781A70627807
:100630005A70A2789A706846E278DA70FFF720FF65
:10064000694601F01BFE08B010BD00BF83F3000037
:100650003C13FF1F30B50F4A0F4C85B005460121F2
:10066000042005F0EBF9294601A805F03FFB029BA9
:10067000A360A91C9DF80C30237301A805F036FB7C
:10068000029B63619DF80C30237601F071FE05B08A
:1006900030BD00BF97F300003C13FF1F00B5074AB1
:1006A00089B00121042005F0C9F96846FFF76CFF05
:1006B000694601F0E3FD09B05DF804FBABF300000F
:1006C00008B5054A0121042005F0B8F901F050FEF3
:1006D000BDE8084001F052B9BEF3000008B5054A74
:1006E0000121042005F0AAF901F088F9BDE80840CD
:1006F00001F03EBED2F3000000B5074A89B00121E7
:10070000042005F09BF96846FFF74CFF694601F0AD
:10071000B5FD09B05DF804FBE6F3000008B505F08F
:10072000F5F80121034A084605F088F9BDE80840BC
:1007300001F02CBEFBF3000008B5044A012104209F
:1007400005F07CF9BDE8084001F012BE20F400007D
:1007500008B5044A0121042005F070F9BDE80840FD
:1007600001F006BE36F4000000B5074A89B0012149
:10077000042005F063F96846FFF722FF694601F09F
:100780007DFD09B05DF804FB4BF4000030B5044674
:1007900095B0224A0121042005F050F92288ADF8D5
:1007A0000C202246A37852F8030F8DF80E305168C2
:1007B00004AB03C300259068186022468DF81D50D5
:1007C00052F80F0F8DF80F50516808AB03C39068B3
:1007D0001860134A8DF82D5003AB0121042005F059
:1007E000A5F904AB0F4A0121042005F09FF91B3441
:1007F00008AB0D4A0121042005F098F902230B4AA9
:1008000000940121042005F025FA0CA8FFF7E6FE6C
:100810000CA901F033FD15B030BD00BF60F400003D
:1008200074F4000087F400009AF40000ADF40000B6
:10083000112803BF0878B0FA80F040090020704703
:10084000142804D10878431E5842584170470020AC
:100850007047142803BF0878B0FA80F040090020E0
:10086000704708B504F0FCFD003018BF012008BD3A
:1008700008B504F0F5FDB0FA80F0400908BD132872
:1008800004D10878031F5842584170470020704730
:10089000132803BF0878B0FA80F0400900207047A1
:1008A000132806D10878013802288CBF00200120C7
:1008B000704700207047012001F050BE10B5174A64
:1008C00090B00121042005F0B9F8154B1A78022ADE
:1008D0001C4609D1FFF7C5FF10B9FFF7ECFF18B1AF
:1008E0006846FFF721FE0BE02378032B0CD1FFF7BE
:1008F000BFFF48B1FFF7DFFF30B96846FFF724FEBE
:10090000694601F0BBFC07E0FFF7D5FF10B100F02E
:1009100013FB01E001F02CFD10B010BDC0F400008D
:100920005813FF1F022001F019BEFFFF2DE9F0410F
:10093000074688B0254A0121042005F07FF8FB789E
:10094000BE78234A3C787D7803EB0626B6B2334660
:100950000121042005F0A8F8FFF7ADFF074618B104
:10096000F0B200F0C1FA07E004F07AFD804618B159
:10097000314600F025FF30B96846FFF705FE6946AD
:1009800001F07CFC1FE005EB0425ACB2FFF7CAFFC9
:1009900010B120463C4605E02146404600F044FFA9
:1009A000241AA4B283B22246F1B2404600F05CFFA2
:1009B0000028E1D021466846FFF7D4FD694601F0E2
:1009C0005DFC00F09DFF08B0BDE8F081CCF40000B4
:1009D000E0F4000038B53C4A05460C4604200121ED
:1009E00005F02CF8A5F11000072862D8DFE800F028
:1009F0006A04161A40616156237833B1012B09D17C
:100A0000601CBDE83840FFF725BE601CBDE83840DB
:100A1000FFF702BE04F07AFF2C4A4DE0BDE83840F3
:100A2000FFF74CBF2378052B1ED8DFE803F003083F
:100A30000C111519601CBDE83840FFF777BFBDE801
:100A40003840FFF72BBE601CBDE83840FFF738BECA
:100A5000BDE83840FFF742BEBDE83840FFF74CBE66
:100A6000BDE83840FFF75ABE04F050FF184A23E0B3
:100A70002378012B0AD005D3022B0BD1BDE83840D7
:100A8000FFF772BEBDE83840FFF756BEBDE83840FC
:100A9000FFF75EBE04F03AFF0E4A0DE0237823B95B
:100AA000A01CBDE83840FFF771BE04F02FFF0A4AD2
:100AB00002E004F02BFF094A01210846BDE8384056
:100AC00004F0BCBF38BD00BFE9F40000F0F4000042
:100AD00005F5000019F500002FF5000048F50000AD
:100AE00038B5084A04460D460420012104F0A6FF4B
:100AF00029462046FFF79CFE10B1034B01221A70D5
:100B000038BD00BF54F500005813FF1F38B50A4A1E
:100B100004460D460420012104F090FF102C01D161
:100B2000002205E029462046FFF78AFE10B1022286
:100B3000024B1A7038BD00BF68F500005813FF1F44
:100B400038B50F4A04460D460420012104F076FF13
:100B5000102C01D100220FE029462046FFF779FE34
:100B600008B1012208E0122C08D1FFF77AFE10B973
:100B7000FFF7A1FE10B10322024B1A7038BD00BF6F
:100B80007CF500005813FF1F38B5124A04460D4685
:100B90000420012104F052FF102C01D1002213E0A7
:100BA000FFF766FE28B929462046FFF768FE70B9B0
:100BB00004E0FFF780FE0028F5D108E02946204632
:100BC000FFF766FE28B10422034B1A7038BD0222DB
:100BD000FAE738BD8FF500005813FF1F38B5114AEA
:100BE00004460D460420012104F028FF102C01D1F9
:100BF000002214E029462046FFF752FE08B10322E6
:100C00000DE0FFF735FE28B929462046FFF737FEED
:100C100020B938BDFFF74FFE0028F5D10222024B64
:100C20001A7038BDA7F500005813FF1F10B50A4A07
:100C30000121042004F002FF0024084B08481C7026
:100C400021461C2207F098FC2146012001F062FC9D
:100C5000BDE8104000F0DCB8B7F500005813FF1FE6
:100C60003C13FF1F70B5214A04460D4604200121A4
:100C700004F0E4FE29462046FFF7ACFE1C4B1A7830
:100C80001E46042A1DD8DFE802F003080D121700E3
:100C900029462046FFF724FF1CE029462046FFF79F
:100CA00035FF17E029462046FFF74AFF12E02946A4
:100CB0002046FFF769FF0DE029462046FFF78EFF2B
:100CC00008E004F023FE0B4A0121002004F0B6FEE8
:100CD00000F0ECFE3378012B87BF0121084600218C
:100CE0000120BDE8704001F015BC00BFC2F5000056
:100CF0005813FF1FCCF5000010B50D4A0446012122
:100D0000042004F09BFEA4F11000072807D8DFE8B8
:100D100000F00D040D0404060604012010BD04F0CB
:100D2000F5FD0121034A084604F088FE002010BDAD
:100D3000DAF5000048F5000038B51E4A05460C46B5
:100D40000420012104F07AFEA5F11000072823D821
:100D5000DFE800F02904290A1722221D012C24D9DA
:100D600004F0D4FD144A1AE0052C06D8DFE804F09C
:100D70001D1B031B1B1D022038BD04F0C7FD0F4ABD
:100D80000DE0022C0FD904F0C1FD0D4A07E074B14B
:100D900004F0BCFD0B4A02E004F0B8FD0A4A012150
:100DA000084604F04BFE002038BD042038BD1D204D
:100DB00038BD00BFE8F50000F0F4000005F50000C4
:100DC00019F500002FF5000048F500000648074916
:100DD0004160002201238260016142610373037656
:100DE000034A044909F0F2BB3C13FF1F54F2000010
:100DF000F806FF1F6F040000014B00221A707047B5
:100E00006113FF1F014B00221A7070476013FF1F10
:100E100008B5064A1021042004F010FE044A0023FD
:100E20001360044A1370044A137008BDF7F50000FC
:100E30005C13FF1F6113FF1F6013FF1F074A10B5EC
:100E400010210446042004F0F9FD054B1868844283
:100E50008BBF0022001B1A60186010BD01F6000055
:100E60005C13FF1F10B5054A04461021042004F04E
:100E7000E5FD034B1A6814441C6010BD04F6000025
:100E80005C13FF1F08B50420094A102104F0D6FDA9
:100E9000084B186800F0F2FD48B1074B01221A70A8
:100EA000816A064A0068BDE8084004F0F1BB08BD4D
:100EB00009F600005C13FF1F6113FF1FF90D00000E
:100EC00008B5064A0420102104F0B8FD044B05487B
:100ED00001221A70BDE8084004F010BC13F60000AF
:100EE0006013FF1F050E000010B5124A04461021C2
:100EF000042004F0A3FD601E05281AD8DFE800F0E6
:100F000003050A0C1115052000E00120BDE8104082
:100F1000FFF794BF012000E00520BDE81040FFF777
:100F2000A1BFBDE81040FFF7ADBFBDE81040FFF71F
:100F3000C7BF10BD1FF6000000B5154AA3B01021B1
:100F4000042004F07BFD134B1B780BB1124A15E013
:100F5000124B1B780BB1124A10E0124B186800F0CC
:100F60008DFD08B9104A09E00346104953F8142BC7
:100F70000093031D12A80AF093FD12AA0A2102A8E9
:100F8000FFF79AFA02A901F079F923B05DF804FBA2
:100F900033F600006113FF1F3CF600006013FF1FD3
:100FA0005BF600005C13FF1F7AF6000094F6000069
:100FB000012106F0CBBF90F8383090F839209A42E2
:100FC00081BF5A1C1B1880F83820187E98BF4FF03C
:100FD000FF307047031103EB830300F00F0000EBB9
:100FE0004300C0B27047FFFF08B5024806F072FE2A
:100FF000012008BDE007FF1F38B50F4C0125D023A5
:101000000221204684F83B3084F85E5084F85D501D
:1010100006F016FE2046FFF7CBFF2B462A46682136
:10102000204607F00FF82046FFF7C5FF00F0E0006C
:10103000E03818BF012038BDE007FF1F2DE9FF474A
:10104000294C0646D02301250321204684F83B3055
:1010500084F85E5084F85D5006F0F2FD2046FFF7FC
:10106000A7FF2B4607226821204606F0EBFF20460B
:10107000FFF7A1FF00F07F00FFF7ACFF824620469C
:10108000FFF799FFC0B2FFF7A5FF81462046FFF7A3
:1010900092FFC0B2FFF79EFF80462046FFF78BFF0E
:1010A000C0B2FFF797FF07462046FFF784FF2046B0
:1010B000FFF781FFC0B2FFF78DFF05462046FFF71F
:1010C0007AFFC0B2FFF786FF002300F5FA610393B1
:1010D0008DE800073B462A4689B2304604F044FEBC
:1010E000304604B0BDE8F087E007FF1F1FB501AC34
:1010F0002046FFF7A3FF07F04DFB084B9DF80910B2
:101100005A7991421FBF064A106094E8070083E8AD
:101110000700044B01221A7004B010BD6413FF1FB6
:101120007413FF1F7013FF1F7FB5154C154A00265F
:1011300002210420267004F081FC134B01AD1E70C7
:10114000124B314628461E6004F09CFE95E80700CD
:101150000F4B83E807000F48FFF746FF0D48FFF7E6
:101160004BFF30B904F0D2FB0B4A0221012004F0FE
:1011700065FCFFF7BBFF0123237004B070BD00BF07
:101180007113FF1FA6F600007013FF1F7413FF1FDB
:101190006413FF1F6213FF1FB1F60000014B1878A4
:1011A000704700BF7113FF1F10B5044607F0F2FA35
:1011B0000E4B19680E4B8842A0EB010138BF01F1BC
:1011C000FF31994209D90B490B4804F05FFEFFF744
:1011D0008DFF2046FFF7E8FF06E0074804F056FEC3
:1011E0000549204604F0D6FD204610BD7413FF1FAC
:1011F00040420F003F420F006413FF1F00210148CF
:1012000004F040BE6413FF1F30B50C218BB00420E6
:10121000394A3A4C04F012FC002539492560012076
:1012200000F080FD18B904F071FB364A09E003AA0A
:101230001C21284600F0CEFD1B2807D804F066FBD1
:10124000314A0C21012004F0F9FB52E02F4A0C2115
:10125000032004F0F3FB039B2D4A0C21032004F030
:1012600023FC0499684604F00DFE6B46294A0C21C4
:10127000032004F09BFC05AB274A8DF823500C217A
:10128000032004F053FC099B244A0C21032004F0A2
:101290000BFC099B2360B3F5007F09D904F036FBF2
:1012A0001F4A0C21022004F0C9FB4FF40073236095
:1012B00023681C4A03EB830103EB4101890089B2D7
:1012C0001C2000F087FD22682C235343984209D24A
:1012D00004F01CFB144A0C21012004F0AFFB074B67
:1012E00000221A60114A0C21032004F0A7FB00F031
:1012F00061FD0BB030BD00BFE1F600008C13FF1F95
:10130000F1F60000FDF6000012F700002EF70000D5
:101310005FF7000070F7000081F7000092F700000F
:10132000A3F700009C13FF1FE1F70000F8F700008F
:1013300010B5114C114A0C21042004F07FFBFFF77B
:1013400063FF23689BB904F0E1FA0D4A0C210220E7
:1013500004F074FBFFF758FF236843B904F0D6FA92
:10136000084A0C210120BDE8104004F067BB064B81
:1013700080221A7310BD00BF8C13FF1F15F80000E8
:101380001DF8000049F800007813FF1F70B50E4AE1
:101390000C210446042004F051FB0C4B0C491A6844
:1013A0002C250023934206D005FB03100668A642B5
:1013B00009D00133F6E704F0A9FA0220054A0C210E
:1013C00004F03CFB002070BD69F800008C13FF1F87
:1013D0009C13FF1F77F8000010B50C46FFF7D6FFEF
:1013E00048B1836AA34206D1074A0C21042004F0C5
:1013F00025FB012010BD04F089FA044A0C210220CB
:1014000004F01CFB002010BD9AF80000B5F80000A5
:1014100030B53A4A89B00C21042004F00FFB38495A
:10142000012000F07FFC044638B904F06FFA354A19
:101430000C21012004F002FB5CE000F059FD324A6F
:1014400003460C21042004F02FFB00F051FD00287E
:101450001ADC2E4A0C21032004F0F0FA01A8FFF751
:10146000A3FE01A804F0A6FC0025059001230C2191
:1014700004A80493069504F0DDF904AA079010214E
:10148000284600F0DBFC2CE0002000F03FFD04AA21
:101490001021002000F09EFC0F2805D804F036FA39
:1014A0001B4A0C21012018E00C2104A804F0C2F909
:1014B000079B184A05460C21042004F0F5FA2B4638
:1014C000154A0C21042004F0EFFA079B9D4208D036
:1014D00004F01CFA114A0C21002004F0AFFA002499
:1014E00008E004AB03CB0E4A1060186851609060AE
:1014F00000F060FC204609B030BD00BFD1F800000C
:10150000ECF80000F8F8000014F900002CF90000D5
:101510005DF900007BF9000091F90000A7F90000D7
:101520009013FF1F1FB5164A0C21042004F086FA01
:101530001449012000F0F6FB044638B904F0E6F93E
:10154000114A0C21012004F079FA15E00F4A1068C5
:1015500051686B4603C3906818600C21684604F01C
:1015600069F96A4603901021002000F067FC002012
:1015700000F0CCFC00F01EFC204604B010BD00BF03
:10158000CCF90000ECF80000F8F800009013FF1F01
:10159000F0B5314A89B00C21042004F04FFA2F49EC
:1015A000012000F0BFFB054638B904F0AFF92C4A22
:1015B0000C21012004F042FA4BE000F099FC294F85
:1015C000294A03460C21042004F06EFAB868182654
:1015D00001387043103000F099FCB868013802AC53
:1015E000704331462246103000F0F4FB33461F4A68
:1015F00000940C21042004F02DFB1421204604F05B
:1016000019F9079B1A4A06460C21042004F04CFAEB
:101610003346184A0C21042004F046FA079B9E42E8
:1016200008D004F073F9144A0C21002004F006FAE3
:1016300000250EE0114B06AE224603CAB2421860E6
:101640005960144603F10803F6D11068186000F0E1
:10165000B1FB284609B0F0BDE8F90000ECF8000045
:10166000F8F800009013FF1F14F9000001FA0000C1
:101670007BF9000091F90000A7F900007813FF1F23
:1016800070B5214A8AB00C21042004F0D7F91F4913
:10169000012000F047FB044638B904F037F91C4A32
:1016A0000C21012004F0CAF92AE01A4B04AA03F124
:1016B0001006154618685968144603C40833B34227
:1016C0002246F7D1186820601421284604F0B2F8A9
:1016D000114C09902946182000F0F6FB002000F07C
:1016E00015FC00F067FBA36801A80133A360FFF7B6
:1016F0005BFD01A804F05EFB6060FFF713FF04468A
:1017000020460AB070BD00BF0EFA0000ECF80000E1
:10171000F8F800007813FF1F9013FF1FF0B5234A5D
:1017200087B00C21042004F089F92149012000F040
:10173000F9FA054638B904F0E9F81E4A0C210120EF
:1017400004F07CF92FE01C4B6A4603F110076C464D
:1017500018685968164603C60833BB423246F7D1AB
:10176000186830601421204604F064F8134B05908B
:1017700098681821013848432246103000F05EFB7B
:10178000002000F0C3FB0C4B224604AE144603CCF1
:10179000B44218605960224603F10803F6D120686C
:1017A000186000F007FB284607B0F0BD24FA0000DF
:1017B000ECF80000F8F800007813FF1F9013FF1FEB
:1017C00038B5154A04460D4604200C2104F036F9BC
:1017D0002046FFF7DBFD0446A8B10123013D03FAD3
:1017E00005F52B460D4A0C21042004F05DF9042078
:1017F000A38C0B4A0C2104F057F9A38C2B420CBF8D
:101800000120002038BD04F081F8064A0C21022096
:1018100004F014F9204638BD3EFA00004EFA0000EC
:101820005AFA000066FA000038B50D4A04460D4623
:1018300004200C2104F002F92046FFF7A7FD04461E
:1018400028B1C08C64236843B0FBF3F038BD04F0CA
:101850005DF8044A0C21022004F0F0F8204638BD5F
:101860007AFA000066FA00002DE9FF411F4C80461D
:101870000F4616460C211E4A04201D4604F0DEF8D1
:10188000237B012B03D804F041F81A4A05E0FFF747
:10189000BFFD40B904F03AF8174A01200C2104F0CA
:1018A000CDF800201FE0154B9B6823B923706370AF
:1018B000A370E37006E0FFF76BFE0028EAD0236810
:1018C00001332360002301A82373C4F808806773E1
:1018D000C4F80E606582FFF767FC01A804F06AFA9D
:1018E0006060FFF7CDFE04B0BDE8F0817813FF1F04
:1018F00090FA0000A6FA0000EAFA00009013FF1F19
:1019000030B5194A85B00C21042004F097F8FFF790
:101910003FFE044628B903F0F9FF144A0C210120C8
:101920001DE0134C237B43B103F0F0FF114A0C215F
:10193000012004F083F8002413E001A80125257399
:10194000FFF732FC01A804F035FA6060FFF7E6FE0D
:10195000044630B903F0DAFF074A0C21284604F0A8
:101960006DF8204605B030BD1BFB000032FB0000C7
:101970007813FF1F4EFB000081FB000030B51A4AB0
:1019800085B00C21042004F059F8FFF701FE04464D
:1019900028B903F0BBFF154A0C2101201EE0144CAE
:1019A000257B012D08D003F0B1FF124A0C21012044
:1019B00004F044F8002413E0032301A82373FFF785
:1019C000F3FB01A804F0F6F96060FFF7A7FE0446F8
:1019D00030B903F09BFF084A0C21284604F02EF88A
:1019E000204605B030BD00BF9EFB000032FB00006A
:1019F0007813FF1FB6FB000081FB000030B51A4AC8
:101A000085B00C21042004F019F8FFF7C1FD04464D
:101A100028B903F07BFF154A0C2101201EE0144C6D
:101A2000257B012D08D003F071FF124A0C21012003
:101A300004F004F8002413E0112301A82373FFF736
:101A4000B3FB01A804F0B6F96060FFF767FE044637
:101A500030B903F05BFF084A0C21284603F0EEFF83
:101A6000204605B030BD00BFEAFB000032FB00009D
:101A70007813FF1FB6FB000081FB000010B5084A79
:101A800004460C21042003F0D9FF064B1B68A34237
:101A900083BF054B2C2000FB0430002010BD00BF8D
:101AA00000FC00008C13FF1F9C13FF1F704738B50C
:101AB000012204460D4606F031F8024628B92946AF
:101AC0002046BDE8384006F029B8012038BDFFFFA8
:101AD0000421F8B5344A354F354C364D084603F0ED
:101AE000ADFF00233B702370FE232B7004F054FCE9
:101AF000064604F03FFCA8701EB103F007FF2E4A13
:101B000007E029462D48FFF7D2FF38B903F0FEFE63
:101B10002B4A0421012003F091FF14E027492948B2
:101B200005F000FA0421012308463B7003F0E4FEAF
:101B300048B104210846244A03F080FF32460721B9
:101B4000204805F0EBFC0F220121204804F0CAFFD9
:101B500018B903F0DBFE1E4A07E01C491D48FFF7D9
:101B6000A6FF40B903F0D2FE1B4A04210120BDE8C4
:101B7000F84003F063BF1749184805F0D3F9042172
:101B800001230846237003F0B7FE58B1042108462C
:101B9000134A03F053FF002207211048BDE8F84024
:101BA00005F0BCBCF8BD00BF17FC0000EC6BFF1FCC
:101BB000386CFF1F396CFF1F1FFC00009C6BFF1F60
:101BC00042FC0000146CFF1F74FC00003C6CFF1F03
:101BD00091FC0000C46BFF1FB4FC0000F06BFF1F02
:101BE000E6FC00000A7902714A7942718A798271B1
:101BF0008A688260CA68C2600A6902610A7D0275E9
:101C00008A698261CA69C2610A6A02627047FFFF1B
:101C100030B504218FB00546394A084603F00EFF5F
:101C2000384B0593384B9B790024012B8DF81840D5
:101C30008DF81A4005D803F069FE344A04210220C9
:101C40003DE02B5D2F2B19D08BB904210846304A7B
:101C500003F0F4FE042108462A4603F0EFFE1323A6
:101C60002A46294905A805F0A3FB60BB22E0013400
:101C7000102CE6D103F04AFE264A1EE022462946F1
:101C800001A806F0DFFB0EAB53FA84F30421002217
:101C900003F8342C0846204A03F0D0FE04210846FD
:101CA00001AA03F0CBFE012301AA174905A805F0FC
:101CB0007FFBB0B903F02AFE184A0421012003F08B
:101CC000BDFE00201AE0104805F0D6FA18B903F05E
:101CD0001DFE134AF1E705A90B48FFF783FF01201A
:101CE0000CE0094805F0C8FA0028F0D005A906481C
:101CF000FFF778FF601C2844FFF78AFF0FB030BD64
:101D000003FD0000F0320100406CFF1F10FD0000D9
:101D10003DFD000071FD000091FD000047FD000049
:101D20005CFD000038B50D4604210446184A0846FB
:101D300003F084FE174805F09FFA012C0AD1164BD8
:101D40001B782BB903F0E2FD144A042102201AE0AB
:101D500013490BE0022C11D1124B1B782BB903F065
:101D6000D5FD114A042120460DE010490948FFF72E
:101D700039FF2846BDE83840FFF74ABF03F0C6FDEB
:101D80000B4A0421012003F059FE002038BD00BF9A
:101D9000A6FD0000406CFF1FEC6BFF1FAFFD0000B5
:101DA000146CFF1F386CFF1FDAFD0000F06BFF1F83
:101DB00005FE000008B504210846044A03F03EFE73
:101DC0000348BDE8084005F057BA00BF1CFE0000FC
:101DD000406CFF1F2DE9F0410F46144C04210646CC
:101DE00090460846124A03F029FEA579012D11D12B
:101DF0003146204605F0E4F928B903F087FD0D4A85
:101E0000042128460BE03A4641462046BDE8F04111
:101E100005F034B903F07AFD074A0421012003F0EC
:101E20000DFE4FF0FF30BDE8F08100BF406CFF1F9A
:101E300032FE00003BFE00004FFE00002DE9F041A5
:101E40000F461B4E0421044690460846194A03F0EB
:101E5000F5FDB579012D20D12146304605F0B0F9C8
:101E600018B903F053FD144A11E03A464146304692
:101E700005F0D8FB041E03DA03F048FD0F4A06E024
:101E8000304605F0CDF928B903F040FD0C4A042195
:101E9000284607E02046BDE8F08103F037FD094AF7
:101EA0000421012003F0CAFD4FF0FF30BDE8F081AE
:101EB000406CFF1F71FE00003BFE00007BFE000037
:101EC0008FFE00004FFE000038B50D460421044689
:101ED000054A084603F0B2FD044B2A46214698699C
:101EE000BDE83840FFF7AABFAAFE0000406CFF1F04
:101EF00008B504210846034A03F0A0FD024B986987
:101F000008BD00BFB5FE0000406CFF1F30B5C3B078
:101F100002AC22464FF480710546FFF75BFF38B9EB
:101F200003F0F4FC0E4A0421012003F087FD14E0C5
:101F30002B460C4A0421052003F0B6FD0A4B0B4A40
:101F40009B690421052003F0AFFD00944FF48073DA
:101F5000074A0421052003F07DFE43B030BD00BFD9
:101F6000BDFE0000D2FE0000406CFF1FE0FE00003E
:101F7000EEFE00000D4A002393700D4A93700D4A47
:101F80000221116082F820300B4A116082F8203063
:101F90000A4A0B491371116093710A4A1371116057
:101FA0009371094A1371116093717047396CFF1F67
:101FB0003C6CFF1F9C6BFF1FC46BFF1F146CFF1F4B
:101FC000F0320100F06BFF1F406CFF1F70B5084C32
:101FD000084E25460849074800F0E6F9207018B178
:101FE00005493078FEF73EFE2B78002BF2D170BD0C
:101FF000656CFF1F646CFF1F666CFF1F10B503F05C
:102000008DFC042003F062FC0421002003F06EFC30
:1020100003210A2003F06AFC0321082003F066FC78
:102020000321092003F062FC0321052003F05EFC7C
:1020300003210E2003F05AFC03210F2003F056FC6D
:102040002E4C0321012003F051FC41F2883006F0B0
:10205000BFFB22460021032003F0F0FC284A0021A8
:10206000032003F0EBFC274A0021032003F0E6FCE9
:10207000254A0021032003F0E1FC22460021032031
:1020800003F0DCFC214A0021032003F0D7FC204AA6
:102090000021032003F0D2FCFFF746F800F018FA05
:1020A000FFF716FDFFF744F900F086F8FEF7BEFDD6
:1020B00003F06AFB174A0021032003F0BFFC164B14
:1020C00002221A70154B45F2E4711980144B1A68FC
:1020D0000020186002F04002124842F02A0201601B
:1020E0001A60114A114911601A6842F040021A60E0
:1020F0000F4B4FF400621A6010BD00BFFCFE0000E1
:1021000023FF00004AFF000071FF00008527010047
:1021100098FF0000ACFF0000FE79FF1F007AFF1F50
:102120000090034008900340B808FF1FCD1F000037
:1021300004E100E008B50420054A002103F07EFC1C
:1021400003F028FA4FF4FA70BDE8084006F040BBEF
:10215000CCFF000038B5074A04460D46042005218F
:1021600003F06CFCA0B20DB140F48070BDE83840C3
:1021700006F066BC75FE000010B50D4A0446052148
:10218000042003F05BFC06F0BFFC002809DC094AD0
:102190000521022003F052FC4FF47A63013BFDD18C
:1021A000F1E706F0C1FC2070C0F3002010BD00BFB5
:1021B00040260100D7FF000008B5094A0521042088
:1021C00003F03CFC46F2A81006F080FBA42006F0C9
:1021D000F3FB044A00231370034A137008BD00BFC9
:1021E000ECFF0000B46CFF1FA86CFF1F37B506F0B2
:1021F0008BFC041E1D4D07DD1D4A0521042003F044
:102200001DFC00232B702EE0032006F083FA01282A
:1022100026D1184A0521042003F010FC2A78164B19
:1022200082B91B680093009B13F1650F8ABFAB60F6
:10223000643364236B604FF0010398BFAA602B7076
:10224000002011E01B680193019BA9686A685B1A72
:102250009A424FF0000406D22C70FFF7ADFF02E067
:102260000020287000E0204603B030BDB46CFF1F92
:10227000F5FF000010000100247AFF1F2DE9F04156
:1022800086B00D46064600910346344A05210420D7
:1022900003F0E0FC06F1FF386F1EA8440024474518
:1022A00008D017F8010F0021FFF754FF3B781C44BA
:1022B000E4B2F4E701212046FFF74CFF284A294CFD
:1022C00013680493049B274F991D8ABFA3600533AD
:1022D00005239046636098BF00224FF0010398BF2A
:1022E000A26023702378B3B1D8F800300593059B22
:1022F000B9687A685B1A9A420DD21A4B00221A709A
:1023000004E09DF80F302BB3AA2B18D12946304694
:10231000FFF7B4FF1FE0FFF769FF0028E2D00DF1DF
:102320000F00FFF729FF04460028EAD003F0EEFA79
:1023300001200D4A052103F081FB00200BE0FF2B5B
:10234000E4D003F0E3FA0120084A052103F076FB0C
:10235000204600E0012006B0BDE8F0812600010023
:10236000247AFF1FA86CFF1F3800010065000100E0
:1023700008B505210420044A03F060FB0121002078
:10238000BDE80840FFF7E6BE9200010008B5052150
:102390000420044A03F052FB0121FF20BDE808405D
:1023A000FFF7D8BE9F0001002DE9FF4705460E4606
:1023B0003B4A0521042003F041FBFFF717FF0028EB
:1023C0006AD02846FFF7D8FE002865D02F7807F09E
:1023D000F803102B60D10123324A00950521042017
:1023E00003F038FC2878FEF787FC34468146C6EBBC
:1023F00004085FFA88F8C1450CD92046FFF7BCFEF7
:1024000023781F440134FFB20028F0D003F07EFA95
:10241000254A22E031782878FEF78EFC4FF000093B
:1024200082465FFA89F303EB08049A45E4B20AD9BD
:102430003019FFF7A1FE335D1F44FFB209F1010916
:102440000028EED0E2E704A8002300F8013DFFF7E2
:1024500093FE38B103F05AFA144A0521012003F023
:10246000EDFA19E09DF80F30BB4203D003F04EFAAD
:102470000F4AF2E70134E4B2012C4FF0040083BFAD
:10248000009623460B4A00959CBF01230A4A05216A
:1024900003F0E0FB204600E0002004B0BDE8F08738
:1024A000AD000100B6000100C3000100FA00010008
:1024B000370101005E01010076010100024A00239C
:1024C0001370024A13707047B46CFF1FA86CFF1F93
:1024D00008B50F4A0F21042003F0B0FA0121232090
:1024E00006F026F90121242006F022F902212020FD
:1024F00006F01EF902211F2006F01AF902211E2003
:1025000006F016F902211D20BDE8084006F010B9BA
:102510009001010038B50F4A05460C4604200F21F2
:1025200003F08CFA012D0CD0022D01D1242009E0FA
:1025300003F0ECF9084A0F210120BDE8384003F010
:102540007DBA23200CB1012100E02146BDE83840CE
:1025500006F0C0B89A010100A701010070B5114A48
:102560000F210646042003F069FA202006F0D2F875
:1025700005461F2006F0CEF804461E2006F0CAF8D5
:10258000800040EA44041D2006F0C4F825436CB2E4
:1025900044EAC00026EA000010F00F0018BF012036
:1025A00070BD00BFCA010100704710B55821044634
:1025B00006F05EF8204610BD0F2A38B504461D46C9
:1025C00017DD00F1140201F1100351F8040B42F879
:1025D000040B9942F9D1226B0021201D05F0CCFF9C
:1025E0001023E36284F83450802384F835300120CE
:1025F00038BD002038BD40F3C01303F01B0383EA4D
:102600004000C0B27047FFFF2DE9F04F044685B08F
:1026100042B901F10F03029304F10F030027B24EF8
:10262000019382E0B04DB14F002001F10F0E4B7BC2
:10263000EE5C0B785E40C35D73400B708B7BEE5C91
:102640004B7873404B70CB7BEE5C8B7873408B7018
:102650000B7BEE5CCB785E400B4603F8036F13F800
:1026600001CF13F8046C73458CEA06061E70F6D190
:1026700001300A28DBD1631E4D1E04F10F0613F84A
:10268000017F15F8010FB34280EA07001870F6D1F8
:10269000BFE7DD7813F8010D454099421D71F8D16F
:1026A0004B7BF35C5840914BDB1B5B7A58408B7B38
:1026B0000870F05C4B7843404B70CB7BF05C8B78C0
:1026C00043408B700B7BF05CCB784340CB70002F8A
:1026D00057D1607A637B60736079607260786071F3
:1026E000A07AA5786370A070A37BE079A572A57924
:1026F000A371E378E070E07AE071E07BA573E373A7
:10270000E072631E01F1FF3C13F8010F784D15F8DC
:1027100000E01CF8010F8EEA000018700198834257
:10272000F2D101370A2F00F0CF8012B101F10C0372
:10273000AFE7631E4D1E13F801EF15F8010F8EEA87
:102740000000305C187001988342F4D1607963789E
:102750006070607A6071607B6072A078A57A637344
:10276000A072A379E07AA570A57BA373E37BE073E5
:10277000E079E072E078A571E071E3700FB1092FA4
:102780007FD00023009342E06B1C05F1020A05F1A3
:10279000030914F805B0E05C14F809E014F80A80A5
:1027A000039388EA0E088BEA000080EA0808FFF726
:1027B00022FF8BEA080E80EA0E006055039B14F896
:1027C0000A00E55C6840FFF716FF88EA0505039BF1
:1027D0006840E05414F80A5014F809006840FFF704
:1027E0000AFF88EA0505684004F80A0014F8095051
:1027F0008BEA0500FFF7FFFE009B88EA050801331E
:1028000080EA0800042B04F80900009336D0009BEE
:102810009D00EDB2002AB7D005F1020B14F805A017
:1028200014F80B008AEA0000FFF7E5FEFFF7E3FE6D
:1028300005F1010905F1030814F809E0039014F803
:1028400008008EEA0000FFF7D6FEFFF7D4FE039BD8
:102850008AEA030A04F805A014F809E080EA0E0EDB
:1028600004F809E014F80BE083EA0E0304F80B30D7
:1028700014F80830584004F8080085E7002A7FF46F
:1028800028AF4B7BF05C0B785840184BFB5C434007
:102890000B708B7BF05C4B7843404B70CB7BF05CD8
:1028A0008B7843408B700B7BF05CCB7858400B46A9
:1028B00003F8030F13F8015F13F8040C6840187055
:1028C00002988342F6D12CE75AB9631E01390F34BE
:1028D00013F8010F11F8012F9C4282EA00021A70CE
:1028E000F6D105B0BDE8F08FF4010100F40201005B
:1028F000FE020100F0B58E46C16A102985B01DD1D7
:1029000000F114056E4600F12404EC46286869685D
:10291000374603C70835A5423E46F7D111467046F3
:10292000103251F8044B40F8044B9142F9D17046F3
:102930001A466146FFF768FE012000E0002005B05E
:10294000F0BDFFFF0022C26280F83420FF2280F831
:102950003520024A0260102202637047E401010040
:1029600070B504461546A2B183684068D618864201
:1029700008DD02F0CBFF084A0621012003F05EF8D3
:10298000002070BD2068184405F05CFDA3681D445C
:10299000A560012070BD00BFFE030100704710B5A7
:1029A0004FF4EC71044605F063FE204610BDFFFFB6
:1029B0002DE9F04142680468DFF888E15F4E84EA5F
:1029C000121303F00F3384EA030082EA03135C4A14
:1029D00080EA80442240504080EA9242584883EA8C
:1029E00083442040434083EA904382EA530000F04E
:1029F000553082EA000583EA400080EA152202F0A1
:102A0000FF1280EA020485EA022282EA540000F002
:102A100055304240130984EA400000F47F4403F03B
:102A200070632343040404F47F042343C0F307408A
:102A3000034322F07042083100275EF8270030B1CE
:102A400095069C0645EA920544EA930405E0D506FE
:102A5000DC0645EA520544EA530425F07042D009E9
:102A6000C2F3811C00F03C004CEA00004FEA923CAB
:102A7000C2F343380CF0300C48EA0C0C40300CF137
:102A8000800C56F8208056F82C0005F03F0C48EAE0
:102A9000000056F82C504FEA525C28430CF0060C0C
:102AA000C2F300554FEA925845EA0C0C08F038087A
:102AB0004CEA080C0CF1C00C24F0704356F82C5072
:102AC0004FEA132C05430CF03C0CC3F3C11040EA51
:102AD0000C0C04F03F04C3F3C53000F5C07004F5DE
:102AE00080740CF5A07C56F8208056F8240056F827
:102AF0002C4048EA000020439C0DC3F3435C04F0E3
:102B000030044CEA040404F5E074013756F824401C
:102B10002043ACB244EA0044000C000440EA1540F3
:102B20004FEAB4744FEAB060102F41F8084C41F8F6
:102B3000040C01F1080180D1BDE8F081941101007D
:102B40000000CCCC941901002DE9F04143680768DE
:102B500087EA131505F00F356F4083EA051585EAFE
:102B600017439BB285EA030487EA034383EA94058B
:102B700005F0333583EA050684EA850585EA1623E0
:102B800003F0FF135D4086EA032383EA550404F053
:102B90005534634085EA44054FEA73734FEA75750F
:102BA000A14C002A00F08A8001F180070E684A6873
:102BB0005E40C6F3852CC6F3850E0CF1800C54F8EC
:102BC0002E8054F82CE04FEA966C0CF5C07CC6F3CE
:102BD000854606F5807654F82CC054F826605A4095
:102BE00088EA0E0E4FEA32128EEA0C0E8EEA060EBC
:102BF000960E06F5E076103154F826608EEA060E41
:102C0000C2F38506403654F826608EEA060EC2F3FB
:102C10008526C036C2F3854202F5A07254F82660BC
:102C200054F822208EEA0606724051F8086C55408E
:102C30006E404FEA966CC6F3850E0CF5C07C54F8D6
:102C40002E8054F82CE051F8042C88EA0E0E8EEAFF
:102C50000303C6F3852E0EF1800EC6F3854606F5F6
:102C6000807654F82EE054F826606A404FEA32121B
:102C700083EA0E037340960E06F5E0768F4254F811
:102C8000266083EA0603C2F3850606F1400654F87F
:102C9000266083EA0603C2F3852606F1C006C2F366
:102CA000854202F5A07254F8266054F8222083EA87
:102CB000060383EA02037FF479AF88E0A1F180077D
:102CC0008E6FCA6F5E40C6F3852CC6F3850E0CF17D
:102CD000800C54F82E8054F82CE04FEA966C0CF5DA
:102CE000C07CC6F3854606F5807654F82CC054F8AF
:102CF00026605A4088EA0E0E4FEA32128EEA0C0E17
:102D00008EEA060E960E06F5E076103954F8266027
:102D10008EEA060EC2F38506403654F826608EEA27
:102D2000060EC2F38526C036C2F3854202F5A072B4
:102D300054F8266054F822208EEA06067240D1F834
:102D4000806055406E404FEA966CC6F3850E0CF5D8
:102D5000C07C54F82E8054F82CE0D1F8842088EA06
:102D60000E0E8EEA0303C6F3852E0EF1800EC6F317
:102D7000854606F5807654F82EE054F826606A40C1
:102D80004FEA321283EA0E037340960E06F5E076A0
:102D9000B94254F8266083EA0603C2F3850606F1B9
:102DA000400654F8266083EA0603C2F3852606F13E
:102DB000C006C2F3854202F5A07254F8266054F8AA
:102DC000222083EA060383EA02037FF479AF4FEA05
:102DD000F5014FEAF30381EA530202F0553281EA2A
:102DE000020483EA420383EA142101F0FF1183EA1B
:102DF000010284EA012181EA920303F0333359404E
:102E000082EA830383EA114292B2534081EA02428A
:102E100082EA131101F00F314A4083EA0113026084
:102E20004360BDE8F08100BF9409010013B50C4672
:102E30001146026800924268019268461A46FFF7FE
:102E400083FE009B23701A0A62701A0C1B0EE3703B
:102E5000019BA2701A0A237162711A0C1B0EA271D7
:102E6000E37102B010BD2DE9F04104461E46E36A4D
:102E7000102B0D4610460AD0182B26D0082B44D113
:102E800004F158020EB9012313E0002311E004F10C
:102E90005807D83496B901233A46FFF7C7FF33469F
:102EA000224629462846FFF7C1FF01233A46294614
:102EB0002846FFF7BBFF0120BDE8F08100233A461A
:102EC000FFF7B4FF0123224619E004F1580704F18B
:102ED000D80804F5AC7466B901233A46FFF7A6FF9B
:102EE0003346424629462846FFF7A0FF01232246E3
:102EF000DDE700232246FFF799FF012342462946DA
:102F00002846FFF793FF0023D0E70020BDE8F081BB
:102F10000022C26280F83420FF2280F83520024A65
:102F2000026008220263704784090100F0B54D1E5B
:102F3000471E01F1070E802615F8014F334224F099
:102F4000010418BF44F00104754507F8014F4FEA2A
:102F50005606F1D10823934205DACC5C24F0010433
:102F6000C4540133F7E7F0BDF8B500F11406044688
:102F7000304615461F46FFF7D9FF102A10D0182AF1
:102F80001BD0082A37D104F1130304F11B0213F8F4
:102F9000011F19729342FAD104F15801304608E03A
:102FA00004F158013046FFF703FD04F1D80104F1A4
:102FB0001C00FFF7FDFC002311E004F1580130462E
:102FC000FFF7F6FC04F1D80104F11C00FFF7F0FC58
:102FD00004F5AC7104F12400FFF7EAFC402384F807
:102FE0003530226B0021201D05F0C6FA84F83470BC
:102FF000E5620120F8BD0020F8BD10B50446084682
:10300000002184E80500A16005F0B6FA204610BD55
:1030100008B5836819444368994208DD02F076FCDC
:10302000044A0621012002F009FD002008BD01200C
:1030300008BD00BFE019010013B503210446FFF7E6
:10304000E7FF70B102A9002341F8043D2268A3689C
:103050001A44033310889278ADF804008A700198FE
:10306000A36002B010BD10B504460846002184E8F4
:103070000500A16005F080FA204610BD08B5836800
:1030800019444368994208DD02F040FC044A0621D5
:10309000012002F0D3FC002008BD012008BD00BFC4
:1030A000FE03010038B50D4601210446FFF7E6FF97
:1030B00028B1A3682268D554A3680133A36038BD42
:1030C00013B5019104210446FFF7D8FF024630B141
:1030D000A36821680198C850A3680433A360104610
:1030E00002B010BD73B5019103210446FFF7C6FF7E
:1030F00058B102ABA268216833F8046D8E528D1866
:103100009B78AB70A3680333A36002B070BDFFFF70
:103110002DE9F04F87B0056BDDF8448001914545FE
:10312000044692461E46109F07DC98FBF5F305FB0C
:10313000138515B900F1040920E002F0E7FB224AEB
:103140000921012002F07AFC1EE0019AF2B94A46F8
:10315000394602A801F046FE236802AAD3F80CB053
:10316000314653462046D84770B1226B3146484617
:1031700005F068F9236B01351F441E44236B98FB4F
:10318000F3F29542E1DB1AE0002019E023683A46A9
:10319000D3F80CB002A953462046D8470028F3D0F4
:1031A00002A90846236B4A4601F01CFE226B3946F1
:1031B000484605F047F9226B02A93046D8E70120BE
:1031C00007B0BDE8F08F00BFF219010073B50546E6
:1031D00088680C461646F8B12A6B90FBF2F302FBA6
:1031E0001303CBB90B68801A05F13601184401F0BE
:1031F00004FEA2682368019200220093114628462B
:10320000FFF786FF044608B9002419E02A6B291D40
:10321000304605F017F913E080212046FFF742FF02
:103220000028F1D0A0682A6B90FBF2F302FB130395
:103230000BB10021F1E7801A236805F14601D5E7BB
:10324000204602B070BDFFFF08B528B190F83530B8
:10325000FF2B01D0012008BD02F058FB034A0921D1
:10326000022002F0EBFB002008BD00BF091A01009C
:1032700040280FD0802801D050B901E0074870479E
:10328000082909D0064B0748102908BF184670477F
:10329000054870470548704705487047231A0100E4
:1032A000151A0100171A0100271A01001C1A010043
:1032B000181A010013B5C36A102B0446B8BF1023B7
:1032C00000F1140200929BB2094A0921042002F085
:1032D000C1FCE16A94F83500FFF7CAFF054A0346CE
:1032E0000921042002B0BDE8104002F01FBC00BF5D
:1032F0002F1A0100341A0100437802781B0243EAB6
:103300000233C2788078134343EA001080B27047DA
:103310000C2908B50B4600F08C80AF2900F089809D
:10332000002900F08680AE295ED024D87E294FD0B7
:1033300010D81C2944D005D80E2972D102F0E6FA23
:103340003D4A68E01E293FD040296AD102F0DEFAEA
:103350003A4A60E09E293FD005D89D2961D102F00C
:10336000D5FA374A57E0A0293AD0A12959D102F01D
:10337000CDFA344A4FE0CE2942D010D8C12937D0F7
:1033800005D8BE294DD102F0C1FA2F4A43E0CA291F
:1033900032D0CD2945D102F0B9FA2C4A3BE0EE29D2
:1033A00032D005D8DE293CD102F0B0FA284A32E00A
:1033B000F0292DD0F12934D102F0A8FA254A2AE0CB
:1033C00002F0A4FA244A26E002F0A0FA234A22E0FE
:1033D00002F09CFA224A1EE002F098FA214A1AE012
:1033E00002F094FA204A16E002F090FA1F4A12E026
:1033F00002F08CFA1E4A0EE002F088FA1D4A0AE03A
:1034000002F084FA1C4A06E002F080FA1B4A02E04D
:1034100002F07CFA1A4A0821012002F00FFB00207A
:1034200008BD184A0821012002F03EFB02F06EFAA6
:10343000F5E7012008BD00BF411A01007D1A010017
:10344000A71A0100E61A0100191B0100501B010018
:10345000741B0100AB1B01005B1A01006C1A010018
:10346000911A0100BA1A0100CF1A0100031B0100D2
:10347000291B01003F1B01005F1B01008D1B010088
:103480009B1B0100C11B01002DE9F04F8DB01546BB
:10349000179A9DF86090984604460E46002302B1A4
:1034A000137005AF84F8A036012204A93846FFF74F
:1034B000DAFD09F0040202F0FF030393002A0CBFB7
:1034C0000B231323002D08BF3D460293B3689A1CBB
:1034D000AB681344502B04DC029B169A1344502B08
:1034E00007DD02F013FAB64A0821012002F0A6FA1D
:1034F000DFE019F00A0F07D094F86434FF2B03D1F2
:1035000002F004FAAF4AEFE719F0020F5DD0042190
:10351000082002F0F1F970B1AB4A0821042002F052
:103520008DFAD4F86C24138E043200920921A74A34
:10353000042002F08FFBB168AB682A68306801F0A4
:10354000B9FC014608902846FFF7BAFD002800F0B4
:10355000B080D4F86C34AF681B6B97FBF3FA03FBB5
:103560001A7ABAF1000F01D00137F6E7C5F808A0C2
:1035700039462846FFF782FD002800F09A8008AB04
:10358000AF60009304231846914A082102F062FBC1
:103590001FFA87FB2B6800938E4A5B4608210420A4
:1035A00002F058FB2B68D4F86C048DE88800524672
:1035B0005146FFF7ADFD00287BD02B680093864A6B
:1035C0005B460821042002F045FB316819F0010F29
:1035D00091F800A02CD0BAF1AF0F29D094F8643440
:1035E000FF2B25D00023C4F8243704F21C77B268DF
:1035F0003846FFF7B5F900285BD0AA682968384635
:10360000FFF7AEF9002854D00DF1200B5A46394689
:10361000D4F86C04FFF7DAFD00284AD0D4F86C34F3
:103620006E4A1B8ECDF800B00821042002F012FB78
:103630004023237101236371B2683168A01D04F037
:1036400001FFB768AA6829680237261DF01904F03F
:10365000F9FEAA683A44D2B23146204601F0D0F9C8
:1036600038B31699029B0B44DAB23146204601F07A
:10367000D1F90228834602D96379412B03D002F0A5
:1036800045F9574A30E7A17984F8A0162046E77932
:1036900000F012FF68B1BBF1030F0AD027B1AF2FC2
:1036A0001CBFFF2384F8643439462046FFF730FE00
:1036B00010B94FF0FF357EE0179B03B11F70039BDD
:1036C000ABF10405EDB27BB30FB1AF2F2CD194F861
:1036D0006434FF2B28D0BAF1AF0F1CBF0023C4F80D
:1036E0002437AF2F08D12A4604F1080104F21C70D8
:1036F000FFF736F9C0B9DCE7072D15D9A7B9ABF14B
:103700000C05EDB204F21C7A2B1D2A4604F10801C7
:1037100050461E44FFF724F90028CAD039465046C7
:10372000FFF7C0FC50BBC4E7169BAB4203DA02F0C4
:10373000EDF82C4AD8E6B8F1000F3CD0002D3AD075
:103740002A4604F10801404604F07CFE19F0080FF7
:1037500031D001220195CDF8008043461146D4F8BE
:103760006C04FFF7D5FC0028A3D0CDF80080ABB2E5
:103770001D4A0821042002F06DFA1CE008AF3A4609
:103780005146D4F86C04FFF721FD002891D0D4F8FD
:103790006C34164A1B8E00970821042002F05AFA56
:1037A00008223946304607F091FE0028BCD002F0CE
:1037B000ADF80F4A98E628460DB0BDE8F08F00BF7F
:1037C000911C0100D11B0100E31B0100FA1B010049
:1037D000031C0100071C0100151C0100271C01002F
:1037E000361C0100691C0100881C01004C1C0100F2
:1037F0005B1C0100F0B589B004460F46154604A9CC
:10380000012205A81E46FFF72EFC394605A8FFF742
:1038100049FC9DF8403002930F9B01930E9B00934F
:103820002A46334605A92046FFF72EFE09B0F0BD13
:103830002DE9F04FCBB005460491082004219046B5
:1038400002F05AF840B10420049B974A082102F084
:103850002BF94046FFF72EFD98F83530402B02D06B
:10386000802B06D00BB91A2404E002F04FF88F4ADF
:10387000F1E0AA24012207A908A8FFF7F4FB0499A4
:1038800008A8FFF70FFC002302930DF11F06102379
:1038900014AF009321463B46019608AA2846FFF73D
:1038A000A9FF3378AF2B044603D1082805D0102890
:1038B00003D002F02BF87E4ACDE0D8F8302000216A
:1038C00008F1040004F058FE0DF1600A0122019491
:1038D0000097534611464046FFF71AFC002800F0B7
:1038E0007C810DF1700B2246514658460DF180093E
:1038F00001F091FA2146484601F0AAFA20223AA99D
:103900000BA8FFF7B0FB224649460BA8FFF728F8A3
:10391000224659460BA8FFF723F8202242A90EA8F9
:10392000FFF7A1FB6300002219460EA80593109231
:10393000FFF7A4FB059B00B11093019300220B9BA2
:10394000009311460E9B4046FFF7E2FB002800F073
:1039500044810421082001F0CFFF88B3A3B200976F
:10396000544A1F460821042002F074F93B46524A8B
:10397000CDF800A00821042002F06CF93B464F4A24
:10398000CDF800B00821042002F064F93B464C4A0F
:10399000CDF80090082104207F0002F05BF9BFB24F
:1039A0000B9B0093474A3B460821042002F052F942
:1039B0000E9B0093444A3B460821042002F04AF93A
:1039C000002324AF02938DE850003B460EAAAF219E
:1039D0002846FFF70FFF33780BB9844203D001F07C
:1039E00095FF3A4A37E028AE01220194009733460A
:1039F00011464046FFF78CFB002800F0EE800DF1E9
:103A0000B00B49465846224601F005FA0421082029
:103A100001F072FFB0B1A3B200972D4A1F460821F2
:103A2000042002F017F93B462A4A00960821042098
:103A300002F010F9CDF800B03B46274A08210420D7
:103A400002F008F922462CA9304607F03FFD38B1B4
:103A500001F05CFF214A0821012001F0EFFFBCE0EA
:103A6000182234A911A8FFF7FEFA0422494611A82A
:103A7000FEF776FF0422514611A8FEF771FFD8F831
:103A80002C30082B42DD98F83530402B28D0802B85
:103A900032D0002B3AD1042221A911A8FEF760FFF1
:103AA000042219A92FE000BFCC1C0100091A010053
:103AB000E41C0100FE1C0100081D01000E1D010098
:103AC000181D01001E1D0100251D0100301D0100F3
:103AD0004A1D0100541D01005E1D0100681D01000A
:103AE00004220DF1860111A8FEF73AFF04220DF120
:103AF000660111A8FEF734FF042223A911A8FEF7DE
:103B00002FFF04221BA911A8FEF72AFF98F83530D1
:103B1000139A1199802B0CBF05F58E6305F59963F7
:103B2000C5F86C34D5F86C0403689C680023A04782
:103B3000002852D0D5F86C44266B0DF1C009082E30
:103B40004FF010024FF0000148460CBF1B2787279B
:103B500004F012FD32460021201D04F00DFD236B00
:103B60000193CDF800904B46002201212046FFF73B
:103B7000CFFA064688B3D4F830A004F1360852468E
:103B80004946404604F05EFC5146404601F04DF97E
:103B90009DF9C030002B07DA236B013B234493F8D7
:103BA00036207A4083F83620D4F8309004F146036A
:103BB00018464A46414604F045FC494601F035F9AD
:103BC00094F93630002B07DA236B013B1C4494F840
:103BD00046305F4084F846700EB9002611E004219B
:103BE000082001F089FE40B10420084A082101F0B4
:103BF00025FFD5F86C04FFF75DFB9DF8103085F8C4
:103C0000643430464BB0BDE8F08F00BF821D010028
:103C10002DE9F04F0546ADB00E4614469846834A4E
:103C20000B460420082101F03FFF95F86434FF2B78
:103C300007D101F06BFE7E4A0821022001F0FEFE52
:103C40001FE00421082001F057FEB0B1794A082195
:103C5000042001F0F3FED5F86C24138E0432009298
:103C60000921754A042001F0F5FF0420734A082158
:103C700001F0E4FE2046FFF71DFB2046FFF7E4FAC3
:103C800008B90020CEE028220DA907A8FFF7EBF91C
:103C9000E26A04F11409102AB8BF1022494607A8A5
:103CA000FEF75EFED5F8683495F864A41BB994F865
:103CB0003570374300E0374656451BD04046FFF786
:103CC000C3FA0028DDD00421082001F015FE38B128
:103CD00004205B4A082101F0B1FE4046FFF7EAFAF2
:103CE000D8F82C200798102AB8BF102208F1140128
:103CF00001F083F894F83530802B04D194F8341017
:103D000007A8FFF7CFF9C423079A8DF814300221D2
:103D1000099B8DF8157005A801F0CCF80DF1B008DD
:103D2000014648F8980D07A8FFF7CAF90423CDF813
:103D30000080444A0821184601F08CFF564516D0F1
:103D4000E16A002310291A46B8BF1021484601F045
:103D5000B1F82CAC014644F82C0D07A8FFF7B0F9D8
:103D600004230094384A0821184601F073FF099B88
:103D7000182B04DD212BB4BF2024282400E01824B4
:103D8000D5F86CB4DBF8303094FBF3F803FB18483B
:103D9000B8F1000F01D00134F6E70DF15C092822DB
:103DA0004146484604F0E8FB079B009301944B46CC
:103DB000424641465846FFF7ABF900283FF461AF51
:103DC000079B00931FFA84F84346204A08210420E9
:103DD00001F040FF43461E4ACDF800900821042020
:103DE00001F038FF292221A90AA8FFF73CF939463A
:103DF0000AA8FFF757F9224649460AA8FEF7B0FD80
:103E0000564504BFFF2385F864340423029300233E
:103E1000019300930AAAC4212846FFF7EBFCB0FAED
:103E200080F040092DB0BDE8F08F00BF951D010066
:103E3000D11B0100AA1D0100FA1B0100C01D0100D9
:103E4000D31D0100E61D0100F81D01000B1E01003D
:103E5000171E010070B50B4688B005460C46164685
:103E60000821144A042001F01FFE012204A905A81C
:103E7000FFF7F9F8214605A8FFF714F90523029387
:103E8000002401238DE818002846334605AA642142
:103E9000FFF7B0FC0128054608D103460096042030
:103EA000054A082101F0D6FE284600E0204608B069
:103EB00070BD00BF241E01003D1E010010B58EB074
:103EC0000EAB044603F8211D0F4A0093082101237D
:103ED000042001F0BFFE10220AA907A8FFF7C3F8CB
:103EE0009DF8171007A8FFF7DDF8062302930023BB
:103EF0000193009307AA54212046FFF77BFCB0FAF8
:103F000080F040090EB010BD5B1F01002DE9F041AB
:103F10000746B2B00E460420082115463B4A01F080
:103F20008DFD70220021304604F026FB54221DA98D
:103F300006A8FFF762F80523DDF8188002930DF15B
:103F4000170301933C230093002243466A2138461D
:103F5000FFF750FC041E53DB9DF81710AF294FF0FC
:103F600000020DD104230293C4F154030093019283
:103F700008EB04033846FFF73DFC002801DA3FE078
:103F8000104604440023214606A80893FFF740F892
:103F900000B107940320002394FBF0F42C702A78DE
:103FA000DCB2A24203F1010706D906A8FFF744F8E4
:103FB0003B4646F82400F2E70421082001F09CFC6F
:103FC000044608B901241CE02B780BB1002205E05F
:103FD0000F4A0821042001F031FD12E02B78541C17
:103FE000D2B29342EED956F822300A4909A807F016
:103FF00057FD09AA0821042001F020FD2246EDE723
:104000000024204632B0BDE8F08100BFD81F010077
:10401000EE1F0100022001002DE9F0419AB0074691
:104020000E460820042190461D469DF8804001F070
:1040300063FC78B100212046FFF71AF93246009060
:104040001B492B4606A807F02BFD06AA08210420D1
:1040500001F0F4FCFF2C08D101F058FC0120154AB6
:10406000082101F0EBFC00201EE0052204A906A8AF
:10407000FEF7F9FF314606A8FFF734F8414606A8D7
:10408000FFF710F845EA040106A8FFF70BF805232F
:10409000029300230193009306AACA213846FFF732
:1040A000A9FBB0FA80F040091AB0BDE8F08100BF6A
:1040B0001A2001005120010030B505469BB00C4686
:1040C0000820042101F018FC48B12246104906A836
:1040D00007F0E6FC06AA0821042001F0AFFC032249
:1040E00005A906A8FEF7BFFF214606A8FEF7FAFFBE
:1040F0000523029300230193009306AADA212846A0
:10410000FFF778FBB0FA80F040091BB030BD00BF6C
:1041100062200100F0B59FB002AD0C460DF1070220
:1041200029460646FFF7F2FE90B100239DF807707E
:104130001A46D9B28F4206D955F823100133A1424D
:1041400008BF0122F5E71AB121463046FFF7B4FF58
:104150001FB0F0BD70B505469AB00E460820042188
:1041600001F0CAFB48B13246134906A807F098FC93
:1041700006AA0821042001F061FC032205A906A873
:10418000FEF771FF0024314606A8FEF7ABFF02944C
:1041900001940094234606AA5A212846FFF72AFBD9
:1041A00030B9FF2385F86434C5F86864012000E065
:1041B00020461AB070BD00BF7B200100F0B5064656
:1041C0009DB00D460820042117461C4601F094FBC3
:1041D00050B12A461E49234608A807F061FC08AAE8
:1041E0000821042001F02AFC3846FFF785F8072251
:1041F000074606A908A8FEF736FF294608A8FEF7D5
:1042000051FF002108A8FEF74DFF022108A8ADF8D4
:104210001670FEF733FF38B10A9B089ABDF81610E6
:10422000D1520A9B02330A93214608A8FEF75AFF8F
:104230000523029300230193009308AACD21304661
:10424000FFF7D8FAB0FA80F040091DB0F0BD00BF0A
:10425000A12101002DE9F0439DB081460F460820C1
:10426000042115461C46249E01F046FB58B13A46EF
:104270001F4900942B4608A807F012FC08AA082141
:10428000042001F0DBFB002C2EDD302C4FF0070268
:1042900006A908A8A046A8BF4FF03008FEF7E3FE25
:1042A000394608A8FEF7FEFE294608A8FEF71AFFC1
:1042B000414608A8FEF716FF052302930DF11703E8
:1042C0000193CDF80080334608AABD214846FFF788
:1042D00091FA9DF817300BB9002801DC002004E0AA
:1042E000241A05440644CEE701201DB0BDE8F08342
:1042F000D82101002DE9F0439DB081468846082071
:10430000042116461D46249F01F0F6FA58B1424694
:1043100020490095334608A807F0C2FB08AA0821E7
:10432000042001F08BFB002D30DD342D4FF03C02DA
:1043300008A905A82C46A8BF3424FEF794FE4146E0
:1043400005A8FEF7AFFE314605A8FEF7CBFE2146D5
:1043500005A8FEF7C7FE2246394605A8FEF700FB72
:10436000052302930DF1130301930023009305AA83
:104370003D214846FFF73EFA9DF8133003B908B1D6
:10438000002004E02D1B26442744CCE701201DB06B
:10439000BDE8F083052201002DE9F043044687B013
:1043A000264600F05FF8234B46F85C3B04F50D7899
:1043B0003046FEF7ADFD04F20C474046FEF7A8FD7F
:1043C0003846FEF7BFFA04F58E60FEF7BBFA04F537
:1043D0009960FEF79DFD04F2A161782204F21C7041
:1043E000FEF741FE0025FF234FF0180984F86434DE
:1043F0004A462946C4F86C5484F8A056C4F8685458
:10440000684604F0B9F82B46694608223046FEF7A4
:10441000ABFD2B464A4669464046FEF7A5FD2B46B6
:10442000102269463846FEF7C7F8204607B0BDE8B7
:10443000F08300BFDC190100FF2280F86424002211
:10444000C0F8682400F0FABB054B1B684FF000422F
:10445000DA625863DA6A002AFCDA986BC0B27047F5
:104460003807FF1F064A0260002280F8542080F8B7
:10447000552080F8562080F8572080F85820704743
:104480007C29010038B504469DF810509DF81400B1
:1044900084F8541084F8580084F8552084F8563075
:1044A00084F85750012104F043F994F85700012192
:1044B000BDE8384004F03CB910B55B4A0C46A0B0EA
:1044C0000A21042001F0BAFA14F03F0400F0A98098
:1044D000224656496846013C07F0E2FA2D2C00F2CC
:1044E0009380DFE804F0171B1F23272B2F9133370E
:1044F0003B913F439147914B4F53919191919191B2
:10450000919191919191919157915B5F6391676BBB
:104510006F797D8701F0FAF945496EE001F0F6F90F
:1045200044496AE001F0F2F9434966E001F0EEF92E
:10453000424962E001F0EAF941495EE001F0E6F942
:1045400040495AE001F0E2F93F4956E001F0DEF956
:104550003E4952E001F0DAF93D494EE001F0D6F96A
:104560003C494AE001F0D2F93B493CE001F0CEF988
:104570003A4942E001F0CAF939493EE001F0C6F992
:1045800038493AE001F0C2F9374936E001F0BEF9A6
:10459000364932E001F0BAF935492EE001F0B6F9BA
:1045A00034492AE001F0B2F9334926E001F0AEF9CE
:1045B000324922E001F0AAF9314906E001F0A6F9FA
:1045C000304902E001F0A2F92F49684607F08EFA5F
:1045D0000A210246032020E001F098F92B490CE063
:1045E00001F094F92A49684607F080FA0A21024648
:1045F000022012E001F08AF92649684607F076FAAF
:104600000A210246012008E001F080F922496846AB
:1046100007F06CFA0A210246002001F00FFA002090
:1046200000E0012020B010BDC2230100D32301000F
:10463000E8230100F0230100FA2301000724010010
:104640002D2401003B2401005224010074240100A8
:1046500087240100A9240100BB240100C724010014
:10466000E0240100F2240100082501001A250100C0
:104670002F25010044250100592501006F25010067
:10468000862501009F250100B7250100CC250100EA
:10469000ED250100FA250100062601001FB504469C
:1046A000002190F8570004F015F8022004F090F86B
:1046B000124A0A21042001F0C1F90220FFF7C4FECA
:1046C0000020FFF7C1FE04AB0D4A03F8010D0A21DB
:1046D00000930420012301F0BDFA012194F8570052
:1046E00003F0F8FF4FF4FA63013BFDD19DF80F0092
:1046F000431E5842584104B010BD00BF19260100A6
:104700003526010070B5064665243046FFF7C6FF22
:10471000054670B9013CA4B23CB901F0F7F8064A6D
:104720000A21012001F08AF903E00A2004F050F880
:10473000EBE7284670BD00BF45260100F8B50F46DF
:104740000646002190F85700144603F0C3FF0220EC
:1047500004F03EF80D4A0A21042001F06FF901200F
:10476000FFF772FE013C7D1E3C44A54204D015F8C3
:10477000010FFFF769FEF8E7012196F8570003F0F3
:10478000A9FF4FF4FA63013BFDD1F8BD5C2601009F
:10479000F0B5054689B03A4A3A4C0A21042001F0A6
:1047A0004DF9012195F8580003F094FF0A2004F018
:1047B0000FF8002195F8580003F08CFF4FF4C870F3
:1047C00004F006F8012195F8580003F083FF0A2051
:1047D00003F0FEFF95F8557095F8566095F8541063
:1047E000204601F03BFC3946204601F0EDFB314606
:1047F000204601F09BFB204601F05CFBE37AF3B11D
:1048000072B6E37AD90705D51F4AE36811680B40F1
:10481000A3611360E37A1B499A0705D51B4A0B690C
:1048200010680340CB611360E37A16495B0705D536
:10483000174A4B69106803400B62136062B6236825
:10484000144AD968914207D013491960DA6002F11D
:1048500080421A61114A1A6003AC14225521204685
:1048600003F08AFE214628461422FFF767FF0094D2
:1048700014230B4A0A21042001F0ECF909B0F0BD21
:104880007C2601003807FF1F80E100E084E100E0A2
:1048900088E100E00540003901403F0000003F8012
:1048A0008226010030B59BB0FF248DF80E40541CC9
:1048B0008DF80F40D44300238DF81040D4248DF898
:1048C0000C308DF80D308DF81140DCB2A24205D9C4
:1048D00003AC1C44CD5CA5710133F6E70025911DA6
:1048E0002B46ECB28C4205F1010507DA0DF1680E9A
:1048F000744414F85C4C2344DBB2F2E71AAC214454
:10490000DB4301F85C3C1AAB02F108041A4403AD26
:10491000002302F8553C2946E2B2FFF70FFF00954D
:10492000A3B2034A0A21042001F094F91BB030BD60
:10493000962601002DE9F041074688461446FFF708
:10494000E1FE064638B3002197F8570003F0C2FE97
:10495000022003F03DFF114A0A21042001F06EF805
:104960000320FFF771FD013C08F1FF354444A542E7
:1049700008D0012003F02CFF0020FFF765FD05F8AB
:10498000010FF4E7012197F8570003F0A3FE4FF45D
:10499000FA63013BFDD13046BDE8F0819F2601005E
:1049A00030B5144B87B0044604AD186802909B885C
:1049B000ADF80C30204606222946FFF7BBFF04461F
:1049C000A0B10D4A00950A210420062301F042F906
:1049D000062202A9284606F079FD38B100F096FFBC
:1049E000064A0A21012001F029F80024204607B0D8
:1049F00030BD00BFBC230100BC260100C52601005C
:104A000010B50446FFF74EFF2046BDE81040FFF703
:104A1000C7BFFFFFF0B5531F4B2B97B00D4617468E
:104A200003D900F073FF314A2BE002AE3146FFF7A5
:104A300081FF002857D032460021381F884207DD09
:104A400012F8013B13B91478FF2C22D00131F5E79D
:104A50000024274D0AE016AB1A4412F8503C254AB0
:104A6000DB43DBB29D4214BF1546002500963B4652
:104A7000214A0A21042001F0EDF845B100F046FF7B
:104A80002A4601200A2100F0D9FF00202BE0E0B2E5
:104A900029E016AA0A4412F84E4C12F84D2C224472
:104AA000B2F5807F1DD14A1D2244974215DB0A1DB5
:104AB0009C4205DD581830440079E8540133F7E78B
:104AC000224464B12B78D52B09D100259142C2DA5A
:104AD000735C1D44EDB20131F8E7084DC6E7084D9F
:104AE000C4E7084DC2E717B0F0BD00BFA72701001B
:104AF000DB26010086270100C227010021270100D3
:104B000058270100F92601002DE9F84304462546FF
:104B10000420894690460A21174A1F4600F08EFF5E
:104B2000022305F8043F012229462046FFF768FFCB
:104B30000646E8B10D2229462046FFF76BFF0628FE
:104B400002D16379032B08D000F0E0FE0B4A0A2162
:104B5000012000F073FF00260AE0A37989F80030F5
:104B6000E37988F80030237A3B70089B627A1A70E8
:104B70003046BDE8F88300BFCC270100DF270100E5
:104B800070B5144A04460A21042000F057FF261D80
:104B9000142201232271A2716371E3710422314650
:104BA0002046FFF72DFF054688B1092231462046F1
:104BB000FFF730FF022802D16379152B07D000F0F0
:104BC000A5FE054A0A21012000F038FF00252846ED
:104BD00070BD00BFF92701000328010070B5154A18
:104BE00004460A21042000F029FF32232371FF2309
:104BF000A37101230522E371261D03236271237231
:104C000031462046FFF7FCFE054688B109223146B1
:104C10002046FFF7FFFE022802D16379332B07D02D
:104C200000F074FE044A0A21012000F007FF00256D
:104C3000284670BD142801003028010070B5144AC0
:104C400004460A21042000F0F9FE322323710123D7
:104C50006371261D0023A371032231462046FFF70E
:104C6000CFFE054688B1092231462046FFF7D2FE25
:104C7000022802D16379332B07D000F047FE054AA2
:104C80000A21012000F0DAFE0025284670BD00BF91
:104C900053280100642801002DE9F04704460E4620
:104CA000994696B017460A21474A042000F0C6FEEE
:104CB00000234A223B70251D89F800303360736061
:104CC000227101226271A371032229462046FFF757
:104CD00097FE8046002872D01C2229462046FFF706
:104CE00099FE022802D963794B2B09D000F00EFE01
:104CF000364A0A21012000F0A1FE4FF000085EE0D4
:104D0000A579334A2B460A21042000F0CDFE012D5F
:104D100055D1E57A042D08D0072D06D02B462C4A14
:104D20000A21022000F0C0FE49E004F10C012A46ED
:104D3000304603F087FB3D70277A637AA47A072D0B
:104D400043EA072709D13378802B13D0B7F5517F79
:104D500010D1202C0ED101230AE0042D0AD1337882
:104D6000802B07D1B7F5417F04D1202C02D103233A
:104D700089F8003004210A2000F0BEFD8246F0B11F
:104D80002B46144A00960A21042000F063FF2346B4
:104D90003A46114902A806F083FE99F80030012B2B
:104DA00001D10E4902E0032B03D10D4902A806F000
:104DB0009DFE02AA0A21042000F040FED046404693
:104DC00016B0BDE8F08700BFA42A010097280100B3
:104DD000B2280100BF280100C9280100F028010005
:104DE0000329010070B500249C4205DA0E5D155DB3
:104DF000754005550134F7E770BD30B501380C46F4
:104E0000631A9A4206DD14F8015B10F8013F6B400B
:104E10000370F5E730BD38B5541E0D46224601310A
:104E200003F010FB2A78025538BD10B5034601394E
:104E30001A1A914208DD1A7813F8014F520042EA1B
:104E4000D41203F8012CF3E7435C5B00435410BD1C
:104E500037B5094B094C1B680193019B0246151A93
:104E6000A94206DD02F8013B634303F58343273380
:104E7000F5E703B030BD00BF247AFF1F1DF301002A
:104E800030B503461C1AA14212DD13F8014B6240F3
:104E9000082402F0010552083DB182F06D4282F40F
:104EA000380282F4034282F02002013CF1D1E9E7AA
:104EB000104630BD38B514464FF0FF321D46FFF79F
:104EC000DFFF294602462046BDE83840FFF7D8BF3D
:104ED00030B52F4A2F4C99B00B21032000F0AEFDC6
:104EE00000232D482370FFF753FC0DF10F030093AF
:104EF0000DF10D020DF10E0303A92748FFF704FE83
:104F0000002835D09DF80E109DF80D309DF80C202E
:104F1000009104A8214906F0C3FD04AA0B21042036
:104F200000F08CFD9DF80F501D491E4815F0010F33
:104F300014BF0A46024615F0020F14BF0B46034683
:104F400015F0040F08BF0146009104A8164906F0A9
:104F5000A7FD042004AA0B2100F070FD0E48FFF706
:104F60003DFE28B10C48FFF70BFE08B1012323706A
:104F700023782BB900F0CAFC0C4A0B21012002E077
:104F80000B4A0B21032000F059FD19B030BD00BFC2
:104F90009F290100C075FF1FC06CFF1FBB290100C6
:104FA000982901009C290100E2290100162A01002C
:104FB0002A2A010010B50B210446104A042000F0F3
:104FC0003DFD00210E48FFF7C5F8A0B122460021A3
:104FD0000B48FEF73FFF70B12378102B11BF094A31
:104FE000094A074800211CBF0021A2F15C00BDE86E
:104FF0001040FEF71DBC002010BD00BF382A010084
:10500000C06CFF1F1C6DFF1FE873FF1F30B5224AE5
:1050100085B00B21042000F011FD204B1C784CB909
:1050200000F074FC1E4A0B21022000F007FDFFF780
:105030004FFF2DE000250DF1070301AA02A9194831
:105040000195FFF729FE044628B900F05FFC164AD7
:105050000B21012009E09DF80730012B9DF8043059
:1050600006D133B1114A0B21042000F0E7FC0FE018
:1050700033B90F4A0B21042000F0E0FC002407E0C4
:1050800000F044FC0B4A0B21022000F0D7FC2C4618
:10509000204605B030BD00BF492A0100C075FF1F82
:1050A0005C2A0100C06CFF1F912A0100B82A010090
:1050B000D02A0100E72A010008B50748FFF7BCF92C
:1050C00040B900F023FC054A0B210220BDE808404E
:1050D00000F0B4BC08BD00BFC06CFF1FFE2A010079
:1050E0002DE9F041324A88B007460E4604200B21D4
:1050F00000F0A4FC00212F48FFF72CF8044618B953
:1051000000F004FC2C4A42E00DF10F020021294876
:10511000FEF7A0FE044618B900F0F8FB274A36E077
:105120009DF80F30264A0B21042000F0BDFC9DF8AD
:105130000F80B8F1100F08D000F0E8FB214A0B21D6
:10514000012000F07BFC00242EE01F491948FFF7E6
:1051500001F8044618B900F0D9FB1C4A17E01C4AB4
:1051600014480021FEF764FB044618B900F0CEFB9A
:10517000184A0CE0002204AD0095434611460D4844
:10518000FFF768F8044638B900F0C0FB124A0B215B
:10519000012000F053FC07E02B4603CB06AB386040
:1051A000796003CB30607160204608B0BDE8F081C3
:1051B000162B0100C06CFF1F2B2B0100442B01009C
:1051C0005F2B0100792B01001F40AA00972B0100E3
:1051D000D475FF1FA82B0100BF2B010070B5054639
:1051E00088B00C46434A0B21042000F027FC04AE93
:1051F00028686968334603C32068616806AB03C347
:105200003D493E48FEF786FF044618B900F07EFB94
:105210003B4A67E03B4D384995F8353000930F2203
:1052200001233648FEF7F8FE044618B900F06EFB7D
:10523000354A57E030493148FEF78CFF044618B92B
:1052400000F064FB314A4DE0314A0021A2F50D70B7
:10525000FEF7EEFA044618B900F058FB2D4A41E07B
:1052600000232A4619462548FEF7D2FC044618B901
:1052700000F04CFB284A35E02A4600211F48FEF783
:10528000D7FA044618B900F041FB244A2AE0F0217D
:105290001A48FEF713FE044618B900F037FB204AFF
:1052A00020E00025102303AA294614488DF80C504D
:1052B0008DF80D508DF80E508DF80F50FEF77EFFD3
:1052C000044618B900F022FB164A0BE000961023A2
:1052D0002A4629460948FFF70DF8044630B900F080
:1052E00015FB114A0B21012000F0A8FB204608B055
:1052F00070BD00BFCF2B01001F40AA00C06CFF1F74
:10530000E52B0100D475FF1FF62B01000B2C0100CB
:10531000F46EFF1F2A2C0100522C01006E2C01009C
:105320008F2C0100A72C0100C22C010037B5224AA6
:105330000B21042000F082FB0DF10700FFF73AFE7D
:10534000044618B900F0E2FA1C4A2BE09DF8073039
:1053500073B31B491B48FEF7DDFE054650B90146F5
:10536000194A1848FEF764FA044618B900F0CEFA54
:10537000164A17E0164A00231946A2F15C00FEF710
:1053800047FC044618B900F0C1FA124A0AE0104A74
:105390000021A2F15C00FEF74BFA044638B900F098
:1053A000B5FA0D4A0B21012000F048FB00E02C4625
:1053B000204603B030BD00BFEA2C0100FC2C0100E8
:1053C0001F40AA00C06CFF1FE873FF1F142D0100CF
:1053D0001C6DFF1F382D0100552D010037B51A4AED
:1053E0000B21042000F02AFB0DF10700FFF7E2FD7E
:1053F000044638B900F08AFA144A0B21012000F063
:105400001DFB1EE09DF80730102B1AD00023104A18
:1054100010481946FEF7FCFB054618B900F076FA6D
:105420000D4A09E00A4A0B480021FEF701FA054639
:1054300038B900F06BFA094A0B21012000F0FEFA9E
:105440002C46204603B030BD722D0100FC2C01001B
:10545000E873FF1FC06CFF1F802D0100552D010058
:1054600008B5044A0B21042000F0E8FA024B186842
:1054700008BD00BF912D0100C475FF1FF0B5364A6D
:1054800087B004460D4604200B2100F0D7FA334BB9
:10549000334A1B680B21042000F006FB314B324AD3
:1054A0001B680B21042000F0FFFA304A0B21042076
:1054B00000F0C4FAFFF73AFF18B900F027FA2C4AB7
:1054C0000AE02C4A0B21042000F0B8FAFFF786FF0F
:1054D00028B900F01BFA284A0B21012037E0274A9F
:1054E0000B21042000F0AAFA02AE00230A2204AF26
:1054F000F118B5FBF2F002FB1055CD71FD18013B20
:10550000B4FBF2F113F1080F02FB1144EC710546F4
:105510000C46EDD11A4A0B21042000F08FFA082323
:10552000184A00960B21042000F094FB0B21042064
:1055300000970823144A00F08DFB39463046FFF7E8
:105540004DFE08B1114A00E0114A0B21042000F081
:1055500075FA07B0F0BD00BFA52D0100CC75FF1F87
:10556000B72D0100B077FF1FCE2D0100E52D010002
:10557000082E01001F2E0100442E0100542E0100B0
:10558000762E0100A02E0100B42E0100C82E0100CD
:10559000D12E0100F0B5314A87B00B21042000F074
:1055A0004DFAFFF733FD08B9002451E02C4D2C785B
:1055B0005CB12C4B19682C4B1868FFF75FFF2B4B25
:1055C00000241B6898472C7042E0294E357835B18D
:1055D000FFF7ACFE274B1B689847347038E004AEE9
:1055E00002AF31463846FFF77BFD0028DCD0224A67
:1055F0000B21042000F022FA0823204A00970B21F7
:10560000042000F027FB08231D4A00960B210420EC
:1056100000F020FB2C462B460A22F95C02FB051504
:10562000F15C0133082B02FB0414F6D12B46154A1A
:105630000B21042000F038FA0B2104202346124AE3
:1056400000F032FA29462046FBF7C6FE0028ABD010
:105650000E4B1C60FFF730FD07B0F0BDD92E0100E6
:10566000AD77FF1FB077FF1FCC75FF1FC875FF1FF9
:10567000AC77FF1FD075FF1FE22E0100A02E0100A6
:10568000B42E0100F52E0100042F0100C475FF1F88
:105690002DE9F04106460D4617460B210F4A104CE6
:1056A000042000F0CBF90F4A0F4B117841B90F4994
:1056B000097829B90E491E600F600121256011701B
:1056C0001B680C4A0B21042000F0EEF923680A4AFB
:1056D0000B210420BDE8F04100F0E6B9132F0100D2
:1056E000B077FF1FAD77FF1FCC75FF1FAC77FF1F93
:1056F000C875FF1F2B2F01003C2F010010B5084A71
:1057000004460B21042000F099F9064B1B7833B9AD
:10571000054B1A781AB9054A146001221A7010BD97
:105720004D2F0100AD77FF1FAC77FF1FD075FF1F16
:1057300070B50F4D0F4C104E2846FEF72DFE284633
:105740000E4D0F49224604F041FF2846FDF7E0FBCD
:1057500028460C4D2246314604F038FF2846FDF716
:10576000D7FB224631462846BDE8704004F02EBFE4
:10577000C06CFF1FF806FF1F9D290000E873FF1F84
:10578000FD570000D475FF1F13B5134A0B210420E9
:1057900000F054F9114B124800241C601622062315
:1057A0008DE80C00142115230522FEF76BFEFFF790
:1057B0008FFB102318220B490B48FDF7D5FB102354
:1057C00018220A490A48FDF7CFFB0A4B1C700A4B06
:1057D0001C7002B010BD00BF652F0100C475FF1F13
:1057E000C06CFF1F6F2F0100E873FF1F80290100AD
:1057F000D475FF1FAD77FF1FAC77FF1F0C4B10B5A3
:105800000446036000F59960FDF7C8F804F58E6062
:10581000FCF7CAFE04F20C40FCF7C6FE04F50D705E
:10582000FDF7BCF804F15C00FDF7B8F8204610BDA8
:10583000DC190100F8B521F00101002506464718E2
:105840002C46BE421FD036F8023B4FF6F1721C4484
:10585000B4FBF2F102FB114425440420B5FBF2F144
:1058600002FB1155094A0E2100F01EF92346084A91
:105870000E21042000F018F92B46064A0E210420C0
:1058800000F012F9DDE744EA0540F8BD872F01007A
:105890008E2F0100952F010070B5044608460D4675
:1058A00006F0AEF923680246294620465B68BDE84B
:1058B0007040184703681B68184708B5FFF7ECFFEE
:1058C00008BD0368C9B21B681847FFFF10B5054B38
:1058D000054A19780023DCB2A14202D99854013359
:1058E000F9E710BDFC06FF1FB477FF1F014B1954E9
:1058F000704700BFB477FF1F034B185C884234BF6A
:1059000000200120704700BFB477FF1F024A1368D0
:1059100001331360704700BFD477FF1F08B5042020
:10592000FFF7D4FF014B00221A6008BDD477FF1F98
:1059300030B58FB004460D46FBF730FCA0B103A88C
:10594000FBF732FC4FF47A700599B1FBF0F101914D
:105950009DF8111000919DF810309DF80F201A4904
:1059600006A806F09DF807E0184B19491B68039339
:10597000039A06A806F094F806A91648FFF78CFFCC
:10598000052C10D8DFE804F0030507090B0D1249B8
:105990000AE0124908E0124906E0124904E01249FF
:1059A00002E0124900E012490A48FFF775FF2B4652
:1059B000104A0B2106A806F025F806A90548FFF7AE
:1059C0006BFF0FB030BD00BFE82F0100247AFF1F2E
:1059D00004300100C408FF1F0A3001001530010027
:1059E000203001002B300100363001004130010031
:1059F0004C30010057300100052810B5144604D979
:105A0000FFF784FF0C460A4902200A4B1B788342A9
:105A10000DD3FFF78DFF21460748FFF73DFF0A2111
:105A20000548FFF74EFFBDE8104004F08FB910BDE8
:105A30005E300100B477FF1FC408FF1F052810B5B2
:105A400014460DD9FFF762FF102996BF114B124A79
:105A500053F8212011490220BDE81040FFF7CCBFC8
:105A60000F4B5B5C834213D3102996BF094B0A4945
:105A700053F82110FFF75CFF21460A48FFF70CFF9F
:105A80000A210848FFF71DFFBDE8104004F05EB989
:105A900010BD00BF9C2F0100E02F01005E3001000F
:105AA000B477FF1FC408FF1F052838B515461C46EC
:105AB0000DD9FFF72BFF102996BF164B164A53F846
:105AC000212016490220BDE83840FFF795BF144B4E
:105AD0005B5C83421DD3102996BF0E4B0E4953F8D1
