:10000000F8FF022099010000F5760000C17600009B
:10001000C1760000C1760000C1760000C176000004
:10002000C1760000C1760000C1760000F5760000C0
:10003000F5760000C1760000997300005D74000041
:10004000F5760000F5760000F5760000F576000004
:10005000F5760000F5760000F5760000F5760000F4
:10006000F5760000F5760000F5760000F5760000E4
:10007000F5760000F5760000F5760000F5760000D4
:10008000F5760000F5760000F5760000F5760000C4
:10009000F5760000F5760000F5760000F5760000B4
:1000A0002573000031730000F5760000F57600003E
:1000B000F5760000F5760000F5760000817C000002
:1000C000F576000081900000F5760000E1910000D7
:1000D000F576000009930000F5760000F576000043
:1000E000F5760000F5760000F5760000015300007B
:1000F000F5760000F5760000F5760000F576000054
:10010000F5760000F5760000F5760000F576000043
:10011000F5760000757F0000F5760000F5760000AA
:10012000F5760000F5760000F5760000F576000023
:10013000F5760000F5760000F5760000F576000013
:10014000F5760000F576000031940000F5760000A9
:1001500059950000F5760000F5760000F576000070
:10016000F5760000F57600003D730000F57600009E
:10017000F5760000F5760000F5760000F5760000D3
:10018000F5760000F5760000F5760000F5760000C3
:10019000F5760000F5760000584B4CF2205210B571
:1001A0001A804DF628121A8000BF00BF07F0A6FA89
:1001B000534B4FF030621A60524A9A60524ADA60EA
:1001C000524B4FF470021A60514A136813F4807353
:1001D00001BF50490B604FF4A85313604E4B4F4979
:1001E0001A78100742BF1A7842F008021A704C4B76
:1001F0002A221A704B4A4C4B8B4204D252F8040FFD
:1002000043F8040BF8E7494B494A0021934202D2D4
:1002100043F8041BFAE7474A4748002350F82310E5
:1002200042F823100133662BF8D1444B444A802115
:1002300003F8011B9342FBD1424B3E4A1A60424BEA
:100240008A221A70A3F5805324225A70A0221A70B1
:100250009A799107FCD59A79D206FCD43B4A9379D6
:1002600003F00C03082B394BF9D103221A714622F3
:100270005A719A799406FCD534498A79334B5006E1
:10028000FBD5334A4FF08271116009215160202261
:100290001A709A7902F00C020C2AFAD12D4B2E4AD0
:1002A0001A602E4B2E4A1A6000225A60072243F829
:1002B000042C2C4AC3F80C2D62B607F021FB154B19
:1002C0001B68DA0705D5284807F076FA274B284A35
:1002D0001A60284B1B785B0609D5244C244B2268F6
:1002E0009A4204D1204807F067FA0023236009F0FE
:1002F00069FE07F009FA07F01EF9FEE70E20054037
:1003000030800440823F04000100002B88ED00E0B3
:1003100010D0034014D0034002D007402013FF1F29
:1003200000E0074038280100F806FF1F2013FF1FD8
:10033000DC80FF1F0002FF1F0000000000E400E05F
:1003400056E400E008ED00E00050064000400640A2
:100350004480044004800440C010050014E000E024
:10036000BFD40100000020208078BC5C1CE003406A
:10037000A5C3945A00F00740FFFFFFFFFFFFFFFFF8
:10038000FFFFFFFFFFFFFFFFFFFFFFFFFFFFFFFF7D
:10039000FFFFFFFFFFFFFFFFFFFFFFFFFFFFFFFF6D
:1003A000FFFFFFFFFFFFFFFFFFFFFFFFFFFFFFFF5D
:1003B000FFFFFFFFFFFFFFFFFFFFFFFFFFFFFFFF4D
:1003C000FFFFFFFFFFFFFFFFFFFFFFFFFFFFFFFF3D
:1003D000FFFFFFFFFFFFFFFFFFFFFFFFFFFFFFFF2D
:1003E000FFFFFFFFFFFFFFFFFFFFFFFFFFFFFFFF1D
:1003F000FFFFFFFFFFFFFFFFFFFFFFFFFFFFFFFF0D
:10040000FFFFFFFFFFFFFFFFFFFFFFFFDEF9FFFF23
:1004100010B5054C237833B9044B13B10448AFF33E
:1004200000800123237010BD2013FF1F0000000077
:1004300034280100084B10B51BB108490848AFF338
:1004400000800848036803B910BD074B002BFBD0A0
:10045000BDE81040184700BF000000002413FF1F34
:10046000342801002013FF1F000000007047704770
:1004700010B50C21044607F07DF9204610BDFFFFA2
:1004800010B50C4A04460121042004F059FB012355
:10049000237063701923A3707823E37004F0B8FC11
:1004A000207104F0B7FC0523A37100236071E37190
:1004B000082010BD6DE300002DE9F843064689468B
:1004C00017460121154A042004F03AFB144A937898
:1004D00055785D43202D38462C4628BF20240AF04D
:1004E0000FFC85B24FF00208AC4286F8008086F817
:1004F000019006D204F08CFA0A4A0121404604F029
:100500001FFBA54228BF2546ACB222463946B01C87
:1005100007F01AF8A01CC0B2BDE8F88385E300001C
:100520003C13FF1F9BE3000010B5064A044601215F
:10053000042004F005FBFF23032020706370A370E8
:1005400010BD00BFBBE3000010B5054A0446012101
:10055000042004F0F5FA04232370012010BD00BF2D
:10056000CFE3000038B5074A04460D4604200121B8
:1005700004F0E6FA052323702B0A6370A5700320AC
:1005800038BD00BFEBE3000010B5054A0446012169
:10059000042004F0D5FA06232370012010BD00BF0B
:1005A000FFE3000010B5054A04460121042004F0D1
:1005B000C7FA07232370012010BD00BF11E400001B
:1005C00010B5054A04460121042004F0B9FA0823B5
:1005D0002370012010BD00BF23E4000010B50A4ABB
:1005E00004460121042004F0ABFA2046092300F858
:1005F000013B064A064B07490AF0D4FA0123237748
:10060000002363771E2010BD34E40000591F8A00C8
:10061000E471AB0048E4000010B5012188B0044645
:100620000A4A042004F08CFA094B22781A70627886
:100630005A70A2789A706846E278DA70FFF720FF65
:10064000694601F0DFFC08B010BD00BF83E4000084
:100650003C13FF1F30B50F4A0F4C85B005460121F2
:10066000042004F06DFA294601A804F0C1FB029BA6
:10067000A360A91C9DF80C30237301A804F0B8FBFB
:10068000029B63619DF80C30237601F035FD05B0C7
:1006900030BD00BF97E400003C13FF1FF0B50646D5
:1006A00089B0254A0121042004F04AFAF378B5788C
:1006B000224A3778747803EB0525ADB22B46012129
:1006C000042004F073FA04F0AFF8064618B1294686
:1006D00000F05CFF70B96846FFF756FF142104462E
:1006E000174A6844FFF7E8FE20446946C0B201F0AB
:1006F00089FC1EE004EB0724A4B22146304600F03A
:1007000079FF83B2E41AA4B22246E9B2304600F07F
:1007100091FF48B121466846FFF724FF694601F082
:1007200071FC00F0D3FF04E06846FFF72DFF694637
:10073000DDE709B0F0BD00BFABE40000BFE400009E
:10074000D6E4000000B5074A89B00121042004F076
:10075000F7F96846FFF718FF694601F053FC09B046
:100760005DF804FBE7E4000008B5054A0121042018
:1007700004F0E6F901F0C0FCBDE8084000F0E4BF79
:10078000FAE4000008B5054A0121042004F0D8F974
:1007900001F01AF8BDE8084001F0AEBC0EE500001B
:1007A00000B5074A89B00121042004F0C9F9684660
:1007B000FFF7F8FE694601F025FC09B05DF804FB7F
:1007C00022E5000008B504F023F90121034A084698
:1007D00004F0B6F9BDE8084001F09CBC37E5000024
:1007E00008B5044A0121042004F0AAF9BDE8084034
:1007F00001F082BC5CE5000008B5044A0121042038
:1008000004F09EF9BDE8084001F076BC72E50000F6
:1008100000B5074A89B00121042004F091F9684627
:10082000FFF7CEFE694601F0EDFB09B05DF804FB71
:1008300087E5000030B5044695B0224A0121042026
:1008400004F07EF92288ADF80C202246A37852F8F5
:10085000030F8DF80E30516804AB03C30025906878
:10086000186022468DF81D5052F80F0F8DF80F506A
:10087000516808AB03C390681860134A8DF82D5077
:1008800003AB0121042004F0D3F904AB0F4A01218A
:10089000042004F0CDF91B3408AB0D4A01210420DB
:1008A00004F0C6F902230B4A00940121042004F04D
:1008B00053FA0CA8FFF792FE0CA901F0A3FB15B0A8
:1008C00030BD00BF9CE50000B0E50000C3E50000BE
:1008D000D6E50000E9E50000112803BF0878B0FA6A
:1008E00080F0400900207047142804D10878431E86
:1008F00058425841704700207047142803BF0878B9
:10090000B0FA80F040090020704708B503F08CFF72
:10091000003018BF012008BD08B503F085FFB0FA0C
:1009200080F0400908BDFFFF10B5114A90B00121C9
:10093000042004F005F90F4B1A78022A1C4602D154
:10094000FFF7E3FF48B92378032B0DD1FFF7E4FF4E
:1009500050B16846FFF7F8FD02E06846FFF7E4FD96
:10096000694601F04FFB01E001F0C6FB10B010BD7D
:10097000FCE500005813FF1F38B53C4A05460C46FD
:100980000420012104F0DCF8A5F11000072862D84A
:10099000DFE800F06A04161A40616156237833B12B
:1009A000012B09D1601CBDE83840FFF753BE601C25
:1009B000BDE83840FFF730BE04F02AF82C4A4DE07D
:1009C000BDE83840FFF7B0BF2378052B1ED8DFE81D
:1009D00003F003080C111519601CBDE83840FFF73F
:1009E0005DBEBDE83840FFF7ADBE601CBDE83840D5
:1009F000FFF7BABEBDE83840FFF7C4BEBDE83840D7
:100A0000FFF7CEBEBDE83840FFF7DCBE04F000F8CB
:100A1000184A23E02378012B0AD005D3022B0BD1EF
:100A2000BDE83840FFF7F4BEBDE83840FFF7D8BE58
:100A3000BDE83840FFF7E0BE03F0EAFF0E4A0DE0E4
:100A4000237823B9A01CBDE83840FFF7F3BE03F0BC
:100A5000DFFF0A4A02E003F0DBFF094A01210846F2
:100A6000BDE8384004F06CB838BD00BF08E60000AF
:100A70000FE6000024E6000038E600004EE6000025
:100A800067E60000132804D10878031F5842584134
:100A9000704700207047132803BF0878B0FA80F031
:100AA000400900207047132806D108780138022831
:100AB0008CBF0020012070470020704738B5084ADD
:100AC00004460D460420012104F03AF82946204648
:100AD000FFF702FF10B1034B01221A7038BD00BFAF
:100AE00073E600005813FF1F38B50A4A04460D4646
:100AF0000420012104F024F8102C01D1002205E08B
:100B000029462046FFF7F0FE10B10222024B1A7070
:100B100038BD00BF87E600005813FF1F38B50D4AE7
:100B200004460D460420012104F00AF8102C01D1DE
:100B300000220CE029462046FFF7DFFE08B1012223
:100B400005E0122C05D1FFF7E0FE10B10322024BA5
:100B50001A7038BD9BE600005813FF1F38B50F4AC6
:100B600004460D460420012103F0EAFF102C01D1B8
:100B700000220DE0FFF7D0FE68B929462046FFF7B6
:100B800081FF40B929462046FFF785FF28B104229E
:100B9000034B1A7038BD0222FAE738BDAEE60000FA
:100BA0005813FF1F38B50F4A04460D460420012193
:100BB00003F0C6FF102C01D100220FE02946204689
:100BC000FFF771FF08B1032208E0FFF7A5FE20B987
:100BD00029462046FFF756FF10B10222024B1A7039
:100BE00038BD00BFC6E600005813FF1F034B044882
:100BF00000211C22197006F041BD00BF5813FF1FD1
:100C00003C13FF1F38B504460D46FFF7B5FE194BE0
:100C10001B78042B22D8DFE803F003090F151B0013
:100C200029462046BDE83840FFF748BF2946204600
:100C3000BDE83840FFF758BF29462046BDE8384098
:100C4000FFF76CBF29462046BDE83840FFF786BF56
:100C500029462046BDE83840FFF7A4BF03F0D8FE80
:100C6000054A0121002003F06BFFBDE8384000F089
:100C7000EBBD00BF5813FF1FD6E6000010B50D4AAC
:100C800004460121042003F05BFFA4F110000728B3
:100C900007D8DFE800F00D040D0404060604012067
:100CA00010BD03F0B5FE0121034A084603F048FFDA
:100CB000002010BDE4E6000067E6000038B51E4ADB
:100CC00005460C460420012103F03AFFA5F110006F
:100CD000072823D8DFE800F02904290A1722221D5B
:100CE000012C24D903F094FE144A1AE0052C06D8EE
:100CF000DFE804F01D1B031B1B1D022038BD03F0A1
:100D000087FE0F4A0DE0022C0FD903F081FE0D4A39
:100D100007E074B103F07CFE0B4A02E003F078FEBA
:100D20000A4A0121084603F00BFF002038BD0420C9
:100D300038BD1D2038BD00BFF2E600000FE6000000
:100D400024E6000038E600004EE6000067E60000FA
:100D50000648074941600022012382600161426127
:100D600003730376034A044908F0B2BC3C13FF1F27
:100D700054E30000F806FF1F6F040000012106F095
:100D800077B990F8383090F839209A4281BF5A1CD0
:100D90001B1880F83820187E98BF4FF0FF3070473E
:100DA000031103EB830300F00F0000EB4300C0B21C
:100DB0007047FFFF08B5024806F01EF8012008BD85
:100DC000E407FF1F38B50F4C0125D0230221204630
:100DD00084F83B3084F85E5084F85D5005F0C2FF23
:100DE0002046FFF7CBFF2B462A466821204606F017
:100DF000BBF92046FFF7C5FF00F0E000E03818BF60
:100E0000012038BDE407FF1F2DE9FF47294C0646A6
:100E1000D02301250321204684F83B3084F85E501E
:100E200084F85D5005F09EFF2046FFF7A7FF2B4694
:100E300007226821204606F097F92046FFF7A1FF18
:100E400000F07F00FFF7ACFF82462046FFF799FFD6
:100E5000C0B2FFF7A5FF81462046FFF792FFC0B260
:100E6000FFF79EFF80462046FFF78BFFC0B2FFF7DB
:100E700097FF07462046FFF784FF2046FFF781FFD4
:100E8000C0B2FFF78DFF05462046FFF77AFFC0B2DC
:100E9000FFF786FF002300F5FA6103938DE8000752
:100EA0003B462A4689B2304603F0E0FF304604B0A4
:100EB000BDE8F087E407FF1F1FB501AC2046FFF730
:100EC000A3FF06F0E9FC084B9DF809105A799142FE
:100ED0001FBF064A106094E8070083E80700044B30
:100EE00001221A7004B010BD5C13FF1F6C13FF1FAA
:100EF0006813FF1F7FB5154C154A002602210420F8
:100F0000267003F01DFE134B01AD1E70124B3146CF
:100F100028461E6004F038F895E807000F4B83E878
:100F200007000F48FFF746FF0D48FFF74BFF30B9AA
:100F300003F06EFD0B4A0221012003F001FEFFF7D2
:100F4000BBFF0123237004B070BD00BF6913FF1FF6
:100F500001E700006813FF1F6C13FF1F5C13FF1FE6
:100F60005913FF1F0CE70000014B1878704700BFB2
:100F70006913FF1F10B5044606F08EFC0E4B19686E
:100F80000E4B8842A0EB010138BF01F1FF319942BD
:100F900009D90B490B4803F0FBFFFFF78DFF2046F3
:100FA000FFF7E8FF06E0074803F0F2FF0549204697
:100FB00003F072FF204610BD6C13FF1F40420F006C
:100FC0003F420F005C13FF1F0021014803F0DCBF0C
:100FD0005C13FF1F30B50C218BB00420394A3A4C0A
:100FE00003F0AEFD002539492560012000F068FDC1
:100FF00018B903F00DFD364A09E003AA1C21284662
:1010000000F0B6FD1B2807D803F002FD314A0C2181
:10101000012003F095FD52E02F4A0C21032003F03C
:101020008FFD039B2D4A0C21032003F0BFFD049983
:10103000684603F0A9FF6B46294A0C21032003F000
:1010400037FE05AB274A8DF823500C21032003F00F
:10105000EFFD099B244A0C21032003F0A7FD099B07
:101060002360B3F5007F09D903F0D2FC1F4A0C219D
:10107000022003F065FD4FF40073236023681C4ACF
:1010800003EB830103EB4101890089B21C2000F0CE
:101090006FFD22682C235343984209D203F0B8FC19
:1010A000144A0C21012003F04BFD074B00221A606B
:1010B000114A0C21032003F043FD00F049FD0BB061
:1010C00030BD00BF3CE700008413FF1F4CE7000069
:1010D00058E700006DE7000089E70000BAE700006C
:1010E000CBE70000DCE70000EDE70000FEE70000D2
:1010F0009413FF1F3CE8000053E8000010B5114CAA
:10110000114A0C21042003F01BFDFFF763FF236845
:101110009BB903F07DFC0D4A0C21022003F010FD69
:10112000FFF758FF236843B903F072FC084A0C210B
:101130000120BDE8104003F003BD064B80221A7366
:1011400010BD00BF8413FF1F70E8000078E80000A6
:10115000A4E800007013FF1F70B50E4A0C2104466E
:10116000042003F0EDFC0C4B0C491A682C250023DD
:10117000934206D005FB03100668A64209D001334E
:10118000F6E703F045FC0220054A0C2103F0D8FCE9
:10119000002070BDC4E800008413FF1F9413FF1FDC
:1011A000D2E8000010B50C46FFF7D6FF48B1836ABD
:1011B000A34206D1074A0C21042003F0C1FC012000
:1011C00010BD03F025FC044A0C21022003F0B8FCFA
:1011D000002010BDF5E8000010E9000030B53A4AE3
:1011E00089B00C21042003F0ABFC3849012000F049
:1011F00067FC044638B903F00BFC354A0C2101208A
:1012000003F09EFC5CE000F041FD324A03460C21F5
:10121000042003F0CBFC00F039FD00281ADC2E4A34
:101220000C21032003F08CFC01A8FFF7A3FE01A80A
:1012300003F042FE0025059001230C2104A804932D
:10124000069503F079FB04AA07901021284600F0C8
:10125000C3FC2CE0002000F027FD04AA1021002090
:1012600000F086FC0F2805D803F0D2FB1B4A0C21A6
:10127000012018E00C2104A803F05EFB079B184A2C
:1012800005460C21042003F091FC2B46154A0C2145
:10129000042003F08BFC079B9D4208D003F0B8FBB1
:1012A000114A0C21002003F04BFC002408E004ABA1
:1012B00003CB0E4A106018685160906000F048FC43
:1012C000204609B030BD00BF2CE9000047E900000E
:1012D00053E900006FE9000087E90000B8E9000069
:1012E000D6E90000ECE9000002EA00008813FF1FC5
:1012F0001FB5164A0C21042003F022FC14490120DA
:1013000000F0DEFB044638B903F082FB114A0C21E1
:10131000012003F015FC15E00F4A106851686B4678
:1013200003C3906818600C21684603F005FB6A4609
:1013300003901021002000F04FFC002000F0B4FCCE
:1013400000F006FC204604B010BD00BF27EA0000F4
:1013500047E9000053E900008813FF1FF0B5314A48
:1013600089B00C21042003F0EBFB2F49012000F091
:10137000A7FB054638B903F04BFB2C4A0C21012092
:1013800003F0DEFB4BE000F081FC294F294A0346C5
:101390000C21042003F00AFCB868182601387043B9
:1013A000103000F081FCB868013802AC704331465F
:1013B0002246103000F0DCFB33461F4A00940C211B
:1013C000042003F0C9FC1421204603F0B5FA079B62
:1013D0001A4A06460C21042003F0E8FB3346184A5B
:1013E0000C21042003F0E2FB079B9E4208D003F08F
:1013F0000FFB144A0C21002003F0A2FB00250EE095
:10140000114B06AE224603CAB24218605960144618
:1014100003F10803F6D11068186000F099FB284624
:1014200009B0F0BD43EA000047E9000053E90000BD
:101430008813FF1F6FE900005CEA0000D6E9000096
:10144000ECE9000002EA00007013FF1F70B5214AAA
:101450008AB00C21042003F073FB1F49012000F027
:101460002FFB044638B903F0D3FA1C4A0C210120A3
:1014700003F066FB2AE01A4B04AA03F11006154696
:1014800018685968144603C40833B3422246F7D19A
:10149000186820601421284603F04EFA114C099078
:1014A0002946182000F0DEFB002000F0FDFB00F0D4
:1014B0004FFBA36801A80133A360FFF75BFD01A800
:1014C00003F0FAFC6060FFF713FF044620460AB001
:1014D00070BD00BF69EA000047E9000053E9000061
:1014E0007013FF1F8813FF1FF0B5234A87B00C212C
:1014F000042003F025FB2149012000F0E1FA054614
:1015000038B903F085FA1E4A0C21012003F018FBBC
:101510002FE01C4B6A4603F110076C4618685968A7
:10152000164603C60833BB423246F7D1186830600E
:101530001421204603F000FA134B059098681821F7
:10154000013848432246103000F046FB002000F0EE
:10155000ABFB0C4B224604AE144603CCB4421860DD
:101560005960224603F10803F6D12068186000F0A4
:10157000EFFA284607B0F0BD7FEA000047E9000017
:1015800053E900007013FF1F8813FF1F38B5154A79
:1015900004460D4604200C2103F0D2FA2046FFF742
:1015A000DBFD0446A8B10123013D03FA05F52B46F6
:1015B0000D4A0C21042003F0F9FA0420A38C0B4AF5
:1015C0000C2103F0F3FAA38C2B420CBF0120002066
:1015D00038BD03F01DFA064A0C21022003F0B0FAD0
:1015E000204638BD99EA0000A9EA0000B5EA0000EB
:1015F000C1EA000038B50D4A04460D4604200C210E
:1016000003F09EFA2046FFF7A7FD044628B1C08CE0
:1016100064236843B0FBF3F038BD03F0F9F9044AE2
:101620000C21022003F08CFA204638BDD5EA0000D8
:10163000C1EA00002DE9FF411F4C80460F461646C7
:101640000C211E4A04201D4603F07AFA237B012B4D
:1016500003D803F0DDF91A4A05E0FFF7BFFD40B9F2
:1016600003F0D6F9174A01200C2103F069FA002093
:101670001FE0154B9B6823B923706370A370E37060
:1016800006E0FFF76BFE0028EAD0236801332360F1
:10169000002301A82373C4F808806773C4F80E60A0
:1016A0006582FFF767FC01A803F006FC6060FFF7A6
:1016B000CDFE04B0BDE8F0817013FF1FEBEA00001F
:1016C00001EB000045EB00008813FF1F30B5194AFD
:1016D00085B00C21042003F033FAFFF73FFE0446E7
:1016E00028B903F095F9144A0C2101201DE0134C90
:1016F000237B43B103F08CF9114A0C21012003F044
:101700001FFA002413E001A801252573FFF732FC1E
:1017100001A803F0D1FB6060FFF7E6FE044630B994
:1017200003F076F9074A0C21284603F009FA20460F
:1017300005B030BD76EB00008DEB00007013FF1F8D
:10174000A9EB0000DCEB000030B51A4A85B00C2193
:10175000042003F0F5F9FFF701FE044628B903F071
:1017600057F9154A0C2101201EE0144C257B012D50
:1017700008D003F04DF9124A0C21012003F0E0F9E2
:10178000002413E0032301A82373FFF7F3FB01A850
:1017900003F092FB6060FFF7A7FE044630B903F048
:1017A00037F9084A0C21284603F0CAF9204605B04B
:1017B00030BD00BFF9EB00008DEB00007013FF1F80
:1017C00011EC0000DCEB000030B51A4A85B00C21AA
:1017D000042003F0B5F9FFF7C1FD044628B903F072
:1017E00017F9154A0C2101201EE0144C257B012D10
:1017F00008D003F00DF9124A0C21012003F0A0F9E2
:10180000002413E0112301A82373FFF7B3FB01A801
:1018100003F052FB6060FFF767FE044630B903F047
:10182000F7F8084A0C21284603F08AF9204605B04B
:1018300030BD00BF45EC00008DEB00007013FF1FB2
:1018400011EC0000DCEB0000704738B501220446C3
:101850000D4605F0F5F9024628B929462046BDE8AF
:10186000384005F0EDB9012038BDFFFF0421F8B57F
:10187000344A354F354C364D084603F061F90023A4
:101880003B702370FE232B7003F018FE064603F016
:1018900003FEA8701EB103F0BBF82E4A07E02946EC
:1018A0002D48FFF7D2FF38B903F0B2F82B4A0421D4
:1018B000012003F045F914E02749294804F0C4FB4E
:1018C0000421012308463B7003F098F848B1042135
:1018D0000846244A03F034F932460721204804F030
:1018E000AFFE0F220121204804F08EF918B903F051
:1018F0008FF81E4A07E01C491D48FFF7A6FF40B9B4
:1019000003F086F81B4A04210120BDE8F84003F0EB
:1019100017B91749184804F097FB0421012308461A
:10192000237003F06BF858B104210846134A03F002
:1019300007F9002207211048BDE8F84004F080BEF6
:10194000F8BD00BF5BEC0000E46BFF1F306CFF1FB5
:10195000316CFF1F63EC0000946BFF1F86EC0000EE
:101960000C6CFF1FB8EC0000346CFF1FD5EC0000BE
:10197000BC6BFF1FF8EC0000E86BFF1F2AED0000B6
:101980000A7902714A7942718A7982718A68826021
:10199000CA68C2600A6902610A7D02758A69826149
:1019A000CA69C2610A6A02627047FFFF30B504214A
:1019B0008FB00546394A084603F0C2F8384B059304
:1019C000384B9B790024012B8DF818408DF81A4074
:1019D00005D803F01DF8344A042102203DE02B5DB8
:1019E0002F2B19D08BB904210846304A03F0A8F8F0
:1019F000042108462A4603F0A3F813232A4629495E
:101A000005A804F067FD60BB22E00134102CE6D18C
:101A100002F0FEFF264A1EE02246294601A805F0F4
:101A200093FD0EAB53FA84F30421002203F8342C07
:101A30000846204A03F084F80421084601AA03F06E
:101A40007FF8012301AA174905A804F043FDB0B9A6
:101A500002F0DEFF184A0421012003F071F8002093
:101A60001AE0104804F09AFC18B902F0D1FF134AAA
:101A7000F1E705A90B48FFF783FF01200CE00948B7
:101A800004F08CFC0028F0D005A90648FFF778FF89
:101A9000601C2844FFF78AFF0FB030BD47ED0000FF
:101AA00064220100386CFF1F54ED000081ED00003E
:101AB000B5ED0000D5ED00008BED0000A0ED0000BD
:101AC00038B50D4604210446184A084603F038F894
:101AD000174804F063FC012C0AD1164B1B782BB974
:101AE00002F096FF144A042102201AE013490BE089
:101AF000022C11D1124B1B782BB902F089FF114A2D
:101B0000042120460DE010490948FFF739FF284617
:101B1000BDE83840FFF74ABF02F07AFF0B4A0421C4
:101B2000012003F00DF8002038BD00BFEAED0000F1
:101B3000386CFF1FE46BFF1FF3ED00000C6CFF1F00
:101B4000306CFF1F1EEE0000E86BFF1F49EE000027
:101B500008B504210846044A02F0F2FF0348BDE834
:101B6000084004F01BBC00BF60EE0000386CFF1F93
:101B70002DE9F0410F46144C0421064690460846D4
:101B8000124A02F0DDFFA579012D11D13146204620
:101B900004F0A8FB28B902F03BFF0D4A04212846B7
:101BA0000BE03A4641462046BDE8F04104F0F8BA61
:101BB00002F02EFF074A0421012002F0C1FF4FF07E
:101BC000FF30BDE8F08100BF386CFF1F76EE0000EB
:101BD0007FEE000093EE00002DE9F0410F461B4E12
:101BE0000421044690460846194A02F0A9FFB57937
:101BF000012D20D12146304604F074FB18B902F0C3
:101C000007FF144A11E03A464146304604F09CFD75
:101C1000041E03DA02F0FCFE0F4A06E0304604F030
:101C200091FB28B902F0F4FE0C4A0421284607E093
:101C30002046BDE8F08102F0EBFE094A04210120B4
:101C400002F07EFF4FF0FF30BDE8F081386CFF1FDF
:101C5000B5EE00007FEE0000BFEE0000D3EE000006
:101C600093EE000038B50D4604210446054A0846A7
:101C700002F066FF044B2A4621469869BDE83840C9
:101C8000FFF7AABFEEEE0000386CFF1F08B5042175
:101C90000846034A02F054FF024B986908BD00BF92
:101CA000F9EE0000386CFF1F30B5C3B002AC22461D
:101CB0004FF480710546FFF75BFF38B902F0A8FECC
:101CC0000E4A0421012002F03BFF14E02B460C4A8F
:101CD0000421052002F06AFF0A4B0B4A9B6904218C
:101CE000052002F063FF00944FF48073074A04213B
:101CF000052003F031F843B030BD00BF01EF000014
:101D000016EF0000386CFF1F24EF000032EF0000D8
:101D10000D4A002393700D4A93700D4A0221116001
:101D200082F820300B4A116082F820300A4A0B49B1
:101D30001371116093710A4A137111609371094A0A
:101D40001371116093717047316CFF1F346CFF1F6A
:101D5000946BFF1FBC6BFF1F0C6CFF1F6422010004
:101D6000E86BFF1F386CFF1F70B5084C084E254606
:101D70000849074800F0DCF9207018B105493078AF
:101D8000FEF740FF2B78002BF2D170BD5D6CFF1F7A
:101D90005C6CFF1F5E6CFF1F10B502F041FE04205B
:101DA00002F016FE0421002002F022FE03210A2088
:101DB00002F01EFE0321082002F01AFE0321092072
:101DC00002F016FE0321052002F012FE2D4C032125
:101DD0000E2002F00DFE41F2883005F07BFD224618
:101DE0000021032002F0ACFE274A0021032002F06C
:101DF000A7FE264A0021032002F0A2FE244A002169
:101E0000032002F09DFE22460021032002F098FEEE
:101E1000204A0021032002F093FE1F4A00210320E4
:101E200002F08EFEFFF766F8FFF720FDFFF766F978
:101E300000F086F8FEF7DAFE02F030FD174A0021C6
:101E4000032002F07DFE164B02221A70154B45F25C
:101E5000E4711980144B1A680020186002F04002E7
:101E6000124842F02A0201601A60114A11491160B9
:101E70001A6842F040021A600F4B4FF400621A6079
:101E800010BD00BF40EF000067EF00008EEF0000C4
:101E9000B5EF00007D170100DCEF0000F0EF00005F
:101EA000BC77FF1FBE77FF1F0090034008900340E0
:101EB0007007FF1F691D000004E100E008B5042061
:101EC000054A002102F03CFE02F052FC4FF4FA7089
:101ED000BDE8084005F0FEBC10F0000038B5074A28
:101EE00004460D460420052102F02AFEA0B20DB1E1
:101EF00040F48070BDE8384005F024BEB9EE000023
:101F000010B50D4A04460521042002F019FE05F023
:101F10007DFE002809DC094A0521022002F010FE9E
:101F20004FF47A63013BFDD1F1E705F07FFE2070AD
:101F3000C0F3002010BD00BF381601001BF00000E8
:101F400008B5094A0521042002F0FAFD46F2A8105E
:101F500005F03EFDA42005F0B1FD044A00231370F6
:101F6000034A137008BD00BF30F00000AC6CFF1FC7
:101F7000A06CFF1F37B505F049FE041E1D4D07DD9F
:101F80001D4A0521042002F0DBFD00232B702EE00A
:101F9000032005F041FC012826D1184A0521042020
:101FA00002F0CEFD2A78164B82B91B680093009B85
:101FB00013F1650F8ABFAB60643364236B604FF02D
:101FC000010398BFAA602B70002011E01B680193E9
:101FD000019BA9686A685B1A9A424FF0000406D216
:101FE0002C70FFF7ADFF02E00020287000E02046D3
:101FF00003B030BDAC6CFF1F39F0000054F000009E
:10200000087AFF1F2DE9F04186B00D460646009183
:102010000346344A0521042002F09EFE06F1FF38F3
:102020006F1EA8440024474508D017F8010F00216F
:10203000FFF754FF3B781C44E4B2F4E7012120464B
:10204000FFF74CFF284A294C13680493049B274F41
:10205000991D8ABFA360053305239046636098BF2E
:1020600000224FF0010398BFA26023702378B3B120
:10207000D8F800300593059BB9687A685B1A9A42D4
:102080000DD21A4B00221A7004E09DF80F302BB3CA
:10209000AA2B18D129463046FFF7B4FF1FE0FFF7FF
:1020A00069FF0028E2D00DF10F00FFF729FF044679
:1020B0000028EAD002F0ACFC01200D4A052102F014
:1020C0003FFD00200BE0FF2BE4D002F0A1FC01203B
:1020D000084A052102F034FD204600E0012006B048
:1020E000BDE8F0816AF00000087AFF1FA06CFF1FB6
:1020F0007CF00000A9F0000008B505210420044A86
:1021000002F01EFD01210020BDE80840FFF7E6BEF9
:10211000D6F0000008B505210420044A02F010FDA5
:102120000121FF20BDE80840FFF7D8BEE3F0000022
:102130002DE9FF4705460E463B4A0521042002F0E3
:10214000FFFCFFF717FF00286AD02846FFF7D8FEEC
:10215000002865D02F7807F0F803102B60D10123F9
:10216000324A00950521042002F0F6FD2878FEF79A
:1021700085FD34468146C6EB04085FFA88F8C14500
:102180000CD92046FFF7BCFE23781F440134FFB270
:102190000028F0D002F03CFC254A22E03178287873
:1021A000FEF78CFD4FF0000982465FFA89F303EBDE
:1021B00008049A45E4B20AD93019FFF7A1FE335D4D
:1021C0001F44FFB209F101090028EED0E2E704A89C
:1021D000002300F8013DFFF793FE38B102F018FC30
:1021E000144A0521012002F0ABFC19E09DF80F30E4
:1021F000BB4203D002F00CFC0F4AF2E70134E4B218
:10220000012C4FF0040083BF009623460B4A009533
:102210009CBF01230A4A052102F09EFD204600E0F2
:10222000002004B0BDE8F087F1F00000FAF00000F3
:1022300007F100003EF100007BF10000A2F1000078
:10224000BAF10000024A00231370024A137070476B
:10225000AC6CFF1FA06CFF1F704710B558210446DF
:1022600005F088FA204610BD0F2A38B504461D46F1
:1022700017DD00F1140201F1100351F8040B42F8CC
:10228000040B9942F9D1226B0021201D05F0F6F9CB
:102290001023E36284F83450802384F83530012021
:1022A00038BD002038BD40F3C01303F01B0383EAA0
:1022B0004000C0B27047FFFF2DE9F04F044685B0E3
:1022C00042B901F10F03029304F10F030027B24E4C
:1022D000019382E0B04DB14F002001F10F0E4B7B16
:1022E000EE5C0B785E40C35D73400B708B7BEE5CE5
:1022F0004B7873404B70CB7BEE5C8B7873408B706C
:102300000B7BEE5CCB785E400B4603F8036F13F853
:1023100001CF13F8046C73458CEA06061E70F6D1E3
:1023200001300A28DBD1631E4D1E04F10F0613F89D
:10233000017F15F8010FB34280EA07001870F6D14B
:10234000BFE7DD7813F8010D454099421D71F8D1C2
:102350004B7BF35C5840914BDB1B5B7A58408B7B8B
:102360000870F05C4B7843404B70CB7BF05C8B7813
:1023700043408B700B7BF05CCB784340CB70002FDD
:1023800057D1607A637B6073607960726078607146
:10239000A07AA5786370A070A37BE079A572A57977
:1023A000A371E378E070E07AE071E07BA573E373FA
:1023B000E072631E01F1FF3C13F8010F784D15F830
:1023C00000E01CF8010F8EEA0000187001988342AB
:1023D000F2D101370A2F00F0CF8012B101F10C03C6
:1023E000AFE7631E4D1E13F801EF15F8010F8EEADB
:1023F0000000305C187001988342F4D160796378F2
:102400006070607A6071607B6072A078A57A637397
:10241000A072A379E07AA570A57BA373E37BE07338
:10242000E079E072E078A571E071E3700FB1092FF7
:102430007FD00023009342E06B1C05F1020A05F1F6
:10244000030914F805B0E05C14F809E014F80A80F8
:10245000039388EA0E088BEA000080EA0808FFF779
:1024600022FF8BEA080E80EA0E006055039B14F8E9
:102470000A00E55C6840FFF716FF88EA0505039B44
:102480006840E05414F80A5014F809006840FFF757
:102490000AFF88EA0505684004F80A0014F80950A4
:1024A0008BEA0500FFF7FFFE009B88EA0508013371
:1024B00080EA0800042B04F80900009336D0009B42
:1024C0009D00EDB2002AB7D005F1020B14F805A06B
:1024D00014F80B008AEA0000FFF7E5FEFFF7E3FEC1
:1024E00005F1010905F1030814F809E0039014F857
:1024F00008008EEA0000FFF7D6FEFFF7D4FE039B2C
:102500008AEA030A04F805A014F809E080EA0E0E2E
:1025100004F809E014F80BE083EA0E0304F80B302A
:1025200014F80830584004F8080085E7002A7FF4C2
:1025300028AF4B7BF05C0B785840184BFB5C43405A
:102540000B708B7BF05C4B7843404B70CB7BF05C2B
:102550008B7843408B700B7BF05CCB7858400B46FC
:1025600003F8030F13F8015F13F8040C68401870A8
:1025700002988342F6D12CE75AB9631E01390F3411
:1025800013F8010F11F8012F9C4282EA00021A7021
:10259000F6D105B0BDE8F08FECF10000ECF20000E0
:1025A000F6F20000F0B58E46C16A102985B01DD143
:1025B00000F114056E4600F12404EC4628686968B1
:1025C000374603C70835A5423E46F7D11146704647
:1025D000103251F8044B40F8044B9142F9D1704647
:1025E0001A466146FFF768FE012000E0002005B0B2
:1025F000F0BDFFFF0022C26280F83420FF2280F885
:102600003520024A0260102202637047DCF10000AC
:1026100070B504461546A2B183684068D618864254
:1026200008DD02F0F5F9084A0621012002F088FAD7
:10263000002070BD2068184404F086FFA3681D4484
:10264000A560012070BD00BFF6F30000704710B513
:102650004FF4EC71044605F08DF8204610BDFFFFE5
:102660002DE9F04142680468DFF888E15F4E84EAB2
:10267000121303F00F3384EA030082EA03135C4A67
:1026800080EA80442240504080EA9242584883EADF
:1026900083442040434083EA904382EA530000F0A1
:1026A000553082EA000583EA400080EA152202F0F4
:1026B000FF1280EA020485EA022282EA540000F056
:1026C00055304240130984EA400000F47F4403F08F
:1026D00070632343040404F47F042343C0F30740DE
:1026E000034322F07042083100275EF8270030B122
:1026F00095069C0645EA920544EA930405E0D50652
:10270000DC0645EA520544EA530425F07042D0093C
:10271000C2F3811C00F03C004CEA00004FEA923CFE
:10272000C2F343380CF0300C48EA0C0C40300CF18A
:10273000800C56F8208056F82C0005F03F0C48EA33
:10274000000056F82C504FEA525C28430CF0060C5F
:10275000C2F300554FEA925845EA0C0C08F03808CD
:102760004CEA080C0CF1C00C24F0704356F82C50C5
:102770004FEA132C05430CF03C0CC3F3C11040EAA4
:102780000C0C04F03F04C3F3C53000F5C07004F531
:1027900080740CF5A07C56F8208056F8240056F87A
:1027A0002C4048EA000020439C0DC3F3435C04F036
:1027B00030044CEA040404F5E074013756F8244070
:1027C0002043ACB244EA0044000C000440EA154047
:1027D0004FEAB4744FEAB060102F41F8084C41F84A
:1027E000040C01F1080180D1BDE8F0818C010100E9
:1027F0000000CCCC8C0901002DE9F041436807684A
:1028000087EA131505F00F356F4083EA051585EA51
:1028100017439BB285EA030487EA034383EA9405DE
:1028200005F0333583EA050684EA850585EA162333
:1028300003F0FF135D4086EA032383EA550404F0A6
:102840005534634085EA44054FEA73734FEA757562
:10285000A14C002A00F08A8001F180070E684A68C6
:102860005E40C6F3852CC6F3850E0CF1800C54F83F
:102870002E8054F82CE04FEA966C0CF5C07CC6F321
:10288000854606F5807654F82CC054F826605A40E8
:1028900088EA0E0E4FEA32128EEA0C0E8EEA060E0F
:1028A000960E06F5E076103154F826608EEA060E94
:1028B000C2F38506403654F826608EEA060EC2F34F
:1028C0008526C036C2F3854202F5A07254F8266010
:1028D00054F822208EEA0606724051F8086C5540E2
:1028E0006E404FEA966CC6F3850E0CF5C07C54F82A
:1028F0002E8054F82CE051F8042C88EA0E0E8EEA53
:102900000303C6F3852E0EF1800EC6F3854606F549
:10291000807654F82EE054F826606A404FEA32126E
:1029200083EA0E037340960E06F5E0768F4254F864
:10293000266083EA0603C2F3850606F1400654F8D2
:10294000266083EA0603C2F3852606F1C006C2F3B9
:10295000854202F5A07254F8266054F8222083EADA
:10296000060383EA02037FF479AF88E0A1F18007D0
:102970008E6FCA6F5E40C6F3852CC6F3850E0CF1D0
:10298000800C54F82E8054F82CE04FEA966C0CF52D
:10299000C07CC6F3854606F5807654F82CC054F802
:1029A00026605A4088EA0E0E4FEA32128EEA0C0E6A
:1029B0008EEA060E960E06F5E076103954F826607B
:1029C0008EEA060EC2F38506403654F826608EEA7B
:1029D000060EC2F38526C036C2F3854202F5A07208
:1029E00054F8266054F822208EEA06067240D1F888
:1029F000806055406E404FEA966CC6F3850E0CF52C
:102A0000C07C54F82E8054F82CE0D1F8842088EA59
:102A10000E0E8EEA0303C6F3852E0EF1800EC6F36A
:102A2000854606F5807654F82EE054F826606A4014
:102A30004FEA321283EA0E037340960E06F5E076F3
:102A4000B94254F8266083EA0603C2F3850606F10C
:102A5000400654F8266083EA0603C2F3852606F191
:102A6000C006C2F3854202F5A07254F8266054F8FD
:102A7000222083EA060383EA02037FF479AF4FEA58
:102A8000F5014FEAF30381EA530202F0553281EA7D
:102A9000020483EA420383EA142101F0FF1183EA6E
:102AA000010284EA012181EA920303F033335940A1
:102AB00082EA830383EA114292B2534081EA0242DE
:102AC00082EA131101F00F314A4083EA01130260D8
:102AD0004360BDE8F08100BF8CF9000013B50C46DF
:102AE0001146026800924268019268461A46FFF752
:102AF00083FE009B23701A0A62701A0C1B0EE3708F
:102B0000019BA2701A0A237162711A0C1B0EA2712A
:102B1000E37102B010BD2DE9F04104461E46E36AA0
:102B2000102B0D4610460AD0182B26D0082B44D166
:102B300004F158020EB9012313E0002311E004F15F
:102B40005807D83496B901233A46FFF7C7FF3346F2
:102B5000224629462846FFF7C1FF01233A46294667
:102B60002846FFF7BBFF0120BDE8F08100233A466D
:102B7000FFF7B4FF0123224619E004F1580704F1DE
:102B8000D80804F5AC7466B901233A46FFF7A6FFEE
:102B90003346424629462846FFF7A0FF0123224636
:102BA000DDE700232246FFF799FF0123424629462D
:102BB0002846FFF793FF0023D0E70020BDE8F0810F
:102BC0000022C26280F83420FF2280F83520024AB9
:102BD00002600822026370477CF90000F0B54D1EC8
:102BE000471E01F1070E802615F8014F334224F0ED
:102BF000010418BF44F00104754507F8014F4FEA7E
:102C00005606F1D10823934205DACC5C24F0010486
:102C1000C4540133F7E7F0BDF8B500F114060446DB
:102C2000304615461F46FFF7D9FF102A10D0182A44
:102C30001BD0082A37D104F1130304F11B0213F847
:102C4000011F19729342FAD104F15801304608E08D
:102C500004F158013046FFF703FD04F1D80104F1F7
:102C60001C00FFF7FDFC002311E004F15801304681
:102C7000FFF7F6FC04F1D80104F11C00FFF7F0FCAB
:102C800004F5AC7104F12400FFF7EAFC402384F85A
:102C90003530226B0021201D04F0F0FC84F83470E4
:102CA000E5620120F8BD0020F8BD10B504460846D5
:102CB000002184E80500A16004F0E0FC204610BD7E
:102CC00008B5836819444368994208DD01F0A0FE05
:102CD000044A0621012001F033FF002008BD012035
:102CE00008BD00BFF6F3000038B50D4601210446CB
:102CF000FFF7E6FF28B1A3682268D554A368013323
:102D0000A36038BD13B5019104210446FFF7D8FF35
:102D1000024630B1A36821680198C850A368043303
:102D2000A360104602B010BD73B5019103210446A3
:102D3000FFF7C6FF58B102ABA268216833F8046DF3
:102D40008E528D189B78AB70A3680333A36002B0DA
:102D500070BDFFFF2DE9F04F87B0056BDDF84480B3
:102D600001914545044692461E46109F07DC98FB9C
:102D7000F5F305FB138515B900F1040920E001F016
:102D800047FE224A0921012001F0DAFE1EE0019AE5
:102D9000F2B94A46394602A801F01AFB236802AA92
:102DA000D3F80CB0314653462046D84770B1226B59
:102DB0003146484604F0C8FB236B01351F441E44CE
:102DC000236B98FBF3F29542E1DB1AE0002019E057
:102DD00023683A46D3F80CB002A953462046D84798
:102DE0000028F3D002A90846236B4A4601F0F0FA06
:102DF000226B3946484604F0A7FB226B02A93046F5
:102E0000D8E7012007B0BDE8F08F00BFEA09010054
:102E100073B5054688680C461646F8B12A6B90FBD8
:102E2000F2F302FB1303CBB90B68801A05F13601EC
:102E3000184401F0D8FAA268236801920022009396
:102E400011462846FFF786FF044608B9002419E01A
:102E50002A6B291D304604F077FB13E080212046C1
:102E6000FFF742FF0028F1D0A0682A6B90FBF2F335
:102E700002FB13030BB10021F1E7801A236805F16F
:102E80004601D5E7204602B070BDFFFF40280FD0B5
:102E9000802801D050B901E007487047082909D0BF
:102EA000064B0748102908BF184670470548704769
:102EB00005487047054870471B0A01000D0A0100CC
:102EC0000F0A01001F0A0100140A0100100A010084
:102ED00013B5C36A102B0446B8BF102300F11402C7
:102EE00000929BB2094A0921042001F035FFE16AF2
:102EF00094F83500FFF7CAFF054A0346092104206C
:102F000002B0BDE8104001F093BE00BF270A0100E7
:102F10002C0A01000C2908B50B4600F08C80AF2963
:102F200000F08980002900F08680AE295ED024D888
:102F30007E294FD010D81C2944D005D80E2972D133
:102F400001F066FD3D4A68E01E293FD040296AD164
:102F500001F05EFD3A4A60E09E293FD005D89D29E8
:102F600061D101F055FD374A57E0A0293AD0A12997
:102F700059D101F04DFD344A4FE0CE2942D010D84E
:102F8000C12937D005D8BE294DD101F041FD2F4AC6
:102F900043E0CA2932D0CD2945D101F039FD2C4A70
:102FA0003BE0EE2932D005D8DE293CD101F030FDDE
:102FB000284A32E0F0292DD0F12934D101F028FD42
:102FC000254A2AE001F024FD244A26E001F020FDF4
:102FD000234A22E001F01CFD224A1EE001F018FD08
:102FE000214A1AE001F014FD204A16E001F010FD1C
:102FF0001F4A12E001F00CFD1E4A0EE001F008FD30
:103000001D4A0AE001F004FD1C4A06E001F000FD43
:103010001B4A02E001F0FCFC1A4A0821012001F0E1
:103020008FFD002008BD184A0821012001F0BEFDD7
:1030300001F0EEFCF5E7012008BD00BF390A0100F0
:10304000750A01009F0A0100DE0A0100110B010050
:10305000480B01006C0B0100A30B0100530A010097
:10306000640A0100890A0100B20A0100C70A0100CE
:10307000FB0A0100210B0100370B0100570B010077
:10308000850B0100930B0100B90B01002DE9F04FF6
:103090008DB01546179A9DF86090984604460E46E6
:1030A000002302B1137005AF84F8A036012204A9F1
:1030B0003846FFF7FAFD09F0040202F0FF0303931C
:1030C000002A0CBF0B231323002D08BF3D4602939B
:1030D000B3689A1CAB681344502B04DC029B169A0D
:1030E0001344502B07DD01F093FCB64A0821012060
:1030F00001F026FDDFE019F00A0F07D094F86434E0
:10310000FF2B03D101F084FCAF4AEFE719F0020F67
:103110005DD00421082001F071FC70B1AB4A082198
:10312000042001F00DFDD4F86C24138E04320092BB
:103130000921A74A042001F00FFEB168AB682A6894
:10314000306801F0ADF9014608902846FFF7DAFD36
:10315000002800F0B080D4F86C34AF681B6B97FB8C
:10316000F3FA03FB1A7ABAF1000F01D00137F6E740
:10317000C5F808A039462846FFF7A2FD002800F050
:103180009A8008ABAF60009304231846914A082147
:1031900001F0E2FD1FFA87FB2B6800938E4A5B4625
:1031A0000821042001F0D8FD2B68D4F86C048DE8C8
:1031B000880052465146FFF7CDFD00287BD02B6892
:1031C0000093864A5B460821042001F0C5FD316862
:1031D00019F0010F91F800A02CD0BAF1AF0F29D04F
:1031E00094F86434FF2B25D00023C4F8243704F26C
:1031F0001C77B2683846FFF70BFA00285BD0AA6844
:1032000029683846FFF704FA002854D00DF1200B46
:103210005A463946D4F86C04FFF7FAFD00284AD024
:10322000D4F86C346E4A1B8ECDF800B0082104200F
:1032300001F092FD4023237101236371B26831686C
:10324000A01D04F081F9B768AA6829680237261D15
:10325000F01904F079F9AA683A44D2B2314620460E
:1032600000F0C4FE38B31699029B0B44DAB2314623
:10327000204600F0C5FE0228834602D96379412B1F
:1032800003D001F0C5FB574A30E7A17984F8A016B6
:103290002046E77900F006FC68B1BBF1030F0AD0C5
:1032A00027B1AF2F1CBFFF2384F864343946204672
:1032B000FFF730FE10B94FF0FF357EE0179B03B1EA
:1032C0001F70039BABF10405EDB27BB30FB1AF2FC1
:1032D0002CD194F86434FF2B28D0BAF1AF0F1CBF67
:1032E0000023C4F82437AF2F08D12A4604F108017F
:1032F00004F21C70FFF78CF9C0B9DCE7072D15D973
:10330000A7B9ABF10C05EDB204F21C7A2B1D2A46CD
:1033100004F1080150461E44FFF77AF90028CAD08C
:1033200039465046FFF7E0FC50BBC4E7169BAB4262
:1033300003DA01F06DFB2C4AD8E6B8F1000F3CD05F
:10334000002D3AD02A4604F10801404604F0FCF86A
:1033500019F0080F31D001220195CDF800804346C5
:103360001146D4F86C04FFF7F5FC0028A3D0CDF883
:103370000080ABB21D4A0821042001F0EDFC1CE0E6
:1033800008AF3A465146D4F86C04FFF741FD0028D7
:1033900091D0D4F86C34164A1B8E00970821042073
:1033A00001F0DAFC08223946304607F011F900280E
:1033B000BCD001F02DFB0F4A98E628460DB0BDE8C1
:1033C000F08F00BF890C0100C90B0100DB0B01006D
:1033D000F20B0100FB0B0100FF0B01000D0C0100C3
:1033E0001F0C01002E0C0100610C0100800C01007B
:1033F000440C0100530C0100F0B589B004460F469F
:10340000154604A9012205A81E46FFF74EFC3946C1
:1034100005A8FFF769FC9DF8403002930F9B0193CC
:103420000E9B00932A46334605A92046FFF72EFE41
:1034300009B0F0BD2DE9F04FCBB00546049108204E
:103440000421904601F0DAFA40B10420049B974A27
:10345000082101F0ABFB4046FFF73AFD98F8353004
:10346000402B02D0802B06D00BB91A2404E001F0C7
:10347000CFFA8F4AF1E0AA24012207A908A8FFF792
:1034800014FC049908A8FFF72FFC002302930DF108
:103490001F06102314AF009321463B46019608AA4D
:1034A0002846FFF7A9FF3378AF2B044603D108283D
:1034B00005D0102803D001F0ABFA7E4ACDE0D8F851
:1034C0003020002108F1040004F0D8F80DF1600A62
:1034D000012201940097534611464046FFF73AFCFB
:1034E000002800F07C810DF1700B224651465846B1
:1034F0000DF1800900F085FF2146484600F09EFF4F
:1035000020223AA90BA8FFF7D0FB224649460BA878
:10351000FFF77EF8224659460BA8FFF779F82022DC
:1035200042A90EA8FFF7C1FB6300002219460EA8AE
:1035300005931092FFF7C4FB059B00B11093019314
:1035400000220B9B009311460E9B4046FFF702FCA6
:10355000002800F044810421082001F04FFA88B3CC
:10356000A3B20097544A1F460821042001F0F4FB3F
:103570003B46524ACDF800A00821042001F0ECFBA4
:103580003B464F4ACDF800B00821042001F0E4FB8F
:103590003B464C4ACDF80090082104207F0001F002
:1035A000DBFBBFB20B9B0093474A3B46082104203C
:1035B00001F0D2FB0E9B0093444A3B4608210420B5
:1035C00001F0CAFB002324AF02938DE850003B4674
:1035D0000EAAAF212846FFF70FFF33780BB98442BC
:1035E00003D001F015FA3A4A37E028AE01220194DF
:1035F0000097334611464046FFF7ACFB002800F029
:10360000EE800DF1B00B49465846224600F0F9FE17
:103610000421082001F0F2F9B0B1A3B200972D4ABD
:103620001F460821042001F097FB3B462A4A0096DA
:103630000821042001F090FBCDF800B03B46274A5A
:103640000821042001F088FB22462CA9304606F010
:10365000BFFF38B101F0DCF9214A0821012001F057
:103660006FFABCE0182234A911A8FFF71EFB042250
:10367000494611A8FEF7CCFF0422514611A8FEF7D7
:10368000C7FFD8F82C30082B42DD98F83530402B96
:1036900028D0802B32D0002B3AD1042221A911A8A6
:1036A000FEF7B6FF042219A92FE000BFC40C0100E9
:1036B000010A0100DC0C0100F60C0100000D010004
:1036C000060D0100100D0100160D01001D0D010079
:1036D000280D0100420D01004C0D0100560D0100A6
:1036E000600D010004220DF1860111A8FEF790FF84
:1036F00004220DF1660111A8FEF78AFF042223A916
:1037000011A8FEF785FF04221BA911A8FEF780FF70
:1037100098F83530139A1199802B0CBF05F58E63FC
:1037200005F59963C5F86C34D5F86C0403689C689A
:103730000023A047002852D0D5F86C44266B0DF129
:10374000C009082E4FF010024FF0000148460CBF90
:103750001B27872703F092FF32460021201D03F02C
:103760008DFF236B0193CDF800904B460022012181
:103770002046FFF7EFFA064688B3D4F830A004F1EC
:10378000360852464946404603F0DEFE5146404662
:1037900000F041FE9DF9C030002B07DA236B013B9E
:1037A000234493F836207A4083F83620D4F83090BA
:1037B00004F1460318464A46414603F0C5FE494611
:1037C00000F029FE94F93630002B07DA236B013B19
:1037D0001C4494F846305F4084F846700EB90026C9
:1037E00011E00421082001F009F940B10420084A41
:1037F000082101F0A5F9D5F86C04FFF769FB9DF8E5
:10380000103085F8643430464BB0BDE8F08F00BF0F
:103810007A0D010070B50B4688B005460C46164679
:103820000821144A042001F0C1F9012204A905A8C5
:10383000FFF73BFA214605A8FFF756FA0523029346
:10384000002401238DE818002846334605AA642188
:10385000FFF7D2FD0128054608D103460096042053
:10386000054A082101F078FA284600E0204608B011
:1038700070BD00BF1C0E0100350E010070B505467D
:103880009AB00E460820042101F0B8F848B132463B
:10389000134906A807F086F906AA0821042001F0BA
:1038A0004FF9032205A906A8FFF7FFF900243146C6
:1038B00006A8FFF739FA029401940094234606AA59
:1038C0005A212846FFF798FD30B9FF2385F8643464
:1038D000C5F86864012000E020461AB070BD00BF42
:1038E000731001002DE9F0439DB081460F4608207A
:1038F000042115461C46249E01F080F858B13A4632
:103900001F4900942B4608A807F04CF908AA082183
:10391000042001F015F9002C2EDD302C4FF00702A9
:1039200006A908A8A046A8BF4FF03008FFF7BDF9C8
:10393000394608A8FFF7D8F9294608A8FFF7F4F98F
:10394000414608A8FFF7F0F9052302930DF117038C
:103950000193CDF80080334608AABD214846FFF701
:103960004BFD9DF817300BB9002801DC002004E066
:10397000241A05440644CEE701201DB0BDE8F083BB
:10398000D01101002DE9F043044687B0264600F02F
:103990005FF8234B46F85C3B04F50D783046FFF7A3
:1039A0000FF904F20C474046FFF70AF93846FEF7D4
:1039B00021FE04F58E60FEF71DFE04F59960FFF709
:1039C000FFF804F2A161782204F21C70FFF76DF990
:1039D0000025FF234FF0180984F864344A4629462D
:1039E000C4F86C5484F8A056C4F86854684603F0D0
:1039F00045FE2B46694608223046FFF70DF92B4657
:103A00004A4669464046FFF707F92B4610226946A9
:103A10003846FEF729FC204607B0BDE8F08300BF1A
:103A2000D4090100FF2280F864240022C0F8682431
:103A300000F0FABB054B1B684FF00042DA62586396
:103A4000DA6A002AFCDA986BC0B270473807FF1FA9
:103A5000064A0260002280F8542080F8552080F841
:103A6000562080F8572080F85820704774190100BC
:103A700038B504469DF810509DF8140084F8541091
:103A800084F8580084F8552084F8563084F857504C
:103A9000012103F0CFFE94F857000121BDE8384022
:103AA00003F0C8BE10B55B4A0C46A0B00A21042042
:103AB00001F046F814F03F0400F0A9802246564970
:103AC0006846013C07F06EF82D2C00F29380DFE889
:103AD00004F0171B1F23272B2F9133373B913F43B4
:103AE0009147914B4F5391919191919191919191D6
:103AF0009191919157915B5F6391676B6F797D872E
:103B000000F086FF45496EE000F082FF44496AE01C
:103B100000F07EFF434966E000F07AFF424962E030
:103B200000F076FF41495EE000F072FF40495AE044
:103B300000F06EFF3F4956E000F06AFF3E4952E058
:103B400000F066FF3D494EE000F062FF3C494AE06C
:103B500000F05EFF3B493CE000F05AFF3A4942E08A
:103B600000F056FF39493EE000F052FF38493AE094
:103B700000F04EFF374936E000F04AFF364932E0A8
:103B800000F046FF35492EE000F042FF34492AE0BC
:103B900000F03EFF334926E000F03AFF324922E0D0
:103BA00000F036FF314906E000F032FF304902E014
:103BB00000F02EFF2F49684607F01AF80A21024646
:103BC000032020E000F024FF2B490CE000F020FF50
:103BD0002A49684607F00CF80A210246022012E042
:103BE00000F016FF2649684607F002F80A2102464F
:103BF000012008E000F00CFF2249684606F0F8FFBB
:103C00000A210246002000F09BFF002000E0012076
:103C100020B010BDBA130100CB130100E013010066
:103C2000E8130100F2130100FF1301002514010045
:103C3000331401004A1401006C1401007F140100C8
:103C4000A1140100B3140100BF140100D814010035
:103C5000EA140100001501001215010027150100EA
:103C60003C15010051150100671501007E1501008A
:103C700097150100AF150100C4150100E5150100FD
:103C8000F2150100FE1501001FB50446002190F851
:103C9000570003F0A1FD022003F01CFE124A0A2186
:103CA000042000F04DFF0220FFF7C4FE0020FFF7C4
:103CB000C1FE04AB0D4A03F8010D0A210093042054
:103CC000012301F049F8012194F8570003F084FD25
:103CD0004FF4FA63013BFDD19DF80F00431E58429B
:103CE000584104B010BD00BF111601002D1601008F
:103CF00070B5064665243046FFF7C6FF054670B925
:103D0000013CA4B23CB900F083FE064A0A2101201E
:103D100000F016FF03E00A2003F0DCFDEBE7284685
:103D200070BD00BF3D160100F8B50F4606460021E4
:103D300090F85700144603F04FFD022003F0CAFD2F
:103D40000D4A0A21042000F0FBFE0120FFF772FE5D
:103D5000013C7D1E3C44A54204D015F8010FFFF73D
:103D600069FEF8E7012196F8570003F035FD4FF49E
:103D7000FA63013BFDD1F8BD54160100F0B50546CC
:103D800089B03A4A3A4C0A21042000F0D9FE0121B8
:103D900095F8580003F020FD0A2003F09BFD002158
:103DA00095F8580003F018FD4FF4C87003F092FD29
:103DB000012195F8580003F00FFD0A2003F08AFD59
:103DC00095F8557095F8566095F85410204601F016
:103DD000C7F93946204601F079F93146204601F00D
:103DE00027F9204601F0E8F8E37AF3B172B6E37AF6
:103DF000D90705D51F4AE36811680B40A36113601A
:103E0000E37A1B499A0705D51B4A0B6910680340E2
:103E1000CB611360E37A16495B0705D5174A4B69F6
:103E2000106803400B62136062B62368144AD968B5
:103E3000914207D013491960DA6002F180421A6199
:103E4000114A1A6003AC14225521204603F016FCD7
:103E5000214628461422FFF767FF009414230B4ADB
:103E60000A21042000F078FF09B0F0BD74160100AB
:103E70003807FF1F80E100E084E100E088E100E016
:103E80000540003901403F0000003F807A160100E4
:103E900030B59BB0FF248DF80E40541C8DF80F40B8
:103EA000D44300238DF81040D4248DF80C308DF8C5
:103EB0000D308DF81140DCB2A24205D903AC1C4490
:103EC000CD5CA5710133F6E70025911D2B46ECB2C0
:103ED0008C4205F1010507DA0DF1680E744414F8FF
:103EE0005C4C2344DBB2F2E71AAC2144DB4301F81B
:103EF0005C3C1AAB02F108041A4403AD002302F83B
:103F0000553C2946E2B2FFF70FFF0095A3B2034AE2
:103F10000A21042000F020FF1BB030BD8E160100E6
:103F20002DE9F041074688461446FFF7E1FE0646B4
:103F300038B3002197F8570003F04EFC022003F03D
:103F4000C9FC114A0A21042000F0FAFD0320FFF702
:103F500071FD013C08F1FF354444A54208D0012021
:103F600003F0B8FC0020FFF765FD05F8010FF4E74A
:103F7000012197F8570003F02FFC4FF4FA63013B3F
:103F8000FDD13046BDE8F0819716010030B5144BE5
:103F900087B0044604AD186802909B88ADF80C30D9
:103FA000204606222946FFF7BBFF0446A0B10D4A72
:103FB00000950A210420062300F0CEFE062202A965
:103FC000284606F005FB38B100F022FD064A0A211A
:103FD000012000F0B5FD0024204607B030BD00BF31
:103FE000B4130100B4160100BD16010010B504465B
:103FF000FFF74EFF2046BDE81040FFF7C7BFFFFFA9
:10400000F0B5531F4B2B97B00D46174603D900F060
:10401000FFFC314A2BE002AE3146FFF781FF00285A
:1040200057D032460021381F884207DD12F8013B85
:1040300013B91478FF2C22D00131F5E70024274D65
:104040000AE016AB1A4412F8503C254ADB43DBB2B7
:104050009D4214BF1546002500963B46214A0A2181
:10406000042000F079FE45B100F0D2FC2A46012080
:104070000A2100F065FD00202BE0E0B229E016AA3D
:104080000A4412F84E4C12F84D2C2244B2F5807FAF
:104090001DD14A1D2244974215DB0A1D9C4205DDB5
:1040A000581830440079E8540133F7E7224464B1EA
:1040B0002B78D52B09D100259142C2DA735C1D44BF
:1040C000EDB20131F8E7084DC6E7084DC4E7084DE9
:1040D000C2E717B0F0BD00BF9F170100D316010063
:1040E0007E170100BA1701001917010050170100CF
:1040F000F11601002DE9F8430446254604208946BF
:1041000090460A21174A1F4600F01AFD022305F8BF
:10411000043F012229462046FFF768FF0646E8B122
:104120000D2229462046FFF76BFF062802D163794E
:10413000032B08D000F06CFC0B4A0A21012000F090
:10414000FFFC00260AE0A37989F80030E37988F8BB
:104150000030237A3B70089B627A1A703046BDE8C3
:10416000F88300BFC4170100D717010070B5144AC7
:1041700004460A21042000F0E3FC261D142201233A
:104180002271A2716371E371042231462046FFF768
:104190002DFF054688B1092231462046FFF730FF42
:1041A000022802D16379152B07D000F031FC054AB3
:1041B0000A21012000F0C4FC0025284670BD00BF84
:1041C000F1170100FB17010070B5154A04460A21DA
:1041D000042000F0B5FC32232371FF23A3710123D7
:1041E0000522E371261D03236271237231462046A6
:1041F000FFF7FCFE054688B1092231462046FFF74D
:10420000FFFE022802D16379332B07D000F000FCB7
:10421000044A0A21012000F093FC0025284670BDC5
:104220000C1801002818010070B5144A04460A2130
:10423000042000F085FC3223237101236371261DC5
:104240000023A371032231462046FFF7CFFE054627
:1042500088B1092231462046FFF7D2FE022802D15A
:104260006379332B07D000F0D3FB054A0A210120E4
:1042700000F066FC0025284670BD00BF4B18010009
:104280005C1801002DE9F04704460E46994696B0A9
:1042900017460A21474A042000F052FC00234A2214
:1042A0003B70251D89F80030336073602271012254
:1042B0006271A371032229462046FFF797FE8046CC
:1042C000002872D01C2229462046FFF799FE0228BA
:1042D00002D963794B2B09D000F09AFB364A0A21A8
:1042E000012000F02DFC4FF000085EE0A579334A74
:1042F0002B460A21042000F059FC012D55D1E57A06
:10430000042D08D0072D06D02B462C4A0A21022066
:1043100000F04CFC49E004F10C012A46304603F061
:1043200013F93D70277A637AA47A072D43EA0727A9
:1043300009D13378802B13D0B7F5517F10D1202CC1
:104340000ED101230AE0042D0AD13378802B07D146
:10435000B7F5417F04D1202C02D1032389F8003026
:1043600004210A2000F04AFB8246F0B12B46144A91
:1043700000960A21042000F0EFFC23463A4611493A
:1043800002A806F00FFC99F80030012B01D10E496C
:1043900002E0032B03D10D4902A806F029FC02AA72
:1043A0000A21042000F0CCFBD046404616B0BDE800
:1043B000F08700BF9C1A01008F180100AA180100A5
:1043C000B7180100C1180100E8180100FB1801002E
:1043D00070B500249C4205DA0E5D155D75400555EB
:1043E0000134F7E770BD30B501380C46631A9A42C4
:1043F00006DD14F8015B10F8013F6B400370F5E730
:1044000030BD38B5541E0D462246013103F09CF8EC
:104410002A78025538BD10B5034601391A1A91425F
:1044200008DD1A7813F8014F520042EAD41203F85B
:10443000012CF3E7435C5B00435410BD37B5094BD7
:10444000094C1B680193019B0246151AA94206DD1F
:1044500002F8013B634303F583432733F5E703B0D9
:1044600030BD00BF087AFF1F1DF3010030B50346C1
:104470001C1AA14212DD13F8014B6240082402F01D
:10448000010552083DB182F06D4282F4380282F497
:10449000034282F02002013CF1D1E9E7104630BD31
:1044A00038B514464FF0FF321D46FFF7DFFF2946AF
:1044B00002462046BDE83840FFF7D8BF30B52F4A46
:1044C0002F4C99B00B21032000F03AFB00232D481C
:1044D0002370FFF753FC0DF10F0300930DF10D0254
:1044E0000DF10E0303A92748FFF704FE002835D07D
:1044F0009DF80E109DF80D309DF80C20009104A839
:10450000214906F04FFB04AA0B21042000F018FB00
:104510009DF80F501D491E4815F0010F14BF0A46A3
:10452000024615F0020F14BF0B46034615F0040FA8
:1045300008BF0146009104A8164906F033FB042089
:1045400004AA0B2100F0FCFA0E48FFF73DFE28B14B
:104550000C48FFF70BFE08B10123237023782BB919
:1045600000F056FA0C4A0B21012002E00B4A0B2105
:10457000032000F0E5FA19B030BD00BF9719010023
:10458000B875FF1FB86CFF1FB31901009019010027
:1045900094190100DA1901000E1A0100221A010013
:1045A00030B5224A85B00B21042000F0C9FA204B17
:1045B0001C784CB900F02CFA1E4A0B21022000F0A6
:1045C000BFFAFFF77BFF2DE000250DF1070301AADD
:1045D00002A919480195FFF755FE044628B900F0D5
:1045E00017FA164A0B21012009E09DF80730012B2C
:1045F0009DF8043006D133B1114A0B21042000F09C
:104600009FFA0FE033B90F4A0B21042000F098FA0B
:10461000002407E000F0FCF90B4A0B21022000F017
:104620008FFA2C46204605B030BD00BF411A01006C
:10463000B875FF1F541A0100B86CFF1F891A0100DA
:10464000B01A0100C81A0100DF1A010008B50748B6
:10465000FFF7E8F940B900F0DBF9054A0B21022029
:10466000BDE8084000F06CBA08BD00BFB86CFF1F81
:10467000F61A01002DE9F041324A88B007460E468D
:1046800004200B2100F05CFA00212F48FFF7F6F818
:10469000044618B900F0BCF92C4A42E00DF10F02B3
:1046A00000212948FFF7B6F8044618B900F0B0F920
:1046B000274A36E09DF80F30264A0B21042000F0EF
:1046C00075FA9DF80F80B8F1100F08D000F0A0F92E
:1046D000214A0B21012000F033FA00242EE01F496B
:1046E0001948FFF7CBF8044618B900F091F91C4AB5
:1046F00017E01C4A14480021FEF79CFE044618B936
:1047000000F086F9184A0CE0002204AD00954346FB
:1047100011460D48FFF7E6F8044638B900F078F97D
:10472000124A0B21012000F00BFA07E02B4603CBC5
:1047300006AB3860796003CB30607160204608B00A
:10474000BDE8F0810E1B0100B86CFF1F231B0100A8
:104750003C1B0100571B0100711B01001F40AA00F8
:104760008F1B0100C075FF1FA01B0100B71B0100BC
:10477000F0B5264A87B00B21042000F0E1F9FFF7DD
:104780000FFF30B104AE02AF31463846FFF772FF7B
:1047900030B91F4B00221A60FFF758FF07B0F0BD79
:1047A0001C4A0B21042000F0CBF908231A4A009779
:1047B0000B21042000F0D0FA0823184A00960B21A0
:1047C000042000F0C9FA00231C461D460A22F95CA9
:1047D00002FB0515F15C0133082B02FB0414F6D132
:1047E0002B460F4A0B21042000F0E0F90B21042096
:1047F00023460C4A00F0DAF929462046FCF7D2FCA1
:104800000028C6D0024B1C60C6E700BF891D01000E
:10481000BC75FF1FB01D0100C31D0100D71D0100A5
:10482000921D0100A11D010008B5044A0B210420BE
:1048300000F086F9024B186808BD00BFEB1D0100AF
:10484000BC75FF1F70B50F4D0F4C104E2846FFF77B
:1048500099F828460E4D0F49224604F039FF2846A4
:10486000FEF7AEF928460C4D2246314604F030FFE3
:104870002846FEF7A5F9224631462846BDE8704095
:1048800004F026BFB86CFF1FF806FF1F4D2600007E
:10489000E073FF1F01490000C075FF1F07B5114AF3
:1048A0000B21042000F04CF90F4B104800221A6035
:1048B000162206238DE80C00142115230522FFF78C
:1048C000D7F8FFF7FBFD1023182209490948FEF726
:1048D000A3F9094909481023182203B05DF804EB35
:1048E000FEF79AB9EE1E0100BC75FF1FB86CFF1FE2
:1048F000F81E0100E073FF1F78190100C075FF1F4B
:104900000C4B10B50446036000F59960FDF79EFE60
:1049100004F58E60FDF7A0FC04F20C40FDF79CFC52
:1049200004F50D70FDF792FE04F15C00FDF78EFEBC
:10493000204610BDD4090100F8B521F00101002581
:10494000064647182C46BE421FD036F8023B4FF6AB
:10495000F1721C44B4FBF2F102FB11442544042023
:10496000B5FBF2F102FB1155094A0E2100F01EF9C8
:104970002346084A0E21042000F018F92B46064A67
:104980000E21042000F012F9DDE744EA0540F8BDED
:10499000101F0100171F01001E1F010070B5044603
:1049A00008460D4606F0ACF9236802462946204623
:1049B0005B68BDE87040184703681B68184708B576
:1049C000FFF7ECFF08BD0368C9B21B681847FFFF7B
:1049D00010B5054B054A19780023DCB2A14202D973
:1049E00098540133F9E710BDFC06FF1F9877FF1FAD
:1049F000014B1954704700BF9877FF1F034B185C99
:104A0000884234BF00200120704700BF9877FF1F05
:104A1000024A136801331360704700BFB877FF1F65
:104A200008B50420FFF7D4FF014B00221A6008BD2F
:104A3000B877FF1F30B58FB004460D46FCF794FAE7
:104A4000A0B103A8FCF796FA4FF47A700599B1FB70
:104A5000F0F101919DF8111000919DF810309DF832
:104A60000F201A4906A806F09DF807E0184B1949CF
:104A70001B680393039A06A806F094F806A9164843
:104A8000FFF78CFF052C10D8DFE804F003050709B9
:104A90000B0D12490AE0124908E0124906E01249DA
:104AA00004E0124902E0124900E012490A48FFF707
:104AB00075FF2B46104A0B2106A806F025F806A91B
:104AC0000548FFF76BFF0FB030BD00BF6C1F010042
:104AD000087AFF1F881F0100C408FF1F8E1F0100F6
:104AE000991F0100A41F0100AF1F0100BA1F0100A0
:104AF000C51F0100D01F0100DB1F0100052810B5F4
:104B0000144604D9FFF784FF0C460A4902200A4BD9
:104B10001B7883420DD3FFF78DFF21460748FFF72F
:104B20003DFF0A210548FFF74EFFBDE8104004F0A5
:104B30008FB910BDE21F01009877FF1FC408FF1F47
:104B4000052810B514460DD9FFF762FF0E2996BF50
:104B5000114B124A53F8212011490220BDE81040A0
:104B6000FFF7CCBF0F4B5B5C834213D30E2996BF7C
:104B7000094B0A4953F82110FFF75CFF21460A4808
:104B8000FFF70CFF0A210848FFF71DFFBDE81040A2
:104B900004F05EB910BD00BF281F0100641F0100B2
:104BA000E21F01009877FF1FC408FF1F052838B5D2
:104BB00015461C460DD9FFF72BFF0E2996BF164B45
:104BC000164A53F8212016490220BDE83840FFF765
:104BD00095BF144B5B5C83421DD30E2996BF0E4BD1
:104BE0000E4953F82110FFF725FF29460E48FFF71D
:104BF000D5FE0E490C48FFF7E2FE002321460A22AB
:104C0000094802F055FC0A210748FFF7DCFEBDE821
:104C1000384004F01DB938BD281F0100641F010091
:104C2000E21F01009877FF1FC408FF1FF30E010069
:104C3000052838B515461C460DD9FFF7E9FE0E29A3
:104C400096BF154B154A53F8212015490220BDE89F
:104C50003840FFF753BF134B5B5C83421BD30E29D5
:104C600096BF0D4B0D4953F82110FFF7E3FE29467F
:104C70000D48FFF793FE0D490B48FFF7A0FE2146B4
:104C80000948FFF78BFE0A210748FFF79CFEBDE8A5
:104C9000384004F0DDB838BD281F0100641F010052
:104CA000E21F01009877FF1FC408FF1FF30E0100E9
:104CB00030B505288BB015461C460CD9FFF7A8FE69
:104CC0000E2996BF1C4B1D4A53F821201C49022077
:104CD000FFF714FF2DE01B4B5B5C834229D30E29A9
:104CE00096BF154B154953F82110FFF7A3FE29462F
:104CF0001548FFF753FE15491348FFF760FE617929
:104D0000039121790291E178019121786378A27869
:104D100001F5FA61009105A80D4905F043FF05A9C9
:104D20000948FFF73BFE0B490748FFF737FE04F041
:104D30008FF80BB030BD00BF281F0100641F0100B9
:104D4000E21F01009877FF1FC408FF1FF30E010048
:104D5000F41F01007C17010070B5052816461D469A
:104D6000049C0DD9FFF754FE0E2996BF1B4B1C4A1D
:104D700053F821201B490220BDE87040FFF7BEBE5A
:104D8000194B5B5C834228D30E2996BF134B144901
:104D900053F82110FFF74EFE31461448FFF7FEFD91
:104DA00020211248FFF708FE013D661E2C44A64252
:104DB0000BD016F8011F0D480023102202F078FBDB
:104DC00020210A48FFF7F8FDF1E70A210748FFF71D
:104DD000FAFDBDE8704004F03BB870BD281F01002B
:104DE000641F0100E21F01009877FF1FC408FF1F26
:104DF000064A02600022426010B5012202720C785D
:104E00004A7802EB0422426010BD00BF54E3000068
:104E10000120704702207047B0F5FA6F30B528BF07
:104E2000A0F5FA60104D28BF80B292B20023013382
:104E3000DCB2A14205D9EC1814F8014C224492B21C
:104E4000F5E7022903D9830704BF013292B200EBD0
:104E5000C003C11C00EBC30000EB8000431E03EB4A
:104E6000A100104480B230BD8920010083709DF8FC
:104E70000030C370B1F5FA6F9DF80430037128BF9C
:104E8000A1F5FA619DF80830437128BF89B2039BF0
:104E900001704270836070470A7802704A784270ED
:104EA0008A788270CA78C2700A7902714A7942712E
:104EB0008A6882607047FFFF10B5044682784178A7
:104EC0000078FFF7A9FFE278182303FB002023797D
:104ED0003C2202FB0030637902FB00330148184496
:104EE00010BD00BF80436D38244B3C220B4430B5CD
:104EF000B3FBF2F402FB14314171B4FBF2F102FB9B
:104F00001142182402714FF46162B3FBF2F2B2FB5A
:104F1000F4F104FB1122C270194AB3FBF2F3002230
:104F20009BB20270017811F003040CBF0122002231
:104F300002F5B6759D4207DAC2F57E4293321344FC
:104F400001319BB20170EDE701220E4D42704178B4
:104F50006A1812F8012C1CB9022904BF0132D2B21E
:104F600092B2934204D39B1A01319BB24170EEE797
:104F7000013383700023836030BD00BF80BC92C7C3
:104F8000805101008920010010B5FFF7ADFF10BD71
:104F900081607047C38B1B0441BFC38BC1F3080101
:104FA00003F47E43194358BFC1F30E01C183C38B81
:104FB0009BB2C3827047FFFF436819685A6810B5F7
:104FC0000C6822430A600268154911601549D160D6
:104FD00001F18041116114491160417A134A5C1852
:104FE0000C3194F82C4053F8211002EBC40464688F
:104FF0002160017A5C1803EB8101247EC96902EB10
:10500000C40464682160817A581803EB810390F826
:1050100040005B6C02EBC0025268136010BD00BF21
:1050200001401F000110003800001F80FC22010019
:105030004368234A9A4270B518D10B2904D1214CF8
:10504000227822F0030210E0072906D11D4C2278B5
:1050500022F0030242F0010207E01C2906D1194C9C
:10506000227822F0030242F002022270427A1A44AD
:1050700092F82C40A14221D003F12B05002215F813
:10508000016F8E4217D119680D6859680D4210D012
:105090000D4901EBC4040025646825609C1894F850
:1050A0002C4001EBC40102F10C04496853F8243090
:1050B0000B60427270BD0132042AE0D170BD00BFA6
:1050C0005C210100047AFF1FFC2201004368214A91
:1050D0009A4270B518D10C2904D11F4C227822F0C5
:1050E0000C0210E0082906D11B4C227822F00C0299
:1050F00042F0040207E0272906D1174C227822F05B
:105100000C0242F008022270027A1A44147EA14274
:105110001FD003F11705002215F8016F8E4215D13B
:1051200019680D6859680D420ED00C4901EBC40492
:105130000025646825609C1803EB8203247EDB69EC
:1051400001EBC40149680B60027270BD0132042A90
:10515000E2D170BD5C210100047AFF1FFC22010036
:105160004368254A9A4230B518D10D2904D1234C01
:10517000227822F0300210E00E2906D11F4C22784E
:1051800022F0300242F0100207E01B2906D11B4C2E
:10519000227822F0300242F020022270827A1A44F1
:1051A00092F84040A14226D093F840208A4209D08C
:1051B00093F841208A4207D093F842208A421AD1BC
:1051C000022202E0002200E0012219680D685968FD
:1051D0000D420FD00A4901EBC40400256468256024
:1051E0009C1803EB820394F840405B6C01EBC40114
:1051F00049680B60827230BD5C210100047AFF1F98
:10520000FC22010070B5036B1A79304B1A70C36A27
:105210001A792F4B1A70026B12791A70826A04463F
:10522000002A3FD04368D9688A4203D9521A826261
:10523000012110E0C36A511E1868FFF7ABFE236B13
:10524000A16A1868FFF7A6FEA16A002311F1FF31D9
:1052500018BF0121A362E36A1B68186804F12402E5
:105260009042226805D1D36894F8243043F000437B
:105270000EE0D06810F0804F186815BF1D681D68DB
:105280000088007814BF023501351D6040F00043EE
:105290005363236B1A790F4B1A70A9B1E26A127922
:1052A0001A7070BD03680C491A63D962D96821F07D
:1052B0008041D960032380F82530406B0368114694
:1052C0001B68BDE87040184770BD00BF1F800040DC
:1052D0001C8000401B80004000000FFF08B5024802
:1052E000FFF790FF08BD00BF0007FF1F08B5024889
:1052F000FFF788FF08BD00BF3807FF1F7047FFFF9B
:10530000044A1368190644BF03F07F031360024B7D
:105310001B681847009003407007FF1F054A40F2C2
:1053200043434FF48861136053609160D36013610D
:105330005361704700D00440054A40F20313002136
:10534000136053609160D36013615361704700BF75
:1053500000D004400E4A116821F0080310B5136014
:105360000C4B0B40184340F460200B4910604FF485
:1053700080130C68240701D4013BFAD140F00800E7
:105380001060064A136843F48013136010BD00BF19
:105390002C100B400700F0FF24100B4030100B4086
:1053A0001E4A136843F0800310B513601C4B1C4663
:1053B0001968C907FCD421688907F9D4194B18600A
:1053C0004FF0807014681849144B2140013811B90E
:1053D0000028F7D102E008B1012907D0136843F48F
:1053E000702343F001031360012010BD1A681206F8
:1053F00005D51A6842F001121A60032010BD186822
:105400001A6810F4803017BF42F0011242F0010216
:1054100005201A6008BF1A6010BD00BF30100B4095
:1054200024100B400C100B4001000E00F8B50A4D83
:105430000A4F642400262E600948FFF7B1FF013CA3
:1054400005D03B685B0705D50028F4D0F8BD0028DF
:1054500008BF0520F8BD00BF08100B4024100B400A
:105460000000DB0C70B5084D002306462B60074892
:10547000FFF796FF38B9064C064823682E60FFF701
:105480008FFF00B9236870BD08100B4000001A3769
:1054900010100B4000000229074B1A783AB99A788D
:1054A0003AB15B78002B0CBF02200320704700202C
:1054B00070470120704700BFC077FF1F9B4A1368E9
:1054C00043F400332DE9F04713609368984C43F49C
:1054D00000539360D36843F00203D360136943F031
:1054E00002031361934A136823F001031360FFF76B
:1054F00023FF914B2360236813F08073FBD18F4A05
:105500008F4E13608F4B4FF481321A602823336023
:105510008D4B4FF010121A6041F29000FFF71AFF06
:105520008A4A13689D07FCD1FFF7F8FE884A89492B
:105530004FF6FF731360884B19604FF4FA732168BC
:1055400041F00061216021680901FCD4013BF6D1E2
:105550001168824C41F0800111607C4A12686360DE
:1055600012F4803F14BF0020022020706370A370EB
:10557000A360002840F0D880794F18463B60FFF7C1
:105580000FFF50B9774D78482B684FF4D5733B60C7
:10559000FFF706FF28B105280AD001202070BDE8DA
:1055A000F0872B682B68B3F5D57FF6D101236370A4
:1055B0000020FFF757FF0028EFD12B6813F4401F9E
:1055C00020D06378DFF8A8A1002B684B0CBF4FF404
:1055D000401999468046484608F10108FFF742FF06
:1055E000002840F09E802B68002B02DBD045F2D1D2
:1055F00006E05F4B984503D05A4B1B685B0001D413
:105600000023637000233B605A48DFF85491FFF792
:10561000C7FE0028C1D12B68C9F800005648DFF842
:105620004481FFF7BDFE0028B7D1D8F80030D8F884
:1056300000305248DFF824811B0C1B046360C9F85A
:105640000030FFF7ADFE0028A7D14D4A4D48136842
:105650001B0E88F803304C4B1B6813F4400F14D119
:105660001368116802680068890201F4406141EA28
:105670009252511CC0F3C2120232C3F3032301FA47
:1056800002F2093B02FA03F307E0012388F8023033
:105690000368C3F3152301339B02C8F8083063681D
:1056A0003B603A48DFF8B480DFF8B490FFF778FE4B
:1056B00000287FF472AF2B6835482A4F4FF40073EF
:1056C000C9F80030FFF76CFE00287FF466AF3B6836
:1056D000D8F80430C9F800302E48FFF761FE0028E2
:1056E0007FF45BAF3B682C480223C9F80030FFF71A
:1056F00057FE00287FF451AF3B68336823F0060360
:105700003360336843F002033360FFF715FE4FF454
:105710009070FFF71FFEFFF701FE98F80000BDE84C
:10572000F0870120BDE8F087BDE8F08730800440B5
:105730002C100B4000D0004000800001C0100B4036
:1057400028100B4004100B4044100B4024100B4059
:1057500030100B40BB007F1134100B40C077FF1F8F
:1057600008100B4010100B4000001A0800003040D9
:10577000A08601000000090200001A0300000909C8
:1057800018100B4014100B401C100B4000001B079E
:1057900000001A1000001A3700001A0670B5384BC6
:1057A0001A780546002A68D15B7803B94902354C5E
:1057B00035484FF6FF732360344B4FF48132196044
:1057C00043F8042CFFF7ECFD002857D1304B31484B
:1057D000314A1B6805F1400305F51075216841F059
:1057E000200611F4E00F266009D041F4E003254AB9
:1057F00043F020031360FFF719FE012036E0016833
:105800000905FCD5116843F8401C116843F83C1C9D
:10581000116843F8381C116843F8341C116843F8C8
:10582000301C116843F82C1C116843F8281C1168BF
:1058300043F8241C116843F8201C116843F81C1C11
:10584000116843F8181C116843F8141C116843F8D8
:10585000101C116843F80C1C116843F8081C1168EF
:1058600043F8041C4033AB42B8D1002023689B07A7
:10587000FCD5044B094A1A6070BD032070BD00BFFF
:10588000C077FF1F30100B4010003A1108100B407A
:1058900010100B4024100B4020100B402200000180
:1058A000F8B5294B1A780546002A4BD15B7803B925
:1058B0004902264C26484FF6FF732360254B4FF4D0
:1058C0008132196043F8042CFFF76AFD00283AD1B1
:1058D000214BDFF88CE01B6805F50076274623682E
:1058E0001A4AD906FBD53B6813F4E00F06D01368BB
:1058F00043F4E00343F01003136016E005F14002A7
:1059000055F8043BCEF80030AA42F9D123680F497C
:1059100043F010032360206810F4E00009D00B6806
:1059200043F4E00343F010030B60FFF77FFD012019
:1059300001E0B242D3D123689B07FCD5034B074A51
:105940001A60F8BD0320F8BDC077FF1F30100B4070
:1059500000003A1808100B4010100B401200000114
:1059600020100B40084B1A6842F480621A604FF016
:105970000042DA62FF225A63DA6A002AFCDA024B3A
:10598000986BC0B2704700BF00C00240064B1A6857
:1059900042F480621A604FF00042DA625863DA6AB9
:1059A000002AFCDA704700BF00C00240F0B5002AB0
:1059B000134E144F14BF4FF060544FF06454002244
:1059C00036F8125097FBF5F5A94204D3190707D50D
:1059D00044F0806404E0551C172DF7D02A46EFE709
:1059E00009495B0751F8222007D522F470431209B8
:1059F00002F4706244F000741A4322430260F0BD66
:105A00002C21010000879303F021010010B504460A
:105A1000FFF7CCFF204610BD13B5144C052818D84D
:105A2000DFE800F00303070B0F13002301221049E6
:105A300012E0002301220F490EE0002301220E494B
:105A40000AE0002301220D4906E0002301220C494F
:105A500002E00C490023012201A8FFF7D7FF019BB8
:105A600009482360FFF7A8FA02B010BDD077FF1FE6
:105A700000366E0100127A0000093D00C0C62D00FC
:105A800080841E00801A06000007FF1FC37A10B52D
:105A9000E3B172B6C37ADC0705D5134AC36814684C
:105AA000234083611360C37A9A0705D50F4A0369BF
:105AB00014682340C3611360C37A5B0705D50C4AA1
:105AC0004369146823400362136062B60368DA68AE
:105AD0008A4207D0074A1A60D960074A41F08041DC
