:10000000F8FF02209901000021500000ED4F000090
:10001000ED4F0000ED4F0000ED4F0000ED4F0000F0
:10002000ED4F0000ED4F0000ED4F000021500000AB
:1000300021500000ED4F0000C54C0000894D00002C
:1000400021500000215000002150000021500000EC
:1000500021500000215000002150000021500000DC
:1000600021500000215000002150000021500000CC
:1000700021500000215000002150000021500000BC
:1000800021500000215000002150000021500000AC
:10009000215000002150000021500000215000009C
:1000A0005934000065340000215000002150000048
:1000B000215000002150000021500000AD550000EB
:1000C00021500000AD690000215000000D6B0000C0
:1000D00021500000356C000021500000215000002C
:1000E000215000002150000021500000215000004C
:1000F000215000002150000021500000215000003C
:10010000215000002150000021500000215000002B
:1001100021500000A1580000215000002150000093
:10012000215000002150000021500000215000000B
:1001300021500000215000002150000021500000FB
:1001400021500000215000005D6D00002150000092
:10015000856E000021500000215000002150000059
:100160002150000021500000713400002150000097
:1001700021500000215000002150000021500000BB
:1001800021500000215000002150000021500000AB
:100190002150000021500000584B4CF2205210B565
:1001A0001A804DF628121A8000BF00BF04F03CFFF1
:1001B000534B4FF030621A60524A9A60524ADA60EA
:1001C000524B4FF470021A60514A136813F4807353
:1001D00001BF50490B604FF4A85313604E4B4F4979
:1001E0001A78100742BF1A7842F008021A704C4B76
:1001F0002A221A704B4A4C4B8B4204D252F8040FFD
:1002000043F8040BF8E7494B494A0021934202D2D4
:1002100043F8041BFAE7474A4748002350F82310E5
:1002200042F823100133662BF8D1444B444A802115
:1002300003F8011B9342FBD1424B3E4A1A60424BEA
:100240008A221A70A3F5805324225A70A0221A70B1
:100250009A799107FCD59A79D206FCD43B4A9379D6
:1002600003F00C03082B394BF9D103221A714622F3
:100270005A719A799406FCD534498A79334B5006E1
:10028000FBD5334A4FF08271116009215160202261
:100290001A709A7902F00C020C2AFAD12D4B2E4AD0
:1002A0001A602E4B2E4A1A6000225A60072243F829
:1002B000042C2C4AC3F80C2D62B604F0B7FF154B82
:1002C0001B68DA0705D5284804F00CFF274B284A9D
:1002D0001A60284B1B785B0609D5244C244B2268F6
:1002E0009A4204D1204804F0FDFE0023236007F069
:1002F000FFFA04F09FFE04F0B4FDFEE70E20054077
:1003000030800440823F04000100002B88ED00E0B3
:1003100010D0034014D0034002D007402013FF1F29
:1003200000E00740B8EA0000F806FF1F2013FF1F97
:10033000B428FF1F0002FF1F0000000000E400E0DF
:1003400056E400E008ED00E00050064000400640A2
:100350004480044004800440C010050014E000E024
:10036000BFD40100000020205BE2245C1CE00340BD
:10037000A5C3945A00F00740FFFFFFFFFFFFFFFFF8
:10038000FFFFFFFFFFFFFFFFFFFFFFFFFFFFFFFF7D
:10039000FFFFFFFFFFFFFFFFFFFFFFFFFFFFFFFF6D
:1003A000FFFFFFFFFFFFFFFFFFFFFFFFFFFFFFFF5D
:1003B000FFFFFFFFFFFFFFFFFFFFFFFFFFFFFFFF4D
:1003C000FFFFFFFFFFFFFFFFFFFFFFFFFFFFFFFF3D
:1003D000FFFFFFFFFFFFFFFFFFFFFFFFFFFFFFFF2D
:1003E000FFFFFFFFFFFFFFFFFFFFFFFFFFFFFFFF1D
:1003F000FFFFFFFFFFFFFFFFFFFFFFFFFFFFFFFF0D
:10040000FFFFFFFFFFFFFFFFFFFFFFFFDEF9FFFF23
:1004100010B5054C237833B9044B13B10448AFF33E
:1004200000800123237010BD2013FF1F0000000077
:10043000B4EA0000084B10B51BB108490848AFF3F7
:1004400000800848036803B910BD074B002BFBD0A0
:10045000BDE81040184700BF000000002413FF1F34
:10046000B4EA00002013FF1F00000000704770472F
:1004700010B50C21044604F013FE204610BD0123E4
:1004800010B503704370192383707823C37004463A
:1004900002F0BBFA207102F0BAFA0523A37100231F
:1004A0006071E371082010BD10B509230446064AA7
:1004B00000F8013B0549064B08F00AF801232377B1
:1004C000002363771E2010BD591F8A00BCBB0000AB
:1004D000E471AB0010B5012188B004460A4A04203B
:1004E00002F0BCF9094B22781A7062785A70A2782F
:1004F0009A706846E278DA70FFF7C1FF694600F04B
:100500002BFE08B010BD00BFCABB00003C13FF1F8C
:1005100030B50F4A0F4C85B005460121042002F08A
:100520009DF9294601A802F05BFA029BA360A91C71
:100530009DF80C30237301A802F052FA029B63610C
:100540009DF80C30237600F081FE05B030BD00BF71
:10055000DEBB00003C13FF1F08B5044A0121042044
:1005600002F07CF9BDE8084000F070BEF2BB00006C
:1005700010B50D4A8CB004460121042002F06EF93A
:10058000214601A80CAC02F02BFA052304F8203D0B
:100590000DF1110101A802F033FA2146032000F009
:1005A000DBFD0CB010BD00BFFEBB000000B5084A6B
:1005B00089B00121042002F051F908A9062301F8AD
:1005C000203D012000F0C8FD09B05DF804FB00BF2C
:1005D00012BC000008B5044A0121042002F03EF9D3
:1005E000BDE8084000F032BE25BC000008B5044A52
:1005F0000121042002F032F9BDE8084000F026BED7
:1006000039BC000000B5084A89B00121042002F07D
:1006100025F908A9072301F8203D012000F09CFDE1
:1006200009B05DF804FB00BF4DBC000008B502F046
:100630007DF80121034A084602F010F9BDE80840A0
:1006400000F012BE62BC000008B5044A012104207B
:1006500002F004F9BDE8084000F0F8BD87BC0000D6
:1006600008B5044A0121042002F0F8F8BDE808406A
:1006700000F0ECBD9DBC000000B5084A89B0012126
:10068000042002F0EBF808A9082301F8203D01201E
:1006900000F062FD09B05DF804FB00BFB2BC0000D1
:1006A00030B5044695B0224A0121042002F0D6F864
:1006B0002288ADF80C202246A37852F8030F8DF85B
:1006C0000E30516804AB03C30025906818602246C1
:1006D0008DF81D5052F80F0F8DF80F50516808AB70
:1006E00003C390681860134A8DF82D5003AB0121A5
:1006F000042002F0E9F804AB0F4A0121042002F0C3
:10070000E3F81B3408AB0D4A0121042002F0DCF8A9
:1007100002230B4A00940121042002F015F90CA8D1
:10072000FFF7C2FE0CA900F017FD15B030BD00BFE9
:10073000C7BC0000DBBC0000EEBC000001BD000037
:1007400014BD000038B53C4A05460C460420012182
:1007500002F084F8A5F11000072862D8DFE800F065
:100760006A04161A40616156237833B1012B09D10E
:10077000601CBDE83840FFF7CBBE601CBDE83840C8
:10078000FFF7A8BE01F0D2FF2C4A4DE0BDE838408B
:10079000FFF7E2BE2378052B1ED8DFE803F003083D
:1007A0000C111519601CBDE83840FFF7E1BEBDE82B
:1007B0003840FFF7FBBE601CBDE83840FFF70ABFBA
:1007C000BDE83840FFF712BFBDE83840FFF71ABF59
:1007D000BDE83840FFF72ABF01F0A8FF184A23E020
:1007E0002378012B0AD005D3022B0BD1BDE838406A
:1007F000FFF742BFBDE83840FFF726BFBDE83840ED
:10080000FFF72EBF01F092FF0E4A0DE0237823B9C7
:10081000A01CBDE83840FFF743BF01F087FF0A4A3C
:1008200002E001F083FF094A01210846BDE8384093
:1008300002F014B838BD00BF27BD00002EBD000077
:1008400043BD000057BD00006DBD000086BD000027
:10085000112803BF0878B0FA80F0400900207047E3
:10086000142804D10878431E58425841704700208C
:100870007047142803BF0878B0FA80F040090020C0
:100880007047132804D10878031F58425841704715
:1008900000207047132803BF0878B0FA80F04009A1
:1008A00000207047132806D10878013802288CBF31
:1008B00000200120704700207047FFFF38B5084A2C
:1008C00004460D460420012101F0C8FF29462046B8
:1008D000FFF7BEFF10B1034B01221A7038BD00BFF5
:1008E00092BD00005813FF1F38B50A4A04460D4652
:1008F0000420012101F0B2FF102C01D1002205E0FB
:1009000029462046FFF7ACFF10B10222024B1A70B5
:1009100038BD00BFA6BD00005813FF1F38B50B4AF5
:1009200004460D460420012101F098FF102C084BCD
:1009300001D1002207E029462046FFF79AFF08B1BF
:10094000012200E003221A7038BD00BFBABD0000CA
:100950005813FF1F38B50E4A04460D4604200121E6
:1009600001F07CFF102C01D1002205E02946204631
:10097000FFF787FF18B10222064B1A7038BD2946CF
:100980002046FFF787FF08B10422F5E738BD00BF16
:10099000CDBD00005813FF1F38B50A4A04460D4666
:1009A0000420012101F05AFF102C01D1002205E0A2
:1009B00029462046FFF776FF10B10322024B1A703A
:1009C00038BD00BFE5BD00005813FF1F034B0448AE
:1009D00000211C22197004F0E7BA00BF5813FF1F52
:1009E0003C13FF1F38B504460D46FFF7ABFE194B0D
:1009F0001B78042B22D8DFE803F003090F151B0036
:100A000029462046BDE83840FFF758BF2946204612
:100A1000BDE83840FFF768BF29462046BDE83840AA
:100A2000FFF77CBF29462046BDE83840FFF792BF5C
:100A300029462046BDE83840FFF7AEBF01F076FEFC
:100A4000054A0121002001F009FFBDE8384000F00F
:100A5000B1B900BF5813FF1FF5BD000010B50D4A16
:100A600004460121042001F0F9FEA4F1100007283A
:100A700007D8DFE800F00D040D0404060604012089
:100A800010BD01F053FE0121034A084601F0E6FEC5
:100A9000002010BD03BE000086BD000038B51E4A10
:100AA00005460C460420012101F0D8FEA5F11000F6
:100AB000072823D8DFE800F02904290A1722221D7D
:100AC000012C24D901F032FE144A1AE0052C06D874
:100AD000DFE804F01D1B031B1B1D022038BD01F0C5
:100AE00025FE0F4A0DE0022C0FD901F01FFE0D4A22
:100AF00007E074B101F01AFE0B4A02E001F016FEA5
:100B00000A4A0121084601F0A9FE002038BD042050
:100B100038BD1D2038BD00BF11BE00002EBD000035
:100B200043BD000057BD00006DBD000086BD000044
:100B30000648074941600022012382600161426149
:100B400003730376034A044906F058BA3C13FF1FA7
:100B500094BB0000F806FF1F6F040000012102F0A3
:100B600021BB90F8383090F839209A4281BF5A1C46
:100B70001B1880F83820187E98BF4FF0FF30704760
:100B8000031103EB830300F00F0000EB4300C0B23E
:100B90007047FFFF08B5024802F0C8F9012008BD00
:100BA000DC07FF1F38B50F4C0125D023022120465A
:100BB00084F83B3084F85E5084F85D5002F06CF9A4
:100BC0002046FFF7CBFF2B462A466821204602F03D
:100BD00065FB2046FFF7C5FF00F0E000E03818BFD6
:100BE000012038BDDC07FF1F2DE9FF47294C0646D1
:100BF000D02301250321204684F83B3084F85E5041
:100C000084F85D5002F048F92046FFF7A7FF2B4615
:100C100007226821204602F041FB2046FFF7A1FF92
:100C200000F07F00FFF7ACFF82462046FFF799FFF8
:100C3000C0B2FFF7A5FF81462046FFF792FFC0B282
:100C4000FFF79EFF80462046FFF78BFFC0B2FFF7FD
:100C500097FF07462046FFF784FF2046FFF781FFF6
:100C6000C0B2FFF78DFF05462046FFF77AFFC0B2FE
:100C7000FFF786FF002300F5FA6103938DE8000774
:100C80003B462A4689B2304601F0C3FE304604B0E6
:100C9000BDE8F087DC07FF1F1FB501AC2046FFF75A
:100CA000A3FF04F08FFA084B9DF809105A7991427E
:100CB0001FBF064A106094E8070083E80700044B52
:100CC00001221A7004B010BD5C13FF1F6C13FF1FCC
:100CD0006813FF1F7FB5154C154A0026022104201A
:100CE000267001F0BBFD134B01AD1E70124B314657
:100CF00028461E6001F002FF95E807000F4B83E8CD
:100D000007000F48FFF746FF0D48FFF74BFF30B9CC
:100D100001F00CFD0B4A0221012001F09FFDFFF7BD
:100D2000BBFF0123237004B070BD00BF6913FF1F18
:100D300020BE00006813FF1F6C13FF1F5C13FF1F12
:100D40005913FF1F2BBE0000014B1878704700BFDE
:100D50006913FF1F10B5044604F034FA0E4B1968EE
:100D60000E4B8842A0EB010138BF01F1FF319942DF
:100D700009D90B490B4801F0C5FEFFF78DFF20464E
:100D8000FFF7E8FF06E0074801F0BCFE05492046F2
:100D900001F055FE204610BD6C13FF1F40420F00AE
:100DA0003F420F005C13FF1F0021014801F0A6BE67
:100DB0005C13FF1F704738B5012204460D4603F04F
:100DC000D9FE024628B929462046BDE8384003F03E
:100DD000D1BE012038BDFFFF0421F8B5344A354F9C
:100DE000354C364D084601F039FD00233B70237029
:100DF000FE232B7002F012FC064602F0FDFBA870E9
:100E00001EB101F093FC2E4A07E029462D48FFF75A
:100E1000D2FF38B901F08AFC2B4A0421012001F0ED
:100E20001DFD14E02749294803F05EF90421012340
:100E300008463B7001F070FC48B104210846244A82
:100E400001F00CFD32460721204803F0AFFB0F22D2
:100E50000121204802F088FF18B901F067FC1E4A02
:100E600007E01C491D48FFF7A6FF40B901F05EFCF2
:100E70001B4A04210120BDE8F84001F0EFBC1749EE
:100E8000184803F031F9042101230846237001F0CA
:100E900043FC58B104210846134A01F0DFFC00224C
:100EA00007211048BDE8F84003F080BBF8BD00BF43
:100EB000C3BE0000BC13FF1F0814FF1F0914FF1F4F
:100EC000CBBE00001014FF1FEEBE0000E413FF1F96
:100ED00020BF00000C14FF1F3DBF00009413FF1F34
:100EE00060BF0000C013FF1F92BF00000D4A002327
:100EF00093700D4A93700D4A0221116082F82030E0
:100F00000B4A116082F820300A4A0B4913711160B4
:100F100093710A4A137111609371094A1371116038
:100F2000937170470914FF1F0C14FF1F1014FF1F4B
:100F30009413FF1FE413FF1F64E50000C013FF1F9D
:100F40007013FF1F10B501F0F9FB03210A2001F017
:100F5000DDFB0321082001F0D9FB0321092001F06A
:100F6000D5FB0321052001F0D1FB1E4C032001F02D
:100F7000BDFB41F2883004F043F9224600210320F2
:100F800001F06CFC184A0021032001F067FC174AAD
:100F90000021032001F062FC154A0021032001F02A
:100FA0005DFC22460021032001F058FC114A00217B
:100FB000032001F053FC104A0021032001F04EFCF5
:100FC000FFF788FEFFF708FF00F064F8FFF7FEFC6C
:100FD00001F028FB094A00210320BDE8104001F080
:100FE0003DBC00BFECC2000013C300003AC30000C8
:100FF00061C30000B5DB000088C300009CC3000093
:1010000010B5084C0849204600F03CF9074B187011
:1010100018B105492078FFF7E5FC0120BDE8104034
:1010200004F0EEB83814FF1F3A14FF1F3914FF1FE5
:1010300038B5074A04460D460420052101F00EFC90
:10104000A0B20DB140F48070BDE8384004F010BA91
:10105000BCC3000010B50D4A04460521042001F070
:10106000FDFB04F069FA002809DC094A0521022089
:1010700001F0F4FB4FF47A63013BFDD1F1E704F09A
:101080006BFA2070C0F3002010BD00BF70DA0000C2
:10109000C2C3000008B5094A0521042001F0DEFBA7
:1010A00046F2A81004F02AF9A42004F09DF9044A9D
:1010B00000231370034A137008BD00BFD7C300009C
:1010C0008814FF1F7C14FF1F37B504F035FA041E87
:1010D0001D4D07DD1D4A0521042001F0BFFB002343
:1010E0002B702EE0032004F02DF8012826D1184A99
:1010F0000521042001F0B2FB2A78164B82B91B6847
:101100000093009B13F1650F8ABFAB6064336423C7
:101110006B604FF0010398BFAA602B70002011E0B4
:101120001B680193019BA9686A685B1A9A424FF099
:10113000000406D22C70FFF7ADFF02E000202870FB
:1011400000E0204603B030BD8814FF1FE0C300005C
:10115000FBC30000E021FF1F2DE9F04186B00D46E2
:10116000064600910346344A0521042001F0ECFBB9
:1011700006F1FF386F1EA8440024474508D017F831
:10118000010F0021FFF754FF3B781C44E4B2F4E761
:1011900001212046FFF74CFF284A294C136804938D
:1011A000049B274F991D8ABFA360053305239046F2
:1011B000636098BF00224FF0010398BFA2602370C4
:1011C0002378B3B1D8F800300593059BB9687A68E5
:1011D0005B1A9A420DD21A4B00221A7004E09DF855
:1011E0000F302BB3AA2B18D129463046FFF7B4FF96
:1011F0001FE0FFF769FF0028E2D00DF10F00FFF7B5
:1012000029FF04460028EAD001F090FA01200D4A97
:10121000052101F023FB00200BE0FF2BE4D001F0BF
:1012200085FA0120084A052101F018FB204600E05C
:10123000012006B0BDE8F08111C40000E021FF1FCD
:101240007C14FF1F1BC4000048C4000008B5052122
:101250000420044A01F002FB01210020BDE80840FF
:10126000FFF7E6BE75C4000008B505210420044A56
:1012700001F0F4FA0121FF20BDE80840FFF7D8BED5
:101280007EC400002DE9FF4705460E46FFF71CFF10
:1012900000286AD02846FFF7DDFE002865D02F78A9
:1012A00007F0F803102B60D10123324A0095052185
:1012B000042001F049FB2878FFF7D0FB3446814633
:1012C000C6EB04085FFA88F8C1450CD92046FFF741
:1012D000C1FE23781F440134FFB20028F0D001F092
:1012E00025FA254A22E031782878FFF7D7FB4FF01E
:1012F000000982465FFA89F303EB08049A45E4B2D9
:101300000AD93019FFF7A6FE335D1F44FFB209F179
:1013100001090028EED0E2E704A8002300F8013D0F
:10132000FFF798FE38B101F001FA144A05210120B7
:1013300001F094FA19E09DF80F30BB4203D001F0A0
:10134000F5F90F4AF2E70134E4B2012C4FF0040042
:1013500083BF009623460B4A00959CBF01230A4A8F
:10136000052101F0F1FA204600E0002004B0BDE8BC
:10137000F08700BF88C4000095C40000CCC4000002
:1013800009C5000030C5000048C50000024A00231E
:101390001370024A137070478814FF1F7C14FF1FDC
:1013A000704710B55821044603F07AFE204610BD60
:1013B0000F2A38B504461D4617DD00F1140201F16D
:1013C000100351F8040B42F8040B9942F9D1226B37
:1013D0000021201D03F0E8FD1023E36284F834505F
:1013E000802384F83530012038BD002038BD40F31B
:1013F000C01303F01B0383EA4000C0B27047FFFF35
:101400002DE9F04F044685B042B901F10F03029374
:1014100004F10F030027B24E019382E0B04DB14FAB
:10142000002001F10F0E4B7BEE5C0B785E40C35D3C
:1014300073400B708B7BEE5C4B7873404B70CB7BB7
:10144000EE5C8B7873408B700B7BEE5CCB785E40F0
:101450000B4603F8036F13F801CF13F8046C7345C0
:101460008CEA06061E70F6D101300A28DBD1631E15
:101470004D1E04F10F0613F8017F15F8010FB3425A
:1014800080EA07001870F6D1BFE7DD7813F8010D88
:10149000454099421D71F8D14B7BF35C5840914B0C
:1014A000DB1B5B7A58408B7B0870F05C4B784340C9
:1014B0004B70CB7BF05C8B7843408B700B7BF05C8C
:1014C000CB784340CB70002F57D1607A637B607339
:1014D0006079607260786071A07AA5786370A0709E
:1014E000A37BE079A572A579A371E378E070E07A37
:1014F000E071E07BA573E373E072631E01F1FF3CD2
:1015000013F8010F784D15F800E01CF8010F8EEA72
:101510000000187001988342F2D101370A2F00F0C1
:10152000CF8012B101F10C03AFE7631E4D1E13F81B
:1015300001EF15F8010F8EEA0000305C1870019879
:101540008342F4D1607963786070607A6071607B07
:101550006072A078A57A6373A072A379E07AA5700F
:10156000A57BA373E37BE073E079E072E078A5717B
:10157000E071E3700FB1092F7FD00023009342E0A8
:101580006B1C05F1020A05F1030914F805B0E05CD3
:1015900014F809E014F80A80039388EA0E088BEA2D
:1015A000000080EA0808FFF722FF8BEA080E80EAB5
:1015B0000E006055039B14F80A00E55C6840FFF7D5
:1015C00016FF88EA0505039B6840E05414F80A50AA
:1015D00014F809006840FFF70AFF88EA050568402B
:1015E00004F80A0014F809508BEA0500FFF7FFFE23
:1015F000009B88EA0508013380EA0800042B04F800
:101600000900009336D0009B9D00EDB2002AB7D0B0
:1016100005F1020B14F805A014F80B008AEA00008B
:10162000FFF7E5FEFFF7E3FE05F1010905F1030809
:1016300014F809E0039014F808008EEA0000FFF7A0
:10164000D6FEFFF7D4FE039B8AEA030A04F805A03E
:1016500014F809E080EA0E0E04F809E014F80BE033
:1016600083EA0E0304F80B3014F80830584004F8ED
:10167000080085E7002A7FF428AF4B7BF05C0B78ED
:101680005840184BFB5C43400B708B7BF05C4B78F5
:1016900043404B70CB7BF05C8B7843408B700B7B73
:1016A000F05CCB7858400B4603F8030F13F8015F4A
:1016B00013F8040C6840187002988342F6D12CE7A6
:1016C0005AB9631E01390F3413F8010F11F8012FB5
:1016D0009C4282EA00021A70F6D105B0BDE8F08F94
:1016E0007CC500007CC6000086C60000F0B58E46B2
:1016F000C16A102985B01DD100F114056E4600F1B4
:101700002404EC4628686968374603C70835A542B3
:101710003E46F7D111467046103251F8044B40F85E
:10172000044B9142F9D170461A466146FFF768FEB4
:10173000012000E0002005B0F0BDFFFF0022C262E2
:1017400080F83420FF2280F83520024A02601022FF
:10175000026370476CC50000704710B54FF4EC7120
:10176000044603F09DFC204610BDFFFF2DE9F0412B
:1017700042680468DFF888E15F4E84EA121303F0E0
:101780000F3384EA030082EA03135C4A80EA804450
:101790002240504080EA9242584883EA83442040E5
:1017A000434083EA904382EA530000F0553082EAD6
:1017B000000583EA400080EA152202F0FF1280EA69
:1017C000020485EA022282EA540000F055304240C9
:1017D000130984EA400000F47F4403F0706323435C
:1017E000040404F47F042343C0F30740034322F0BE
:1017F0007042083100275EF8270030B195069C063C
:1018000045EA920544EA930405E0D506DC0645EA7C
:10181000520544EA530425F07042D009C2F3811CFA
:1018200000F03C004CEA00004FEA923CC2F343381F
:101830000CF0300C48EA0C0C40300CF1800C56F8DF
:10184000208056F82C0005F03F0C48EA000056F8BE
:101850002C504FEA525C28430CF0060CC2F30055A2
:101860004FEA925845EA0C0C08F038084CEA080C8C
:101870000CF1C00C24F0704356F82C504FEA132C96
:1018800005430CF03C0CC3F3C11040EA0C0C04F00F
:101890003F04C3F3C53000F5C07004F580740CF547
:1018A000A07C56F8208056F8240056F82C4048EAD0
:1018B000000020439C0DC3F3435C04F030044CEA69
:1018C000040404F5E074013756F824402043ACB218
:1018D00044EA0044000C000440EA15404FEAB474A6
:1018E0004FEAB060102F41F8084C41F8040C01F1A8
:1018F000080180D1BDE8F081A0CF00000000CCCC71
:10190000A0D700002DE9F0414368076887EA131566
:1019100005F00F356F4083EA051585EA17439BB242
:1019200085EA030487EA034383EA940505F0333527
:1019300083EA050684EA850585EA162303F0FF138A
:101940005D4086EA032383EA550404F0553463407E
:1019500085EA44054FEA73734FEA7575A14C002A76
:1019600000F08A8001F180070E684A685E40C6F385
:10197000852CC6F3850E0CF1800C54F82E8054F89B
:101980002CE04FEA966C0CF5C07CC6F3854606F554
:10199000807654F82CC054F826605A4088EA0E0E1F
:1019A0004FEA32128EEA0C0E8EEA060E960E06F5FD
:1019B000E076103154F826608EEA060EC2F38506F2
:1019C000403654F826608EEA060EC2F38526C036ED
:1019D000C2F3854202F5A07254F8266054F8222022
:1019E0008EEA0606724051F8086C55406E404FEA88
:1019F000966CC6F3850E0CF5C07C54F82E8054F816
:101A00002CE051F8042C88EA0E0E8EEA0303C6F38C
:101A1000852E0EF1800EC6F3854606F5807654F8C5
:101A20002EE054F826606A404FEA321283EA0E0331
:101A30007340960E06F5E0768F4254F8266083EAEE
:101A40000603C2F3850606F1400654F8266083EAD1
:101A50000603C2F3852606F1C006C2F3854202F5ED
:101A6000A07254F8266054F8222083EA060383EA21
:101A700002037FF479AF88E0A1F180078E6FCA6F0F
:101A80005E40C6F3852CC6F3850E0CF1800C54F82D
:101A90002E8054F82CE04FEA966C0CF5C07CC6F30F
:101AA000854606F5807654F82CC054F826605A40D6
:101AB00088EA0E0E4FEA32128EEA0C0E8EEA060EFD
:101AC000960E06F5E076103954F826608EEA060E7A
:101AD000C2F38506403654F826608EEA060EC2F33D
:101AE0008526C036C2F3854202F5A07254F82660FE
:101AF00054F822208EEA06067240D1F880605540E4
:101B00006E404FEA966CC6F3850E0CF5C07C54F817
:101B10002E8054F82CE0D1F8842088EA0E0E8EEA4C
:101B20000303C6F3852E0EF1800EC6F3854606F537
:101B3000807654F82EE054F826606A404FEA32125C
:101B400083EA0E037340960E06F5E076B94254F828
:101B5000266083EA0603C2F3850606F1400654F8C0
:101B6000266083EA0603C2F3852606F1C006C2F3A7
:101B7000854202F5A07254F8266054F8222083EAC8
:101B8000060383EA02037FF479AF4FEAF5014FEAD7
:101B9000F30381EA530202F0553281EA020483EA38
:101BA000420383EA142101F0FF1183EA010284EA6F
:101BB000012181EA920303F03333594082EA83031F
:101BC00083EA114292B2534081EA024282EA13113F
:101BD00001F00F314A4083EA011302604360BDE81F
:101BE000F08100BFA0C7000013B50C461146026883
:101BF00000924268019268461A46FFF783FE009BF6
:101C000023701A0A62701A0C1B0EE370019BA270FB
:101C10001A0A237162711A0C1B0EA271E37102B0D1
:101C200010BD2DE9F04104461E46E36A102B0D4617
:101C300010460AD0182B26D0082B44D104F15802A4
:101C40000EB9012313E0002311E004F15807D83442
:101C500096B901233A46FFF7C7FF33462246294685
:101C60002846FFF7C1FF01233A4629462846FFF7D9
:101C7000BBFF0120BDE8F08100233A46FFF7B4FF27
:101C80000123224619E004F1580704F1D80804F5AD
:101C9000AC7466B901233A46FFF7A6FF33464246C5
:101CA00029462846FFF7A0FF01232246DDE700234F
:101CB0002246FFF799FF0123424629462846FFF7AF
:101CC00093FF0023D0E70020BDE8F0810022C2622C
:101CD00080F83420FF2280F83520024A0260082272
:101CE0000263704790C70000F0B54D1E471E01F11A
:101CF000070E802615F8014F334224F0010418BF67
:101D000044F00104754507F8014F4FEA5606F1D13A
:101D10000823934205DACC5C24F00104C454013357
:101D2000F7E7F0BDF8B500F1140604463046154655
:101D30001F46FFF7D9FF102A10D0182A1BD0082AF7
:101D400037D104F1130304F11B0213F8011F1972B8
:101D50009342FAD104F15801304608E004F15801E9
:101D60003046FFF703FD04F1D80104F11C00FFF732
:101D7000FDFC002311E004F158013046FFF7F6FCAA
:101D800004F1D80104F11C00FFF7F0FC04F5AC717C
:101D900004F12400FFF7EAFC402384F83530226B7D
:101DA0000021201D03F000F984F83470E562012061
:101DB000F8BD0020F8BD10B504460846002184E8AF
:101DC0000500A16003F0F0F8204610BD2DE9F043B6
:101DD000044687B0264600F05FF8234B46F85C3B8C
:101DE00004F50D783046FFF771FF04F20C474046CA
:101DF000FFF76CFF3846FFF7A1FC04F58E60FFF794
:101E00009DFC04F59960FFF761FF04F2A16178225F
:101E100004F21C70FFF7CFFF0025FF234FF01809D5
:101E200084F864344A462946C4F86C5484F8A056B1
:101E3000C4F86854684603F0B7F82B466946082290
:101E40003046FFF76FFF2B464A4669464046FFF78C
:101E500069FF2B46102269463846FFF7A9FA20464B
:101E600007B0BDE8F08300BFE8D70000FF2280F88C
:101E700064240022C0F8682400F008BB054B1B68EE
:101E80004FF00042DA625863DA6A002AFCDA986B93
:101E9000C0B270473807FF1F064A0260002280F870
:101EA000542080F8552080F8562080F8572080F87C
:101EB00058207047ACDD000038B504469DF810503E
:101EC0009DF8140084F8541084F8580084F85520C4
:101ED00084F8563084F85750012103F041F994F802
:101EE00057000121BDE8384003F03AB91FB5044658
:101EF000002190F8570003F005F9022003F080F963
:101F0000124A0A21042000F0A9FC0220FFF7B6FFC4
:101F10000020FFF7B3FF04AB0D4A03F8010D0A21BF
:101F200000930420012300F00FFD012194F85700D5
:101F300003F0E8F84FF4FA63013BFDD19DF80F0080
:101F4000431E5842584104B010BD00BF49DA00009A
:101F500065DA000070B5064665243046FFF7C6FF17
:101F6000054670B9013CA4B23CB900F0DFFB064A5B
:101F70000A21012000F072FC03E00A2003F040F97E
:101F8000EBE7284670BD00BF75DA0000F8B50F46D4
:101F90000646002190F85700144603F0B3F80220DB
:101FA00003F02EF90D4A0A21042000F057FC01200D
:101FB000FFF764FF013C7D1E3C44A54204D015F8A8
:101FC000010FFFF75BFFF8E7012196F8570003F0D8
:101FD00099F84FF4FA63013BFDD1F8BD8CDA0000AB
:101FE000F0B5054689B03A4A3A4C0A21042000F07F
:101FF00035FC012195F8580003F084F80A2003F01D
:10200000FFF8002195F8580003F07CF84FF4C870F1
:1020100003F0F6F8012195F8580003F073F80A2050
:1020200003F0EEF895F8557095F8566095F8541051
:10203000204600F04FFE3946204600F001FE3146B2
:10204000204600F0AFFD204600F070FDE37AF3B1CA
:1020500072B6E37AD90705D51F4AE36811680B40C9
:10206000A3611360E37A1B499A0705D51B4A0B69E4
:1020700010680340CB611360E37A16495B0705D50E
:10208000174A4B69106803400B62136062B62368FD
:10209000144AD968914207D013491960DA6002F1F5
:1020A00080421A61114A1A6003AC1422552120465D
:1020B00002F07AFF214628461422FFF767FF0094BA
:1020C00014230B4A0A21042000F03EFC09B0F0BDA5
:1020D000ACDA00003807FF1F80E100E084E100E097
:1020E00088E100E00540003901403F0000003F80EA
:1020F000B2DA000030B59BB0FF248DF80E40541CBE
:102100008DF80F40D44300238DF81040D4248DF86F
:102110000C308DF80D308DF81140DCB2A24205D99B
:1021200003AC1C44CD5CA5710133F6E70025911D7D
:102130002B46ECB28C4205F1010507DA0DF1680E71
:10214000744414F85C4C2344DBB2F2E71AAC21442B
:10215000DB4301F85C3C1AAB02F108041A4403ADFE
:10216000002302F8553C2946E2B2FFF70FFF009525
:10217000A3B2034A0A21042000F0E6FB1BB030BDE5
:10218000C6DA00002DE9F041074688461446FFF7FD
:10219000E1FE064638B3002197F8570002F0B2FF7F
:1021A000022003F02DF8114A0A21042000F056FB0A
:1021B0000320FFF763FE013C08F1FF354444A542CC
:1021C00008D0012003F01CF80020FFF757FE05F8A7
:1021D000010FF4E7012197F8570002F093FF4FF445
:1021E000FA63013BFDD13046BDE8F081CFDA000053
:1021F00030B5144B87B0044604AD186802909B8834
:10220000ADF80C30204606222946FFF7BBFF0446F6
:10221000A0B10D4A00950A210420062300F094FB8A
:10222000062202A9284605F069FE38B100F07EFAC0
:10223000064A0A21012000F011FB0024204607B0C5
:1022400030BD00BFECD70000ECDA0000F5DA00008A
:1022500010B50446FFF74EFF2046BDE81040FFF7DB
:10226000C7BFFFFFF0B5531F4B2B97B00D46174666
:1022700003D900F05BFA314A2BE002AE3146FFF79A
:1022800081FF002857D032460021381F884207DDE1
:1022900012F8013B13B91478FF2C22D00131F5E775
:1022A0000024274D0AE016AB1A4412F8503C254A88
:1022B000DB43DBB29D4214BF1546002500963B462A
:1022C000214A0A21042000F03FFB45B100F02EFA1C
:1022D0002A4601200A2100F0C1FA00202BE0E0B2DA
:1022E00029E016AA0A4412F84E4C12F84D2C22444A
:1022F000B2F5807F1DD14A1D2244974215DB0A1D8D
:102300009C4205DD581830440079E8540133F7E762
:10231000224464B12B78D52B09D100259142C2DA31
:10232000735C1D44EDB20131F8E7084DC6E7084D76
:10233000C4E7084DC2E717B0F0BD00BFD7DB00000F
:102340000BDB0000B6DB0000F2DB000051DB00001D
:1023500088DB000029DB00002DE9F8430446254610
:102360000420894690460A21174A1F4600F076FA53
:10237000022305F8043F012229462046FFF768FFA3
:102380000646E8B10D2229462046FFF76BFF0628D6
:1023900002D16379032B08D000F0C8F90B4A0A2157
:1023A000012000F05BFA00260AE0A37989F80030EA
:1023B000E37988F80030237A3B70089B627A1A70C0
:1023C0003046BDE8F88300BFFCDB00000FDC0000F6
:1023D00070B5144A04460A21042000F03FFA261D75
:1023E000142201232271A2716371E3710422314628
:1023F0002046FFF72DFF054688B1092231462046C9
:10240000FFF730FF022802D16379152B07D000F0C7
:102410008DF9054A0A21012000F020FA00252846FE
:1024200070BD00BF29DC000033DC000070B5154A28
:1024300004460A21042000F011FA32232371FF23FD
:10244000A37101230522E371261D03236271237208
:1024500031462046FFF7FCFE054688B10922314689
:102460002046FFF7FFFE022802D16379332B07D005
:1024700000F05CF9044A0A21012000F0EFF9002580
:10248000284670BD44DC000060DC000070B5144AD2
:1024900004460A21042000F0E1F9322323710123CC
:1024A0006371261D0023A371032231462046FFF7E6
:1024B000CFFE054688B1092231462046FFF7D2FEFD
:1024C000022802D16379332B07D000F02FF9054A97
:1024D0000A21012000F0C2F90025284670BD00BF86
:1024E00083DC000094DC000030B52F4A2F4C99B0FB
:1024F0000B21032000F0B2F900232D482370FFF7D1
:102500006FFD0DF10F0300930DF10D020DF10E03A0
:1025100003A92748FFF720FF002835D09DF80E10AB
:102520009DF80D309DF80C20009104A8214905F07C
:10253000CFFF04AA0B21042000F090F99DF80F5062
:102540001D491E4815F0010F14BF0A46024615F03A
:10255000020F14BF0B46034615F0040F08BF0146D7
:10256000009104A8164905F0B3FF042004AA0B212A
:1025700000F074F90E48FFF759FF28B10C48FFF737
:1025800027FF08B10123237023782BB900F0CEF880
:102590000C4A0B21012002E00B4A0B21032000F022
:1025A0005DF919B030BD00BFCFDD0000941DFF1FE5
:1025B0009414FF1FEBDD0000C8DD0000CCDD00003F
:1025C00012DE000046DE00005ADE000070B50F4D3E
:1025D0000F4C104E2846FFF7F9FB28460E4D0F49C9
:1025E000224604F00BFD2846FFF770FB28460C4DF1
:1025F0002246314604F002FD2846FFF767FB2246DB
:1026000031462846BDE8704004F0F8BC9414FF1F22
:10261000F806FF1F59170000BC1BFF1F8126000092
:10262000981DFF1F07B5104A0B21042000F016F972
:10263000162206238DE80C001421152305220B48D1
:10264000FFF73AFCFFF750FF10231822084909480A
:10265000FFF768FB084909481023182203B05DF80A
:1026600004EBFFF75FBB00BFC0E100009414FF1F45
:10267000CAE10000BC1BFF1FB0DD0000981DFF1F5A
:102680000C4B10B50446036000F59960FFF764F841
:1026900004F58E60FEF784FE04F20C40FEF780FE27
:1026A00004F50D70FFF758F804F15C00FFF754F8DB
:1026B000204610BDE8D7000070B5044608460D4618
:1026C00005F03EFF23680246294620465B68BDE8C8
:1026D0007040184703681B68184708B5FFF7ECFF00
:1026E00008BD0368C9B21B681847FFFF10B5054B4A
:1026F000054A19780023DCB2A14202D9985401336B
:10270000F9E710BDFC06FF1F701FFF1F014B195496
:10271000704700BF701FFF1F034B185C884234BF17
:1027200000200120704700BF701FFF1F024A13687E
:1027300001331360704700BF901FFF1F08B50420CE
:10274000FFF7D4FF014B00221A6008BD901FFF1F46
:1027500030B58FB004460D46FEF7F6FAA0B103A8D7
:10276000FEF7F8FA4FF47A700599B1FBF0F1019198
:102770009DF8111000919DF810309DF80F201A4916
:1027800006A805F0A5FE07E0184B19491B6803933E
:10279000039A06A805F09CFE06A91648FFF78CFFD1
:1027A000052C10D8DFE804F0030507090B0D1249CA
:1027B0000AE0124908E0124906E0124904E0124911
:1027C00002E0124900E012490A48FFF775FF2B4664
:1027D000104A0A2106A805F02DFE06A90548FFF7B4
:1027E0006BFF0FB030BD00BF24E20000E021FF1FEF
:1027F00040E20000C008FF1F46E2000051E2000076
:102800005CE2000067E2000072E200007DE200008E
:1028100088E2000093E20000052810B5144604D9B0
:10282000FFF784FF0C460A4902200A4B1B788342BB
:102830000DD3FFF78DFF21460748FFF73DFF0A2123
:102840000548FFF74EFFBDE8104003F097BF10BDED
:102850009AE20000701FFF1FC008FF1F052810B577
:1028600014460DD9FFF762FF0D2996BF114B124A8E
:1028700053F8212011490220BDE81040FFF7CCBFDA
:102880000F4B5B5C834213D30D2996BF094B0A495A
:1028900053F82110FFF75CFF21460A48FFF70CFFB1
:1028A0000A210848FFF71DFFBDE8104003F066BF8E
:1028B00010BD00BFE4E100001CE200009AE200004D
:1028C000701FFF1FC008FF1F052838B515461C469E
:1028D0000DD9FFF72BFF0D2996BF154B154A53F85D
:1028E000212015490220BDE83840FFF795BF134B62
:1028F0005B5C83421BD30D2996BF0D4B0D4953F8EA
:102900002110FFF725FF29460D48FFF7D5FE0D4999
:102910000B48FFF7E2FE21460948FFF7CDFE0A21EA
:102920000748FFF7DEFEBDE8384003F027BF38BD9B
:10293000E4E100001CE200009AE20000701FFF1FAB
:10294000C008FF1F12BD000070B5052816461D46C1
:10295000049C0DD9FFF7EAFE0D2996BF1B4B1C4ABC
:1029600053F821201B490220BDE87040FFF754BFF7
:10297000194B5B5C834228D30D2996BF134B144936
:1029800053F82110FFF7E4FE31461448FFF794FE98
:1029900020211248FFF79EFE013D661E2C44A642F0
:1029A0000BD016F8011F0D480023102202F016FA72
:1029B00020210A48FFF78EFEF1E70A210748FFF7BA
:1029C00090FEBDE8704003F0D9BE70BDE4E10000A8
:1029D0001CE200009AE20000701FFF1FC008FF1FEA
:1029E000064A02600022426010B5012202720C7891
:1029F0004A7802EB0422426010BD00BF94BB000085
:102A000043684B7000220A70704701207047022013
:102A1000704783709DF80030C370B1F5FA6F9DF870
:102A20000430037128BFA1F5FA619DF808304371A5
:102A300028BF89B2039B01704270836070470A7897
:102A400002704A7842708A788270CA78C2700A79B5
:102A500002714A7942718A6882607047244B3C2235
:102A60000B4430B5B3FBF2F402FB14314171B4FBFB
:102A7000F2F102FB1142182402714FF46162B3FBC0
:102A8000F2F2B2FBF4F104FB1122C270194AB3FB5B
:102A9000F2F300229BB20270017811F003040CBF24
:102AA0000122002202F5B6759D4207DAC2F57E4288
:102AB0009332134401319BB20170EDE701220E4DB8
:102AC000427041786A1812F8012C1CB9022904BF1F
:102AD0000132D2B292B2934204D39B1A01319BB21B
:102AE0004170EEE7013383700023836030BD00BF87
:102AF00080BC92C78051010015E3000010B5FFF7BC
:102B0000ADFF10BD81607047C38B1B0441BFC38BF9
:102B1000C1F3080103F47E43194358BFC1F30E010A
:102B2000C183C38B9BB2C3827047FFFF43681968A0
:102B30005A6810B50C6822430A6002681549116092
:102B40001549D16001F18041116114491160417A48
:102B5000134A5C180C3194F82C4053F8211002EB06
:102B6000C40464682160017A5C1803EB8101247E4F
:102B7000C96902EBC40464682160817A581803EBC8
:102B8000810390F840005B6C02EBC0025268136056
:102B900010BD00BF01401F000110003800001F8061
:102BA00078E500004368234A9A4270B518D10B2992
:102BB00004D1214C227822F0030210E0072906D12B
:102BC0001D4C227822F0030242F0010207E01C298A
:102BD00006D1194C227822F0030242F00202227040
:102BE000427A1A4492F82C40A14221D003F12B05DD
:102BF000002215F8016F8E4217D119680D685968C7
:102C00000D4210D00D4901EBC40400256468256015
:102C10009C1894F82C4001EBC40102F10C044968A3
:102C200053F824300B60427270BD0132042AE0D1A7
:102C300070BD00BFE8E30000DC21FF1F78E5000065
:102C40004368214A9A4270B518D10C2904D11F4C0F
:102C5000227822F00C0210E0082906D11B4C2278C1
:102C600022F00C0242F0040207E0272906D1174C9B
:102C7000227822F00C0242F008022270027A1A44F2
:102C8000147EA1421FD003F11705002215F8016F31
:102C90008E4215D119680D6859680D420ED00C4945
:102CA00001EBC4040025646825609C1803EB8203D3
:102CB000247EDB6901EBC40149680B60027270BDC0
:102CC0000132042AE2D170BDE8E30000DC21FF1FDD
:102CD00078E500004368254A9A4230B518D10D299D
:102CE00004D1234C227822F0300210E00E2906D1C4
:102CF0001F4C227822F0300242F0100207E01B291C
:102D000006D11B4C227822F0300242F020022270C1
:102D1000827A1A4492F84040A14226D093F840208B
:102D20008A4209D093F841208A4207D093F8422082
:102D30008A421AD1022202E0002200E00122196830
:102D40000D6859680D420FD00A4901EBC4040025F3
:102D5000646825609C1803EB820394F840405B6C28
:102D600001EBC40149680B60827230BDE8E30000EA
:102D7000DC21FF1F78E5000070B5036B1A79304B3A
:102D80001A70C36A1A792F4B1A70026B12791A7073
:102D9000826A0446002A3FD04368D9688A4203D930
:102DA000521A8262012110E0C36A511E1868FFF7AF
:102DB000ABFE236BA16A1868FFF7A6FEA16A002389
:102DC00011F1FF3118BF0121A362E36A1B68186883
:102DD00004F124029042226805D1D36894F824308B
:102DE00043F000430EE0D06810F0804F186815BF24
:102DF0001D681D680088007814BF023501351D600C
:102E000040F000435363236B1A790F4B1A70A9B13A
:102E1000E26A12791A7070BD03680C491A63D962AC
:102E2000D96821F08041D960032380F82530406BB8
:102E3000036811461B68BDE87040184770BD00BFAD
:102E40001F8000401C8000401B80004000000FFFDE
:102E500008B50248FFF790FF08BD00BF0007FF1F3D
:102E600008B50248FFF788FF08BD00BF3807FF1FFD
:102E70000020704790F8392090F83800101A7047F9
:102E800090F8383090F839209A4286BF1B18187E87
:102E90004FF0FF3070477047B0F85E302BB190F8BC
:102EA0005D30202B03D901230371002070475A1C89
:102EB000034480F85D2083F83B100120704738B54B
:102EC0000446B0F85E001546A0B194F85D30C3F139
:102ED0002102954282BF01201546207104F13B007A
:102EE00018442A4601F0C6FF94F85D302B4484F85C
:102EF0005D30284638BDFFFF43691A685B68126879
:102F00001A420ED0074B9942036901D82C2204E0E3
:102F1000054A914294BF1C2212225A70036904226E
:102F20009A7170477F1A06003F420F0070B5002368
:102F3000456980F8383080F8393080F85C3080F8A6
:102F40005D3080F85E3080F85F3029686A680E680E
:102F50004366324383660A6002699370466990F85B
:102F60006110124A31440D7A4B7B02EBC5051B02FE
:102F70006D6803F4E06343F064032B6090F8623003
:102F80003344997CDB7D02EBC1021B025268084985
:102F900003F4E06343F064031360FFF7ADFF0369DC
:102FA00020225A71036980229A7070BD78E5000072
:102FB000A086010038B50269D578EDB215F0100F82
:102FC000044605F0400303D103F0FF012BB92AE0CA
:102FD0001021D170002BF7D138BD05F0040505F0A4
:102FE000FF02374BCDB100221A70636E84F85D206A
:102FF00003B1984794F85D3023B9012284F85D202D
:1030000084F83B302369D0229A70236994F83B20DE
:103010001A71012384F85C304DE00121197084F8A5
:10302000392023692DE022699379DBB203F0600037
:10303000602809D103F0DF039371A36E23B184F8F4
:10304000381094F83900984723699A7802F01002F2
:1030500002F0FF01D2B115F0010512D194F85C2005
:1030600094F85D10914281BF511C121984F85C10D4
:1030700092F83B208CBF1A711D712369D0229A707F
:1030800019E0C0229A7023691B7914E084F860105B
:103090009A7942F020029A7123691A7994F83930AA
:1030A0001F2BD2B207D80649097821B1591C2344F5
:1030B00084F839101A7623690222DA7038BD00BF0D
:1030C000941FFF1F2DE9F347344D354F2B680093B4
:1030D000DDF8008004460021C8262269D3789B06CB
:1030E00058D52B680193019BC8EB03030F2BF4D930
:1030F000002947D1626994F8613013440521187A98
:1031000002F02EF8626994F861301344012193F8BB
:1031100012A0504602F024F84FF009090021504651
:1031200001F0F0FF3346013BFDD10121504601F093
:10313000E9FF3346013BFDD1B9F10109EED16069E8
:1031400094F861200244117A537B07EBC1011B0202
:10315000496803F4E06343F064030B6094F8623061
:1031600003449A7CDB7D07EBC2021B02526803F426
:10317000E06343F0640313604FF4C873013BFDD177
:103180000121AAE7102BA8D000209070236980228B
:103190009A7000E0012002B0BDE8F087E021FF1F37
:1031A00078E500002DE9FF4103691222DA70026917
:1031B000937803F0200304460D4603F0FF0613B195
:1031C000B423937008E0FFF77DFF002860D02369E7
:1031D00084F85F60B0229A702F4B21691A680092C0
:1031E000009ECA7802F0200202F0FF00002A45D0BB
:1031F0000020022794F85D20C1B28A4235D96618B2
:10320000226996F83B6016711A680392DDF80C800B
:103210002669F278D2B202F0020E0EF0FF0CBEF177
:10322000000F0BD1920609D51A680292029AC8EBD8
:103230000202052AEDD986F802C026E0F770266959
:10324000F278D2B212F0100F02D112F0200F03D197
:103250008023B370042009E0D20700F10100C9D532
:1032600000290CBF0220032001E0002015B12369D2
:1032700080229A70002384F85E300AE01A68019276
:10328000019A921B042AACD98870236980229A7013
:10329000042004B0BDE8F081E021FF1F2DE9F043D8
:1032A0009946002380F8383080F839300369174692
:1032B0001222DA700269937803F0200389B0054680
:1032C000884603F0FF0413B1B423937009E0FFF7BD
:1032D000F9FE002800F0B9802B6985F85F40B02224
:1032E0009A705C4E2A69336800930099D37803F092
:1032F000200303F0FF0433B933680193019B5B1A89
:10330000042BF3D917E04FEA480848F001085FFAA8
:1033100088F882F804803368029302992A69D37886
:1033200003F0020303F0FF044BB933680393039BDC
:103330005B1A052BF3D994702B69802210E00223CD
:10334000D3702B69D87810F0110403D080229A70C2
:1033500000247AE037B9B9F1000F14BF8022A0220F
:103360009A7072E0012F0CBFA822A0229A702B69DC
:103370001B7900200221A824012F2A6933682BD051
:103380000493DDF810C0D37803F0020303F0FF0EBE
:103390004BB933680593059BCCEB0303052BF2D99E
:1033A00082F802E04BE0D1702A69D378DBB213F0E7
:1033B000100F49D19B0647D5013FFFB2012F08BF2F
:1033C00094702B691F289FBF421C40191B790376FC
:1033D0008CBF1B79D0B2CFE70693069CD37803F05D
:1033E000020303F0FF013BB933680793079B1B1BE4
:1033F000052BF3D9917022E00223D3702A69D37888
:10340000DBB2D9060AD51023D370C823013BFDD106
:103410002A69937803F0F703937015E09B0613D5A0
:10342000B02393701F282B699FBF421C40191B7942
:1034300003768CBF1B79D0B2B9F1000F02D02B6993
:1034400080229A7085F839000446204609B0BDE80C
:10345000F08300BFE021FF1F0148FFF7ABBD00BFB5
:10346000DC07FF1F0148FFF7A5BD00BF4808FF1F8D
:103470000148FFF79FBD00BF7007FF1F054A40F2DC
:1034800043434FF48861136053609160D3601361CC
:103490005361704700D00440054A40F203130021F5
:1034A000136053609160D36013615361704700BF34
:1034B00000D004400E4A116821F0080310B51360D3
:1034C0000C4B0B40184340F460200B4910604FF444
:1034D00080130C68240701D4013BFAD140F00800A6
:1034E0001060064A136843F48013136010BD00BFD8
:1034F0002C100B400700F0FF24100B4030100B4045
:103500001E4A136843F0800310B513601C4B1C4621
:103510001968C907FCD421688907F9D4194B1860C8
:103520004FF0807014681849144B2140013811B9CC
:103530000028F7D102E008B1012907D0136843F44D
:10354000702343F001031360012010BD1A681206B6
:1035500005D51A6842F001121A60032010BD1868E0
:103560001A6810F4803017BF42F0011242F00102D5
:1035700005201A6008BF1A6010BD00BF30100B4054
:1035800024100B400C100B4001000E00F8B50A4D42
:103590000A4F642400262E600948FFF7B1FF013C62
:1035A00005D03B685B0705D50028F4D0F8BD00289E
:1035B00008BF0520F8BD00BF08100B4024100B40C9
:1035C0000000DB0C70B5084D002306462B60074851
:1035D000FFF796FF38B9064C064823682E60FFF7C0
:1035E0008FFF00B9236870BD08100B4000001A3728
:1035F00010100B4000000229074B1A783AB99A784C
:103600003AB15B78002B0CBF0220032070470020EA
:1036100070470120704700BF981FFF1F9B4A136827
:1036200043F400332DE9F04713609368984C43F45A
:1036300000539360D36843F00203D360136943F0EF
:1036400002031361934A136823F001031360FFF729
:1036500023FF914B2360236813F08073FBD18F4AC3
:103660008F4E13608F4B4FF481321A6028233360E2
:103670008D4B4FF010121A6041F29000FFF71AFFC5
:103680008A4A13689D07FCD1FFF7F8FE884A8949EA
:103690004FF6FF731360884B19604FF4FA7321687B
:1036A00041F00061216021680901FCD4013BF6D1A1
:1036B0001168824C41F0800111607C4A126863609D
:1036C00012F4803F14BF0020022020706370A370AA
:1036D000A360002840F0D880794F18463B60FFF780
:1036E0000FFF50B9774D78482B684FF4D5733B6086
:1036F000FFF706FF28B105280AD001202070BDE899
:10370000F0872B682B68B3F5D57FF6D10123637062
:103710000020FFF757FF0028EFD12B6813F4401F5C
:1037200020D06378DFF8A8A1002B684B0CBF4FF4C2
:10373000401999468046484608F10108FFF742FFC4
:10374000002840F09E802B68002B02DBD045F2D190
:1037500006E05F4B984503D05A4B1B685B0001D4D1
:103760000023637000233B605A48DFF85491FFF751
:10377000C7FE0028C1D12B68C9F800005648DFF801
:103780004481FFF7BDFE0028B7D1D8F80030D8F843
:1037900000305248DFF824811B0C1B046360C9F819
:1037A0000030FFF7ADFE0028A7D14D4A4D48136801
:1037B0001B0E88F803304C4B1B6813F4400F14D1D8
:1037C0001368116802680068890201F4406141EAE7
:1037D0009252511CC0F3C2120232C3F3032301FA06
:1037E00002F2093B02FA03F307E0012388F80230F2
:1037F0000368C3F3152301339B02C8F808306368DC
:103800003B603A48DFF8B480DFF8B490FFF778FE09
:1038100000287FF472AF2B6835482A4F4FF40073AD
:10382000C9F80030FFF76CFE00287FF466AF3B68F4
:10383000D8F80430C9F800302E48FFF761FE0028A0
:103840007FF45BAF3B682C480223C9F80030FFF7D8
:1038500057FE00287FF451AF3B68336823F006031E
:103860003360336843F002033360FFF715FE4FF413
:103870009070FFF71FFEFFF701FE98F80000BDE80B
:10388000F0870120BDE8F087BDE8F0873080044074
:103890002C100B4000D0004000800001C0100B40F5
:1038A00028100B4004100B4044100B4024100B4018
:1038B00030100B40BB007F1134100B40981FFF1FCE
:1038C00008100B4010100B4000001A080000304098
:1038D000A08601000000090200001A030000090987
:1038E00018100B4014100B401C100B4000001B075D
:1038F00000001A1000001A3700001A0670B5384B85
:103900001A780546002A68D15B7803B94902354C1C
:1039100035484FF6FF732360344B4FF48132196002
:1039200043F8042CFFF7ECFD002857D1304B314809
:10393000314A1B6805F1400305F51075216841F017
:10394000200611F4E00F266009D041F4E003254A77
:1039500043F020031360FFF719FE012036E00168F1
:103960000905FCD5116843F8401C116843F83C1C5C
:10397000116843F8381C116843F8341C116843F887
:10398000301C116843F82C1C116843F8281C11687E
:1039900043F8241C116843F8201C116843F81C1CD0
:1039A000116843F8181C116843F8141C116843F897
:1039B000101C116843F80C1C116843F8081C1168AE
:1039C00043F8041C4033AB42B8D1002023689B0766
:1039D000FCD5044B094A1A6070BD032070BD00BFBE
:1039E000981FFF1F30100B4010003A1108100B40B9
:1039F00010100B4024100B4020100B40220000013F
:103A0000F8B5294B1A780546002A4BD15B7803B9E3
:103A10004902264C26484FF6FF732360254B4FF48E
:103A20008132196043F8042CFFF76AFD00283AD16F
:103A3000214BDFF88CE01B6805F5007627462368EC
:103A40001A4AD906FBD53B6813F4E00F06D0136879
:103A500043F4E00343F01003136016E005F1400265
:103A600055F8043BCEF80030AA42F9D123680F493B
:103A700043F010032360206810F4E00009D00B68C5
:103A800043F4E00343F010030B60FFF77FFD0120D8
:103A900001E0B242D3D123689B07FCD5034B074A10
:103AA0001A60F8BD0320F8BD981FFF1F30100B40AF
:103AB00000003A1808100B4010100B4012000001D3
:103AC00020100B40084B1A6842F480621A604FF0D5
:103AD0000042DA62FF225A63DA6A002AFCDA024BF9
:103AE000986BC0B2704700BF00C00240064B1A6816
:103AF00042F480621A604FF00042DA625863DA6A78
:103B0000002AFCDA704700BF00C00240F0B5002A6E
:103B1000134E144F14BF4FF060544FF06454002202
:103B200036F8125097FBF5F5A94204D3190707D5CB
:103B300044F0806404E0551C172DF7D02A46EFE7C7
:103B400009495B0751F8222007D522F47043120976
:103B500002F4706244F000741A4322430260F0BD24
:103B6000B8E30000008793037CE4000010B504462E
:103B7000FFF7CCFF204610BD13B5144C052818D80C
:103B8000DFE800F00303070B0F13002301221049A5
:103B900012E0002301220F490EE0002301220E490A
:103BA0000AE0002301220D4906E0002301220C490E
:103BB00002E00C490023012201A8FFF7D7FF019B77
:103BC00009482360FEF7B2FF02B010BDA81FFF1F17
:103BD00000366E0100127A0000093D00C0C62D00BB
:103BE00080841E00801A06000007FF1FC37A10B5EC
:103BF000E3B172B6C37ADC0705D5134AC36814680B
:103C0000234083611360C37A9A0705D50F4A03697D
:103C100014682340C3611360C37A5B0705D50C4A5F
:103C20004369146823400362136062B60368DA686C
:103C30008A4207D0074A1A60D960074A41F080419A
:103C400019611A6010BD00BF80E100E084E100E06E
:103C500088E100E001403F0000003F80C37A83B16B
:103C6000D90742BF074B82691A60C37A9A0742BFDD
:103C7000054BC2691A60C37A5B0742BF034B026AF5
:103C80001A60704700E100E004E100E008E100E0B4
:103C900008B50121007801F035FA044B1A7822B1F9
:103CA000002203481A70FFF7D9FF08BDAC1FFF1FA1
:103CB0000007FF1F10B5084B1A78044632B90122DD
:103CC0001A70064B06481968FFF790FF207800210C
:103CD000BDE8104001F016BAAC1FFF1FA81FFF1F60
:103CE0000007FF1F37B50A4B1A680092009D1C465B
:103CF000FFF7E8FEFF2807D023680193019B5B1BB9
:103D00008B42F5D3002000E0012003B030BD00BF9E
:103D1000E021FF1F70B50C464FF49671164605461C
:103D2000FFF7E0FF44F04000FFF7E0FE182126FA1D
:103D300001F0C0B2FFF7DAFE083911F1080FF6D131
:103D400024B1082C14BFFF20872000E09520FFF746
:103D5000CDFE0021FFF7B6FE0306687003D50131E2
:103D6000B1F5807FF6D170BD2DE9F04300234C4EB4
:103D7000027085B08370336801930446884610460C
:103D80000121019F01F0BEF90121207801F0E8F93D
:103D90000121207801F0B6F9424A136843F48053B8
:103DA00013600620FFF7E8FE3F4B40481968FFF715
:103DB0001DFF0A21FF20FFF799FE013911F0FF01D5
:103DC000F8D13A48FFF74AFF2046FFF773FF002279
:103DD00011462046FFF79EFF01280546607007D078
:103DE00033680293029BDB1BB3F5FA6FEFD94EE009
:103DF0004FF4D57208212046FFF78CFF430701D509
:103E0000A5700BE00421FFF75DFE013911F0FF0101
:103E10006070F8D1AA283AD10223A370A378022BAC
:103E20000CBF4FF080494FF0000900223721204697
:103E3000FFF770FF4A4629212046FFF76BFF024635
:103E4000607038B133680393039BDB1BB3F5FA6FE3
:103E5000EBD91CE0A378022B12D13A212046FFF7C0
:103E600059FFA0B9FFF72EFE00F0C000C02804BF24
:103E70000323A370FFF726FEFFF724FEFFF722FEC1
:103E80002046FFF705FF4046FFF776FE03E0204699
:103E9000FFF7FEFE0025284605B0BDE8F08300BF11
:103EA000E021FF1F3C800440A81FFF1F0007FF1FE9
:103EB00037B50D4B1A680092009C05461946FFF76E
:103EC00001FEFF28687008D10B680193019B1B1B42
:103ED000B3F5967FF3D9002003E0A0F1FE0358422A
:103EE000584103B030BD00BFE021FF1F2DE9F04174
:103EF0008378032B0E46044618BF4E021546FFF783
:103F0000D9FE324611212046FFF704FF002844D194
:103F10002046FFF7CDFF00283FD0234B234A2448FB
:103F2000186005F5FD765A63A91C5A6305F5FE78FD
:103F30005A639E4641450FD0DF6A17F0F00FFBD061
:103F4000CEF83420DEF8387001F8017C4FEA272CD7
:103F500001F802CC0231EDE7134A05F5007517466A
:103F6000B542114B0AD9D36A13F0F00FFBD0BB6BEB
:103F7000191206F8021B06F8013CF1E70B4A18601B
:103F80005A63DA6A12F0F00FFBD0074B20469B6BA6
:103F9000FFF77EFE0120BDE8F0812046FFF778FEA6
:103FA0000020BDE8F08100BF00C00240FFFF00908C
:103FB00000041F80F8B51D4B064618684FF00045F9
:103FC00040F4806018600024DD62184659639E4604
:103FD0002946C56A002DFCDA1D68175D45F4806529
:103FE0001D60D9625F63DEF82C50002DFBDA1519D5
:103FF00002346F781D68B4F5007F45F480651D605C
:10400000D9625F63E5D1094BDA6A002AFCDAFF2046
:10401000FFF76CFDFF20FFF769FDFFF753FD7070A0
:1040200000F01F00431F58425841F8BD00C0024035
:1040300070B5044616460D4631B38378032B18BF7E
:104040004D02FFF737FE2A4618212046FFF762FE91
:104050000546C8B93246FE212046FFF7ABFF98B1AE
:104060004FF416712046FFF73DFE68B12A460D2138
:104070002046FFF74FFE38B9FFF724FD20B9204650
:10408000FFF706FE012070BD2046FFF701FE00206D
:1040900070BDFFFF014B024A1A607047A81FFF1F47
:1040A00003200038704710B500F1080204460121D2
:1040B000006A00F0E1FC40B1E3692BB9A368E36159
:1040C000637963F07F036371012010BD10B504466E
:1040D000006900F003FC18B1207D024B03EB401097
:1040E00010BD00BFBC1FFF1F38B5827904460D46C6
:1040F0000AB1002038BD91F82030102B06D10223E0
:1041000083714B8CC2615B0183610CE0202BF0D189
:1041100003238371496AC16100F11802284600F047
:104120003FFC0028E5D00023012060712375256243
:10413000A360E360236138BD2DE9F041002580468E
:104140000E46471E2C4617F8013F202B0CD0082D99
:1041500005D12E210F48FEF7BDFA0134E4B23878BC
:1041600002F0DCFA0134E4B201350B2DEBD198F802
:104170000B3003F01803102B05D12F210548FEF753
:10418000A9FA0134E4B2B44201D22021F6E7BDE835
:10419000F08100BFC008FF1F07B50A22B0FBF2F391
:1041A00003F1300102FB130330338DF8053001A811
:1041B00000238DF804108DF8063004F0C1F9014693
:1041C00001A802F03BFA03B05DF804FB38B50D4DD1
:1041D0004112044601F2BC71284600F03AFE2D213E
:1041E0002846FEF777FAC4F34310FFF7D5FF2846B9
:1041F0002D21FEF76FFA04F01F00BDE83840FFF7ED
:10420000CBBF00BFC008FF1F38B50C4D0446C00A25
:10421000FFF7C2FF3A212846FEF75CFAC4F34510C7
:10422000FFF7BAFF28463A21FEF754FA04F01F00C0
:104230004000BDE83840FFF7AFBF00BFC008FF1F18
:104240002DE9F84F89468179044619B94FF0FF30BE
:10425000BDE8F88F4179C907F8D5C7688169DFF8EB
:10426000E4A0DFF8E4B0C91B914228BF11460F4615
:104270008846B8F1000F34D0A279E168206A022A9A
:10428000C1F308054FEA512202D1406A104418E0F8
:104290000679013E1640F6B25DB956B911B9E26928
:1042A000A26006E004F10802A16800F047FB0028C4
:1042B000CCD0226AA068117C526902388840104430
:1042C0003044C5F5007662794645A8BF4646530698
:1042D00002D4B6F5007F07D1DAF80020904214D15D
:1042E00002E03846BDE8F88F002100F0F7FA002818
:1042F000ACD0134B1D44A81909F1FF32854212D0EE
:1043000015F8011B02F8011FF8E7DBF800502A78C6
:10431000FE2A0FD101464846FFF7F0FAB0FA80F0C6
:104320004009002892D0E2683244B144E260C6EB12
:1043300008089EE701464A462846FFF7D7FDF0E702
:10434000BC1FFF1FB408FF1FB81FFF1F37B58379BD
:10435000012B044601D800200FE0C36801220DF1B3
:104360000701C3F34315FFF76BFF0128F3D1E3689F
:1043700003481F33E36000EB451003B030BD00BFBE
:10438000BC1FFF1FF8B5837904460E460BB9002009
:10439000F8BD82698A42FAD3022B01D01EB9A66009
:1043A000E6600120F8BD236AE0681B7C421E03F131
:1043B0000901731ECA40CB409A4200D828B9E2696D
:1043C000A2601D4604F1080709E09B1AF9E73A4686
:1043D000A168206A00F0B2FA013D0028D7D0002D74
:1043E000F5D1DDE738B58379054613B390F905308B
:1043F000002B1ADA0121FFF769FE0446C8B1AB7938
:10440000012B9CBFAB69C361EB6943831B0C8382A7
:10441000094B1B682BB100F1160118309847238B0C
:1044200063826B7903F07F036B71BDE8384000F065
:104430002DBA002038BD00BFB01FFF1FF7B583792C
:10444000012B04460D460BD14279920708D58269AB
:104450008A4205D3002A3FD0E668FFF793FF08B9E8
:1044600000203AE03DB9E169206A00F05FFB0028D6
:10447000F6D0E5611EE001AAA168206A00F05EFAAC
:104480000028EDD0206A164B90F8207001994FF665
:10449000F872102F08BF134699420BD200F046FB6A
:1044A0000028DDD06FF07042A168206A00F0A0FA09
:1044B0000028D5D06379A56163F07F03637120463E
:1044C000FFF790FF0028CBD0B5422946204628BFF1
:1044D0003146FFF757FF00E0184603B0F0BD00BFBC
:1044E000F8FFFF0F38B51C4B03EB41131546DA7A82
:1044F00012F0110F044604D015F0420F01D0002035
:1045000038BD164A2175126822615A8B998A42EA8F
:104510000141E161DA7A12F0180203D1DB69A3618B
:10452000012309E0102AEAD104F11802206A00F000
:1045300037FA0028E3D00423A37105F00F0300210C
:1045400063716B06A160E16004D52046BDE8384088
:10455000FFF774BF012038BDBC1FFF1FB408FF1F49
:10456000F8B51F46837904460D461646E3B907F0B1
:104570003003302B18D00B6A036251012846FFF735
:1045800001FF88B12846FFF7E1FE68B103785BB10F
:10459000E52B09D02E2B07D03A4606F00F01204616
:1045A000BDE8F840FFF79EBF0020F8BD2DE9F047B9
:1045B000002311F0030F8AB005460E4617468360AC
:1045C000C36014BF4FF00E08984601F00109284659
:1045D000FFF7BCFE0446002864D00378002B61D0AE
:1045E000E52BF4D02E2BF2D0C37A03F0080303F0AE
:1045F000FF0A002BEBD14FFA8AF3BB420AF1010A02
:1046000004DA20212948FEF765F8F4E74146204600
:10461000FFF792FDB9F1000F09D0208BFFF7D6FD0F
:1046200020212248FEF756F8E08AFFF7EDFDE37AF5
:1046300003F01803102B01D0B2070AD41B4800F076
:10464000BDFB7307C3D5E37A03F01803102BBED16B
:104650000AE020211548FEF73DF800230A22E1690F
:10466000124800F0BBFBE9E7EC68114A01926409CB
:10467000013C0023A4B28DF808308DF80A302246A0
:104680000123294601A8FFF76BFF28B1BA1CD2B25B
:10469000314601A8FFF78AFF611C49012846FFF750
:1046A00071FE94E70AB0BDE8F08700BFC008FF1FA5
:1046B00064E500002DE9F74F8379012B0446884615
:1046C00017460BD14379990708D55B070AD5A1692D
:1046D000E3688B4206D0FFF755FE18B9012323711A
:1046E0000020A9E0B946DFF86CA13BE0206A06791A
:1046F000013E06EA552616F0FF06C5F3080536D03A
:10470000216AA268087C4969C5F500731FFA83FB1A
:10471000D945A2F1020238BF1FFA89FB82400A4440
:10472000BBF5007F164448D1DAF80020964204BF5A
:104730004FF0FF32CAF80020414A10680278FE2A82
:1047400036D131464046FFF75BF9B0FA80F04009B8
:104750000028C3D008F50078E26802EB0B03CBEB2E
:104760000909E360E568B9F1000FBFD14BE0002D06
:10477000C6D1A16819B9E36993B1A360C0E701AAE2
:1047800000F0DCF8002857D0236A2E4893F8201058
:10479000019A4FF6F873102918BF03469A4205D3C1
:1047A0002046FFF780FC0028AAD197E7A260A7E780
:1047B00042463146FFF73CFCCAE77DB9E168A26991
:1047C00091420BD300F062F8002887D01E49CAF846
:1047D00000600A7842F001020A7006E001213046CA
:1047E00000F07CF800283FF479AF184B1D4405EB2E
:1047F0000B004246854204D012F8011B05F8011B4C
:10480000F8E7D844A8E7A3699D42637901D9A56177
:1048100003E00F4A12681AB117B163F07F036371A6
:1048200063791A0701D4384606E02046FFF7DAFD1F
:1048300000283FF453AFF6E703B0BDE8F08F00BFA8
:10484000B81FFF1FF8FFFF0FBC21FF1FBC1FFF1F7A
:10485000B01FFF1FB408FF1F07B502AB012203F80A
:10486000011D1946FFF726FF03B05DF804FB10B5E4
:104870000478FE2C03D0BDE81040FFF7D9BB1046EA
:10488000FFF7BEF8B0FA80F0400910BD70B50E4BCE
:104890001A781C46B2B10D4E0D4B0E4A196830689D
:1048A000FFF7E5FF08B9002070BD0B4D296839B14D
:1048B000084A3068FFF7DBFF0028F4D000232B60A4
:1048C00000232370012070BDBC21FF1FB81FFF1FF4
:1048D000B408FF1FBC1FFF1FB41FFF1F134B1A6834
:1048E000824270B505460E461C4618D0FFF7CEFF33
:1048F00008B9002070BD0E4B18680378FE2B07D155
:1049000029460C48FEF7FAFFB0FA80F0400903E0B0
:10491000084A2946FFF7EAFA0028EAD02560064B44
:10492000197831431970012070BD00BFB408FF1F12
:10493000B81FFF1FBC1FFF1FBC21FF1FC36801332F
:104940008B4270B505460C46164601D2002070BD5C
:1049500090F82020C369102A0CBF080AC80918441F
:104960000D4B1B68984208D195F82030102B0B4B4B
:1049700009D1E4B233F814300BE00021FFF7AEFFA9
:104980000028F1D1E2E704F07F0453F8243023F04B
:1049900070433360012070BDB408FF1FBC1FFF1FB0
:1049A0002DE9F74302AEDFF8448046F8041D0546C2
:1049B000174600244FF40079324601992846FFF744
:1049C000BDFF78B12B7C95F8202009FA03F31C4435
:1049D0004FF6F873102A18BF4346019A9A42EBD358
:1049E0003C60012003B0BDE8F08300BFF8FFFF0F7B
:1049F0000129F8B506460C46174601D80020F8BD37
:104A0000C36801339942F9D890F82030C569102B5A
:104A10000CBF0B0ACB091D44134B1B689D4208D1E8
:104A200096F82030102B114B0AD1E4B223F8147001
:104A30000AE000212846FFF751FF0028F0D1DDE70A
:104A400004F07F0443F82470094A137843F001030B
:104A50001370337E012B82BFB368ED18054B4FF006
:104A6000010088BF1D60F8BDB408FF1FBC1FFF1FF9
:104A7000BC21FF1FB41FFF1F2DE9F74F1468064626
:104A80008B4617461CB101344FF0000A05E04B1E5F
:104A9000D3F1000A04684AEB030AF368254603F1E0
:104AA00001094FF00008F36898451DD24D4588BFB5
:104AB000022501AA2946304688BF2C46FFF73EFF53
:104AC00090B1019A6B1C0AB11C4602E01A1B934577
:104AD00003D008F101081D46E5E76FF07042294652
:104AE0003046FFF785FF58B900201CE005F1FF387C
:104AF0002A4641463046FFF77BFF0028F4D0454662
:104B0000AC42F3D3396831B93C60BAF1000F09D037
:104B10000134346006E022463046FFF769FF002882
:104B2000F2D1E1E7012003B0BDE8F08F73B50223B5
:104B30000F4E036005460C4601AA21462846FFF7A2
:104B4000FDFE88B1002221462846FFF751FF58B1EB
:104B500095F82020019C4FF6F873102A18BF3346B1
:104B60009C42E9D3012000E0002002B070BD00BFEC
:104B7000F8FFFF0FF8B53D4B044619601546DAB152
:104B8000042A01D90020F8BD00210846FFF7A6FE3F
:104B90000028F7D0364A02EB051393F8AE315B06D6
:104BA000F0D11B3502EB0515D5F80A30632BE9D996
:104BB000D5F80650002DE5D000212846FFF78EFEDF
:104BC0000028DFD02A4BB3F80B20B2F5007FD9D1F3
:104BD000197C0029D6D0DA89002AD3D05A7B002A42
:104BE000D0D02176002122712174012094F810E0A8
:104BF00000FA0EF18A4206D00EF10101BEF1070F54
:104C00002174F3D9BEE7D88A08B1014601E0184AF9
:104C1000516ADA89A1602A44E261B3F811701E7CFE
:104C2000678401FB06207A0102F2FF1200EB622288
:104C300060626261B3F8131009B90D49096AAD1ACF
:104C4000294421FA0EF540F6F4729542E56001D848
:104C50000C2307E04FF6F472954285BFDB6A63626E
:104C60001023202384F820300120F8BDB81FFF1F37
:104C7000BC1FFF1FEFF3108072B6B0FA80F040093E
:104C8000704700B162B67047F8B50C4E0C4F002566
:104C9000FFF7F0FF346802466CB1636933600BB113
:104CA0009D6100E03B601046FFF7EBFF6577A3686E
:104CB00020469847ECE7FFF7E4FFF8BDC021FF1F4F
:104CC000C421FF1FFFF7E0BF15490B6830B513B9CA
:104CD0008360C36009E004681A68944207D2002523
:104CE000121B8360C560D8601A60086015E0026816
:104CF0001C689968121B026061B10C68A2420B46E5
:104D0000F5D28160C968C160D860C168A21A8860A4
:104D10001A6002E08160C36098600223037530BDB1
:104D2000C821FF1F70B5164D2C680026BCB1236842
:104D300013B1013B236012E0A26802B1D360206985
:104D40002A60036826751B6822460021984763681D
:104D50001BB123602046FFF7B7FF2C68E6E7FFF79B
:104D600089FF084B00221C681A60FFF78AFF2CB1EC
:104D7000A5682046FFF7A8FF2C46F8E770BD00BFE6
:104D8000C821FF1FD821FF1F024A13680133136097
:104D9000FFF7C8BFE021FF1FF8B506460C468F1885
:104DA0000025BC4207D0336814F8011B1B6830464D
:104DB00098470544F5E72846F8BDFFFF07B5064BC1
:104DC0001B88ADF80430036802225B6801A998478C
:104DD00003B05DF804FB00BF74E5000070B5054644
:104DE0008AB022B90368C9B21B6898472FE0012A2C
:104DF00008BF0A2209B1212004E030228DF82520C5
:104E0000212014E0B1FBF2F602FB1611CCB2092905
:104E100094BF04F1300104F137010AAC0444C9B273
:104E200004F8241C314616B10138C0B2EAE733B1A8
:104E30000138C0B20AAB03442D2203F8242C2B689E
:104E400001A9C0F1220201445B68284698470AB0D4
:104E500070BD0029BABF49422D2300230A22FFF763
:104E6000BDBF08B5FCF76EF8FCF7CAF801F0D8FC36
:104E7000FAE7FFFF844641EA000313F003036DD114
:104E8000403A41D351F8043B40F8043B51F8043B0D
:104E900040F8043B51F8043B40F8043B51F8043B14
:104EA00040F8043B51F8043B40F8043B51F8043B04
:104EB00040F8043B51F8043B40F8043B51F8043BF4
:104EC00040F8043B51F8043B40F8043B51F8043BE4
:104ED00040F8043B51F8043B40F8043B51F8043BD4
:104EE00040F8043B51F8043B40F8043B51F8043BC4
:104EF00040F8043B51F8043B40F8043B51F8043BB4
:104F000040F8043B403ABDD2303211D351F8043B53
:104F100040F8043B51F8043B40F8043B51F8043B93
:104F200040F8043B51F8043B40F8043B103AEDD202
:104F30000C3205D351F8043B40F8043B043AF9D253
:104F4000043208D0D2071CBF11F8013B00F8013B26
:104F500001D30B8803806046704700BF082A13D333
:104F60008B078DD010F003038AD0C3F10403D21A4B
:104F7000DB071CBF11F8013B00F8013B80D331F87F
:104F8000023B20F8023B7BE7043AD9D3013A11F8FF
:104F9000013B00F8013BF9D20B7803704B7843706A
:104FA0008B7883706046704701B5EAB1102A17DB31
:104FB00000F0070333B1C3F10803D21A013B00F834
:104FC000011BFBDCC9B241EA012141EA01418C46E7
:104FD000D308013BE0E8021CFBDC12F0070203D01F
:104FE000013A00F8011BFBDC01BD00BF08B50B4D09
:104FF0002C462B68580301D500F052FC2368590554
:1050000001D500F0D3FA23681A0501D501F0CEFCD2
:105010002368DB04EDD501F079FDEAE73480044034
:1050200008B5FFF7E3FFFFFF014B10221A8070471E
:10503000002005407047FFFF094908B50B6868B1BB
:105040006A461844A2F50052904206D302F04AFC88
:105050000C2303604FF0FF3008BD0860184608BD00
:10506000B808FF1FEFF31380A8B9EFF31082A2B9BD
:10507000EFF3058323B10F2B05D9084A985C03E0B1
:105080004FF4807000E01046EFF311832BB198428B
:1050900028BF184670474FF0FF307047F0E300E03C
:1050A00002F056BC30B503460020B3FBF2F402FB1D
:1050B0001433092B94BF30333733DBB20B54234600
:1050C0000CB10130F1E70A1823465470C41AA34208
:1050D00006DACC5C1578CD5402F801490133F5E7C6
:1050E000084630BD044B054900221A600A60044A94
:1050F000106010221A60704714D0034004D003409F
:1051000000D003403F2810B518D80D4B53F830207D
:1051100092F880423CB1012311B182F8803010BD79
:1051200082F8003110BD03EBC0035B681A6811B14F
:1051300042F0030201E022F002021A6010BD00BF3B
:1051400078E500003F289FBF044B53F8303093F8B8
:105150000002C0B288BF0020704700BF78E50000A1
:105160003F2810B52BD8164A02EBC00301295B6813
:10517000144601D004290FD154F83020012082F8C0
:1051800080024FF4A2721A601A6804290CBF42F020
:10519000200222F0200211E052F83000002280F8B4
:1051A000802211B94FF4807208E0022902D140F246
:1051B000031203E0032908BF4FF481721A6010BD87
:1051C00078E5000072B60B4B0B4A0C491B6812685D
:1051D000096862B6490102D5322B88BF0132C3F596
:1051E000EA337820BF33B3FBF0F34FF47A7000FB5F
:1051F0000230704718E000E0E021FF1F04ED00E0FE
:1052000038B50446FFF7DEFF054624B938BD013C3A
:105210000AD005F57A75FFF7D5FF401BB0F57A7F08
:10522000F5D201F0FDFAF6E738BDFFFF2B4B4FF04A
:10523000006270B51A604FF080521A604FF0005251
:105240001A604FF080421A604FF000421A60244BFF
:10525000244A254D254C264E4EF6FF71002018603D
:105260005960282313609360136193611362936202
:1052700013639363103202F501222B6023601360E5
:10528000936013619361136293620922326006F5A1
:105290008056043630607160B360336146F8042C88
:1052A00006F5FE2630607160B360336146F8042C69
:1052B00006F5805630600F4801602B6023600E4B6E
:1052C0001A6001F007FB1920FFF79AFF01F080F840
:1052D00040F21310BDE87040FFF792BF04E100E018
:1052E000048003400C8003400C900B4014900B4052
:1052F0000080034008900B4000900B402A4A13683E
:1053000043F480631360294A00231370284A137002
:10531000284A1370284A1370284A1370284B1B78A8
:10532000152B06D01B2B08D05BB940F21332254B4E
:1053300006E040F21332244B02E0244B40F21332D9
:105340001A60234B1B78052B07D01A2B09D0012B91
:105350000BD14FF451721F4B06E04FF451721E4BAC
:1053600002E01E4B4FF451721A601F281C4B98BF6D
:105370002020C0F344321A70C0F347125A7000F074
:105380001F000422022198729A70D9745A758822DB
:105390001A743C22DA70134B40221A70A3F21F33A6
:1053A0004FF000421A60704734800440EC22FF1F27
:1053B000E921FF1FF422FF1FED22FF1FE821FF1F3D
:1053C0006A22FF1F40A0044018C004403C900440E3
:1053D000BC08FF1F44A004401CC004403890044097
:1053E00000A006401FE400E010B51F4B9A78C1B240
:1053F00002F0EC0401F003022243440748BF42F0EC
:1054000010029A70184C00F00F02042A02BFA27911
:1054100042F04002A2715A79C30602F0EF02124B29
:1054200048BF42F010025A719A79840602F0EF02E6
:1054300048BF42F010029A719A7A0B4B02F01F0299
:10544000040748BF42F020029A72084A21F07F0107
:105450001170C20506D55A781978D2B241F02001F0
:1054600019705A7010BD00BF00A00640EE22FF1F49
:105470002DE9F843284B1B685A05064649D5274BAA
:105480001B680BB101221A70254DDFF8A8902C780B
:10549000DFF89C800134402C28BF00244F4699F847
:1054A0000030A34229D1FFF7DDFD402820DC98F829
:1054B00004301B06F3D599F800301A4A1A49013313
:1054C000402B28BF0023097832F8132092B249B14B
:1054D00098F80610900800F0400001F0BF01014369
:1054E00088F80610D2B2DBB288F807203B70D6E706
:1054F000FF28D4DD01F094F9D1E70A4BB6B223F8C6
:1055000014600A4B01221A70094BE4B2BC222C70C1
:10551000DA70BDE8F88300BF34800440F022FF1F3A
:10552000F422FF1FEA21FF1FEE22FF1FE821FF1FC9
:1055300000A00640ED22FF1F054B1878054B1A7896
:10554000C0B2D3B2984238BF4030C01A704700BFD3
:10555000EC22FF1FE921FF1F10B5104B104C1B78E8
:105560002278D9B2D2B2914215D0531C402B28BF19
:1055700000230C4A32F81300DAB222700A4A126889
:1055800080B252B18B4288BF4031CB1A1A2B04DC57
:105590000023137010BD4FF0FF3010BDEC22FF1F31
:1055A000E921FF1F6C22FF1FE421FF1FF0B5444AD1
:1055B000137913F0300F3ED072B6937D03F0FF05E0
:1055C00023B9D3794023537462B634E062B63D48C0
:1055D0003D493E4C037809782778DFF808E1DBB2D3
:1055E000C9B2064637B19079000603D5D07940F4A8
:1055F000807001E0D079C0B25C1C402C28BF002430
:105600008C421CBF80B22EF8140005F1FF3018BF89
:10561000234610F0FF05E5D1DAB232702C4A126849
:105620004AB18B4236BFC1F140015B1A5B18272B90
:10563000C4BF01231370224AD478E4B226062FD5C2
:1056400013791D062CD5234B234D20491E782B782A
:1056500091F800E0DFF890C0F6B2DBB2B34217D0A9
:105660000133402B28BF002311793CF8131089B275
:10567000BEF1000F07D090798F0807F0400700F0C7
:10568000BF0038439071C9B2D171117D0729E5D9A6
:10569000DBB22B700A4B1A79100644BF7C22DA70F9
:1056A00061060CD5064B1A79520608D50B4A002123
:1056B00011700B4A126802B111703C22DA70F0BD11
:1056C00000A00640EC22FF1FE921FF1FEE22FF1F72
:1056D000E421FF1FF422FF1FED22FF1FE821FF1F1F
:1056E000F022FF1F6C22FF1FEA21FF1F431E032B26
:1056F00014D872B60A4951F8230068B170B4094C45
:10570000058834F81320466841F82360521B24F8BA
:10571000132062B670BC704762B6704700207047B5
:105720005023FF1F9C28FF1F013803280BD872B697
:10573000074B53F8203043B100205B680130002B49
:10574000FBD162B67047002070471846F9E700BFEA
:10575000A423FF1F30B472B62B4A13781D0706D559
:105760002A4B196A002936D0996A002941D053780A
:105770001C0706D5254B196C00293ED0996C0029D1
:1057800039D09378190705D5204B196E002936D0EA
:10579000996E89B1D3781B0707D51C4BD3F88020AD
:1057A0007AB3D3F8882011213AB162B6184B00229F
:1057B0001A7030BC00F0B8BE0D21154C154D227882
:1057C00043F8315003EBC1030830013A58602270AE
:1057D00062B630BC704704220D4C0F4D217843F85F
:1057E000325003EBC20308304A1E5860227062B682
:1057F000EFE70521E1E70921DFE70822ECE70C22CA
:10580000EAE71022E8E700BFA0E700000000FF1F62
:10581000CD23FF1FC800400088004000431E032B1B
:105820001DD81B4A400140F0100030B4104472B63D
:10583000184CE25C032A1BD8DFE802F002121517AD
:1058400003220D88E25410F0080F14BFC8238823E8
:1058500043EA054308310360416062B630BC7047DB
:1058600008300222EDE70522EBE708300422E8E7E2
:10587000094A52F8230038B1084A52F8230041601F
:1058800042F8231062B6E9E742F82310034AF7E72B
:105890000000FF1FDC23FF1FA423FF1FB423FF1FF3
:1058A0002DE9F04FB54CB64E87B046E0B54F4FEA04
:1058B000930B07EBCB08013DD8F8041003F0080365
:1058C000EDB2A1F1080003F0FF02002B40F01081BF
:1058D00057F83B301B0C1FFA83FE21F808EC002B15
:1058E00000F0FD80A84B21F8062C41F8042C53F859
:1058F0002520002A00F0DF82DFF8CCA25AF82530FC
:105900005860DFF8C8924AF8250039F815309E44EF
:1059100029F815E000F0EAFD002800F0C5829B4957
:105920009B4B18F0080F00F1080018BF0B46C8F891
:10593000040047F83B30082323702578EDB269074F
:1059400019D5944B1B78A3B193490A7802F0FF0351
:1059500022B1013BDBB20B7003B900BE8F490A785C
:1059600002F0FF032AB1013BDBB20B70002B00F009
:1059700071820423237005F0080303F0FF02002B5B
:1059800000F0DC803378DBB21D098FD19B087D4DA0
:1059900055F8332005EBC301C2F38302013A49688D
:1059A0000C2A00F29880DFE802F08C8C969696968E
:1059B00096964D96969607000868DFF8F4E14A68D7
:1059C000DFF80CB2764FCEF80420CEF8000082B299
:1059D00040F281600021DFF8B49145F833904FF038
:1059E000010C8242CBF800102961A96187F800C040
:1059F000DFF8909100F2F080B2F5D06F80F08F83E5
:105A0000B2F5817F00F0218300F2A882802A00F0A5
:105A10006283822A40F02083BEF8043003F07F03C3
:105A2000042B00F219835F4A5F489B001A440170FF
:105A3000417013789B0740F17A8480F800C04FF0E2
:105A4000020C4DE3DFF888B1DBF8003073B3DFF808
:105A500084A1534F554ABAF8001097F800E0107827
:105A600040298C4640F0020928BF4FF0400CBEF19F
:105A7000000F8EF0010E87F800E0CCEB01010CBFA7
:105A80008827C82705EBC90E89B280F0010047EAD4
:105A90000C47CEF80430AAF8001045F8397063447A
:105AA0001070002900F04581CBF80030404B1A8877
:105AB000B2F5A06F0FD13F4A9978117000225A7049
:105AC00009E03B4A108842F22102904200F0368100
:105AD0002E4A45F83320384A012313702BE72B490F
