:100000000000022099010000658500003185000094
:100010003185000031850000318500003185000008
:1000200031850000318500003185000065850000C4
:10003000658500003185000009820000CD82000046
:100040006585000065850000658500006585000008
:1000500065850000658500006585000065850000F8
:1000600065850000658500006585000065850000E8
:1000700065850000658500006585000065850000D8
:1000800065850000658500006585000065850000C8
:1000900065850000658500006585000065850000B8
:1000A00095810000A1810000658500006585000044
:1000B000658500006585000065850000F18A000007
:1000C000658500005599000065850000B59A00001F
:1000D00065850000DD9B00006585000065850000EA
:1000E000658500006585000065850000957B000042
:1000F0006585000065850000658500006585000058
:100100006585000065850000658500006585000047
:1001100065850000C58D00006585000065850000CF
:100120006585000065850000658500006585000027
:100130006585000065850000658500006585000017
:100140006585000065850000059D0000658500004F
:100150002D9E000065850000658500006585000016
:100160006585000065850000AD81000065850000A3
:1001700065850000658500006585000065850000D7
:1001800065850000658500006585000065850000C7
:100190006585000065850000584B4CF2205210B573
:1001A0001A804DF628121A8000BF00BF08F0DEF951
:1001B000534B4FF030621A60524A9A60524ADA60EA
:1001C000524B4FF470021A60514A136813F4807353
:1001D00001BF50490B604FF4A85313604E4B4F4979
:1001E0001A78100742BF1A7842F008021A704C4B76
:1001F0002A221A704B4A4C4B8B4204D252F8040FFD
:1002000043F8040BF8E7494B494A0021934202D2D4
:1002100043F8041BFAE7474A4748002350F82310E5
:1002200042F823100133662BF8D1444B444A802115
:1002300003F8011B9342FBD1424B3E4A1A60424BEA
:100240008A221A70A3F5805324225A70A0221A70B1
:100250009A799107FCD59A79D206FCD43B4A9379D6
:1002600003F00C03082B394BF9D103221A714622F3
:100270005A719A799406FCD534498A79334B5006E1
:10028000FBD5334A4FF08271116009215160202261
:100290001A709A7902F00C020C2AFAD12D4B2E4AD0
:1002A0001A602E4B2E4A1A6000225A60072243F829
:1002B000042C2C4AC3F80C2D62B608F059FA154BE1
:1002C0001B68DA0705D5284808F0AEF9274B284AFD
:1002D0001A60284B1B785B0609D5244C244B2268F6
:1002E0009A4204D1204808F09FF9002323600AF0C5
:1002F000D3FA08F041F908F056F8FEE70E20054061
:1003000030800440823F04000100002B88ED00E0B3
:1003100010D0034014D0034002D007402013FF1F29
:1003200000E0074048320100F806FF1F2013FF1FBE
:10033000F080FF1F0002FF1F0000000000E400E04B
:1003400056E400E008ED00E00050064000400640A2
:100350004480044004800440C010050014E000E024
:10036000BFD4010000002020AFF1BD5C1CE00340C1
:10037000A5C3945A00F00740FFFFFFFFFFFFFFFFF8
:10038000FFFFFFFFFFFFFFFFFFFFFFFFFFFFFFFF7D
:10039000FFFFFFFFFFFFFFFFFFFFFFFFFFFFFFFF6D
:1003A000FFFFFFFFFFFFFFFFFFFFFFFFFFFFFFFF5D
:1003B000FFFFFFFFFFFFFFFFFFFFFFFFFFFFFFFF4D
:1003C000FFFFFFFFFFFFFFFFFFFFFFFFFFFFFFFF3D
:1003D000FFFFFFFFFFFFFFFFFFFFFFFFFFFFFFFF2D
:1003E000FFFFFFFFFFFFFFFFFFFFFFFFFFFFFFFF1D
:1003F000FFFFFFFFFFFFFFFFFFFFFFFFFFFFFFFF0D
:10040000FFFFFFFFFFFFFFFFFFFFFFFFDEF9FFFF23
:1004100010B5054C237833B9044B13B10448AFF33E
:1004200000800123237010BD2013FF1F0000000077
:1004300044320100084B10B51BB108490848AFF31E
:1004400000800848036803B910BD074B002BFBD0A0
:10045000BDE81040184700BF000000002413FF1F34
:10046000443201002013FF1F000000007047704756
:1004700010B50C21044608F0B5F8204610BDFFFF6A
:1004800010B50C4A04460121042005F091FA01231D
:10049000237063701923A3707823E37005F0F0FBD9
:1004A000207105F0EFFB0523A37100236071E37158
:1004B000082010BD2DEC00002DE9F84306468946C2
:1004C00017460121154A042005F072FA144A937860
:1004D00055785D43202D38462C4628BF20240BF04C
:1004E0006FF885B24FF00208AC4286F8008086F8BB
:1004F000019006D205F0C4F90A4A0121404605F0F0
:1005000057FAA54228BF2546ACB222463946B01C50
:1005100007F052FFA01CC0B2BDE8F88345EC000014
:100520003C13FF1F5BEC000010B5064A0446012196
:10053000042005F03DFAFF23032020706370A370B0
:1005400010BD00BF7BEC000010B5054A0446012138
:10055000042005F02DFA04232370012010BD00BFF4
:100560008FEC000038B5074A04460D4604200121EF
:1005700005F01EFA052323702B0A6370A570032073
:1005800038BD00BFABEC000010B5054A04460121A0
:10059000042005F00DFA06232370012010BD00BFD2
:1005A000BFEC000010B5054A04460121042005F007
:1005B000FFF907232370012010BD00BFD1EC00001C
:1005C00010B5054A04460121042005F0F1F908237D
:1005D0002370012010BD00BFE3EC000010B50A4AF3
:1005E00004460121042005F0E3F92046092300F820
:1005F000013B064A064B07490AF03EFF01232377D9
:10060000002363771E2010BDF4EC0000591F8A0000
:10061000E471AB0008ED000010B5012188B004467C
:100620000A4A042005F0C4F9094B22781A7062784E
:100630005A70A2789A706846E278DA70FFF720FF65
:10064000694601F0F7FD08B010BD00BF43ED0000A2
:100650003C13FF1F30B50F4A0F4C85B005460121F2
:10066000042005F0A5F9294601A805F0F9FA029B36
:10067000A360A91C9DF80C30237301A805F0F0FAC3
:10068000029B63619DF80C30237601F04DFE05B0AE
:1006900030BD00BF57ED00003C13FF1F00B5074AF7
:1006A00089B00121042005F083F96846FFF76CFF4B
:1006B000694601F0BFFD09B05DF804FB6BED000079
:1006C00008B5054A0121042005F072F901F02CFE5D
:1006D000BDE8084001F036B97EED000008B5054AD6
:1006E0000121042005F064F901F06CF9BDE808402F
:1006F00001F01ABE92ED000000B5074A89B0012151
:10070000042005F055F96846FFF74CFF694601F0F3
:1007100091FD09B05DF804FBA6ED000008B505F0F9
:10072000AFF80121034A084605F042F9BDE8084048
:1007300001F008BEBBED000008B5044A0121042009
:1007400005F036F9BDE8084001F0EEBDE0ED00002F
:1007500008B5044A0121042005F02AF9BDE8084043
:1007600001F0E2BDF6ED000000B5074A89B00121B5
:10077000042005F01DF96846FFF722FF694601F0E5
:1007800059FD09B05DF804FB0BEE000030B50446DE
:1007900095B0224A0121042005F00AF92288ADF81B
:1007A0000C202246A37852F8030F8DF80E305168C2
:1007B00004AB03C300259068186022468DF81D50D5
:1007C00052F80F0F8DF80F50516808AB03C39068B3
:1007D0001860134A8DF82D5003AB0121042005F059
:1007E0005FF904AB0F4A0121042005F059F91B34CD
:1007F00008AB0D4A0121042005F052F902230B4AEF
:1008000000940121042005F0DFF90CA8FFF7E6FEB3
:100810000CA901F00FFD15B030BD00BF20EE0000A7
:1008200034EE000047EE00005AEE00006DEE0000CE
:10083000112803BF0878B0FA80F040090020704703
:10084000142804D10878431E5842584170470020AC
:100850007047142803BF0878B0FA80F040090020E0
:10086000704708B504F0D6FD003018BF012008BD60
:1008700008B504F0CFFDB0FA80F0400908BD132898
:1008800004D10878031F5842584170470020704730
:10089000132803BF0878B0FA80F0400900207047A1
:1008A000132806D10878013802288CBF00200120C7
:1008B000704700207047012001F02CBE10B5144A8B
:1008C00090B00121042005F073F8124B1A78022A27
:1008D0001C4602D1FFF7C5FF48B92378032B0DD181
:1008E000FFF7C6FF50B16846FFF72EFE02E06846EC
:1008F000FFF71AFE694601F09DFC07E0FFF7DBFFFA
:1009000010B100F0FDFA01E001F00EFD10B010BDD5
:1009100080EE00005813FF1F022001F0FBBDFFFF17
:100920002DE9F041074688B0254A0121042005F051
:100930003FF8FB78BE78234A3C787D7803EB0626A7
:10094000B6B233460121042005F068F8FFF7B3FF83
:10095000074618B1F0B200F0ABFA07E004F05AFD18
:10096000804618B1314600F00FFF30B96846FFF7F6
:100970000BFE694601F05EFC1FE005EB0425ACB2FE
:10098000FFF7CAFF10B120463C4605E0214640462D
:1009900000F02EFF241AA4B283B22246F1B24046E0
:1009A00000F046FF0028E1D021466846FFF7DAFD57
:1009B000694601F03FFC00F087FF08B0BDE8F08118
:1009C0008CEE0000A0EE000038B53C4A05460C460F
:1009D0000420012104F0ECFFA5F11000072862D8E3
:1009E000DFE800F06A04161A40616156237833B1DB
:1009F000012B09D1601CBDE83840FFF72BBE601CFD
:100A0000BDE83840FFF708BE04F03AFF2C4A4DE03D
:100A1000BDE83840FFF752BF2378052B1ED8DFE82A
:100A200003F003080C111519601CBDE83840FFF7EE
:100A300077BFBDE83840FFF731BE601CBDE83840E5
:100A4000FFF73EBEBDE83840FFF748BEBDE838407E
:100A5000FFF752BEBDE83840FFF760BE04F010FF5C
:100A6000184A23E02378012B0AD005D3022B0BD19F
:100A7000BDE83840FFF778BEBDE83840FFF75CBE00
:100A8000BDE83840FFF764BE04F0FAFE0E4A0DE000
:100A9000237823B9A01CBDE83840FFF777BE04F0E7
:100AA000EFFE0A4A02E004F0EBFE094A0121084683
:100AB000BDE8384004F07CBF38BD00BFA9EE00009F
:100AC000B0EE0000C5EE0000D9EE0000EFEE000031
:100AD00008EF000038B5084A04460D4604200121FD
:100AE00004F066FF29462046FFF7A2FE10B1034B33
:100AF00001221A7038BD00BF14EF00005813FF1F09
:100B000038B50A4A04460D460420012104F050FF7E
:100B1000102C01D1002205E029462046FFF790FE67
:100B200010B10222024B1A7038BD00BF28EF00003E
:100B30005813FF1F38B50D4A04460D460420012105
:100B400004F036FF102C01D100220CE0294620468B
:100B5000FFF77FFE08B1012205E0122C05D1FFF757
:100B600080FE10B10322024B1A7038BD3CEF00002A
:100B70005813FF1F38B50F4A04460D4604200121C3
:100B800004F016FF102C01D100220DE0FFF770FEDB
:100B900068B929462046FFF772FE40B9294620462B
:100BA000FFF776FE28B10422034B1A7038BD0222EB
:100BB000FAE738BD4FEF00005813FF1F38B50F4A52
:100BC00004460D460420012104F0F2FE102C01D150
:100BD00000220FE029462046FFF762FE08B10322FB
:100BE00008E0FFF745FE20B929462046FFF747FEFB
:100BF00010B10222024B1A7038BD00BF67EF00002F
:100C00005813FF1F10B50A4A0121042004F0D0FE3A
:100C10000024084B08481C7021461C2207F066FC83
:100C20002146012001F052FCBDE8104000F0DCB884
:100C300077EF00005813FF1F3C13FF1F70B5214AC8
:100C400004460D460420012104F0B2FE2946204648
:100C5000FFF7BAFE1C4B1A781E46042A1DD8DFE89F
:100C600002F003080D12170029462046FFF732FF55
:100C70001CE029462046FFF743FF17E0294620469F
:100C8000FFF758FF12E029462046FFF773FF0DE0FB
:100C900029462046FFF792FF08E004F0F1FD0B4AD9
:100CA0000121002004F084FE00F0E4FE3378012BE3
:100CB00087BF0121084600210120BDE8704001F0F6
:100CC00005BC00BF82EF00005813FF1F8CEF00002F
:100CD00010B50D4A04460121042004F069FEA4F178
:100CE0001000072807D8DFE800F00D040D04040603
:100CF0000604012010BD04F0C3FD0121034A08468B
:100D000004F056FE002010BD9AEF000008EF00002E
:100D100038B51E4A05460C460420012104F048FE61
:100D2000A5F11000072823D8DFE800F02904290ADC
:100D30001722221D012C24D904F0A2FD144A1AE026
:100D4000052C06D8DFE804F01D1B031B1B1D022029
:100D500038BD04F095FD0F4A0DE0022C0FD904F0C8
:100D60008FFD0D4A07E074B104F08AFD0B4A02E0E2
:100D700004F086FD0A4A0121084604F019FE00200D
:100D800038BD042038BD1D2038BD00BFA8EF0000CD
:100D9000B0EE0000C5EE0000D9EE0000EFEE00005E
:100DA00008EF0000064807494160002201238260E5
:100DB0000161426103730376034A044909F0F2B802
:100DC0003C13FF1F14EC0000F806FF1F6F04000027
:100DD000014B00221A7070476113FF1F014B002264
:100DE0001A7070476013FF1F08B5064A10210420CF
:100DF00004F0DEFD044A00231360044A1370044A21
:100E0000137008BDB7EF00005C13FF1F6113FF1FD5
:100E10006013FF1F074A10B510210446042004F098
:100E2000C7FD054B186884428BBF0022001B1A6067
:100E3000186010BDC1EF00005C13FF1F10B5054A1C
:100E400004461021042004F0B3FD034B1A68144437
:100E50001C6010BDC4EF00005C13FF1F08B5074AFB
:100E60001021042004F0A4FD054B012200211A707A
:100E70000846044ABDE8084004F0D6BBC9EF0000AC
:100E80006113FF1FD10D000008B5064A0420102190
:100E900004F08EFD044B054801221A70BDE808409D
:100EA00004F0E6BBD3EF00006013FF1FDD0D000070
:100EB00010B5124A04461021042004F079FD601E8A
:100EC00005281AD8DFE800F003050A0C11150520E3
:100ED00000E00120BDE81040FFF79CBF012000E0CA
:100EE0000520BDE81040FFF7A9BFBDE81040FFF79F
:100EF000B5BFBDE81040FFF7C7BF10BDDFEF000072
:100F000000B5154AA3B01021042004F051FD134B85
:100F10001B780BB1124A15E0124B1B780BB1124A29
:100F200010E0124B186800F08DFD08B9104A09E076
:100F30000346104953F8142B0093031D12A80AF01E
:100F40009BFA12AA012102A8FFF7B6FA02A901F042
:100F500071F923B05DF804FBF3EF00006113FF1F8C
:100F6000FCEF00006013FF1F1BF000005C13FF1F6D
:100F70003AF0000054F00000012106F0B1BF90F8F3
:100F8000383090F839209A4281BF5A1C1B1880F8DB
:100F90003820187E98BF4FF0FF307047031103EBE5
:100FA000830300F00F0000EB4300C0B27047FFFF67
:100FB00008B5024806F058FE012008BDE407FF1FEF
:100FC00038B50F4C0125D0230221204684F83B3050
:100FD00084F85E5084F85D5006F0FCFD2046FFF773
:100FE000CBFF2B462A466821204606F0F5FF204617
:100FF000FFF7C5FF00F0E000E03818BF012038BD62
:10100000E407FF1F2DE9FF47294C0646D0230125A1
:101010000321204684F83B3084F85E5084F85D500C
:1010200006F0D8FD2046FFF7A7FF2B4607226821D0
:10103000204606F0D1FF2046FFF7A1FF00F07F0019
:10104000FFF7ACFF82462046FFF799FFC0B2FFF7DB
:10105000A5FF81462046FFF792FFC0B2FFF79EFF33
:1010600080462046FFF78BFFC0B2FFF797FF074689
:101070002046FFF784FF2046FFF781FFC0B2FFF74D
:101080008DFF05462046FFF77AFFC0B2FFF786FFC7
:10109000002300F5FA6103938DE800073B462A46DA
:1010A00089B2304604F01AFE304604B0BDE8F0873D
:1010B000E407FF1F1FB501AC2046FFF7A3FF07F0B1
:1010C00023FB084B9DF809105A7991421FBF064A2D
:1010D000106094E8070083E80700044B01221A70AF
:1010E00004B010BD6413FF1F7413FF1F7013FF1FA4
:1010F0007FB5154C154A002602210420267004F005
:1011000057FC134B01AD1E70124B314628461E6032
:1011100004F072FE95E807000F4B83E807000F48C4
:10112000FFF746FF0D48FFF74BFF30B904F0A8FB6F
:101130000B4A0221012004F03BFCFFF7BBFF012317
:10114000237004B070BD00BF7113FF1F64F0000076
:101150007013FF1F7413FF1F6413FF1F6213FF1F21
:101160006FF00000014B1878704700BF7113FF1F2C
:1011700010B5044607F0C8FA0E4B19680E4B8842AA
:10118000A0EB010138BF01F1FF31994209D90B49A8
:101190000B4804F035FEFFF78DFF2046FFF7E8FF10
:1011A00006E0074804F02CFE0549204604F0ACFD9B
:1011B000204610BD7413FF1F40420F003F420F0036
:1011C0006413FF1F0021014804F016BE6413FF1FC3
:1011D00030B50C218BB00420394A3A4C04F0E8FBBE
:1011E000002539492560012000F080FD18B904F080
:1011F00047FB364A09E003AA1C21284600F0CEFD31
:101200001B2807D804F03CFB314A0C21012004F0D4
:10121000CFFB52E02F4A0C21032004F0C9FB039BB3
:101220002D4A0C21032004F0F9FB0499684604F0D0
:10123000E3FD6B46294A0C21032004F071FC05AB49
:10124000274A8DF823500C21032004F029FC099B28
:10125000244A0C21032004F0E1FB099B2360B3F531
:10126000007F09D904F00CFB1F4A0C21022004F076
:101270009FFB4FF40073236023681C4A03EB830138
:1012800003EB4101890089B21C2000F087FD226830
:101290002C235343984209D204F0F2FA144A0C2149
:1012A000012004F085FB074B00221A60114A0C2133
:1012B000032004F07DFB00F061FD0BB030BD00BFEA
:1012C0009FF000008C13FF1FAFF00000BBF0000088
:1012D000D0F00000ECF000001DF100002EF1000045
:1012E0003FF1000050F1000061F100009C13FF1F6E
:1012F0009FF10000B6F1000010B5114C114A0C210D
:10130000042004F055FBFFF763FF23689BB904F04A
:10131000B7FA0D4A0C21022004F04AFBFFF758FFF0
:10132000236843B904F0ACFA084A0C210120BDE857
:10133000104004F03DBB064B80221A7310BD00BF65
:101340008C13FF1FD3F10000DBF1000007F2000057
:101350007813FF1F70B50E4A0C210446042004F0D8
:1013600027FB0C4B0C491A682C250023934206D00E
:1013700005FB03100668A64209D00133F6E704F026
:101380007FFA0220054A0C2104F012FB002070BDF8
:1013900027F200008C13FF1F9C13FF1F35F2000083
:1013A00010B50C46FFF7D6FF48B1836AA34206D1B9
:1013B000074A0C21042004F0FBFA012010BD04F0C0
:1013C0005FFA044A0C21022004F0F2FA002010BD5A
:1013D00058F2000073F2000030B53A4A89B00C218F
:1013E000042004F0E5FA3849012000F07FFC0446AF
:1013F00038B904F045FA354A0C21012004F0D8FA36
:101400005CE000F059FD324A03460C21042004F050
:1014100005FB00F051FD00281ADC2E4A0C210320A8
:1014200004F0C6FA01A8FFF7A3FE01A804F07CFCB3
:101430000025059001230C2104A80493069504F0CF
:10144000B3F904AA07901021284600F0DBFC2CE039
:10145000002000F03FFD04AA1021002000F09EFCB7
:101460000F2805D804F00CFA1B4A0C21012018E0C3
:101470000C2104A804F098F9079B184A05460C2192
:10148000042004F0CBFA2B46154A0C21042004F06A
:10149000C5FA079B9D4208D004F0F2F9114A0C21CD
:1014A000002004F085FA002408E004AB03CB0E4AC8
:1014B000106018685160906000F060FC204609B030
:1014C00030BD00BF8FF20000AAF20000B6F20000AB
:1014D000D2F20000EAF200001BF3000039F3000032
:1014E0004FF3000065F300009013FF1F1FB5164A6D
:1014F0000C21042004F05CFA1449012000F0F6FBF2
:10150000044638B904F0BCF9114A0C21012004F05A
:101510004FFA15E00F4A106851686B4603C3906894
:1015200018600C21684604F03FF96A4603901021C8
:10153000002000F067FC002000F0CCFC00F01EFC56
:10154000204604B010BD00BF8AF30000AAF20000DC
:10155000B6F200009013FF1FF0B5314A89B00C219C
:10156000042004F025FA2F49012000F0BFFB0546B6
:1015700038B904F085F92C4A0C21012004F018FA3E
:101580004BE000F099FC294F294A03460C21042026
:1015900004F044FAB868182601387043103000F09F
:1015A00099FCB868013802AC7043314622461030CD
:1015B00000F0F4FB33461F4A00940C21042004F091
:1015C00003FB1421204604F0EFF8079B1A4A064655
:1015D0000C21042004F022FA3346184A0C2104207E
:1015E00004F01CFA079B9E4208D004F049F9144A03
:1015F0000C21002004F0DCF900250EE0114B06AEB2
:10160000224603CAB24218605960144603F1080327
:10161000F6D11068186000F0B1FB284609B0F0BDA3
:10162000A6F30000AAF20000B6F200009013FF1F1C
:10163000D2F20000BFF3000039F300004FF30000C6
:1016400065F300007813FF1F70B5214A8AB00C21A2
:10165000042004F0ADF91F49012000F047FB0446C7
:1016600038B904F00DF91C4A0C21012004F0A0F94E
:101670002AE01A4B04AA03F11006154618685968A7
:10168000144603C40833B3422246F7D118682060D9
:101690001421284604F088F8114C09902946182096
:1016A00000F0F6FB002000F015FC00F067FBA368DB
:1016B00001A80133A360FFF75BFD01A804F034FB30
:1016C0006060FFF713FF044620460AB070BD00BFFC
:1016D000CCF30000AAF20000B6F200007813FF1F5E
:1016E0009013FF1FF0B5234A87B00C21042004F0AB
:1016F0005FF92149012000F0F9FA054638B904F0F4
:10170000BFF81E4A0C21012004F052F92FE01C4BB7
:101710006A4603F110076C4618685968164603C6F6
:101720000833BB423246F7D1186830601421204696
:1017300004F03AF8134B0590986818210138484393
:101740002246103000F05EFB002000F0C3FB0C4B83
:10175000224604AE144603CCB442186059602246B7
:1017600003F10803F6D12068186000F007FB284653
:1017700007B0F0BDE2F30000AAF20000B6F20000EC
:101780007813FF1F9013FF1F38B5154A04460D4606
:1017900004200C2104F00CF92046FFF7DBFD044681
:1017A000A8B10123013D03FA05F52B460D4A0C2192
:1017B000042004F033F90420A38C0B4A0C2104F01C
:1017C0002DF9A38C2B420CBF0120002038BD04F062
:1017D00057F8064A0C21022004F0EAF8204638BDEA
:1017E000FCF300000CF4000018F4000024F40000E6
:1017F00038B50D4A04460D4604200C2104F0D8F8F3
:101800002046FFF7A7FD044628B1C08C6423684337
:10181000B0FBF3F038BD04F033F8044A0C21022089
:1018200004F0C6F8204638BD38F4000024F4000067
:101830002DE9FF411F4C80460F4616460C211E4ADB
:1018400004201D4604F0B4F8237B012B03D804F0D8
:1018500017F81A4A05E0FFF7BFFD40B904F010F889
:10186000174A01200C2104F0A3F800201FE0154BBB
:101870009B6823B923706370A370E37006E0FFF7E1
:101880006BFE0028EAD0236801332360002301A8FF
:101890002373C4F808806773C4F80E606582FFF78D
:1018A00067FC01A804F040FA6060FFF7CDFE04B0C9
:1018B000BDE8F0817813FF1F4EF4000064F40000CF
:1018C000A8F400009013FF1F30B5194A85B00C2111
:1018D000042004F06DF8FFF73FFE044628B903F03A
:1018E000CFFF144A0C2101201DE0134C237B43B190
:1018F00003F0C6FF114A0C21012004F059F800241E
:1019000013E001A801252573FFF732FC01A804F0BC
:101910000BFA6060FFF7E6FE044630B903F0B0FF53
:10192000074A0C21284604F043F8204605B030BD94
:10193000D9F40000F0F400007813FF1F0CF500004C
:101940003FF5000030B51A4A85B00C21042004F0A0
:101950002FF8FFF701FE044628B903F091FF154A5E
:101960000C2101201EE0144C257B012D08D003F032
:1019700087FF124A0C21012004F01AF8002413E01A
:10198000032301A82373FFF7F3FB01A804F0CCF9AC
:101990006060FFF7A7FE044630B903F071FF084A04
:1019A0000C21284604F004F8204605B030BD00BFE5
:1019B0005CF50000F0F400007813FF1F74F50000E0
:1019C0003FF5000030B51A4A85B00C21042003F021
:1019D000EFFFFFF7C1FD044628B903F051FF154A98
:1019E0000C2101201EE0144C257B012D08D003F0B2
:1019F00047FF124A0C21012003F0DAFF002413E014
:101A0000112301A82373FFF7B3FB01A804F08CF99D
:101A10006060FFF767FE044630B903F031FF084A03
:101A20000C21284603F0C4FF204605B030BD00BF9E
:101A3000A8F50000F0F400007813FF1F74F5000013
:101A40003FF5000010B5084A04460C21042003F0BD
:101A5000AFFF064B1B68A34283BF054B2C2000FB46
:101A60000430002010BD00BFBEF500008C13FF1F26
:101A70009C13FF1F704738B5012204460D4606F03F
:101A800007F8024628B929462046BDE8384005F047
:101A9000FFBF012038BDFFFF0421F8B5344A354FA0
:101AA000354C364D084603F083FF00233B7023700E
:101AB000FE232B7004F02AFC064604F015FCA870E7
:101AC0001EB103F0DDFE2E4A07E029462D48FFF740
:101AD000D2FF38B903F0D4FE2B4A0421012003F0D1
:101AE00067FF14E02749294805F0D6F904210123AE
:101AF00008463B7003F0BAFE48B104210846244A68
:101B000003F056FF32460721204805F0C1FC0F22A2
:101B10000121204804F0A0FF18B903F0B1FE1E4ACD
:101B200007E01C491D48FFF7A6FF40B903F0A8FED7
:101B30001B4A04210120BDE8F84003F039BF1749D2
:101B4000184805F0A9F9042101230846237003F081
:101B50008DFE58B104210846134A03F029FF0022E4
:101B600007211048BDE8F84005F092BCF8BD00BF61
:101B7000D5F50000EC6BFF1F386CFF1F396CFF1FA1
:101B8000DDF500009C6BFF1F00F60000146CFF1FCA
:101B900032F600003C6CFF1F4FF60000C46BFF1FC5
:101BA00072F60000F06BFF1FA4F600000A790271C4
:101BB0004A7942718A7982718A688260CA68C26091
:101BC0000A6902610A7D02758A698261CA69C26115
:101BD0000A6A02627047FFFF30B504218FB00546E4
:101BE000394A084603F0E4FE384B0593384B9B799D
:101BF0000024012B8DF818408DF81A4005D803F009
:101C00003FFE344A042102203DE02B5D2F2B19D0EA
:101C10008BB904210846304A03F0CAFE0421084665
:101C20002A4603F0C5FE13232A46294905A805F0D4
:101C300079FB60BB22E00134102CE6D103F020FEDA
:101C4000264A1EE02246294601A806F0B5FB0EAB47
:101C500053FA84F30421002203F8342C0846204A66
:101C600003F0A6FE0421084601AA03F0A1FE012309
:101C700001AA174905A805F055FBB0B903F000FE0D
:101C8000184A0421012003F093FE00201AE01048B6
:101C900005F0ACFA18B903F0F3FD134AF1E705A912
:101CA0000B48FFF783FF01200CE0094805F09EFA7E
:101CB0000028F0D005A90648FFF778FF601C2844EB
:101CC000FFF78AFF0FB030BDC1F60000702C010095
:101CD000406CFF1FCEF60000FBF600002FF700005F
:101CE0004FF7000005F700001AF7000038B50D4661
:101CF00004210446184A084603F05AFE174805F026
:101D000075FA012C0AD1164B1B782BB903F0B8FDDC
:101D1000144A042102201AE013490BE0022C11D1CD
:101D2000124B1B782BB903F0ABFD114A042120465E
:101D30000DE010490948FFF739FF2846BDE8384053
:101D4000FFF74ABF03F09CFD0B4A0421012003F07A
:101D50002FFE002038BD00BF64F70000406CFF1F5D
:101D6000EC6BFF1F6DF70000146CFF1F386CFF1F3A
:101D700098F70000F06BFF1FC3F7000008B50421BF
:101D80000846044A03F014FE0348BDE8084005F085
:101D90002DBA00BFDAF70000406CFF1F2DE9F041BB
:101DA0000F46144C0421064690460846124A03F09A
:101DB000FFFDA579012D11D13146204605F0BAF974
:101DC00028B903F05DFD0D4A042128460BE03A4690
:101DD00041462046BDE8F04105F00AB903F050FD48
:101DE000074A0421012003F0E3FD4FF0FF30BDE876
:101DF000F08100BF406CFF1FF0F70000F9F7000012
:101E00000DF800002DE9F0410F461B4E0421044659
:101E100090460846194A03F0CBFDB579012D20D133
:101E20002146304605F086F918B903F029FD144A19
:101E300011E03A464146304605F0AEFB041E03DA97
:101E400003F01EFD0F4A06E0304605F0A3F928B95D
:101E500003F016FD0C4A0421284607E02046BDE8A1
:101E6000F08103F00DFD094A0421012003F0A0FDDB
:101E70004FF0FF30BDE8F081406CFF1F2FF80000ED
:101E8000F9F7000039F800004DF800000DF80000E7
:101E900038B50D4604210446054A084603F088FD7E
:101EA000044B2A4621469869BDE83840FFF7AABF8F
:101EB00068F80000406CFF1F08B504210846034A7B
:101EC00003F076FD024B986908BD00BF73F800006F
:101ED000406CFF1F30B5C3B002AC22464FF4807196
:101EE0000546FFF75BFF38B903F0CAFC0E4A042130
:101EF000012003F05DFD14E02B460C4A042105206F
:101F000003F08CFD0A4B0B4A9B690421052003F06A
:101F100085FD00944FF48073074A0421052003F0E7
:101F200053FE43B030BD00BF7BF8000090F80000C6
:101F3000406CFF1F9EF80000ACF800000D4A002323
:101F400093700D4A93700D4A0221116082F820307F
:101F50000B4A116082F820300A4A0B491371116054
:101F600093710A4A137111609371094A13711160D8
:101F700093717047396CFF1F3C6CFF1F9C6BFF1FF8
:101F8000C46BFF1F146CFF1F702C0100F06BFF1F50
:101F9000406CFF1F70B5084C084E2546084907489D
:101FA00000F0DEF9207018B105493078FEF746FEE2
:101FB0002B78002BF2D170BD656CFF1F646CFF1F86
:101FC000666CFF1F10B503F063FC042003F038FCBF
:101FD0000421002003F044FC03210A2003F040FC0C
:101FE0000321082003F03CFC0321092003F038FC06
:101FF0000321052003F034FC2E4C03210E2003F0B6
:102000002FFC41F2883006F09DFB22460021032080
:1020100003F0CEFC284A0021032003F0C9FC274A24
:102020000021032003F0C4FC254A0021032003F013
:10203000BFFC22460021032003F0BAFC214A002104
:10204000032003F0B5FC204A0021032003F0B0FC7C
:10205000FFF74EF800F018FAFFF71EFDFFF74CF9F6
:1020600000F086F8FEF7CEFD03F048FB174A00218A
:10207000032003F09DFC164B01221A70154B4AF603
:10208000C8711980144B1A680020186002F04002D1
:10209000124842F0290201601A60114A1149116088
:1020A0001A6842F040021A600F4B4FF400621A6047
:1020B00010BD00BFBAF80000E1F8000008F9000008
:1020C0002FF900004121010056F900006AF90000D3
:1020D000FD79FF1FFE79FF1F009003400890034029
:1020E0007407FF1F951F000004E100E008B50420FD
:1020F000054A002103F05CFC03F018FA4FF4FA7073
:10210000BDE8084006F01EBB8AF9000038B5074A52
:1021100004460D460420052103F04AFCA0B20DB18F
:1021200040F48070BDE8384006F044BC33F800004D
:1021300010B50D4A04460521042003F039FC06F0D1
:102140009DFC002809DC094A0521022003F030FC2F
:102150004FF47A63013BFDD1F1E706F09FFC20705C
:10216000C0F3002010BD00BFFC1F010095F9000066
:1021700008B5094A0521042003F01AFC46F2A8100C
:1021800006F05EFBA42006F0D1FB044A0023137086
:10219000034A137008BD00BFAAF90000B46CFF1F0A
:1021A000A86CFF1F37B506F069FC041E1D4D07DD46
:1021B0001D4A0521042003F0FBFB00232B702EE0B9
:1021C000032006F061FA012826D1184A05210420CF
:1021D00003F0EEFB2A78164B82B91B680093009B34
:1021E00013F1650F8ABFAB60643364236B604FF0FB
:1021F000010398BFAA602B70002011E01B680193B7
:10220000019BA9686A685B1A9A424FF0000406D2E3
:102210002C70FFF7ADFF02E00020287000E02046A0
:1022200003B030BDB46CFF1FB3F90000CEF900005D
:10223000247AFF1F2DE9F04186B00D460646009135
:102240000346344A0521042003F0BEFC06F1FF38A2
:102250006F1EA8440024474508D017F8010F00213D
:10226000FFF754FF3B781C44E4B2F4E70121204619
:10227000FFF74CFF284A294C13680493049B274F0F
:10228000991D8ABFA360053305239046636098BFFC
:1022900000224FF0010398BFA26023702378B3B1EE
:1022A000D8F800300593059BB9687A685B1A9A42A2
:1022B0000DD21A4B00221A7004E09DF80F302BB398
:1022C000AA2B18D129463046FFF7B4FF1FE0FFF7CD
:1022D00069FF0028E2D00DF10F00FFF729FF044647
:1022E0000028EAD003F0CCFA01200D4A052103F0C2
:1022F0005FFB00200BE0FF2BE4D003F0C1FA0120CC
:10230000084A052103F054FB204600E0012006B0F6
:10231000BDE8F081E4F90000247AFF1FA86CFF1FDC
:10232000F6F9000023FA000008B505210420044A4C
:1023300003F03EFB01210020BDE80840FFF7E6BEA8
:1023400050FA000008B505210420044A03F030FBD0
:102350000121FF20BDE80840FFF7D8BE5DFA00006C
:102360002DE9FF4705460E463B4A0521042003F0B0
:102370001FFBFFF717FF00286AD02846FFF7D8FE9B
:10238000002865D02F7807F0F803102B60D10123C7
:10239000324A00950521042003F016FC2878FEF748
:1023A00097FC34468146C6EB04085FFA88F8C145BD
:1023B0000CD92046FFF7BCFE23781F440134FFB23E
:1023C0000028F0D003F05CFA254A22E03178287822
:1023D000FEF79EFC4FF0000982465FFA89F303EB9B
:1023E00008049A45E4B20AD93019FFF7A1FE335D1B
:1023F0001F44FFB209F101090028EED0E2E704A86A
:10240000002300F8013DFFF793FE38B103F038FADE
:10241000144A0521012003F0CBFA19E09DF80F3092
:10242000BB4203D003F02CFA0F4AF2E70134E4B2C6
:10243000012C4FF0040083BF009623460B4A009501
:102440009CBF01230A4A052103F0BEFB204600E0A1
:10245000002004B0BDE8F0876BFA000074FA0000B9
:1024600081FA0000B8FA0000F5FA00001CFB000039
:1024700034FB0000024A00231370024A13707047B5
:10248000B46CFF1FA86CFF1F08B50F4A0F21042072
:1024900003F08EFA0121232006F004F90121242003
:1024A00006F000F90221202006F0FCF802211F208E
:1024B00006F0F8F802211E2006F0F4F802211D2093
:1024C000BDE8084006F0EEB84EFB000038B50F4AF4
:1024D00005460C4604200F2103F06AFA012D0CD0AA
:1024E000022D01D1242009E003F0CAF9084A0F2186
:1024F0000120BDE8384003F05BBA23200CB1012174
:1025000000E02146BDE8384006F09EB858FB0000C8
:1025100065FB000070B5104A0F210646042003F049
:1025200047FA202006F0B0F805461F2006F0ACF868
:1025300004461E2006F0A8F8800040EA44041D204E
:1025400006F0A2F82C4364B244EAC000064214BF6D
:102550000120002070BD00BF88FB0000704710B54F
:102560005821044606F03EF8204610BD0F2A38B523
:1025700004461D4617DD00F1140201F1100351F865
:10258000040B42F8040B9942F9D1226B0021201D63
:1025900005F0ACFF1023E36284F83450802384F804
:1025A0003530012038BD002038BD40F3C01303F0A2
:1025B0001B0383EA4000C0B27047FFFF2DE9F04FD4
:1025C000044685B042B901F10F03029304F10F03F1
:1025D0000027B24E019382E0B04DB14F002001F1CF
:1025E0000F0E4B7BEE5C0B785E40C35D73400B704F
:1025F0008B7BEE5C4B7873404B70CB7BEE5C8B78C7
:1026000073408B700B7BEE5CCB785E400B4603F81F
:10261000036F13F801CF13F8046C73458CEA0606B8
:102620001E70F6D101300A28DBD1631E4D1E04F165
:102630000F0613F8017F15F8010FB34280EA070077
:102640001870F6D1BFE7DD7813F8010D45409942C7
:102650001D71F8D14B7BF35C5840914BDB1B5B7ACF
:1026600058408B7B0870F05C4B7843404B70CB7BC1
:10267000F05C8B7843408B700B7BF05CCB784340F5
:10268000CB70002F57D1607A637B60736079607282
:1026900060786071A07AA5786370A070A37BE07900
:1026A000A572A579A371E378E070E07AE071E07B30
:1026B000A573E373E072631E01F1FF3C13F8010F91
:1026C000784D15F800E01CF8010F8EEA0000187034
:1026D00001988342F2D101370A2F00F0CF8012B166
:1026E00001F10C03AFE7631E4D1E13F801EF15F85F
:1026F000010F8EEA0000305C187001988342F4D11B
:10270000607963786070607A6071607B6072A078D5
:10271000A57A6373A072A379E07AA570A57BA373F1
:10272000E37BE073E079E072E078A571E071E3703B
:102730000FB1092F7FD00023009342E06B1C05F1FD
:10274000020A05F1030914F805B0E05C14F809E089
:1027500014F80A80039388EA0E088BEA000080EAE6
:102760000808FFF722FF8BEA080E80EA0E0060558A
:10277000039B14F80A00E55C6840FFF716FF88EA3F
:102780000505039B6840E05414F80A5014F809004A
:102790006840FFF70AFF88EA0505684004F80A0068
:1027A00014F809508BEA0500FFF7FFFE009B88EA4A
:1027B0000508013380EA0800042B04F8090000939F
:1027C00036D0009B9D00EDB2002AB7D005F1020B78
:1027D00014F805A014F80B008AEA0000FFF7E5FEE4
:1027E000FFF7E3FE05F1010905F1030814F809E01C
:1027F000039014F808008EEA0000FFF7D6FEFFF7FA
:10280000D4FE039B8AEA030A04F805A014F809E041
:1028100080EA0E0E04F809E014F80BE083EA0E03D8
:1028200004F80B3014F80830584004F8080085E725
:10283000002A7FF428AF4B7BF05C0B785840184B94
:10284000FB5C43400B708B7BF05C4B7843404B70E0
:10285000CB7BF05C8B7843408B700B7BF05CCB7850
:1028600058400B4603F8030F13F8015F13F8040CEC
:102870006840187002988342F6D12CE75AB9631E5B
:1028800001390F3413F8010F11F8012F9C4282EA2D
:1028900000021A70F6D105B0BDE8F08FB0FB000061
:1028A000B0FC0000BAFC0000F0B58E46C16A1029E9
:1028B00085B01DD100F114056E4600F12404EC46EC
:1028C00028686968374603C70835A5423E46F7D1F0
:1028D00011467046103251F8044B40F8044B9142B7
:1028E000F9D170461A466146FFF768FE012000E004
:1028F000002005B0F0BDFFFF0022C26280F8342046
:10290000FF2280F83520024A0260102202637047DD
:10291000A0FB000070B504461546A2B1836840686C
:10292000D618864208DD02F0ABFF084A06210120D6
:1029300003F03EF8002070BD2068184405F03CFD0F
:10294000A3681D44A560012070BD00BFBAFD000052
:10295000704710B54FF4EC71044605F043FE204675
:1029600010BDFFFF2DE9F04142680468DFF888E1FF
:102970005F4E84EA121303F00F3384EA030082EA05
:1029800003135C4A80EA80442240504080EA92422D
:10299000584883EA83442040434083EA904382EAD4
:1029A000530000F0553082EA000583EA400080EAD7
:1029B000152202F0FF1280EA020485EA022282EA6E
:1029C000540000F055304240130984EA400000F4FE
:1029D0007F4403F070632343040404F47F0423431F
:1029E000C0F30740034322F07042083100275EF82D
:1029F000270030B195069C0645EA920544EA930407
:102A000005E0D506DC0645EA520544EA530425F004
:102A10007042D009C2F3811C00F03C004CEA000077
:102A20004FEA923CC2F343380CF0300C48EA0C0CED
:102A300040300CF1800C56F8208056F82C0005F040
:102A40003F0C48EA000056F82C504FEA525C2843ED
:102A50000CF0060CC2F300554FEA925845EA0C0CF4
:102A600008F038084CEA080C0CF1C00C24F0704354
:102A700056F82C504FEA132C05430CF03C0CC3F3D2
:102A8000C11040EA0C0C04F03F04C3F3C53000F55C
:102A9000C07004F580740CF5A07C56F8208056F8C0
:102AA000240056F82C4048EA000020439C0DC3F354
:102AB000435C04F030044CEA040404F5E07401378C
:102AC00056F824402043ACB244EA0044000C000411
:102AD00040EA15404FEAB4744FEAB060102F41F855
:102AE000084C41F8040C01F1080180D1BDE8F081E7
:102AF000500B01000000CCCC501301002DE9F04137
:102B00004368076887EA131505F00F356F4083EABD
:102B1000051585EA17439BB285EA030487EA034358
:102B200083EA940505F0333583EA050684EA8505D2
:102B300085EA162303F0FF135D4086EA032383EA48
:102B4000550404F05534634085EA44054FEA737335
:102B50004FEA7575A14C002A00F08A8001F18007C8
:102B60000E684A685E40C6F3852CC6F3850E0CF1EC
:102B7000800C54F82E8054F82CE04FEA966C0CF53B
:102B8000C07CC6F3854606F5807654F82CC054F810
:102B900026605A4088EA0E0E4FEA32128EEA0C0E78
:102BA0008EEA060E960E06F5E076103154F8266091
:102BB0008EEA060EC2F38506403654F826608EEA89
:102BC000060EC2F38526C036C2F3854202F5A07216
:102BD00054F8266054F822208EEA0606724051F816
:102BE000086C55406E404FEA966CC6F3850E0CF5A6
:102BF000C07C54F82E8054F82CE051F8042C88EA5C
:102C00000E0E8EEA0303C6F3852E0EF1800EC6F378
:102C1000854606F5807654F82EE054F826606A4022
:102C20004FEA321283EA0E037340960E06F5E07601
:102C30008F4254F8266083EA0603C2F3850606F144
:102C4000400654F8266083EA0603C2F3852606F19F
:102C5000C006C2F3854202F5A07254F8266054F80B
:102C6000222083EA060383EA02037FF479AF88E037
:102C7000A1F180078E6FCA6F5E40C6F3852CC6F344
:102C8000850E0CF1800C54F82E8054F82CE04FEA9D
:102C9000966C0CF5C07CC6F3854606F5807654F834
:102CA0002CC054F826605A4088EA0E0E4FEA3212C1
:102CB0008EEA0C0E8EEA060E960E06F5E0761039B8
:102CC00054F826608EEA060EC2F38506403654F8A4
:102CD00026608EEA060EC2F38526C036C2F3854210
:102CE00002F5A07254F8266054F822208EEA0606F7
:102CF0007240D1F8806055406E404FEA966CC6F342
:102D0000850E0CF5C07C54F82E8054F82CE0D1F8D8
:102D1000842088EA0E0E8EEA0303C6F3852E0EF198
:102D2000800EC6F3854606F5807654F82EE054F8FA
:102D300026606A404FEA321283EA0E037340960E11
:102D400006F5E076B94254F8266083EA0603C2F33A
:102D5000850606F1400654F8266083EA0603C2F3AE
:102D6000852606F1C006C2F3854202F5A07254F82A
:102D7000266054F8222083EA060383EA02037FF4E4
:102D800079AF4FEAF5014FEAF30381EA530202F00B
:102D9000553281EA020483EA420383EA142101F0F6
:102DA000FF1183EA010284EA012181EA920303F020
:102DB0003333594082EA830383EA114292B253408B
:102DC00081EA024282EA131101F00F314A4083EA9C
:102DD000011302604360BDE8F08100BF50030100B1
:102DE00013B50C461146026800924268019268468B
:102DF0001A46FFF783FE009B23701A0A62701A0CB2
:102E00001B0EE370019BA2701A0A237162711A0CE7
:102E10001B0EA271E37102B010BD2DE9F041044612
:102E20001E46E36A102B0D4610460AD0182B26D0FA
:102E3000082B44D104F158020EB9012313E00023FA
:102E400011E004F15807D83496B901233A46FFF748
:102E5000C7FF3346224629462846FFF7C1FF012314
:102E60003A4629462846FFF7BBFF0120BDE8F0811E
:102E700000233A46FFF7B4FF0123224619E004F18C
:102E8000580704F1D80804F5AC7466B901233A4632
:102E9000FFF7A6FF3346424629462846FFF7A0FF24
:102EA00001232246DDE700232246FFF799FF012395
:102EB000424629462846FFF793FF0023D0E700202B
:102EC000BDE8F0810022C26280F83420FF2280F841
:102ED0003520024A02600822026370474003010065
:102EE000F0B54D1E471E01F1070E802615F8014F63
:102EF000334224F0010418BF44F00104754507F87B
:102F0000014F4FEA5606F1D10823934205DACC5C13
:102F100024F00104C4540133F7E7F0BDF8B500F123
:102F200014060446304615461F46FFF7D9FF102AFF
:102F300010D0182A1BD0082A37D104F1130304F14A
:102F40001B0213F8011F19729342FAD104F15801C0
:102F5000304608E004F158013046FFF703FD04F164
:102F6000D80104F11C00FFF7FDFC002311E004F17F
:102F700058013046FFF7F6FC04F1D80104F11C00BB
:102F8000FFF7F0FC04F5AC7104F12400FFF7EAFC54
:102F9000402384F83530226B0021201D05F0A6FA6D
:102FA00084F83470E5620120F8BD0020F8BD10B54A
:102FB00004460846002184E80500A16005F096FA61
:102FC000204610BD08B5836819444368994208DD5E
:102FD00002F056FC044A0621012002F0E9FC002020
:102FE00008BD012008BD00BF9C13010013B50321DB
:102FF0000446FFF7E7FF70B102A9002341F8043D42
:103000002268A3681A44033310889278ADF804004C
:103010008A700198A36002B010BD10B5044608463E
:10302000002184E80500A16005F060FA204610BD8B
:1030300008B5836819444368994208DD02F020FC12
:10304000044A0621012002F0B3FC002008BD012043
:1030500008BD00BFBAFD000038B50D460121044689
:10306000FFF7E6FF28B1A3682268D554A3680133AF
:10307000A36038BD13B5019104210446FFF7D8FFC2
:10308000024630B1A36821680198C850A368043390
:10309000A360104602B010BD73B501910321044630
:1030A000FFF7C6FF58B102ABA268216833F8046D80
:1030B0008E528D189B78AB70A3680333A36002B067
:1030C00070BDFFFF2DE9F04F87B0056BDDF8448040
:1030D00001914545044692461E46109F07DC98FB29
:1030E000F5F305FB138515B900F1040920E002F0A2
:1030F000C7FB224A0921012002F05AFC1EE0019A76
:10310000F2B94A46394602A801F046FE236802AAEF
:10311000D3F80CB0314653462046D84770B1226BE5
:103120003146484605F048F9236B01351F441E44DB
:10313000236B98FBF3F29542E1DB1AE0002019E0E3
:1031400023683A46D3F80CB002A953462046D84724
:103150000028F3D002A90846236B4A4601F01CFE62
:10316000226B3946484605F027F9226B02A9304602
:10317000D8E7012007B0BDE8F08F00BFAE13010013
:1031800073B5054688680C461646F8B12A6B90FB65
:10319000F2F302FB1303CBB90B68801A05F1360179
:1031A000184401F004FEA2682368019200220093F3
:1031B00011462846FFF786FF044608B9002419E0A7
:1031C0002A6B291D304605F0F7F813E080212046D0
:1031D000FFF742FF0028F1D0A0682A6B90FBF2F3C2
:1031E00002FB13030BB10021F1E7801A236805F1FC
:1031F0004601D5E7204602B070BDFFFF08B528B1F3
:1032000090F83530FF2B01D0012008BD02F038FBCB
:10321000034A0921022002F0CBFB002008BD00BFB9
:10322000C513010040280FD0802801D050B901E01B
:1032300007487047082909D0064B0748102908BFDE
:10324000184670470548704705487047054870475D
:10325000DF130100D1130100D3130100E3130100B8
:10326000D8130100D413010013B5C36A102B044610
:10327000B8BF102300F1140200929BB2094A092141
:10328000042002F0A1FCE16A94F83500FFF7CAFFC0
:10329000054A03460921042002B0BDE8104002F0AF
:1032A000FFBB00BFEB130100F0130100437802786D
:1032B0001B0243EA0233C2788078134343EA0010CA
:1032C00080B270470C2908B50B4600F08C80AF29FE
:1032D00000F08980002900F08680AE295ED024D8D5
:1032E0007E294FD010D81C2944D005D80E2972D180
:1032F00002F0C6FA3D4A68E01E293FD040296AD153
:1033000002F0BEFA3A4A60E09E293FD005D89D29D6
:1033100061D102F0B5FA374A57E0A0293AD0A12985
:1033200059D102F0ADFA344A4FE0CE2942D010D83C
:10333000C12937D005D8BE294DD102F0A1FA2F4AB4
:1033400043E0CA2932D0CD2945D102F099FA2C4A5E
:103350003BE0EE2932D005D8DE293CD102F090FACC
:10336000284A32E0F0292DD0F12934D102F088FA30
:10337000254A2AE002F084FA244A26E002F080FA84
:10338000234A22E002F07CFA224A1EE002F078FA98
:10339000214A1AE002F074FA204A16E002F070FAAC
:1033A0001F4A12E002F06CFA1E4A0EE002F068FAC0
:1033B0001D4A0AE002F064FA1C4A06E002F060FAD4
:1033C0001B4A02E002F05CFA1A4A0821012002F0CE
:1033D000EFFA002008BD184A0821012002F01EFB68
:1033E00002F04EFAF5E7012008BD00BFFD13010011
:1033F0003914010063140100A2140100D514010066
:103400000C150100301501006715010017140100AB
:10341000281401004D140100761401008B140100E2
:10342000BF140100E5140100FB1401001B1501008D
:1034300049150100571501007D1501002DE9F04FD8
:103440008DB01546179A9DF86090984604460E4632
:10345000002302B1137005AF84F8A036012204A93D
:103460003846FFF7DAFD09F0040202F0FF03039388
:10347000002A0CBF0B231323002D08BF3D460293E7
:10348000B3689A1CAB681344502B04DC029B169A59
:103490001344502B07DD02F0F3F9B64A082101204E
:1034A00002F086FADFE019F00A0F07D094F86434CE
:1034B000FF2B03D102F0E4F9AF4AEFE719F0020F56
:1034C0005DD00421082002F0D1F970B1AB4A082187
:1034D000042002F06DFAD4F86C24138E04320092AA
:1034E0000921A74A042002F06FFBB168AB682A6883
:1034F000306801F0B9FC014608902846FFF7BAFD94
:10350000002800F0B080D4F86C34AF681B6B97FBD8
:10351000F3FA03FB1A7ABAF1000F01D00137F6E78C
:10352000C5F808A039462846FFF782FD002800F0BC
:103530009A8008ABAF60009304231846914A082193
:1035400002F042FB1FFA87FB2B6800938E4A5B4612
:103550000821042002F038FB2B68D4F86C048DE8B5
:10356000880052465146FFF7ADFD00287BD02B68FE
:103570000093864A5B460821042002F025FB31684F
:1035800019F0010F91F800A02CD0BAF1AF0F29D09B
:1035900094F86434FF2B25D00023C4F8243704F2B8
:1035A0001C77B2683846FFF7B5F900285BD0AA68E7
:1035B00029683846FFF7AEF9002854D00DF1200BEA
:1035C0005A463946D4F86C04FFF7DAFD00284AD091
:1035D000D4F86C346E4A1B8ECDF800B0082104205C
:1035E00002F0F2FA4023237101236371B26831685B
:1035F000A01D04F0E1FEB768AA6829680237261DFD
:10360000F01904F0D9FEAA683A44D2B231462046F5
:1036100001F0D0F938B31699029B0B44DAB2314667
:10362000204601F0D1F90228834602D96379412B63
:1036300003D002F025F9574A30E7A17984F8A016A3
:103640002046E77900F012FF68B1BBF1030F0AD002
:1036500027B1AF2F1CBFFF2384F8643439462046BE
:10366000FFF730FE10B94FF0FF357EE0179B03B136
:103670001F70039BABF10405EDB27BB30FB1AF2F0D
:103680002CD194F86434FF2B28D0BAF1AF0F1CBFB3
:103690000023C4F82437AF2F08D12A4604F10801CB
:1036A00004F21C70FFF736F9C0B9DCE7072D15D915
:1036B000A7B9ABF10C05EDB204F21C7A2B1D2A461A
:1036C00004F1080150461E44FFF724F90028CAD02F
:1036D00039465046FFF7C0FC50BBC4E7169BAB42CF
:1036E00003DA02F0CDF82C4AD8E6B8F1000F3CD04E
:1036F000002D3AD02A4604F10801404604F05CFE51
:1037000019F0080F31D001220195CDF80080434611
:103710001146D4F86C04FFF7D5FC0028A3D0CDF8EF
:103720000080ABB21D4A0821042002F04DFA1CE0D3
:1037300008AF3A465146D4F86C04FFF721FD002843
:1037400091D0D4F86C34164A1B8E009708210420BF
:1037500002F03AFA08223946304607F0A3FB002867
:10376000BCD002F08DF80F4A98E628460DB0BDE8AF
:10377000F08F00BF4D1601008D1501009F1501004F
:10378000B6150100BF150100C3150100D1150100D8
:10379000E3150100F2150100251601004416010091
:1037A0000816010017160100F0B589B004460F464F
:1037B000154604A9012205A81E46FFF72EFC39462E
:1037C00005A8FFF749FC9DF8403002930F9B019339
:1037D0000E9B00932A46334605A92046FFF72EFE8E
:1037E00009B0F0BD2DE9F04FCBB00546049108209B
:1037F0000421904602F03AF840B10420049B974A15
:10380000082102F00BF94046FFF72EFD98F83530FD
:10381000402B02D0802B06D00BB91A2404E002F012
:103820002FF88F4AF1E0AA24012207A908A8FFF780
:10383000F4FB049908A8FFF70FFC002302930DF195
:103840001F06102314AF009321463B46019608AA99
:103850002846FFF7A9FF3378AF2B044603D1082889
:1038600005D0102803D002F00BF87E4ACDE0D8F83E
:103870003020002108F1040004F038FE0DF1600A48
:10388000012201940097534611464046FFF71AFC67
:10389000002800F07C810DF1700B224651465846FD
:1038A0000DF1800901F091FA2146484601F0AAFA8B
:1038B00020223AA90BA8FFF7B0FB224649460BA8E5
:1038C000FFF728F8224659460BA8FFF723F82022D5
:1038D00042A90EA8FFF7A1FB6300002219460EA81B
:1038E00005931092FFF7A4FB059B00B11093019381
:1038F00000220B9B009311460E9B4046FFF7E2FB14
:10390000002800F044810421082001F0AFFF88B3B3
:10391000A3B20097544A1F460821042002F054F92C
:103920003B46524ACDF800A00821042002F04CF991
:103930003B464F4ACDF800B00821042002F044F97C
:103940003B464C4ACDF80090082104207F0002F04D
:103950003BF9BFB20B9B0093474A3B46082104202A
:1039600002F032F90E9B0093444A3B4608210420A2
:1039700002F02AF9002324AF02938DE850003B4661
:103980000EAAAF212846FFF70FFF33780BB9844208
:1039900003D001F075FF3A4A37E028AE01220194C6
:1039A0000097334611464046FFF78CFB002800F095
:1039B000EE800DF1B00B49465846224601F005FA5B
:1039C0000421082001F052FFB0B1A3B200972D4AA4
:1039D0001F460821042002F0F7F83B462A4A0096C9
:1039E0000821042002F0F0F8CDF800B03B46274A49
:1039F0000821042002F0E8F822462CA9304607F0FE
:103A000051FA38B101F03CFF214A0821012001F0B0
:103A1000CFFFBCE0182234A911A8FFF7FEFA042258
:103A2000494611A8FEF776FF0422514611A8FEF779
:103A300071FFD8F82C30082B42DD98F83530402B38
:103A400028D0802B32D0002B3AD1042221A911A8F2
:103A5000FEF760FF042219A92FE000BF88160100BD
:103A6000C5130100A0160100BA160100C41601001A
:103A7000CA160100D4160100DA160100E116010091
:103A8000EC16010006170100101701001A170100BB
:103A90002417010004220DF1860111A8FEF73AFF58
:103AA00004220DF1660111A8FEF734FF042223A9B8
:103AB00011A8FEF72FFF04221BA911A8FEF72AFF69
:103AC00098F83530139A1199802B0CBF05F58E6349
:103AD00005F59963C5F86C34D5F86C0403689C68E7
:103AE0000023A047002852D0D5F86C44266B0DF176
:103AF000C009082E4FF010024FF0000148460CBFDD
:103B00001B27872704F0F2FC32460021201D04F019
:103B1000EDFC236B0193CDF800904B460022012170
:103B20002046FFF7CFFA064688B3D4F830A004F158
:103B3000360852464946404604F03EFC514640464F
:103B400001F04DF99DF9C030002B07DA236B013BE2
:103B5000234493F836207A4083F83620D4F8309006
:103B600004F1460318464A46414604F025FC4946FE
:103B700001F035F994F93630002B07DA236B013B5D
:103B80001C4494F846305F4084F846700EB9002615
:103B900011E00421082001F069FE40B10420084A28
:103BA000082101F005FFD5F86C04FFF75DFB9DF8D7
:103BB000103085F8643430464BB0BDE8F08F00BF5C
:103BC0003E1701002DE9F04F0546ADB00E461446F4
:103BD0009846834A0B460420082101F01FFF95F800
:103BE0006434FF2B07D101F04BFE7E4A08210220EE
:103BF00001F0DEFE1FE00421082001F037FEB0B125
:103C0000794A0821042001F0D3FED5F86C24138EE4
:103C1000043200920921754A042001F0D5FF0420E6
:103C2000734A082101F0C4FE2046FFF71DFB204621
:103C3000FFF7E4FA08B90020CEE028220DA907A872
:103C4000FFF7EBF9E26A04F11409102AB8BF102259
:103C5000494607A8FEF75EFED5F8683495F864A4D7
:103C60001BB994F83570374300E0374656451BD0F2
:103C70004046FFF7C3FA0028DDD00421082001F0F8
:103C8000F5FD38B104205B4A082101F091FE404661
:103C9000FFF7EAFAD8F82C200798102AB8BF1022AC
:103CA00008F1140101F083F894F83530802B04D129
:103CB00094F8341007A8FFF7CFF9C423079A8DF8BA
:103CC00014300221099B8DF8157005A801F0CCF87D
:103CD0000DF1B008014648F8980D07A8FFF7CAF99A
:103CE0000423CDF80080444A0821184601F06CFFF7
:103CF000564516D0E16A002310291A46B8BF102194
:103D0000484601F0B1F82CAC014644F82C0D07A848
:103D1000FFF7B0F904230094384A0821184601F04F
:103D200053FF099B182B04DD212BB4BF202428242A
:103D300000E01824D5F86CB4DBF8303094FBF3F8CD
:103D400003FB1848B8F1000F01D00134F6E70DF17C
:103D50005C0928224146484604F0C8FB079B0093B3
:103D600001944B46424641465846FFF7ABF90028BE
:103D70003FF461AF079B00931FFA84F84346204A43
:103D80000821042001F020FF43461E4ACDF8009090
:103D90000821042001F018FF292221A90AA8FFF711
:103DA0003CF939460AA8FFF757F9224649460AA8BE
:103DB000FEF7B0FD564504BFFF2385F864340423A5
:103DC00002930023019300930AAAC4212846FFF717
:103DD000EBFCB0FA80F040092DB0BDE8F08F00BFD9
:103DE000511701008D15010066170100B61501007D
:103DF0007C1701008F170100A2170100B417010002
:103E0000C7170100D317010070B50B4688B00546EF
:103E10000C4616460821144A042001F0FFFD012239
:103E200004A905A8FFF7F9F8214605A8FFF714F93A
:103E300005230293002401238DE818002846334609
:103E400005AA6421FFF7B0FC0128054608D1034606
:103E500000960420054A082101F0B6FE284600E03D
:103E6000204608B070BD00BFE0170100F91701003F
:103E700010B58EB00EAB044603F8211D0F4A009317
:103E800008210123042001F09FFE10220AA907A89F
:103E9000FFF7C3F89DF8171007A8FFF7DDF8062312
:103EA000029300230193009307AA54212046FFF7B1
:103EB0007BFCB0FA80F040090EB010BD171901006C
:103EC0002DE9F0410746B2B00E4604200821154600
:103ED0003B4A01F06DFD70220021304604F006FBE4
:103EE00054221DA906A8FFF762F80523DDF8188003
:103EF00002930DF1170301933C23009300224346E4
:103F00006A213846FFF750FC041E53DB9DF817105A
:103F1000AF294FF000020DD104230293C4F15403E2
:103F20000093019208EB04033846FFF73DFC00289C
:103F300001DA3FE0104604440023214606A8089316
:103F4000FFF740F800B107940320002394FBF0F43E
:103F50002C702A78DCB2A24203F1010706D906A828
:103F6000FFF744F83B4646F82400F2E70421082016
:103F700001F07CFC044608B901241CE02B780BB14D
:103F8000002205E00F4A0821042001F011FD12E093
:103F90002B78541CD2B29342EED956F822300A49FB
:103FA00009A807F069FA09AA0821042001F000FD18
:103FB0002246EDE70024204632B0BDE8F08100BF84
:103FC00094190100AA190100BE1901002DE9F04160
:103FD0009AB007460E460820042190461D469DF8DB
:103FE000804001F043FC78B100212046FFF71AF928
:103FF000324600901B492B4606A807F03DFA06AA58
:104000000821042001F0D4FCFF2C08D101F038FC79
:104010000120154A082101F0CBFC00201EE00522FA
:1040200004A906A8FEF7F9FF314606A8FFF734F801
:10403000414606A8FFF710F845EA040106A8FFF775
:104040000BF80523029300230193009306AACA21CB
:104050003846FFF7A9FBB0FA80F040091AB0BDE876
:10406000F08100BFD61901000D1A010030B50546D8
:104070009BB00C460820042101F0F8FB48B1224611
:10408000104906A807F0F8F906AA0821042001F053
:104090008FFC032205A906A8FEF7BFFF214606A84C
:1040A000FEF7FAFF0523029300230193009306AA6B
:1040B000DA212846FFF778FBB0FA80F040091BB000
:1040C00030BD00BF1E1A0100F0B59FB002AD0C4616
:1040D0000DF1070229460646FFF7F2FE90B10023D4
:1040E0009DF807701A46D9B28F4206D955F82310A9
:1040F0000133A14208BF0122F5E71AB1214630463B
:10410000FFF7B4FF1FB0F0BD70B505469AB00E467C
:104110000820042101F0AAFB48B13246134906A841
:1041200007F0AAF906AA0821042001F041FC0322A5
:1041300005A906A8FEF771FF0024314606A8FEF780
:10414000ABFF029401940094234606AA5A21284604
:10415000FFF72AFB30B9FF2385F86434C5F868649B
:10416000012000E020461AB070BD00BF371A0100E0
:10417000F0B506469DB00D460820042117461C46A2
:1041800001F074FB50B12A461E49234608A807F0E7
:1041900073F908AA0821042001F00AFC3846FFF749
:1041A00085F80722074606A908A8FEF736FF294624
:1041B00008A8FEF751FF002108A8FEF74DFF0221D5
:1041C00008A8ADF81670FEF733FF38B10A9B089ABD
:1041D000BDF81610D1520A9B02330A93214608A853
:1041E000FEF75AFF0523029300230193009308AAC8
:1041F000CD213046FFF7D8FAB0FA80F040091DB063
:10420000F0BD00BF5D1B01002DE9F0439DB081466C
:104210000F460820042115461C46249E01F026FB6B
:1042200058B13A461F4900942B4608A807F024F9D4
:1042300008AA0821042001F0BBFB002C2EDD302C45
:104240004FF0070206A908A8A046A8BF4FF0300803
:10425000FEF7E3FE394608A8FEF7FEFE294608A849
:10426000FEF71AFF414608A8FEF716FF0523029342
:104270000DF117030193CDF80080334608AABD2144
:104280004846FFF791FA9DF817300BB9002801DC7A
:10429000002004E0241A05440644CEE701201DB0A6
:1042A000BDE8F083941B01002DE9F0439DB08146E9
:1042B00088460820042116461D46249F01F0D6FAA0
:1042C00058B1424620490095334608A807F0D4F873
:1042D00008AA0821042001F06BFB002D30DD342DED
:1042E0004FF03C0208A905A82C46A8BF3424FEF7CD
:1042F00094FE414605A8FEF7AFFE314605A8FEF73D
:10430000CBFE214605A8FEF7C7FE2246394605A882
:10431000FEF700FB052302930DF113030193002325
:10432000009305AA3D214846FFF73EFA9DF8133059
:1043300003B908B1002004E02D1B26442744CCE734
:1043400001201DB0BDE8F083C11B01002DE9F04341
:10435000044687B0264600F05FF8234B46F85C3BE6
:1043600004F50D783046FEF7ADFD04F20C474046EB
:10437000FEF7A8FD3846FEF7BFFA04F58E60FEF79B
:10438000BBFA04F59960FEF79DFD04F2A161782265
:1043900004F21C70FEF741FE0025FF234FF01809C0
:1043A00084F864344A462946C4F86C5484F8A0560C
:1043B000C4F86854684604F099F82B466946082208
:1043C0003046FEF7ABFD2B464A4669464046FEF7AF
:1043D000A5FD2B46102269463846FEF7C7F8204651
:1043E00007B0BDE8F08300BF98130100FF2280F8FA
:1043F00064240022C0F8682400F0FABB054B1B6857
:104400004FF00042DA625863DA6A002AFCDA986BED
:10441000C0B270473807FF1F064A0260002280F8CA
:10442000542080F8552080F8562080F8572080F8D6
:10443000582070473823010038B504469DF81050C5
:104440009DF8140084F8541084F8580084F855201E
:1044500084F8563084F85750012104F023F994F879
:1044600057000121BDE8384004F01CB910B55B4A83
:104470000C46A0B00A21042001F09AFA14F03F047F
:1044800000F0A980224656496846013C06F0F4FF38
:104490002D2C00F29380DFE804F0171B1F23272B3D
:1044A0002F9133373B913F439147914B4F5391911C
:1044B00091919191919191919191919157915B5F8E
:1044C0006391676B6F797D8701F0DAF945496EE09A
:1044D00001F0D6F944496AE001F0D2F9434966E0B7
:1044E00001F0CEF9424962E001F0CAF941495EE0CB
:1044F00001F0C6F940495AE001F0C2F93F4956E0DF
:1045000001F0BEF93E4952E001F0BAF93D494EE0F2
:1045100001F0B6F93C494AE001F0B2F93B493CE010
:1045200001F0AEF93A4942E001F0AAF939493EE01A
:1045300001F0A6F938493AE001F0A2F9374936E02E
:1045400001F09EF9364932E001F09AF935492EE042
:1045500001F096F934492AE001F092F9334926E056
:1045600001F08EF9324922E001F08AF9314906E082
:1045700001F086F9304902E001F082F92F496846DE
:1045800006F0A0FF0A210246032020E001F078F99E
:104590002B490CE001F074F92A49684606F092FFB5
:1045A0000A210246022012E001F06AF92649684613
:1045B00006F088FF0A210246012008E001F060F9B8
:1045C0002249684606F07EFF0A210246002001F0DB
:1045D000EFF9002000E0012020B010BD7E1D010099
:1045E0008F1D0100A41D0100AC1D0100B61D0100BE
:1045F000C31D0100E91D0100F71D01000E1E010091
:10460000301E0100431E0100651E0100771E0100DF
:10461000831E01009C1E0100AE1E0100C41E01008D
:10462000D61E0100EB1E0100001F0100151F010036
:104630002B1F0100421F01005B1F0100731F0100BF
:10464000881F0100A91F0100B61F0100C21F010041
:104650001FB50446002190F8570003F0F5FF022033
:1046600004F070F8124A0A21042001F0A1F9022096
:10467000FFF7C4FE0020FFF7C1FE04AB0D4A03F8AC
:10468000010D0A2100930420012301F09DFA01216C
:1046900094F8570003F0D8FF4FF4FA63013BFDD1C3
:1046A0009DF80F00431E5842584104B010BD00BF92
:1046B000D51F0100F11F010070B506466524304684
:1046C000FFF7C6FF054670B9013CA4B23CB901F042
:1046D000D7F8064A0A21012001F06AF903E00A200E
:1046E00004F030F8EBE7284670BD00BF0120010060
:1046F000F8B50F460646002190F85700144603F01F
:10470000A3FF022004F01EF80D4A0A21042001F044
:104710004FF90120FFF772FE013C7D1E3C44A5428B
:1047200004D015F8010FFFF769FEF8E7012196F8AC
:10473000570003F089FF4FF4FA63013BFDD1F8BD48
:1047400018200100F0B5054689B03A4A3A4C0A21D2
:10475000042001F02DF9012195F8580003F074FFB1
:104760000A2003F0EFFF002195F8580003F06CFFDA
:104770004FF4C87003F0E6FF012195F8580003F0EC
:1047800063FF0A2003F0DEFF95F8557095F8566038
:1047900095F85410204601F01BFC3946204601F0E4
:1047A000CDFB3146204601F07BFB204601F03CFB6F
:1047B000E37AF3B172B6E37AD90705D51F4AE36805
:1047C00011680B40A3611360E37A1B499A0705D572
:1047D0001B4A0B6910680340CB611360E37A1649EA
:1047E0005B0705D5174A4B69106803400B621360DD
:1047F00062B62368144AD968914207D013491960F8
:10480000DA6002F180421A61114A1A6003AC142284
:104810005521204603F06AFE214628461422FFF760
:1048200067FF009414230B4A0A21042001F0CCF9FD
:1048300009B0F0BD382001003807FF1F80E100E01B
:1048400084E100E088E100E00540003901403F00DC
:1048500000003F803E20010030B59BB0FF248DF862
:104860000E40541C8DF80F40D44300238DF81040A7
:10487000D4248DF80C308DF80D308DF81140DCB259
:10488000A24205D903AC1C44CD5CA5710133F6E707
:104890000025911D2B46ECB28C4205F1010507DA8B
:1048A0000DF1680E744414F85C4C2344DBB2F2E75B
:1048B0001AAC2144DB4301F85C3C1AAB02F108045A
:1048C0001A4403AD002302F8553C2946E2B2FFF733
:1048D0000FFF0095A3B2034A0A21042001F074F9E6
:1048E0001BB030BD522001002DE9F041074688463B
:1048F0001446FFF7E1FE064638B3002197F857004B
:1049000003F0A2FE022003F01DFF114A0A21042039
:1049100001F04EF80320FFF771FD013C08F1FF356F
:104920004444A54208D0012003F00CFF0020FFF70B
:1049300065FD05F8010FF4E7012197F8570003F032
:1049400083FE4FF4FA63013BFDD13046BDE8F081B0
:104950005B20010030B5144B87B0044604AD1868E5
:1049600002909B88ADF80C30204606222946FFF7BE
:10497000BBFF0446A0B10D4A00950A21042006237E
:1049800001F022F9062202A9284606F08BFA38B176
:1049900000F076FF064A0A21012001F009F8002400
:1049A000204607B030BD00BF781D0100782001000F
:1049B0008120010010B50446FFF74EFF2046BDE8F8
:1049C0001040FFF7C7BFFFFFF0B5531F4B2B97B049
:1049D0000D46174603D900F053FF314A2BE002AED3
:1049E0003146FFF781FF002857D032460021381F9B
:1049F000884207DD12F8013B13B91478FF2C22D04E
:104A00000131F5E70024274D0AE016AB1A4412F8ED
:104A1000503C254ADB43DBB29D4214BF15460025BE
:104A200000963B46214A0A21042001F0CDF845B109
:104A300000F026FF2A4601200A2100F0B9FF0020DD
:104A40002BE0E0B229E016AA0A4412F84E4C12F804
:104A50004D2C2244B2F5807F1DD14A1D224497423D
:104A600015DB0A1D9C4205DD581830440079E854D6
:104A70000133F7E7224464B12B78D52B09D1002507
:104A80009142C2DA735C1D44EDB20131F8E7084D82
:104A9000C6E7084DC4E7084DC2E717B0F0BD00BF38
:104AA0006321010097200100422101007E210100C5
:104AB000DD20010014210100B52001002DE9F8439B
:104AC000044625460420894690460A21174A1F4677
:104AD00000F06EFF022305F8043F0122294620461C
:104AE000FFF768FF0646E8B10D2229462046FFF78A
:104AF0006BFF062802D16379032B08D000F0C0FEBB
:104B00000B4A0A21012000F053FF00260AE0A37996
:104B100089F80030E37988F80030237A3B70089BED
:104B2000627A1A703046BDE8F88300BF8821010020
:104B30009B21010070B5144A04460A21042000F0AC
:104B400037FF261D142201232271A2716371E371C4
:104B5000042231462046FFF72DFF054688B1092281
:104B600031462046FFF730FF022802D16379152B2A
:104B700007D000F085FE054A0A21012000F018FF49
:104B80000025284670BD00BFB5210100BF210100EE
:104B900070B5154A04460A21042000F009FF3223AB
:104BA0002371FF23A37101230522E371261D032333
:104BB0006271237231462046FFF7FCFE054688B13C
:104BC000092231462046FFF7FFFE022802D1637911
:104BD000332B07D000F054FE044A0A21012000F0D4
:104BE000E7FE0025284670BDD0210100EC21010020
:104BF00070B5144A04460A21042000F0D9FE32237D
:104C0000237101236371261D0023A3710322314602
:104C10002046FFF7CFFE054688B1092231462046DF
:104C2000FFF7D2FE022802D16379332B07D000F0C0
:104C300027FE054A0A21012000F0BAFE0025284679
:104C400070BD00BF0F220100202201002DE9F047B6
:104C500004460E46994696B017460A21474A042054
:104C600000F0A6FE00234A223B70251D89F8003083
:104C700033607360227101226271A371032229469D
:104C80002046FFF797FE8046002872D01C22294656
:104C90002046FFF799FE022802D963794B2B09D0F1
:104CA00000F0EEFD364A0A21012000F081FE4FF0AF
:104CB00000085EE0A579334A2B460A21042000F063
:104CC000ADFE012D55D1E57A042D08D0072D06D073
:104CD0002B462C4A0A21022000F0A0FE49E004F1F4
:104CE0000C012A46304603F067FB3D70277A637A51
:104CF000A47A072D43EA072709D13378802B13D0F4
:104D0000B7F5517F10D1202C0ED101230AE0042DDC
:104D10000AD13378802B07D1B7F5417F04D1202CFD
:104D200002D1032389F8003004210A2000F09EFDFF
:104D30008246F0B12B46144A00960A21042000F066
:104D400043FF23463A46114902A806F095FB99F81D
:104D50000030012B01D10E4902E0032B03D10D4994
:104D600002A806F0AFFB02AA0A21042000F020FEF0
:104D7000D046404616B0BDE8F08700BF6024010071
:104D8000532201006E2201007B22010085220100D6
:104D9000AC220100BF22010070B500249C4205DA5C
:104DA0000E5D155D754005550134F7E770BD30B5F2
:104DB00001380C46631A9A4206DD14F8015B10F8BC
:104DC000013F6B400370F5E730BD38B5541E0D460A
:104DD0002246013103F0F0FA2A78025538BD10B5A9
:104DE000034601391A1A914208DD1A7813F8014F67
:104DF000520042EAD41203F8012CF3E7435C5B0053
:104E0000435410BD37B5094B094C1B680193019BF6
:104E10000246151AA94206DD02F8013B634303F579
:104E200083432733F5E703B030BD00BF247AFF1F6B
:104E30001DF3010030B503461C1AA14212DD13F820
:104E4000014B6240082402F0010552083DB182F096
:104E50006D4282F4380282F4034282F02002013C67
:104E6000F1D1E9E7104630BD38B514464FF0FF32B6
:104E70001D46FFF7DFFF294602462046BDE83840C1
:104E8000FFF7D8BF30B52F4A2F4C99B00B21032024
:104E900000F08EFD00232D482370FFF753FC0DF129
:104EA0000F0300930DF10D020DF10E0303A9274826
:104EB000FFF704FE002835D09DF80E109DF80D3048
:104EC0009DF80C20009104A8214906F0D5FA04AA07
:104ED0000B21042000F06CFD9DF80F501D491E4869
:104EE00015F0010F14BF0A46024615F0020F14BF59
:104EF0000B46034615F0040F08BF0146009104A8B5
:104F0000164906F0B9FA042004AA0B2100F050FD5E
:104F10000E48FFF73DFE28B10C48FFF70BFE08B125
:104F20000123237023782BB900F0AAFC0C4A0B2133
:104F3000012002E00B4A0B21032000F039FD19B0DB
:104F400030BD00BF5B230100C075FF1FC06CFF1F99
:104F50007723010054230100582301009E23010000
:104F6000D2230100E623010010B50B210446104AAC
:104F7000042000F01DFD00210E48FFF7C5F8A0B188
:104F8000224600210B48FEF73FFF70B12378102B1B
:104F900011BF094A094A074800211CBF0021A2F19C
:104FA0005C00BDE81040FEF71DBC002010BD00BF36
:104FB000F4230100C06CFF1F1C6DFF1FE873FF1F6F
:104FC00030B5224A85B00B21042000F0F1FC204BC3
:104FD0001C784CB900F054FC1E4A0B21022000F052
:104FE000E7FCFFF74FFF2DE000250DF1070301AAB5
:104FF00002A919480195FFF729FE044628B900F0D7
:105000003FFC164A0B21012009E09DF80730012BD7
:105010009DF8043006D133B1114A0B21042000F071
:10502000C7FC0FE033B90F4A0B21042000F0C0FC8D
:10503000002407E000F024FC0B4A0B21022000F0C2
:10504000B7FC2C46204605B030BD00BF052401004A
:10505000C075FF1F18240100C06CFF1F4D24010004
:10506000742401008C240100A324010008B5074822
:10507000FFF7BCF940B900F003FC054A0B21022000
:10508000BDE8084000F094BC08BD00BFC06CFF1F25
:10509000BA2401002DE9F041324A88B007460E4695
:1050A00004200B2100F084FC00212F48FFF72CF88E
:1050B000044618B900F0E4FB2C4A42E00DF10F025F
:1050C00000212948FEF7A0FE044618B900F0D8FBDD
:1050D000274A36E09DF80F30264A0B21042000F0C5
:1050E0009DFC9DF80F80B8F1100F08D000F0C8FBB0
:1050F000214A0B21012000F05BFC00242EE01F4917
:105100001948FFF701F8044618B900F0B9FB1C4A2A
:1051100017E01C4A14480021FEF764FB044618B946
:1051200000F0AEFB184A0CE0002204AD00954346A7
:1051300011460D48FFF768F8044638B900F0A0FBA7
:10514000124A0B21012000F033FC07E02B4603CB71
:1051500006AB3860796003CB30607160204608B0E0
:10516000BDE8F081D2240100C06CFF1FE7240100DC
:10517000002501001B250100352501001F40AA0064
:1051800053250100D475FF1F642501007B25010014
:1051900070B5054688B00C46434A0B21042000F048
:1051A00007FC04AE28686968334603C32068616859
:1051B00006AB03C33D493E48FEF786FF044618B9D7
:1051C00000F05EFB3B4A67E03B4D384995F83530CF
:1051D00000930F2201233648FEF7F8FE044618B963
:1051E00000F04EFB354A57E030493148FEF78CFF5E
:1051F000044618B900F044FB314A4DE0314A002121
:10520000A2F50D70FEF7EEFA044618B900F038FB6F
:105210002D4A41E000232A4619462548FEF7D2FCD4
:10522000044618B900F02CFB284A35E02A46002134
:105230001F48FEF7D7FA044618B900F021FB244AAC
:105240002AE0F0211A48FEF713FE044618B900F0D0
:1052500017FB204A20E00025102303AA2946144802
:105260008DF80C508DF80D508DF80E508DF80F50B4
:10527000FEF77EFF044618B900F002FB164A0BE069
:10528000009610232A4629460948FFF70DF80446E0
:1052900030B900F0F5FA114A0B21012000F088FB2B
:1052A000204608B070BD00BF8B2501001F40AA003A
:1052B000C06CFF1FA1250100D475FF1FB22501009E
:1052C000C7250100F46EFF1FE62501000E26010030
:1052D0002A2601004B260100632601007E260100DC
:1052E00037B5224A0B21042000F062FB0DF10700C4
:1052F000FFF73AFE044618B900F0C2FA1C4A2BE048
:105300009DF8073073B31B491B48FEF7DDFE0546C9
:1053100050B90146194A1848FEF764FA044618B90C
:1053200000F0AEFA164A17E0164A00231946A2F119
:105330005C00FEF747FC044618B900F0A1FA124AD7
:105340000AE0104A0021A2F15C00FEF74BFA044685
:1053500038B900F095FA0D4A0B21012000F028FB26
:1053600000E02C46204603B030BD00BFA626010059
:10537000B82601001F40AA00C06CFF1FE873FF1F82
:10538000D02601001C6DFF1FF4260100112701002B
:1053900037B51A4A0B21042000F00AFB0DF1070073
:1053A000FFF7E2FD044638B900F06AFA144A0B210F
:1053B000012000F0FDFA1EE09DF80730102B1AD0F6
:1053C0000023104A10481946FEF7FCFB054618B9A1
:1053D00000F056FA0D4A09E00A4A0B480021FEF790
:1053E00001FA054638B900F04BFA094A0B210120B1
:1053F00000F0DEFA2C46204603B030BD2E27010017
:10540000B8260100E873FF1FC06CFF1F3C27010096
:105410001127010008B5044A0B21042000F0C8FA46
:10542000024B186808BD00BF4D270100C475FF1F5F
:10543000F0B5324A87B004460D4604200B2100F037
:10544000B7FAFFF7BDFD002850D02D4A0B210420EC
:1054500000F0AEFAFFF744FF18B900F011FA294A3C
:105460000AE0294A0B21042000F0A2FAFFF790FF7E
:1054700028B900F005FA254A0B21012039E0244A19
:105480000B21042000F094FA02AE00230A2204AF9C
:10549000F118B5FBF2F002FB1055CD71FD18013B80
:1054A000B4FBF2F113F1080F02FB1144EC71054655
:1054B0000C46EDD1174A0B21042000F079FA08239D
:1054C000154A00960B21042000F07EFB0B210420DE
:1054D00000970823114A00F077FB39463046FFF762
:1054E00057FE08B10E4A02E00E4A00E00E4A0B21B8
:1054F000042000F05DFA07B0F0BD00BF6127010095
:105500007327010096270100AD270100D227010073
:10551000E2270100042801002E2801004228010092
:10552000562801005F28010067280100F0B5314AC4
:1055300087B00B21042000F03BFAFFF741FD08B9CA
:10554000002451E02C4D2C785CB12C4B19682C4B6D
:105550001868FFF76DFF2B4B00241B6898472C70D1
:1055600042E0294E357835B1FFF7BAFE274B1B686C
:105570009847347038E004AE02AF31463846FFF742
:1055800089FD0028DCD0224A0B21042000F010FA0B
:105590000823204A00970B21042000F015FB082364
:1055A0001D4A00960B21042000F00EFB2C462B46D2
:1055B0000A22F95C02FB0515F15C0133082B02FBA2
:1055C0000414F6D12B46154A0B21042000F026FACC
:1055D0000B2104202346124A00F020FA29462046D7
:1055E000FBF7DEFE0028ABD00E4B1C60FFF73EFD44
:1055F00007B0F0BD78280100AD77FF1FB077FF1F1F
:10560000CC75FF1FC875FF1FAC77FF1FD075FF1F3C
:10561000812801002E280100422801009428010061
:10562000A3280100C475FF1F70B505460C46164639
:105630000B21094A042000F0BBF9084B1A7852B933
:10564000074A12783AB9074A1660074A1560074AAE
:10565000146001221A7070BDB2280100AD77FF1FDF
:10566000AC77FF1FC875FF1FCC75FF1FB077FF1FFA
:1056700010B5084A04460B21042000F099F9064BA6
:105680001B7833B9054B1A781AB9054A1460012200
:105690001A7010BDCA280100AD77FF1FAC77FF1F3D
:1056A000D075FF1F70B50F4D0F4C104E2846FEF7FA
:1056B0004DFE28460E4D0F49224604F073FC284645
:1056C000FDF700FC28460C4D2246314604F06AFCEA
:1056D0002846FDF7F7FB224631462846BDE87040D4
:1056E00004F060BCC06CFF1FF806FF1F51290000CA
:1056F000E873FF1F71570000D475FF1F13B5134ADD
:105700000B21042000F054F9114B124800241C60B6
:10571000162206238DE80C00142115230522FEF71E
:105720008BFEFFF7AFFB102318220B490B48FDF748
:10573000F5FB102318220A490A48FDF7EFFB0A4B34
:105740001C700A4B1C7002B010BD00BFE2280100A3
:10575000C475FF1FC06CFF1FEC280100E873FF1F1A
:105760003C230100D475FF1FAD77FF1FAC77FF1FEF
:105770000C4B10B50446036000F59960FDF7E8F89E
:1057800004F58E60FCF7EAFE04F20C40FCF7E6FE3E
:1057900004F50D70FDF7DCF804F15C00FDF7D8F8B6
:1057A000204610BD98130100F8B521F00101002535
:1057B000064647182C46BE421FD036F8023B4FF62D
:1057C000F1721C44B4FBF2F102FB114425440420A5
:1057D000B5FBF2F102FB1155094A0E2100F01EF94A
:1057E0002346084A0E21042000F018F92B46064AE9
:1057F0000E21042000F012F9DDE744EA0540F8BD6F
:10580000042901000B2901001229010070B504468A
:1058100008460D4605F0D4FE236802462946204678
:105820005B68BDE87040184703681B68184708B5F7
:10583000FFF7ECFF08BD0368C9B21B681847FFFFFC
:1058400010B5054B054A19780023DCB2A14202D9F4
:1058500098540133F9E710BDFC06FF1FB477FF1F12
:10586000014B1954704700BFB477FF1F034B185CFE
:10587000884234BF00200120704700BFB477FF1F6B
:10588000024A136801331360704700BFD477FF1FCB
:1058900008B50420FFF7D4FF014B00221A6008BDB1
:1058A000D477FF1F30B58FB004460D46FBF75AFC86
:1058B000A0B103A8FBF75CFC4FF47A700599B1FB2B
:1058C000F0F101919DF8111000919DF810309DF8B4
:1058D0000F201A4906A805F0CFFD07E0184B19491B
:1058E0001B680393039A06A805F0C6FD06A916488F
:1058F000FFF78CFF052C10D8DFE804F0030507093B
:105900000B0D12490AE0124908E0124906E012495B
:1059100004E0124902E0124900E012490A48FFF788
:1059200075FF2B46104A0B2106A805F057FD06A966
:105930000548FFF76BFF0FB030BD00BF68290100BD
:10594000247AFF1F84290100C408FF1F8A2901004F
:1059500095290100A0290100AB290100B629010009
:10596000C1290100CC290100D7290100052810B563
:10597000144604D9FFF784FF0C460A4902200A4B5B
:105980001B7883420DD3FFF78DFF21460748FFF7B1
:105990003DFF0A210548FFF74EFFBDE8104003F028
:1059A000C1BE10BDDE290100B477FF1FC408FF1F70
:1059B000052810B514460DD9FFF762FF102996BFD0
:1059C000114B124A53F8212011490220BDE8104022
:1059D000FFF7CCBF0F4B5B5C834213D3102996BFFC
:1059E000094B0A4953F82110FFF75CFF21460A488A
:1059F000FFF70CFF0A210848FFF71DFFBDE8104024
:105A000003F090BE10BD00BF1C29010060290100F9
:105A1000DE290100B477FF1FC408FF1F052838B531
:105A200015461C460DD9FFF72BFF102996BF164BC4
:105A3000164A53F8212016490220BDE83840FFF7E6
:105A400095BF144B5B5C83421DD3102996BF0E4B50
:105A50000E4953F82110FFF725FF29460E48FFF79E
:105A6000D5FE0E490C48FFF7E2FE002321460A222C
:105A7000094802F055FC0A210748FFF7DCFEBDE8A3
:105A8000384003F04FBE38BD1C29010060290100D9
:105A9000DE290100B477FF1FC408FF1FB7180100FB
:105AA000052838B515461C460DD9FFF7E9FE102923
:105AB00096BF154B154A53F8212015490220BDE821
:105AC0003840FFF753BF134B5B5C83421BD3102955
:105AD00096BF0D4B0D4953F82110FFF7E3FE294601
