:100000000000022099010000D17300009D730000E0
:100010009D7300009D7300009D7300009D730000A0
:100020009D7300009D7300009D730000D17300005C
:10003000D17300009D7300007570000039710000DD
:10004000D1730000D1730000D1730000D1730000A0
:10005000D1730000D1730000D1730000D173000090
:10006000D1730000D1730000D1730000D173000080
:10007000D1730000D1730000D1730000D173000070
:10008000D1730000D1730000D1730000D173000060
:10009000D1730000D1730000D1730000D173000050
:1000A000C1550000CD550000D1730000D173000090
:1000B000D1730000D1730000D17300005D7900009E
:1000C000D1730000C1870000D173000021890000B6
:1000D000D1730000498A0000D1730000D173000081
:1000E000D1730000D1730000D173000009700000CB
:1000F000D1730000D1730000D1730000D1730000F0
:10010000D1730000D1730000D1730000D1730000DF
:10011000D1730000317C0000D1730000D173000066
:10012000D1730000D1730000D1730000D1730000BF
:10013000D1730000D1730000D1730000D1730000AF
:10014000D1730000D1730000718B0000D1730000E7
:10015000998C0000D1730000D1730000D1730000AE
:10016000D1730000D1730000D9550000D173000095
:10017000D1730000D1730000D1730000D17300006F
:10018000D1730000D1730000D1730000D17300005F
:10019000D1730000D1730000584B4CF2205210B5BF
:1001A0001A804DF628121A8000BF00BF07F014F91C
:1001B000534B4FF030621A60524A9A60524ADA60EA
:1001C000524B4FF470021A60514A136813F4807353
:1001D00001BF50490B604FF4A85313604E4B4F4979
:1001E0001A78100742BF1A7842F008021A704C4B76
:1001F0002A221A704B4A4C4B8B4204D252F8040FFD
:1002000043F8040BF8E7494B494A0021934202D2D4
:1002100043F8041BFAE7474A4748002350F82310E5
:1002200042F823100133662BF8D1444B444A802115
:1002300003F8011B9342FBD1424B3E4A1A60424BEA
:100240008A221A70A3F5805324225A70A0221A70B1
:100250009A799107FCD59A79D206FCD43B4A9379D6
:1002600003F00C03082B394BF9D103221A714622F3
:100270005A719A799406FCD534498A79334B5006E1
:10028000FBD5334A4FF08271116009215160202261
:100290001A709A7902F00C020C2AFAD12D4B2E4AD0
:1002A0001A602E4B2E4A1A6000225A60072243F829
:1002B000042C2C4AC3F80C2D62B607F08FF9154BAD
:1002C0001B68DA0705D5284807F0E4F8274B284AC9
:1002D0001A60284B1B785B0609D5244C244B2268F6
:1002E0009A4204D1204807F0D5F80023236009F092
:1002F00009FA07F077F806F08CFFFEE70E200540BC
:1003000030800440823F04000100002B88ED00E0B3
:1003100010D0034014D0034002D007402013FF1F29
:1003200000E00740581D0100F806FF1F2013FF1FC3
:10033000E080FF1F0002FF1F0000000000E400E05B
:1003400056E400E008ED00E00050064000400640A2
:100350004480044004800440C010050014E000E024
:10036000BFD401000000202051E1BA5C1CE0034032
:10037000A5C3945A00F00740FFFFFFFFFFFFFFFFF8
:10038000FFFFFFFFFFFFFFFFFFFFFFFFFFFFFFFF7D
:10039000FFFFFFFFFFFFFFFFFFFFFFFFFFFFFFFF6D
:1003A000FFFFFFFFFFFFFFFFFFFFFFFFFFFFFFFF5D
:1003B000FFFFFFFFFFFFFFFFFFFFFFFFFFFFFFFF4D
:1003C000FFFFFFFFFFFFFFFFFFFFFFFFFFFFFFFF3D
:1003D000FFFFFFFFFFFFFFFFFFFFFFFFFFFFFFFF2D
:1003E000FFFFFFFFFFFFFFFFFFFFFFFFFFFFFFFF1D
:1003F000FFFFFFFFFFFFFFFFFFFFFFFFFFFFFFFF0D
:10040000FFFFFFFFFFFFFFFFFFFFFFFFDEF9FFFF23
:1004100010B5054C237833B9044B13B10448AFF33E
:1004200000800123237010BD2013FF1F0000000077
:10043000541D0100084B10B51BB108490848AFF323
:1004400000800848036803B910BD074B002BFBD0A0
:10045000BDE81040184700BF000000002413FF1F34
:10046000541D01002013FF1F00000000704770475B
:1004700010B50C21044606F0EBFF204610BD012309
:1004800010B503704370192383707823C37004463A
:1004900004F02BFB207104F02AFB0523A371002339
:1004A0006071E371082010BD10B509230446064AA7
:1004B00000F8013B0549064B09F014FF012323779F
:1004C000002363771E2010BD591F8A00BCDA00008C
:1004D000E471AB0010B5012188B004460A4A04203B
:1004E00004F096F9094B22781A7062785A70A27853
:1004F0009A706846E278DA70FFF7C1FF694601F04A
:1005000057FC08B010BD00BFCADA00003C13FF1F43
:1005100030B50F4A0F4C85B005460121042004F088
:1005200077F9294601A804F0CBFA029BA360A91C25
:100530009DF80C30237301A804F0C2FA029B63619A
:100540009DF80C30237601F0ADFC05B030BD00BF46
:10055000DEDA00003C13FF1F08B5044A0121042025
:1005600004F056F9BDE8084001F09CBCF2DA000046
:1005700010B50D4A8CB004460121042004F048F95E
:10058000214601A80CAC04F09BFA052304F8203D99
:100590000DF1110101A804F0A3FA2146032001F096
:1005A00007FC0CB010BD00BFFEDA000000B5084A21
:1005B00089B00121042004F02BF908A9062301F8D1
:1005C000203D012001F0F4FB09B05DF804FB00BF01
:1005D00012DB000008B5044A0121042004F018F9D8
:1005E000BDE8084001F05EBC25DB000008B5044A08
:1005F0000121042004F00CF9BDE8084001F052BCD0
:1006000039DB000000B5084A89B00121042004F05C
:10061000FFF808A9072301F8203D012001F0C8FBDD
:1006200009B05DF804FB00BF4DDB000008B504F025
:1006300057F80121034A084604F0EAF8BDE80840EB
:1006400001F03EBC62DB000008B5044A0121042031
:1006500004F0DEF8BDE8084001F024BC87DB0000B0
:1006600008B5044A0121042004F0D2F8BDE808408E
:1006700001F018BC9DDB000000B5084A89B00121DB
:10068000042004F0C5F808A9082301F8203D012042
:1006900001F08EFB09B05DF804FB00BFB2DB000087
:1006A00030B5044695B0224A0121042004F0B0F888
:1006B0002288ADF80C202246A37852F8030F8DF85B
:1006C0000E30516804AB03C30025906818602246C1
:1006D0008DF81D5052F80F0F8DF80F50516808AB70
:1006E00003C390681860134A8DF82D5003AB0121A5
:1006F000042004F005F904AB0F4A0121042004F0A2
:10070000FFF81B3408AB0D4A0121042004F0F8F86F
:1007100002230B4A00940121042004F085F90CA85F
:10072000FFF7C2FE0CA901F043FB15B030BD00BFBE
:10073000C7DB0000DBDB0000EEDB000001DC0000BB
:1007400014DC000038B53C4A05460C460420012163
:1007500004F05EF8A5F11000072862D8DFE800F089
:100760006A04161A40616156237833B1012B09D10E
:10077000601CBDE83840FFF7CBBE601CBDE83840C8
:10078000FFF7A8BE03F0ACFF2C4A4DE0BDE83840AF
:10079000FFF7E2BE2378052B1ED8DFE803F003083D
:1007A0000C111519601CBDE83840FFF7E1BEBDE82B
:1007B0003840FFF7FBBE601CBDE83840FFF70ABFBA
:1007C000BDE83840FFF712BFBDE83840FFF71ABF59
:1007D000BDE83840FFF72ABF03F082FF184A23E044
:1007E0002378012B0AD005D3022B0BD1BDE838406A
:1007F000FFF742BFBDE83840FFF726BFBDE83840ED
:10080000FFF72EBF03F06CFF0E4A0DE0237823B9EB
:10081000A01CBDE83840FFF743BF03F061FF0A4A60
:1008200002E003F05DFF094A01210846BDE83840B7
:1008300003F0EEBF38BD00BF27DC00002EDC000057
:1008400043DC000057DC00006DDC000086DC0000AB
:10085000112803BF0878B0FA80F0400900207047E3
:10086000142804D10878431E58425841704700208C
:100870007047142803BF0878B0FA80F040090020C0
:100880007047132804D10878031F58425841704715
:1008900000207047132803BF0878B0FA80F04009A1
:1008A00000207047132806D10878013802288CBF31
:1008B00000200120704700207047FFFF38B5084A2C
:1008C00004460D460420012103F0A2FF29462046DC
:1008D000FFF7BEFF10B1034B01221A7038BD00BFF5
:1008E00092DC00005813FF1F38B50A4A04460D4633
:1008F0000420012103F08CFF102C01D1002205E01F
:1009000029462046FFF7ACFF10B10222024B1A70B5
:1009100038BD00BFA6DC00005813FF1F38B50B4AD6
:1009200004460D460420012103F072FF102C084BF1
:1009300001D1002207E029462046FFF79AFF08B1BF
:10094000012200E003221A7038BD00BFBADC0000AB
:100950005813FF1F38B50E4A04460D4604200121E6
:1009600003F056FF102C01D1002205E02946204655
:10097000FFF787FF18B10222064B1A7038BD2946CF
:100980002046FFF787FF08B10422F5E738BD00BF16
:10099000CDDC00005813FF1F38B50A4A04460D4647
:1009A0000420012103F034FF102C01D1002205E0C6
:1009B00029462046FFF776FF10B10322024B1A703A
:1009C00038BD00BFE5DC00005813FF1F034B04488F
:1009D00000211C22197006F0BFBC00BF5813FF1F76
:1009E0003C13FF1F38B504460D46FFF7ABFE194B0D
:1009F0001B78042B22D8DFE803F003090F151B0036
:100A000029462046BDE83840FFF758BF2946204612
:100A1000BDE83840FFF768BF29462046BDE83840AA
:100A2000FFF77CBF29462046BDE83840FFF792BF5C
:100A300029462046BDE83840FFF7AEBF03F050FE20
:100A4000054A0121002003F0E3FEBDE8384000F034
:100A500057BD00BF5813FF1FF5DC000010B50D4A4D
:100A600004460121042003F0D3FEA4F1100007285E
:100A700007D8DFE800F00D040D0404060604012089
:100A800010BD03F02DFE0121034A084603F0C0FE0D
:100A9000002010BD03DD000086DC000038B51E4AD2
:100AA00005460C460420012103F0B2FEA5F110001A
:100AB000072823D8DFE800F02904290A1722221D7D
:100AC000012C24D903F00CFE144A1AE0052C06D898
:100AD000DFE804F01D1B031B1B1D022038BD03F0C3
:100AE000FFFD0F4A0DE0022C0FD903F0F9FD0D4A6E
:100AF00007E074B103F0F4FD0B4A02E003F0F0FDEF
:100B00000A4A0121084603F083FE002038BD042074
:100B100038BD1D2038BD00BF11DD00002EDC0000F7
:100B200043DC000057DC00006DDC000086DC0000C8
:100B30000648074941600022012382600161426149
:100B400003730376034A044908F062B93C13FF1F9C
:100B500094DA0000F806FF1F6F040000012104F082
:100B6000D5BB90F8383090F839209A4281BF5A1C92
:100B70001B1880F83820187E98BF4FF0FF30704760
:100B8000031103EB830300F00F0000EB4300C0B23E
:100B90007047FFFF08B5024804F07CFA012008BD49
:100BA000DC07FF1F38B50F4C0125D023022120465A
:100BB00084F83B3084F85E5084F85D5004F020FAED
:100BC0002046FFF7CBFF2B462A466821204604F03B
:100BD00019FC2046FFF7C5FF00F0E000E03818BF21
:100BE000012038BDDC07FF1F2DE9FF47294C0646D1
:100BF000D02301250321204684F83B3084F85E5041
:100C000084F85D5004F0FCF92046FFF7A7FF2B465F
:100C100007226821204604F0F5FB2046FFF7A1FFDC
:100C200000F07F00FFF7ACFF82462046FFF799FFF8
:100C3000C0B2FFF7A5FF81462046FFF792FFC0B282
:100C4000FFF79EFF80462046FFF78BFFC0B2FFF7FD
:100C500097FF07462046FFF784FF2046FFF781FFF6
:100C6000C0B2FFF78DFF05462046FFF77AFFC0B2FE
:100C7000FFF786FF002300F5FA6103938DE8000774
:100C80003B462A4689B2304603F05EFF304604B048
:100C9000BDE8F087DC07FF1F1FB501AC2046FFF75A
:100CA000A3FF06F067FC084B9DF809105A799142A2
:100CB0001FBF064A106094E8070083E80700044B52
:100CC00001221A7004B010BD5C13FF1F6C13FF1FCC
:100CD0006813FF1F7FB5154C154A0026022104201A
:100CE000267003F095FD134B01AD1E70124B31467B
:100CF00028461E6003F0B6FF95E807000F4B83E817
:100D000007000F48FFF746FF0D48FFF74BFF30B9CC
:100D100003F0E6FC0B4A0221012003F079FDFFF706
:100D2000BBFF0123237004B070BD00BF6913FF1F18
:100D300020DD00006813FF1F6C13FF1F5C13FF1FF3
:100D40005913FF1F2BDD0000014B1878704700BFBF
:100D50006913FF1F10B5044606F00CFC0E4B196812
:100D60000E4B8842A0EB010138BF01F1FF319942DF
:100D700009D90B490B4803F079FFFFF78DFF204697
:100D8000FFF7E8FF06E0074803F070FF054920463B
:100D900003F0F0FE204610BD6C13FF1F40420F0011
:100DA0003F420F005C13FF1F0021014803F05ABFB0
:100DB0005C13FF1F30B50C218BB00420394A3A4C2C
:100DC00003F026FD002539492560012000F0D4FC00
:100DD00018B903F085FC364A09E003AA1C2128460D
:100DE00000F022FD1B2807D803F07AFC314A0C21C1
:100DF000012003F00DFD52E02F4A0C21032003F0E7
:100E000007FD039B2D4A0C21032003F037FD0499B5
:100E1000684603F027FF6B46294A0C21032003F0A4
:100E2000AFFD05AB274A8DF823500C21032003F0BA
:100E300067FD099B244A0C21032003F01FFD099B39
:100E40002360B3F5007F09D903F04AFC1F4A0C2147
:100E5000022003F0DDFC4FF40073236023681C4A7A
:100E600003EB830103EB4101890089B21C2000F0F0
:100E7000DBFC22682C235343984209D203F030FC58
:100E8000144A0C21012003F0C3FC074B00221A6016
:100E9000114A0C21032003F0BBFC00F0B5FC0BB0A1
:100EA00030BD00BF5BDD00008413FF1F6BDD000061
:100EB00077DD00008CDD0000A8DD0000D9DD00003A
:100EC000EADD0000FBDD00000CDE00001DDE00009E
:100ED0009413FF1F5BDE000072DE000010B5114CA2
:100EE000114A0C21042003F093FCFFF763FF2368F1
:100EF0009BB903F0F5FB0D4A0C21022003F088FC9E
:100F0000FFF758FF236843B903F0EAFB084A0C21B6
:100F10000120BDE8104003F07BBC064B80221A7311
:100F200010BD00BF8413FF1F8FDE000097DE00009E
:100F3000C3DE00007013FF1F70B50E4A0C2104467B
:100F4000042003F065FC0C4B0C491A682C25002387
:100F5000934206D005FB03100668A64209D0013370
:100F6000F6E703F0BDFB0220054A0C2103F050FC1C
:100F7000002070BDE3DE00008413FF1F9413FF1FE9
:100F8000F1DE000010B50C46FFF7D6FF48B1836ACA
:100F9000A34206D1074A0C21042003F039FC0120AA
:100FA00010BD03F09DFB044A0C21022003F030FC2D
:100FB000002010BD14DF00002FDF000030B53A4ADA
:100FC00089B00C21042003F023FC3849012000F0F3
:100FD000D3FB044638B903F083FB354A0C210120CA
:100FE00003F016FC5CE000F0ADFC324A03460C2135
:100FF000042003F043FC00F0A5FC00281ADC2E4A74
:101000000C21032003F004FC01A8FFF7A3FE01A8B4
:1010100003F0C0FD0025059001230C2104A80493D2
:10102000069503F0F1FA04AA07901021284600F073
:101030002FFC2CE0002000F093FC04AA10210020DB
:1010400000F0F2FB0F2805D803F04AFB1B4A0C21E5
:10105000012018E00C2104A803F0D6FA079B184AD7
:1010600005460C21042003F009FC2B46154A0C21EF
:10107000042003F003FC079B9D4208D003F030FBE3
:10108000114A0C21002003F0C3FB002408E004AB4C
:1010900003CB0E4A106018685160906000F0B4FBFA
:1010A000204609B030BD00BF4BDF000066DF000006
:1010B00072DF00008EDF0000A6DF0000D7DF000037
:1010C000F5DF00000BE0000021E000008813FF1FA7
:1010D0001FB5164A0C21042003F09AFB1449012085
:1010E00000F04AFB044638B903F0FAFA114A0C2121
:1010F000012003F08DFB15E00F4A106851686B4624
:1011000003C3906818600C21684603F07DFA6A46B4
:1011100003901021002000F0BBFB002000F020FC19
:1011200000F072FB204604B010BD00BF46E0000096
:1011300066DF000072DF00008813FF1FF0B5314A40
:1011400089B00C21042003F063FB2F49012000F03B
:1011500013FB054638B903F0C3FA2C4A0C210120D1
:1011600003F056FB4BE000F0EDFB294F294A034604
:101170000C21042003F082FBB86818260138704364
:10118000103000F0EDFBB868013802AC7043314616
:101190002246103000F048FB33461F4A00940C21D1
:1011A000042003F041FC1421204603F02DFA079B94
:1011B0001A4A06460C21042003F060FB3346184A05
:1011C0000C21042003F05AFB079B9E4208D003F039
:1011D00087FA144A0C21002003F01AFB00250EE0C8
:1011E000114B06AE224603CAB2421860596014463B
:1011F00003F10803F6D11068186000F005FB2846DB
:1012000009B0F0BD62E0000066DF000072DF0000A0
:101210008813FF1F8EDF00007BE00000F5DF000079
:101220000BE0000021E000007013FF1F70B5214AA1
:101230008AB00C21042003F0EBFA1F49012000F0D2
:101240009BFA044638B903F04BFA1C4A0C210120E2
:1012500003F0DEFA2AE01A4B04AA03F11006154641
:1012600018685968144603C40833B3422246F7D1BC
:10127000186820601421284603F0C6F9114C099023
:101280002946182000F04AFB002000F069FB00F01E
:10129000BBFAA36801A80133A360FFF75BFD01A8B7
:1012A00003F078FC6060FFF713FF044620460AB0A5
:1012B00070BD00BF88E0000066DF000072DF000044
:1012C0007013FF1F8813FF1FF0B5234A87B00C214E
:1012D000042003F09DFA2149012000F04DFA054653
:1012E00038B903F0FDF91E4A0C21012003F090FAF1
:1012F0002FE01C4B6A4603F110076C4618685968CA
:10130000164603C60833BB423246F7D11868306030
:101310001421204603F078F9134B059098681821A2
:10132000013848432246103000F0B2FA002000F0A5
:1013300017FB0C4B224604AE144603CCB442186093
:101340005960224603F10803F6D12068186000F0C6
:101350005BFA284607B0F0BD9EE0000066DF0000A3
:1013600072DF00007013FF1F8813FF1F2DE9FF417C
:101370001F4C80460F4616460C211E4A04201D466F
:1013800003F046FA237B012B03D803F0A9F91A4A8C
:1013900005E0FFF713FE40B903F0A2F9174A012058
:1013A0000C2103F035FA00201FE0154B9B6823B990
:1013B00023706370A370E37006E0FFF7BFFE0028A0
:1013C000EAD0236801332360002301A82373C4F803
:1013D00008806773C4F80E606582FFF7BBFC01A844
:1013E00003F0D8FB6060FFF721FF04B0BDE8F08197
:1013F0007013FF1FB8E00000CEE0000012E1000013
:101400008813FF1F30B5194A85B00C21042003F062
:10141000FFF9FFF793FE044628B903F061F9144A77
:101420000C2101201DE0134C237B43B103F058F93C
:10143000114A0C21012003F0EBF9002413E001A86C
:1014400001252573FFF786FC01A803F0A3FB60606C
:10145000FFF73AFF044630B903F042F9074A0C217E
:10146000284603F0D5F9204605B030BD43E1000021
:101470005AE100007013FF1F76E10000A9E10000AF
:1014800030B51A4A85B00C21042003F0C1F9FFF7EA
:1014900055FE044628B903F023F9154A0C21012012
:1014A0001EE0144C257B012D08D003F019F9124AD7
:1014B0000C21012003F0ACF9002413E0032301A860
:1014C0002373FFF747FC01A803F064FB6060FFF79C
:1014D000FBFE044630B903F003F9084A0C21284604
:1014E00003F096F9204605B030BD00BFC6E100000C
:1014F0005AE100007013FF1FDEE10000A9E10000C7
:10150000704738B5012204460D4605F0FBFC024643
:1015100028B929462046BDE8384005F0F3BC012033
:1015200038BDFFFF0421F8B5344A354F354C364DF0
:10153000084603F06DF900233B702370FE232B70E7
:1015400004F020F9064604F00BF9A8701EB103F070
:10155000C7F82E4A07E029462D48FFF7D2FF38B9D1
:1015600003F0BEF82B4A0421012003F051F914E0E6
:101570002749294804F0CAFE0421012308463B708C
:1015800003F0A4F848B104210846244A03F040F9C6
:1015900032460721204805F0B5F90F2201212048E5
:1015A00004F096FC18B903F09BF81E4A07E01C49AA
:1015B0001D48FFF7A6FF40B903F092F81B4A04212B
:1015C0000120BDE8F84003F023B91749184804F09A
:1015D0009DFE042101230846237003F077F858B1DB
:1015E00004210846134A03F013F90022072110488A
:1015F000BDE8F84005F086B9F8BD00BF12E2000072
:10160000E46BFF1F306CFF1F316CFF1F1AE20000FC
:10161000946BFF1F3DE200000C6CFF1F6FE20000A7
:10162000346CFF1F8CE20000BC6BFF1FAFE20000B8
:10163000E86BFF1FE1E200000A7902714A7942710A
:101640008A7982718A688260CA68C2600A690261A6
:101650000A7D02758A698261CA69C2610A6A026288
:101660007047FFFF30B504218FB00546394A084660
:1016700003F0CEF8384B0593384B9B790024012BAF
:101680008DF818408DF81A4005D803F029F8344A2F
:10169000042102203DE02B5D2F2B19D08BB90421B2
:1016A0000846304A03F0B4F8042108462A4603F0FD
:1016B000AFF813232A46294905A805F06DF860BB49
:1016C00022E00134102CE6D103F00AF8264A1EE08D
:1016D0002246294601A805F0A5FD0EAB53FA84F376
:1016E0000421002203F8342C0846204A03F090F825
:1016F0000421084601AA03F08BF8012301AA174927
:1017000005A805F049F8B0B902F0EAFF184A04212B
:10171000012003F07DF800201AE0104804F0A0FF3B
:1017200018B902F0DDFF134AF1E705A90B48FFF7EE
:1017300083FF01200CE0094804F092FF0028F0D05C
:1017400005A90648FFF778FF601C2844FFF78AFFC9
:101750000FB030BDFEE2000008180100386CFF1F1A
:101760000BE3000038E300006CE300008CE30000B2
:1017700042E3000057E3000038B50D46042104465B
:10178000184A084603F044F8174804F069FF012C92
:101790000AD1164B1B782BB902F0A2FF144A042180
:1017A00002201AE013490BE0022C11D1124B1B78D6
:1017B0002BB902F095FF114A042120460DE0104993
:1017C0000948FFF739FF2846BDE83840FFF74ABF10
:1017D00002F086FF0B4A0421012003F019F80020D3
:1017E00038BD00BFA1E30000386CFF1FE46BFF1F92
:1017F000AAE300000C6CFF1F306CFF1FD5E3000054
:10180000E86BFF1F00E4000008B504210846044A05
:1018100002F0FEFF0348BDE8084004F021BF00BF0E
:1018200017E40000386CFF1F2DE9F0410F46144CFF
:101830000421064690460846124A02F0E9FFA579BF
:10184000012D11D13146204604F0AEFE28B902F038
:1018500047FF0D4A042128460BE03A464146204600
:10186000BDE8F04104F0FEBD02F03AFF074A042152
:10187000012002F0CDFF4FF0FF30BDE8F08100BF46
:10188000386CFF1F2DE4000036E400004AE400003D
:101890002DE9F0410F461B4E0421044690460846B0
:1018A000194A02F0B5FFB579012D20D12146304605
:1018B00004F07AFE18B902F013FF144A11E03A4618
:1018C0004146304605F0A2F8041E03DA02F008FF94
:1018D0000F4A06E0304604F097FE28B902F000FFF8
:1018E0000C4A0421284607E02046BDE8F08102F0BA
:1018F000F7FE094A0421012002F08AFF4FF0FF3071
:10190000BDE8F081386CFF1F6CE4000036E4000095
:1019100076E400008AE400004AE4000038B50D4691
:1019200004210446054A084602F072FF044B2A4689
:1019300021469869BDE83840FFF7AABFA5E400003A
:10194000386CFF1F08B504210846034A02F060FF07
:10195000024B986908BD00BFB0E40000386CFF1F5F
:1019600030B5C3B002AC22464FF480710546FFF794
:101970005BFF38B902F0B4FE0E4A0421012002F0E8
:1019800047FF14E02B460C4A0421052002F076FFA5
:101990000A4B0B4A9B690421052002F06FFF00945B
:1019A0004FF48073074A0421052003F03DF843B04B
:1019B00030BD00BFB8E40000CDE40000386CFF1F6C
:1019C000DBE40000E9E400000D4A002393700D4AB7
:1019D00093700D4A0221116082F820300B4A116089
:1019E00082F820300A4A0B491371116093710A4A38
:1019F000137111609371094A1371116093717047EB
:101A0000316CFF1F346CFF1F946BFF1FBC6BFF1FFB
:101A10000C6CFF1F08180100E86BFF1F386CFF1FDC
:101A200070B5084C084E25460849074800F056FA9C
:101A3000207018B105493078FEF7D4FF2B78002BC1
:101A4000F2D170BD6D6CFF1F646CFF1F6E6CFF1FC9
:101A500010B502F04DFE042002F022FE0421002009
:101A600002F02EFE03210A2002F02AFE03210820A4
:101A700002F026FE0321092002F022FE03210520A8
:101A800002F01EFE2D4C03210E2002F019FE41F241
:101A9000883005F08DFD22460021032002F0B8FEBB
:101AA000274A0021032002F0B3FE264A002103202A
:101AB00002F0AEFE244A0021032002F0A9FE2246D5
:101AC0000021032002F0A4FE204A0021032002F09E
:101AD0009FFE1F4A0021032002F09AFEFFF7FAF84A
:101AE000FFF720FDFFF7FAF900F000F9FEF76EFFAF
:101AF00002F040FD174A0021032002F089FE164B38
:101B000001221A70154B4AF6C8711980144B1A68D5
:101B10000020186002F04002124842F029020160E1
:101B20001A60114A114911601A6842F040021A60A5
:101B30000F4B4FF400621A6010BD00BFF7E40000C5
:101B40001EE5000045E500006CE50000050E010003
:101B500093E50000A7E50000F179FF1FF279FF1F70
:101B60000090034008900340B808FF1F211A0000AE
:101B700004E100E0F7B50021364A042002F048FEF7
:101B800002F0E4FB0146002857D0334D334E344A6F
:101B90000021042002F03CFE2946304602F040FCC1
:101BA0000146002847D02F4A0021042002F030FED1
:101BB00008232D4A00960021042002F035FF082357
:101BC0002A4A00950021042002F02EFF00231C4623
:101BD0001F460A22F15C02FB0717E95C0133082B60
:101BE00002FB0414F6D13B46214A0021042002F0F6
:101BF00045FE23461F4A0021042002F03FFE3946DD
:101C00002046FFF7BFF9054678B11B4A00210320A3
:101C100002F0FEFD0323962202212046FFF7A6FBD9
:101C2000FFF7F0FBFFF72CFC0BE002F059FD134A25
:101C30002946022003E0124A00E0124A042002F082
:101C4000E7FD02F0D9FB40F6B83003B0BDE8F04044
:101C500005F0AEBCC7E50000656CFF1F5C6CFF1FA4
:101C6000D2E50000DFE50000F2E5000006E6000036
:101C70001AE6000029E6000038E6000056E60000FB
:101C80007BE6000090E6000038B5074A04460D46A2
:101C90000420052102F0BCFDA0B20DB140F480701B
:101CA000BDE8384005F0BCBD70E4000010B50D4A39
:101CB00004460521042002F0ABFD05F015FE0028C6
:101CC00009DC094A0521022002F0A2FD4FF47A63E3
:101CD000013BFDD1F1E705F017FE2070C0F30020B5
:101CE00010BD00BFC00C0100A1E6000008B5094A04
:101CF0000521042002F08CFD46F2A81005F0D6FC68
:101D0000A42005F049FD044A00231370034A137010
:101D100008BD00BFB6E60000BC6CFF1FB06CFF1F23
:101D200037B505F0E1FD041E1D4D07DD1D4A0521F7
:101D3000042002F06DFD00232B702EE0032005F03F
:101D4000D9FB012826D1184A0521042002F060FDA4
:101D50002A78164B82B91B680093009B13F1650F1C
:101D60008ABFAB60643364236B604FF0010398BF9C
:101D7000AA602B70002011E01B680193019BA968E9
:101D80006A685B1A9A424FF0000406D22C70FFF783
:101D9000ADFF02E00020287000E0204603B030BD17
:101DA000BC6CFF1FBFE60000DAE60000147AFF1FDC
:101DB0002DE9F04186B00D46064600910346344AAF
:101DC0000521042002F030FE06F1FF386F1EA84402
:101DD0000024474508D017F8010F0021FFF754FFF2
:101DE0003B781C44E4B2F4E701212046FFF74CFFA6
:101DF000284A294C13680493049B274F991D8ABFD6
:101E0000A360053305239046636098BF00224FF01E
:101E1000010398BFA26023702378B3B1D8F80030D3
:101E20000593059BB9687A685B1A9A420DD21A4BE2
:101E300000221A7004E09DF80F302BB3AA2B18D1A2
:101E400029463046FFF7B4FF1FE0FFF769FF00287F
:101E5000E2D00DF10F00FFF729FF04460028EAD079
:101E600002F03EFC01200D4A052102F0D1FC0020C9
:101E70000BE0FF2BE4D002F033FC0120084A0521DF
:101E800002F0C6FC204600E0012006B0BDE8F0816B
:101E9000F0E60000147AFF1FB06CFF1F02E700009D
:101EA0002FE7000008B505210420044A02F0B0FC29
:101EB00001210020BDE80840FFF7E6BE5CE7000016
:101EC00008B505210420044A02F0A2FC0121FF20EC
:101ED000BDE80840FFF7D8BE69E700002DE9FF47DD
:101EE00005460E463B4A0521042002F091FCFFF70F
:101EF00017FF00286AD02846FFF7D8FE002865D0D3
:101F00002F7807F0F803102B60D10123324A009597
:101F10000521042002F088FD2878FEF79FFD344655
:101F20008146C6EB04085FFA88F8C1450CD9204603
:101F3000FFF7BCFE23781F440134FFB20028F0D025
:101F400002F0CEFB254A22E031782878FEF7A6FD84
:101F50004FF0000982465FFA89F303EB08049A45C3
:101F6000E4B20AD93019FFF7A1FE335D1F44FFB276
:101F700009F101090028EED0E2E704A8002300F8E7
:101F8000013DFFF793FE38B102F0AAFB144A052188
:101F9000012002F03DFC19E09DF80F30BB4203D058
:101FA00002F09EFB0F4AF2E70134E4B2012C4FF03D
:101FB000040083BF009623460B4A00959CBF012373
:101FC0000A4A052102F030FD204600E0002004B05E
:101FD000BDE8F08777E7000080E700008DE70000AC
:101FE000C4E7000001E8000028E8000040E8000025
:101FF000024A00231370024A13707047BC6CFF1F23
:10200000B06CFF1F704710B55821044605F020FA48
:10201000204610BD0F2A38B504461D4617DD00F1D5
:10202000140201F1100351F8040B42F8040B994219
:10203000F9D1226B0021201D05F08EF91023E362F7
:1020400084F83450802384F83530012038BD0020D6
:1020500038BD40F3C01303F01B0383EA4000C0B255
:102060007047FFFF2DE9F04F044685B042B901F1FA
:102070000F03029304F10F030027B24E019382E095
:10208000B04DB14F002001F10F0E4B7BEE5C0B7891
:102090005E40C35D73400B708B7BEE5C4B7873408E
:1020A0004B70CB7BEE5C8B7873408B700B7BEE5C64
:1020B000CB785E400B4603F8036F13F801CF13F89B
:1020C000046C73458CEA06061E70F6D101300A28AE
:1020D000DBD1631E4D1E04F10F0613F8017F15F8C6
:1020E000010FB34280EA07001870F6D1BFE7DD7830
:1020F00013F8010D454099421D71F8D14B7BF35CFB
:102100005840914BDB1B5B7A58408B7B0870F05C2E
:102110004B7843404B70CB7BF05C8B7843408B70AB
:102120000B7BF05CCB784340CB70002F57D1607AAB
:10213000637B60736079607260786071A07AA57863
:102140006370A070A37BE079A572A579A371E37891
:10215000E070E07AE071E07BA573E373E072631EE8
:1021600001F1FF3C13F8010F784D15F800E01CF861
:10217000010F8EEA0000187001988342F2D10137F6
:102180000A2F00F0CF8012B101F10C03AFE7631EFC
:102190004D1E13F801EF15F8010F8EEA0000305CB8
:1021A000187001988342F4D1607963786070607A26
:1021B0006071607B6072A078A57A6373A072A37966
:1021C000E07AA570A57BA373E37BE073E079E0720E
:1021D000E078A571E071E3700FB1092F7FD0002383
:1021E000009342E06B1C05F1020A05F1030914F8A3
:1021F00005B0E05C14F809E014F80A80039388EA5B
:102200000E088BEA000080EA0808FFF722FF8BEA3D
:10221000080E80EA0E006055039B14F80A00E55C86
:102220006840FFF716FF88EA0505039B6840E05405
:1022300014F80A5014F809006840FFF70AFF88EA0A
:102240000505684004F80A0014F809508BEA0500F7
:10225000FFF7FFFE009B88EA0508013380EA0800CB
:10226000042B04F80900009336D0009B9D00EDB2CA
:10227000002AB7D005F1020B14F805A014F80B00E2
:102280008AEA0000FFF7E5FEFFF7E3FE05F101092A
:1022900005F1030814F809E0039014F808008EEA29
:1022A0000000FFF7D6FEFFF7D4FE039B8AEA030A7D
:1022B00004F805A014F809E080EA0E0E04F809E01D
:1022C00014F80BE083EA0E0304F80B3014F808301E
:1022D000584004F8080085E7002A7FF428AF4B7BBC
:1022E000F05C0B785840184BFB5C43400B708B7BC9
:1022F000F05C4B7843404B70CB7BF05C8B78434079
:102300008B700B7BF05CCB7858400B4603F8030FC7
:1023100013F8015F13F8040C6840187002988342A8
:10232000F6D12CE75AB9631E01390F3413F8010FA7
:1023300011F8012F9C4282EA00021A70F6D105B012
:10234000BDE8F08F74E8000074E900007EE9000049
:10235000F0B58E46C16A102985B01DD100F1140573
:102360006E4600F12404EC4628686968374603C7C6
:102370000835A5423E46F7D111467046103251F855
:10238000044B40F8044B9142F9D170461A4661461D
:10239000FFF768FE012000E0002005B0F0BDFFFF60
:1023A0000022C26280F83420FF2280F83520024AE1
:1023B000026010220263704764E8000070B50446B2
:1023C0001546A2B183684068D618864208DD02F03F
:1023D00087F9084A0621012002F01AFA002070BD90
:1023E0002068184404F01EFFA3681D44A560012066
:1023F00070BD00BF7EEA0000704710B54FF4EC716D
:10240000044605F025F8204610BDFFFF2DE9F041F8
:1024100042680468DFF888E15F4E84EA121303F033
:102420000F3384EA030082EA03135C4A80EA8044A3
:102430002240504080EA9242584883EA8344204038
:10244000434083EA904382EA530000F0553082EA29
:10245000000583EA400080EA152202F0FF1280EABC
:10246000020485EA022282EA540000F0553042401C
:10247000130984EA400000F47F4403F070632343AF
:10248000040404F47F042343C0F30740034322F011
:102490007042083100275EF8270030B195069C068F
:1024A00045EA920544EA930405E0D506DC0645EAD0
:1024B000520544EA530425F07042D009C2F3811C4E
:1024C00000F03C004CEA00004FEA923CC2F3433873
:1024D0000CF0300C48EA0C0C40300CF1800C56F833
:1024E000208056F82C0005F03F0C48EA000056F812
:1024F0002C504FEA525C28430CF0060CC2F30055F6
:102500004FEA925845EA0C0C08F038084CEA080CDF
:102510000CF1C00C24F0704356F82C504FEA132CE9
:1025200005430CF03C0CC3F3C11040EA0C0C04F062
:102530003F04C3F3C53000F5C07004F580740CF59A
:10254000A07C56F8208056F8240056F82C4048EA23
:10255000000020439C0DC3F3435C04F030044CEABC
:10256000040404F5E074013756F824402043ACB26B
:1025700044EA0044000C000440EA15404FEAB474F9
:102580004FEAB060102F41F8084C41F8040C01F1FB
:10259000080180D1BDE8F08114F800000000CCCC27
:1025A000140001002DE9F0414368076887EA13151C
:1025B00005F00F356F4083EA051585EA17439BB296
:1025C00085EA030487EA034383EA940505F033357B
:1025D00083EA050684EA850585EA162303F0FF13DE
:1025E0005D4086EA032383EA550404F055346340D2
:1025F00085EA44054FEA73734FEA7575A14C002ACA
:1026000000F08A8001F180070E684A685E40C6F3D8
:10261000852CC6F3850E0CF1800C54F82E8054F8EE
:102620002CE04FEA966C0CF5C07CC6F3854606F5A7
:10263000807654F82CC054F826605A4088EA0E0E72
:102640004FEA32128EEA0C0E8EEA060E960E06F550
:10265000E076103154F826608EEA060EC2F3850645
:10266000403654F826608EEA060EC2F38526C03640
:10267000C2F3854202F5A07254F8266054F8222075
:102680008EEA0606724051F8086C55406E404FEADB
:10269000966CC6F3850E0CF5C07C54F82E8054F869
:1026A0002CE051F8042C88EA0E0E8EEA0303C6F3E0
:1026B000852E0EF1800EC6F3854606F5807654F819
:1026C0002EE054F826606A404FEA321283EA0E0385
:1026D0007340960E06F5E0768F4254F8266083EA42
:1026E0000603C2F3850606F1400654F8266083EA25
:1026F0000603C2F3852606F1C006C2F3854202F541
:10270000A07254F8266054F8222083EA060383EA74
:1027100002037FF479AF88E0A1F180078E6FCA6F62
:102720005E40C6F3852CC6F3850E0CF1800C54F880
:102730002E8054F82CE04FEA966C0CF5C07CC6F362
:10274000854606F5807654F82CC054F826605A4029
:1027500088EA0E0E4FEA32128EEA0C0E8EEA060E50
:10276000960E06F5E076103954F826608EEA060ECD
:10277000C2F38506403654F826608EEA060EC2F390
:102780008526C036C2F3854202F5A07254F8266051
:1027900054F822208EEA06067240D1F88060554037
:1027A0006E404FEA966CC6F3850E0CF5C07C54F86B
:1027B0002E8054F82CE0D1F8842088EA0E0E8EEAA0
:1027C0000303C6F3852E0EF1800EC6F3854606F58B
:1027D000807654F82EE054F826606A404FEA3212B0
:1027E00083EA0E037340960E06F5E076B94254F87C
:1027F000266083EA0603C2F3850606F1400654F814
:10280000266083EA0603C2F3852606F1C006C2F3FA
:10281000854202F5A07254F8266054F8222083EA1B
:10282000060383EA02037FF479AF4FEAF5014FEA2A
:10283000F30381EA530202F0553281EA020483EA8B
:10284000420383EA142101F0FF1183EA010284EAC2
:10285000012181EA920303F03333594082EA830372
:1028600083EA114292B2534081EA024282EA131192
:1028700001F00F314A4083EA011302604360BDE872
:10288000F08100BF14F0000013B50C461146026839
:1028900000924268019268461A46FFF783FE009B49
:1028A00023701A0A62701A0C1B0EE370019BA2704F
:1028B0001A0A237162711A0C1B0EA271E37102B025
:1028C00010BD2DE9F04104461E46E36A102B0D466B
:1028D00010460AD0182B26D0082B44D104F15802F8
:1028E0000EB9012313E0002311E004F15807D83496
:1028F00096B901233A46FFF7C7FF334622462946D9
:102900002846FFF7C1FF01233A4629462846FFF72C
:10291000BBFF0120BDE8F08100233A46FFF7B4FF7A
:102920000123224619E004F1580704F1D80804F500
:10293000AC7466B901233A46FFF7A6FF3346424618
:1029400029462846FFF7A0FF01232246DDE70023A2
:102950002246FFF799FF0123424629462846FFF702
:1029600093FF0023D0E70020BDE8F0810022C2627F
:1029700080F83420FF2280F83520024A02600822C5
:102980000263704704F00000F0B54D1E471E01F1D0
:10299000070E802615F8014F334224F0010418BFBA
:1029A00044F00104754507F8014F4FEA5606F1D18E
:1029B0000823934205DACC5C24F00104C4540133AB
:1029C000F7E7F0BDF8B500F11406044630461546A9
:1029D0001F46FFF7D9FF102A10D0182A1BD0082A4B
:1029E00037D104F1130304F11B0213F8011F19720C
:1029F0009342FAD104F15801304608E004F158013D
:102A00003046FFF703FD04F1D80104F11C00FFF785
:102A1000FDFC002311E004F158013046FFF7F6FCFD
:102A200004F1D80104F11C00FFF7F0FC04F5AC71CF
:102A300004F12400FFF7EAFC402384F83530226BD0
:102A40000021201D04F088FC84F83470E562012028
:102A5000F8BD0020F8BD10B504460846002184E802
:102A60000500A16004F078FC204610BD08B583681D
:102A700019444368994208DD01F032FE044A0621F8
:102A8000012001F0C5FE002008BD012008BD00BFE7
:102A90007EEA000038B50D4601210446FFF7E6FF47
:102AA00028B1A3682268D554A3680133A36038BD58
:102AB00013B5019104210446FFF7D8FF024630B157
:102AC000A36821680198C850A3680433A360104626
:102AD00002B010BD73B5019103210446FFF7C6FF94
:102AE00058B102ABA268216833F8046D8E528D187C
:102AF0009B78AB70A3680333A36002B070BDFFFF87
:102B00002DE9F04F87B0056BDDF844800191454514
:102B1000044692461E46109F07DC98FBF5F305FB22
:102B2000138515B900F1040920E001F0D9FD224A0E
:102B30000921012001F06CFE1EE0019AF2B94A461B
:102B4000394602A801F01AFB236802AAD3F80CB098
:102B5000314653462046D84770B1226B314648462D
:102B600004F060FB236B01351F441E44236B98FB6C
:102B7000F3F29542E1DB1AE0002019E023683A46BF
:102B8000D3F80CB002A953462046D8470028F3D00A
:102B900002A90846236B4A4601F0F0FA226B394637
:102BA000484604F03FFB226B02A93046D8E70120DB
:102BB00007B0BDE8F08F00BF7200010073B5054695
:102BC00088680C461646F8B12A6B90FBF2F302FBBC
:102BD0001303CBB90B68801A05F13601184401F0D4
:102BE000D8FAA26823680192002200931146284671
:102BF000FFF786FF044608B9002419E02A6B291D57
:102C0000304604F00FFB13E080212046FFF742FF1F
:102C10000028F1D0A0682A6B90FBF2F302FB1303AB
:102C20000BB10021F1E7801A236805F14601D5E7D1
:102C3000204602B070BDFFFF40280FD0802801D091
:102C400050B901E007487047082909D0064B0748EA
:102C5000102908BF18467047054870470548704757
:102C600005487047A300010095000100970001008E
:102C7000A70001009C0001009800010013B5C36A81
:102C8000102B0446B8BF102300F1140200929BB22F
:102C9000094A0921042001F0C7FEE16A94F83500D1
:102CA000FFF7CAFF054A03460921042002B0BDE828
:102CB000104001F025BE00BFAF000100B4000100CC
:102CC0000C2908B50B4600F08C80AF2900F08980F4
:102CD000002900F08680AE295ED024D87E294FD00E
:102CE00010D81C2944D005D80E2972D101F0F8FC67
:102CF0003D4A68E01E293FD040296AD101F0F0FC2E
:102D00003A4A60E09E293FD005D89D2961D101F063
:102D1000E7FC374A57E0A0293AD0A12959D101F060
:102D2000DFFC344A4FE0CE2942D010D8C12937D039
:102D300005D8BE294DD101F0D3FC2F4A43E0CA2962
:102D400032D0CD2945D101F0CBFC2C4A3BE0EE2915
:102D500032D005D8DE293CD101F0C2FC284A32E04D
:102D6000F0292DD0F12934D101F0BAFC254A2AE00E
:102D700001F0B6FC244A26E001F0B2FC234A22E02E
:102D800001F0AEFC224A1EE001F0AAFC214A1AE042
:102D900001F0A6FC204A16E001F0A2FC1F4A12E056
:102DA00001F09EFC1E4A0EE001F09AFC1D4A0AE06A
:102DB00001F096FC1C4A06E001F092FC1B4A02E07E
:102DC00001F08EFC1A4A0821012001F021FD0020AB
:102DD00008BD184A0821012001F050FD01F080FCD7
:102DE000F5E7012008BD00BFC1000100FD000100A2
:102DF000270101006601010099010100D0010100D5
:102E0000F40101002B020100DB000100EC000100D5
:102E1000110101003A0101004F010100830101008D
:102E2000A9010100BF010100DF0101000D02010045
:102E30001B020100410201002DE9F04F8DB0154643
:102E4000179A9DF86090984604460E46002302B1FA
:102E5000137005AF84F8A036012204A93846FFF7A5
:102E6000FAFD09F0040202F0FF030393002A0CBFED
:102E70000B231323002D08BF3D460293B3689A1C11
:102E8000AB681344502B04DC029B169A1344502B5E
:102E900007DD01F025FCB64A0821012001F0B8FC4D
:102EA000DFE019F00A0F07D094F86434FF2B03D148
:102EB00001F016FCAF4AEFE719F0020F5DD00421D4
:102EC000082001F003FC70B1AB4A0821042001F096
:102ED0009FFCD4F86C24138E043200920921A74A77
:102EE000042001F0A1FDB168AB682A68306801F0E8
:102EF000ADF9014608902846FFF7DAFD002800F0FA
:102F0000B080D4F86C34AF681B6B97FBF3FA03FB0B
:102F10001A7ABAF1000F01D00137F6E7C5F808A018
:102F200039462846FFF7A2FD002800F09A8008AB3A
:102F3000AF60009304231846914A082101F074FD04
:102F40001FFA87FB2B6800938E4A5B4608210420FA
:102F500001F06AFD2B68D4F86C048DE888005246B5
:102F60005146FFF7CDFD00287BD02B680093864AA1
:102F70005B460821042001F057FD316819F0010F6C
:102F800091F800A02CD0BAF1AF0F29D094F8643496
:102F9000FF2B25D00023C4F8243704F21C77B26835
:102FA0003846FFF70BFA00285BD0AA682968384634
:102FB000FFF704FA002854D00DF1200B5A46394689
:102FC000D4F86C04FFF7FAFD00284AD0D4F86C342A
:102FD0006E4A1B8ECDF800B00821042001F024FDBC
:102FE0004023237101236371B2683168A01D04F08E
:102FF00019F9B768AA6829680237261DF01904F084
:1030000011F9AA683A44D2B23146204600F0C4FE13
:1030100038B31699029B0B44DAB23146204600F0D1
:10302000C5FE0228834602D96379412B03D001F003
:1030300057FB574A30E7A17984F8A0162046E77974
:1030400000F006FC68B1BBF1030F0AD027B1AF2F27
:103050001CBFFF2384F8643439462046FFF730FE56
:1030600010B94FF0FF357EE0179B03B11F70039B33
:10307000ABF10405EDB27BB30FB1AF2F2CD194F8B7
:103080006434FF2B28D0BAF1AF0F1CBF0023C4F863
:103090002437AF2F08D12A4604F1080104F21C702E
:1030A000FFF78CF9C0B9DCE7072D15D9A7B9ABF14B
:1030B0000C05EDB204F21C7A2B1D2A4604F108011E
:1030C00050461E44FFF77AF90028CAD039465046C8
:1030D000FFF7E0FC50BBC4E7169BAB4203DA01F0FC
:1030E000FFFA2C4AD8E6B8F1000F3CD0002D3AD0B8
:1030F0002A4604F10801404604F094F819F0080F3C
:1031000031D001220195CDF8008043461146D4F814
:103110006C04FFF7F5FC0028A3D0CDF80080ABB21B
:103120001D4A0821042001F07FFC1CE008AF3A464C
:103130005146D4F86C04FFF741FD002891D0D4F833
:103140006C34164A1B8E00970821042001F06CFC99
:1031500008223946304606F0DBFD0028BCD001F0DD
:10316000BFFA0F4A98E628460DB0BDE8F08F00BFC1
:103170001103010051020100630201007A02010003
:10318000830201008702010095020100A7020100ED
:10319000B6020100E902010008030100CC020100AF
:1031A000DB020100F0B589B004460F46154604A9BC
:1031B000012205A81E46FFF74EFC394605A8FFF779
:1031C00069FC9DF8403002930F9B01930E9B009386
:1031D0002A46334605A92046FFF72EFE09B0F0BD6A
:1031E0002DE9F04FCBB0054604910820042190460C
:1031F00001F06CFA40B10420049B974A082101F0C9
:103200003DFB4046FFF73AFD98F83530402B02D0A1
:10321000802B06D00BB91A2404E001F061FA8F4A22
:10322000F1E0AA24012207A908A8FFF714FC0499D9
:1032300008A8FFF72FFC002302930DF11F061023AF
:1032400014AF009321463B46019608AA2846FFF793
:10325000A9FF3378AF2B044603D1082805D01028E6
:1032600003D001F03DFA7E4ACDE0D8F830200021AD
:1032700008F1040004F070F80DF1600A01220194D5
:103280000097534611464046FFF73AFC002800F0ED
:103290007C810DF1700B2246514658460DF1800994
:1032A00000F085FF2146484600F09EFF20223AA903
:1032B0000BA8FFF7D0FB224649460BA8FFF77EF884
:1032C000224659460BA8FFF779F8202242A90EA8FA
:1032D000FFF7C1FB6300002219460EA80593109268
:1032E000FFF7C4FB059B00B11093019300220B9BD9
:1032F000009311460E9B4046FFF702FC002800F0A9
:1033000044810421082001F0E1F988B3A3B20097B9
:10331000544A1F460821042001F086FB3B46524ACE
:10332000CDF800A00821042001F07EFB3B464F4A67
:10333000CDF800B00821042001F076FB3B464C4A52
:10334000CDF80090082104207F0001F06DFBBFB292
:103350000B9B0093474A3B460821042001F064FB85
:103360000E9B0093444A3B460821042001F05CFB7D
:10337000002324AF02938DE850003B460EAAAF21F4
:103380002846FFF70FFF33780BB9844203D001F0D2
:10339000A7F93A4A37E028AE012201940097334654
:1033A00011464046FFF7ACFB002800F0EE800DF11F
:1033B000B00B49465846224600F0F9FE0421082089
:1033C00001F084F9B0B1A3B200972D4A1F4608213D
:1033D000042001F029FB3B462A4A009608210420DC
:1033E00001F022FBCDF800B03B46274A082104201B
:1033F00001F01AFB22462CA9304606F089FC38B1B0
:1034000001F06EF9214A0821012001F001FABCE027
:10341000182234A911A8FFF71EFB0422494611A85F
:10342000FEF7CCFF0422514611A8FEF7C7FFD8F8DB
:103430002C30082B42DD98F83530402B28D0802BDB
:1034400032D0002B3AD1042221A911A8FEF7B6FFF1
:10345000042219A92FE000BF4C03010089000100DC
:10346000640301007E030100880301008E03010054
:10347000980301009E030100A5030100B0030100B1
:10348000CA030100D4030100DE030100E8030100C8
:1034900004220DF1860111A8FEF790FF04220DF120
:1034A000660111A8FEF78AFF042223A911A8FEF7DE
:1034B00085FF04221BA911A8FEF780FF98F835307C
:1034C000139A1199802B0CBF05F58E6305F599634E
:1034D000C5F86C34D5F86C0403689C680023A047D9
:1034E000002852D0D5F86C44266B0DF1C009082E87
:1034F0004FF010024FF0000148460CBF1B278727F2
:1035000003F02AFF32460021201D03F025FF236B24
:103510000193CDF800904B46002201212046FFF791
:10352000EFFA064688B3D4F830A004F136085246C4
:103530004946404603F076FE5146404600F041FEC3
:103540009DF9C030002B07DA236B013B234493F82D
:1035500036207A4083F83620D4F8309004F14603C0
:1035600018464A46414603F05DFE494600F029FEF2
:1035700094F93630002B07DA236B013B1C4494F896
:1035800046305F4084F846700EB9002611E00421F1
:10359000082001F09BF840B10420084A082101F0FE
:1035A00037F9D5F86C04FFF769FB9DF8103085F802
:1035B000643430464BB0BDE8F08F00BF0204010018
:1035C00070B50B4688B005460C4616460821144ACD
:1035D000042001F053F9012204A905A8FFF73BFAE2
:1035E000214605A8FFF756FA05230293002401237C
:1035F0008DE818002846334605AA6421FFF7D2FD5E
:103600000128054608D1034600960420054A0821F2
:1036100001F00AFA284600E0204608B070BD00BF5D
:10362000A4040100BD04010070B505469AB00E4621
:103630000820042101F04AF848B13246134906A88F
:1036400006F050FE06AA0821042001F0E1F803224A
:1036500005A906A8FFF7FFF90024314606A8FFF7E1
:1036600039FA029401940094234606AA5A21284666
:10367000FFF798FD30B9FF2385F86434C5F8686416
:10368000012000E020461AB070BD00BFFB0601001B
:103690002DE9F0439DB081460F46082004211546D0
:1036A0001C46249E01F012F858B13A461F49009476
:1036B0002B4608A806F016FE08AA0821042001F0EF
:1036C000A7F8002C2EDD302C4FF0070206A908A821
:1036D000A046A8BF4FF03008FFF7BDF9394608A84B
:1036E000FFF7D8F9294608A8FFF7F4F9414608A8DA
:1036F000FFF7F0F9052302930DF117030193CDF8BD
:103700000080334608AABD214846FFF74BFD9DF8CF
:1037100017300BB9002801DC002004E0241A05440E
:103720000644CEE701201DB0BDE8F0835808010033
:103730002DE9F043044687B0264600F05FF8234B9E
:1037400046F85C3B04F50D783046FFF70FF904F2BC
:103750000C474046FFF70AF93846FEF721FE04F50C
:103760008E60FEF71DFE04F59960FFF7FFF804F286
:10377000A161782204F21C70FFF76DF90025FF2388
:103780004FF0180984F864344A462946C4F86C544A
:1037900084F8A056C4F86854684603F0DDFD2B4653
:1037A000694608223046FFF70DF92B464A4669461E
:1037B0004046FFF707F92B46102269463846FEF7C8
:1037C00029FC204607B0BDE8F08300BF5C00010083
:1037D000FF2280F864240022C0F8682400F0FABBBD
:1037E000054B1B684FF00042DA625863DA6A002A20
:1037F000FCDA986BC0B270473807FF1F064A0260B8
:10380000002280F8542080F8552080F8562080F857
:10381000572080F858207047FC0F010038B5044647
:103820009DF810509DF8140084F8541084F8580046
:1038300084F8552084F8563084F85750012103F05D
:1038400067FE94F857000121BDE8384003F060BEE0
:1038500010B55B4A0C46A0B00A21042000F0D8FF46
:1038600014F03F0400F0A980224656496846013C06
:1038700006F038FD2D2C00F29380DFE804F0171BD2
:103880001F23272B2F9133373B913F439147914B78
:103890004F53919191919191919191919191919198
:1038A00057915B5F6391676B6F797D8700F018FFBD
:1038B00045496EE000F014FF44496AE000F010FF53
:1038C000434966E000F00CFF424962E000F008FF67
:1038D00041495EE000F004FF40495AE000F000FF7B
:1038E0003F4956E000F0FCFE3E4952E000F0F8FE91
:1038F0003D494EE000F0F4FE3C494AE000F0F0FEA5
:103900003B493CE000F0ECFE3A4942E000F0E8FEC2
:1039100039493EE000F0E4FE38493AE000F0E0FECC
:10392000374936E000F0DCFE364932E000F0D8FEE0
:1039300035492EE000F0D4FE34492AE000F0D0FEF4
:10394000334926E000F0CCFE324922E000F0C8FE08
:10395000314906E000F0C4FE304902E000F0C0FE4C
:103960002F49684606F0E4FC0A210246032020E0C5
:1039700000F0B6FE2B490CE000F0B2FE2A49684682
:1039800006F0D6FC0A210246022012E000F0A8FE52
:103990002649684606F0CCFC0A210246012008E0D0
:1039A00000F09EFE2249684606F0C2FC0A2102464B
:1039B000002000F02DFF002000E0012020B010BD0D
:1039C000420A0100530A0100680A0100700A01005E
:1039D0007A0A0100870A0100AD0A0100BB0A010052
:1039E000D20A0100F40A0100070B0100290B0100B3
:1039F0003B0B0100470B0100600B0100720B010043
:103A0000880B01009A0B0100AF0B0100C40B0100F1
:103A1000D90B0100EF0B0100060C01001F0C010087
:103A2000370C01004C0C01006D0C01007A0C0100F8
:103A3000860C01001FB50446002190F8570003F0E2
:103A400039FD022003F0B4FD124A0A21042000F0DF
:103A5000DFFE0220FFF7C4FE0020FFF7C1FE04AB2B
:103A60000D4A03F8010D0A2100930420012300F000
:103A7000DBFF012194F8570003F01CFD4FF4FA63BB
:103A8000013BFDD19DF80F00431E5842584104B040
:103A900010BD00BF990C0100B50C010070B50646C1
:103AA00065243046FFF7C6FF054670B9013CA4B255
:103AB0003CB900F015FE064A0A21012000F0A8FEDC
:103AC00003E00A2003F074FDEBE7284670BD00BF59
:103AD000C50C0100F8B50F460646002190F85700C6
:103AE000144603F0E7FC022003F062FD0D4A0A21B0
:103AF000042000F08DFE0120FFF772FE013C7D1EC8
:103B00003C44A54204D015F8010FFFF769FEF8E721
:103B1000012196F8570003F0CDFC4FF4FA63013B06
:103B2000FDD1F8BDDC0C0100F0B5054689B03A4A7C
:103B30003A4C0A21042000F06BFE012195F8580050
:103B400003F0B8FC0A2003F033FD002195F858007B
:103B500003F0B0FC4FF4C87003F02AFD012195F882
:103B6000580003F0A7FC0A2003F022FD95F85570D9
:103B700095F8566095F85410204601F05FF93946E3
:103B8000204601F011F93146204601F0BFF82046E9
:103B900001F080F8E37AF3B172B6E37AD90705D57C
:103BA0001F4AE36811680B40A3611360E37A1B4965
:103BB0009A0705D51B4A0B6910680340CB61136057
:103BC000E37A16495B0705D5174A4B69106803402D
:103BD0000B62136062B62368144AD968914207D019
:103BE00013491960DA6002F180421A61114A1A60C1
:103BF00003AC14225521204603F0AEFB2146284693
:103C00001422FFF767FF009414230B4A0A210420B3
:103C100000F00AFF09B0F0BDFC0C01003807FF1FDF
:103C200080E100E084E100E088E100E00540003947
:103C300001403F0000003F80020D010030B59BB005
:103C4000FF248DF80E40541C8DF80F40D443002300
:103C50008DF81040D4248DF80C308DF80D308DF88F
:103C60001140DCB2A24205D903AC1C44CD5CA57165
:103C70000133F6E70025911D2B46ECB28C4205F18D
:103C8000010507DA0DF1680E744414F85C4C234406
:103C9000DBB2F2E71AAC2144DB4301F85C3C1AAB1F
:103CA00002F108041A4403AD002302F8553C2946EA
:103CB000E2B2FFF70FFF0095A3B2034A0A210420E6
:103CC00000F0B2FE1BB030BD160D01002DE9F04131
:103CD000074688461446FFF7E1FE064638B3002142
:103CE00097F8570003F0E6FB022003F061FC114A4D
:103CF0000A21042000F08CFD0320FFF771FD013C38
:103D000008F1FF354444A54208D0012003F050FCDF
:103D10000020FFF765FD05F8010FF4E7012197F892
:103D2000570003F0C7FB4FF4FA63013BFDD1304667
:103D3000BDE8F0811F0D010030B5144B87B004467B
:103D400004AD186802909B88ADF80C30204606221E
:103D50002946FFF7BBFF0446A0B10D4A00950A2192
:103D60000420062300F060FE062202A9284605F082
:103D7000CFFF38B100F0B4FC064A0A21012000F060
:103D800047FD0024204607B030BD00BF3C0A0100BB
:103D90003C0D0100450D010010B50446FFF74EFF34
:103DA0002046BDE81040FFF7C7BFFFFFF0B5531F27
:103DB0004B2B97B00D46174603D900F091FC314AC2
:103DC0002BE002AE3146FFF781FF002857D0324684
:103DD0000021381F884207DD12F8013B13B914781F
:103DE000FF2C22D00131F5E70024274D0AE016AB65
:103DF0001A4412F8503C254ADB43DBB29D4214BF03
:103E00001546002500963B46214A0A21042000F071
:103E10000BFE45B100F064FC2A4601200A2100F0A7
:103E2000F7FC00202BE0E0B229E016AA0A4412F8C1
:103E30004E4C12F84D2C2244B2F5807F1DD14A1D04
:103E40002244974215DB0A1D9C4205DD5818304478
:103E50000079E8540133F7E7224464B12B78D52B7D
:103E600009D100259142C2DA735C1D44EDB20131E3
:103E7000F8E7084DC6E7084DC4E7084DC2E717B09C
:103E8000F0BD00BF270E01005B0D0100060E010012
:103E9000420E0100A10D0100D80D0100790D0100B5
:103EA0002DE9F843044625460420894690460A2118
:103EB000174A1F4600F0ACFC022305F8043F01221C
:103EC00029462046FFF768FF0646E8B10D2229463D
:103ED0002046FFF76BFF062802D16379032B08D039
:103EE00000F0FEFB0B4A0A21012000F091FC0026A5
:103EF0000AE0A37989F80030E37988F80030237A62
:103F00003B70089B627A1A703046BDE8F88300BFA8
:103F10004C0E01005F0E010070B5144A04460A21E0
:103F2000042000F075FC261D142201232271A271C9
:103F30006371E371042231462046FFF72DFF0546E9
:103F400088B1092231462046FFF730FF022802D10E
:103F50006379152B07D000F0C3FB054A0A21012025
:103F600000F056FC0025284670BD00BF790E010008
:103F7000830E010070B5154A04460A21042000F0A2
:103F800047FC32232371FF23A37101230522E37130
:103F9000261D03236271237231462046FFF7FCFE83
:103FA000054688B1092231462046FFF7FFFE022868
:103FB00002D16379332B07D000F092FB044A0A2127
:103FC000012000F025FC0025284670BD940E01005C
:103FD000B00E010070B5144A04460A21042000F016
:103FE00017FC3223237101236371261D0023A37163
:103FF000032231462046FFF7CFFE054688B109224D
:1040000031462046FFF7D2FE022802D16379332BD6
:1040100007D000F065FB054A0A21012000F0F8FBFB
:104020000025284670BD00BFD30E0100E40E01003C
:104030002DE9F04704460E46994696B017460A21E8
:10404000474A042000F0E4FB00234A223B70251D70
:1040500089F8003033607360227101226271A371AC
:10406000032229462046FFF797FE8046002872D09B
:104070001C2229462046FFF799FE022802D96379BF
:104080004B2B09D000F02CFB364A0A21012000F00E
:10409000BFFB4FF000085EE0A579334A2B460A21AA
:1040A000042000F0EBFB012D55D1E57A042D08D05A
:1040B000072D06D02B462C4A0A21022000F0DEFBF9
:1040C00049E004F10C012A46304603F0ABF83D709C
:1040D000277A637AA47A072D43EA072709D1337830
:1040E000802B13D0B7F5517F10D1202C0ED1012396
:1040F0000AE0042D0AD13378802B07D1B7F5417F30
:1041000004D1202C02D1032389F8003004210A2095
:1041100000F0DCFA8246F0B12B46144A00960A21E0
:10412000042000F081FC23463A46114902A806F01B
:10413000D9F899F80030012B01D10E4902E0032B88
:1041400003D10D4902A806F0F3F802AA0A210420BF
:1041500000F05EFBD046404616B0BDE8F08700BFD9
:1041600023110100170F0100320F01003F0F010062
:10417000490F0100700F0100830F010070B500248A
:104180009C4205DA0E5D155D754005550134F7E773
:1041900070BD30B501380C46631A9A4206DD14F83A
:1041A000015B10F8013F6B400370F5E730BD38B597
:1041B000541E0D462246013103F034F82A78025588
:1041C00038BD10B5034601391A1A914208DD1A7834
:1041D00013F8014F520042EAD41203F8012CF3E71E
:1041E000435C5B00435410BD37B5094B094C1B6859
:1041F0000193019B0246151AA94206DD02F8013B14
:10420000634303F583432733F5E703B030BD00BFB5
:10421000147AFF1F1DF3010030B503461C1AA1429A
:1042200012DD13F8014B6240082402F00105520828
:104230003DB182F06D4282F4380282F4034282F092
:104240002002013CF1D1E9E7104630BD38B51446F3
:104250004FF0FF321D46FFF7DFFF2946024620469A
:10426000BDE83840FFF7D8BF30B52F4A2F4C99B082
:104270000B21032000F0CCFA00232D482370FFF718
:1042800053FC0DF10F0300930DF10D020DF10E0320
:1042900003A92748FFF704FE002835D09DF80E102B
:1042A0009DF80D309DF80C20009104A8214906F0DE
:1042B00019F804AA0B21042000F0AAFA9DF80F5067
:1042C0001D491E4815F0010F14BF0A46024615F09D
:1042D000020F14BF0B46034615F0040F08BF01463A
:1042E000009104A8164905F0FDFF042004AA0B2143
:1042F00000F08EFA0E48FFF73DFE28B10C48FFF79C
:104300000BFE08B10123237023782BB900F0E8F9E4
:104310000C4A0B21012002E00B4A0B21032000F084
:1043200077FA19B030BD00BF1F100100C875FF1F1C
:10433000C86CFF1F3B100100181001001C10010089
:104340006210010096100100AA10010030B5224A47
:1043500085B00B21042000F05BFA204B1C784CB98F
:1043600000F0BEF91E4A0B21022000F051FAFFF7BF
:104370007BFF2DE000250DF1070301AA02A91948D2
:104380000195FFF755FE044628B900F0A9F9164A31
:104390000B21012009E09DF80730012B9DF8043026
:1043A00006D133B1114A0B21042000F031FA0FE09D
:1043B00033B90F4A0B21042000F02AFA002407E049
:1043C00000F08EF90B4A0B21022000F021FA2C4656
:1043D000204605B030BD00BFC9100100C875FF1FE1
:1043E000DB100100C86CFF1F101101003711010024
:1043F0004F1101006611010008B50748FFF7E8F901
:1044000040B900F06DF9054A0B210220BDE80840D3
:1044100000F0FEB908BD00BFC86CFF1F7D11010090
:104420002DE9F041324A88B007460E4604200B21A0
:1044300000F0EEF900212F48FFF7F6F8044618B90E
:1044400000F04EF92C4A0AE00DF10F020021294834
:10445000FFF7B6F8044638B900F042F9274A0B21B5
:10446000012000F0D5F93FE09DF80F30244A0B21E0
:10447000042000F003FA9DF80F80B8F1100F08D067
:1044800000F02EF91F4A0B21012000F0C1F9002491
:104490002AE01D491748FFF7C7F8044618B900F08D
:1044A0001FF91A4ADBE71A4A12480021FEF798FE64
:1044B000044618B900F014F9164AD0E7002204ADFA
:1044C0000095434611460B48FFF7E2F8044618B939
:1044D00000F006F9104AC2E72B4603CB06AB386062
:1044E000796003CB30607160204608B0BDE8F08190
:1044F00095110100C86CFF1FAA110100C311010032
:10450000DE110100F81101001F40AA00161201007F
:10451000CC75FF1F271201003E12010070B50F4D30
:104520000F4C104E2846FFF703F928460E4D0F4951
:10453000224604F06DFC2846FEF718FA28460C4D7A
:104540002246314604F064FC2846FEF70FFA224664
:1045500031462846BDE8704004F05ABCC86CFF1FC5
:10456000F806FF1FF9230000F073FF1FD14500007C
:10457000CC75FF1F07B5104A0B21042000F048F945
:10458000162206238DE80C001421152305220B4862
:10459000FFF744F9FFF768FE10231822084909487D
:1045A000FEF710FA084909481023182203B05DF8F5
:1045B00004EBFEF707BA00BF10140100C86CFF1F20
:1045C0001A140100F073FF1F00100100CC75FF1FCB
:1045D0000C4B10B50446036000F59960FDF70CFF25
:1045E00004F58E60FDF70EFD04F20C40FDF70AFDA8
:1045F00004F50D70FDF700FF04F15C00FDF7FCFE13
:10460000204610BD5C000100F8B521F00101002535
:10461000064647182C46BE421FD036F8023B4FF6DE
:10462000F1721C44B4FBF2F102FB11442544042056
:10463000B5FBF2F102FB1155094A0E2100F01EF9FB
:104640002346084A0E21042000F018F92B46064A9A
:104650000E21042000F012F9DDE744EA0540F8BD20
:1046600032140100391401004014010070B50446F1
:1046700008460D4605F0E4FE23680246294620461A
:104680005B68BDE87040184703681B68184708B5A9
:10469000FFF7ECFF08BD0368C9B21B681847FFFFAE
:1046A00010B5054B054A19780023DCB2A14202D9A6
:1046B00098540133F9E710BDFC06FF1FA477FF1FD4
:1046C000014B1954704700BFA477FF1F034B185CC0
:1046D000884234BF00200120704700BFA477FF1F2D
:1046E000024A136801331360704700BFC477FF1F8D
:1046F00008B50420FFF7D4FF014B00221A6008BD63
:10470000C477FF1F30B58FB004460D46FCF71CFB85
:10471000A0B103A8FCF71EFB4FF47A700599B1FB1A
:10472000F0F101919DF8111000919DF810309DF865
:104730000F201A4906A805F0D5FD07E0184B1949C6
:104740001B680393039A06A805F0CCFD06A916483A
:10475000FFF78CFF052C10D8DFE804F003050709EC
:104760000B0D12490AE0124908E0124906E012490D
:1047700004E0124902E0124900E012490A48FFF73A
:1047800075FF2B46104A0B2106A805F05DFD06A912
:104790000548FFF76BFF0FB030BD00BF8C14010060
:1047A000147AFF1FA8140100C408FF1FAE140100F3
:1047B000B9140100C4140100CF140100DA1401007F
:1047C000E5140100F0140100FB140100052810B5E8
:1047D000144604D9FFF784FF0C460A4902200A4B0D
:1047E0001B7883420DD3FFF78DFF21460748FFF763
:1047F0003DFF0A210548FFF74EFFBDE8104003F0DA
:10480000C7BE10BD02150100A477FF1FC408FF1F1B
:10481000052810B514460DD9FFF762FF0E2996BF83
:10482000114B124A53F8212011490220BDE81040D3
:10483000FFF7CCBF0F4B5B5C834213D30E2996BFAF
:10484000094B0A4953F82110FFF75CFF21460A483B
:10485000FFF70CFF0A210848FFF71DFFBDE81040D5
:1048600003F096BE10BD00BF48140100841401007F
:1048700002150100A477FF1FC408FF1F052838B5E3
:1048800015461C460DD9FFF72BFF0E2996BF164B78
:10489000164A53F8212016490220BDE83840FFF798
:1048A00095BF144B5B5C83421DD30E2996BF0E4B04
:1048B0000E4953F82110FFF725FF29460E48FFF750
:1048C000D5FE0E490C48FFF7E2FE002321460A22DE
:1048D000094802F05BFC0A210748FFF7DCFEBDE84F
:1048E000384003F055BE38BD48140100841401005F
:1048F00002150100A477FF1FC408FF1F7B050100FC
:10490000052838B515461C460DD9FFF7E9FE0E29D6
:1049100096BF154B154A53F8212015490220BDE8D2
:104920003840FFF753BF134B5B5C83421BD30E2908
:1049300096BF0D4B0D4953F82110FFF7E3FE2946B2
:104940000D48FFF793FE0D490B48FFF7A0FE2146E7
:104950000948FFF78BFE0A210748FFF79CFEBDE8D8
:10496000384003F015BE38BD48140100841401001E
:1049700002150100A477FF1FC408FF1F7B0501007B
:1049800030B505288BB015461C460CD9FFF7A8FE9C
:104990000E2996BF1C4B1D4A53F821201C490220AA
:1049A000FFF714FF2DE01B4B5B5C834229D30E29DC
:1049B00096BF154B154953F82110FFF7A3FE294662
:1049C0001548FFF753FE15491348FFF760FE61795C
:1049D000039121790291E178019121786378A2789D
:1049E00001F5FA61009105A80D4905F07BFC05A9C8
:1049F0000948FFF73BFE0B490748FFF737FE03F076
:104A0000C7FD0BB030BD00BF481401008414010085
:104A100002150100A477FF1FC408FF1F7B050100DA
:104A200014150100040E010070B5052816461D4638
:104A3000049C0DD9FFF754FE0E2996BF1B4B1C4A50
:104A400053F821201B490220BDE87040FFF7BEBE8D
:104A5000194B5B5C834228D30E2996BF134B144934
:104A600053F82110FFF74EFE31461448FFF7FEFDC4
:104A700020211248FFF708FE013D661E2C44A64285
:104A80000BD016F8011F0D480023102202F07EFB08
:104A900020210A48FFF7F8FDF1E70A210748FFF750
:104AA000FAFDBDE8704003F073BD70BD481401000D
:104AB0008414010002150100A477FF1FC408FF1F22
:104AC000064A02600022426010B5012202720C7890
:104AD0004A7802EB0422426010BD00BF94DA000065
:104AE00043684B7000220A70704701207047022013
:104AF0007047FFFFB0F5FA6F30B528BFA0F5FA6038
:104B0000104D28BF80B292B200230133DCB2A14223
:104B100005D9EC1814F8014C224492B2F5E70229A9
:104B200003D9830704BF013292B200EBC003C11C5A
:104B300000EBC30000EB8000431E03EBA100104418
:104B400080B230BDA915010083709DF80030C3709C
:104B5000B1F5FA6F9DF80430037128BFA1F5FA6131
:104B60009DF80830437128BF89B2039B01704270E1
:104B7000836070470A7802704A7842708A7882703F
:104B8000CA78C2700A7902714A7942718A68826071
:104B90007047FFFF10B50446827841780078FFF730
:104BA000A9FFE278182303FB002023793C2202FBB3
:104BB0000030637902FB00330148184410BD00BF88
:104BC00080436D38244B3C220B4430B5B3FBF2F4E8
:104BD00002FB14314171B4FBF2F102FB11421824C3
:104BE00002714FF46162B3FBF2F2B2FBF4F104FB29
:104BF0001122C270194AB3FBF2F300229BB2027079
:104C0000017811F003040CBF0122002202F5B675F1
:104C10009D4207DAC2F57E429332134401319BB2C2
:104C20000170EDE701220E4D427041786A1812F8CA
:104C3000012C1CB9022904BF0132D2B292B29342B4
:104C400004D39B1A01319BB24170EEE701338370AC
:104C50000023836030BD00BF80BC92C7805101003B
:104C6000A915010010B5FFF7ADFF10BD81607047B9
:104C7000C38B1B0441BFC38BC1F3080103F47E4304
:104C8000194358BFC1F30E01C183C38B9BB2C382CA
:104C90007047FFFF436819685A6810B50C682243D3
:104CA0000A600268154911601549D16001F180411F
:104CB000116114491160417A134A5C180C3194F85F
:104CC0002C4053F8211002EBC40464682160017A7F
:104CD0005C1803EB8101247EC96902EBC40464689B
:104CE0002160817A581803EB810390F840005B6CD7
:104CF00002EBC0025268136010BD00BF01401F00EC
:104D00000110003800001F801C1801004368234A6E
:104D10009A4270B518D10B2904D1214C227822F087
:104D2000030210E0072906D11D4C227822F003026D
:104D300042F0010207E01C2906D1194C227822F02A
:104D4000030242F002022270427A1A4492F82C4086
:104D5000A14221D003F12B05002215F8016F8E42EC
:104D600017D119680D6859680D4210D00D4901EB33
:104D7000C4040025646825609C1894F82C4001EB5D
:104D8000C40102F10C04496853F824300B604272EC
:104D900070BD0132042AE0D170BD00BF7C16010055
:104DA000107AFF1F1C1801004368214A9A4270B50F
:104DB00018D10C2904D11F4C227822F00C0210E0EB
:104DC000082906D11B4C227822F00C0242F0040282
:104DD00007E0272906D1174C227822F00C0242F076
:104DE00008022270027A1A44147EA1421FD003F1F5
:104DF0001705002215F8016F8E4215D119680D684C
:104E000059680D420ED00C4901EBC40400256468BA
:104E100025609C1803EB8203247EDB6901EBC4014F
:104E200049680B60027270BD0132042AE2D170BD84
:104E30007C160100107AFF1F1C1801004368254AE8
:104E40009A4230B518D10D2904D1234C227822F092
:104E5000300210E00E2906D11F4C227822F03002D9
:104E600042F0100207E01B2906D11B4C227822F0E9
:104E7000300242F020022270827A1A4492F84040B6
:104E8000A14226D093F840208A4209D093F84120CD
:104E90008A4207D093F842208A421AD1022202E0C5
:104EA000002200E0012219680D6859680D420FD0F8
:104EB0000A4901EBC4040025646825609C1803EBD3
:104EC000820394F840405B6C01EBC40149680B60BD
:104ED000827230BD7C160100107AFF1F1C18010081
:104EE00070B5036B1A79304B1A70C36A1A792F4B5D
:104EF0001A70026B12791A70826A0446002A3FD037
:104F00004368D9688A4203D9521A8262012110E0AB
:104F1000C36A511E1868FFF7ABFE236BA16A1868BD
:104F2000FFF7A6FEA16A002311F1FF3118BF01218E
:104F3000A362E36A1B68186804F1240290422268A5
:104F400005D1D36894F8243043F000430EE0D068D4
:104F500010F0804F186815BF1D681D680088007824
:104F600014BF023501351D6040F000435363236BCD
:104F70001A790F4B1A70A9B1E26A12791A7070BDD2
:104F800003680C491A63D962D96821F08041D9605D
:104F9000032380F82530406B036811461B68BDE889
:104FA0007040184770BD00BF1F8000401C8000404B
:104FB0001B80004000000FFF08B50248FFF790FF7C
:104FC00008BD00BF0007FF1F08B50248FFF788FFB4
:104FD00008BD00BF3807FF1F0020704790F8392038
:104FE00090F83800101A704790F8383090F839204F
:104FF0009A4286BF1B18187E4FF0FF3070477047EB
:10500000B0F85E302BB190F85D30202B03D901232E
:105010000371002070475A1C034480F85D2083F818
:105020003B100120704738B50446B0F85E001546C5
:10503000A0B194F85D30C3F12102954282BF0120F6
:105040001546207104F13B0018442A4602F0EAF8A4
:1050500094F85D302B4484F85D30284638BDFFFF5E
:1050600043691A685B6812681A420ED0074B99426E
:10507000036901D82C2204E0054A914294BF1C2206
:1050800012225A70036904229A7170477F1A06002F
:105090003F420F0070B50023456980F8383080F832
:1050A000393080F85C3080F85D3080F85E3080F810
:1050B0005F3029686A680E684366324383660A6017
:1050C00002699370466990F86110124A31440D7A72
:1050D0004B7B02EBC5051B026D6803F4E06343F0F4
:1050E00064032B6090F862303344997CDB7D02EBE3
:1050F000C1021B025268084903F4E06343F06403F1
:105100001360FFF7ADFF036920225A710369802203
:105110009A7070BD1C180100A086010038B50269A4
:10512000D578EDB215F0100F044605F0400303D119
:1051300003F0FF012BB92AE01021D170002BF7D129
:1051400038BD05F0040505F0FF02374BCDB1002254
:105150001A70636E84F85D2003B1984794F85D304F
:1051600023B9012284F85D2084F83B302369D022E2
:105170009A70236994F83B201A71012384F85C30FB
:105180004DE00121197084F8392023692DE022694E
:105190009379DBB203F06000602809D103F0DF03EC
:1051A0009371A36E23B184F8381094F839009847AE
:1051B00023699A7802F0100202F0FF01D2B115F0D3
:1051C000010512D194F85C2094F85D10914281BFE2
:1051D000511C121984F85C1092F83B208CBF1A7194
:1051E0001D712369D0229A7019E0C0229A70236938
:1051F0001B7914E084F860109A7942F020029A71C9
:1052000023691A7994F839301F2BD2B207D806498E
:10521000097821B1591C234484F839101A7623697E
:105220000222DA7038BD00BFC877FF1F2DE9F347AF
:10523000344D354F2B680093DDF800800446002183
:10524000C8262269D3789B0658D52B680193019B09
:10525000C8EB03030F2BF4D9002947D1626994F8F6
:10526000613013440521187A02F052F9626994F80A
:1052700061301344012193F812A0504602F048F91E
:105280004FF009090021504602F014F93346013B62
:10529000FDD10121504602F00DF93346013BFDD10D
:1052A000B9F10109EED1606994F861200244117AE4
:1052B000537B07EBC1011B02496803F4E06343F031
:1052C00064030B6094F8623003449A7CDB7D07EB47
:1052D000C2021B02526803F4E06343F064031360EC
:1052E0004FF4C873013BFDD10121AAE7102BA8D0D0
:1052F00000209070236980229A7000E0012002B0A3
:10530000BDE8F087147AFF1F1C1801002DE9FF414A
:1053100003691222DA700269937803F020030446CD
:105320000D4603F0FF0613B1B423937008E0FFF7B6
:105330007DFF002860D0236984F85F60B0229A70F6
:105340002F4B21691A680092009ECA7802F0200251
:1053500002F0FF00002A45D00020022794F85D20CB
:10536000C1B28A4235D96618226996F83B60167137
:105370001A680392DDF80C802669F278D2B202F046
:10538000020E0EF0FF0CBEF1000F0BD1920609D5F4
:105390001A680292029AC8EB0202052AEDD986F831
:1053A00002C026E0F7702669F278D2B212F0100F30
:1053B00002D112F0200F03D18023B370042009E042
:1053C000D20700F10100C9D500290CBF022003203B
:1053D00001E0002015B1236980229A70002384F82F
:1053E0005E300AE01A680192019A921B042AACD935
:1053F0008870236980229A70042004B0BDE8F0818F
:10540000147AFF1F2DE9F0439946002380F83830C5
:1054100080F83930036917461222DA7002699378EE
:1054200003F0200389B00546884603F0FF0413B15A
:10543000B423937009E0FFF7F9FE002800F0B9806B
:105440002B6985F85F40B0229A705C4E2A693368F8
:1054500000930099D37803F0200303F0FF0433B9DD
:1054600033680193019B5B1A042BF3D917E04FEAD1
:10547000480848F001085FFA88F882F80480336829
:10548000029302992A69D37803F0020303F0FF0420
:105490004BB933680393039B5B1A052BF3D99470C4
:1054A0002B69802210E00223D3702B69D87810F08A
:1054B000110403D080229A7000247AE037B9B9F140
:1054C000000F14BF8022A0229A7072E0012F0CBF3F
:1054D000A822A0229A702B691B7900200221A824FF
:1054E000012F2A6933682BD00493DDF810C0D378DC
:1054F00003F0020303F0FF0E4BB933680593059BDD
:10550000CCEB0303052BF2D982F802E04BE0D1701B
:105510002A69D378DBB213F0100F49D19B0647D527
:10552000013FFFB2012F08BF94702B691F289FBF56
:10553000421C40191B7903768CBF1B79D0B2CFE790
:105540000693069CD37803F0020303F0FF013BB9F6
:1055500033680793079B1B1B052BF3D9917022E03F
:105560000223D3702A69D378DBB2D9060AD5102377
:10557000D370C823013BFDD12A69937803F0F70368
:10558000937015E09B0613D5B02393701F282B69E9
:105590009FBF421C40191B7903768CBF1B79D0B288
:1055A000B9F1000F02D02B6980229A7085F839007A
:1055B0000446204609B0BDE8F08300BF147AFF1FFF
:1055C0000148FFF7ABBD00BFDC07FF1F0148FFF735
:1055D000A5BD00BF4808FF1F0148FFF79FBD00BFE2
:1055E0007007FF1F054A40F243434FF48861136080
:1055F00053609160D36013615361704700D00440E1
:10560000054A40F203130021136053609160D36098
:1056100013615361704700BF00D004400E4A116807
:1056200021F0080310B513600C4B0B40184340F4F5
:1056300060200B4910604FF480130C68240701D4DC
:10564000013BFAD140F008001060064A136843F4A9
:105650008013136010BD00BF2C100B400700F0FF3B
:1056600024100B4030100B401E4A136843F0800397
:1056700010B513601C4B1C461968C907FCD421687F
:105680008907F9D4194B18604FF0807014681849D5
:10569000144B2140013811B90028F7D102E008B1BC
:1056A000012907D0136843F4702343F0010313600A
:1056B000012010BD1A68120605D51A6842F00112C1
:1056C0001A60032010BD18681A6810F4803017BFE4
:1056D00042F0011242F0010205201A6008BF1A6070
:1056E00010BD00BF30100B4024100B400C100B40BD
:1056F00001000E00F8B50A4D0A4F642400262E6002
:105700000948FFF7B1FF013C05D03B685B0705D5B1
:105710000028F4D0F8BD002808BF0520F8BD00BF60
:1057200008100B4024100B400000DB0C70B5084D36
:10573000002306462B600748FFF796FF38B9064C52
:10574000064823682E60FFF78FFF00B9236870BDFD
:1057500008100B4000001A3710100B4000000229FF
:10576000074B1A783AB99A783AB15B78002B0CBF9C
:10577000022003207047002070470120704700BFBF
:10578000CC77FF1F9B4A136843F400332DE9F047A1
:1057900013609368984C43F400539360D36843F0CC
:1057A0000203D360136943F002031361934A136841
:1057B00023F001031360FFF723FF914B236023685D
:1057C00013F08073FBD18F4A8F4E13608F4B4FF4D1
:1057D00081321A60282333608D4B4FF010121A600B
:1057E00041F29000FFF71AFF8A4A13689D07FCD127
:1057F000FFF7F8FE884A89494FF6FF731360884B1C
:1058000019604FF4FA73216841F00061216021684A
:105810000901FCD4013BF6D11168824C41F08001B2
:1058200011607C4A1268636012F4803F14BF00204C
:10583000022020706370A370A360002840F0D8801D
:10584000794F18463B60FFF70FFF50B9774D784806
:105850002B684FF4D5733B60FFF706FF28B105288E
:105860000AD001202070BDE8F0872B682B68B3F5C3
:10587000D57FF6D1012363700020FFF757FF002882
:10588000EFD12B6813F4401F20D06378DFF8A8A174
:10589000002B684B0CBF4FF4401999468046484690
:1058A00008F10108FFF742FF002840F09E802B68B6
:1058B000002B02DBD045F2D106E05F4B984503D0C8
:1058C0005A4B1B685B0001D40023637000233B60CC
:1058D0005A48DFF85491FFF7C7FE0028C1D12B6862
:1058E000C9F800005648DFF84481FFF7BDFE0028E4
:1058F000B7D1D8F80030D8F800305248DFF824810A
:105900001B0C1B046360C9F80030FFF7ADFE0028D4
:10591000A7D14D4A4D4813681B0E88F803304C4BF5
:105920001B6813F4400F14D11368116802680068F3
:10593000890201F4406141EA9252511CC0F3C21243
:105940000232C3F3032301FA02F2093B02FA03F322
:1059500007E0012388F802300368C3F315230133FD
:105960009B02C8F8083063683B603A48DFF8B480AF
:10597000DFF8B490FFF778FE00287FF472AF2B6851
:1059800035482A4F4FF40073C9F80030FFF76CFE1A
:1059900000287FF466AF3B68D8F80430C9F80030BF
:1059A0002E48FFF761FE00287FF45BAF3B682C4870
:1059B0000223C9F80030FFF757FE00287FF451AFEB
:1059C0003B68336823F006033360336843F0020317
:1059D0003360FFF715FE4FF49070FFF71FFEFFF7DF
:1059E00001FE98F80000BDE8F0870120BDE8F087CF
:1059F000BDE8F087308004402C100B4000D0004000
:105A000000800001C0100B4028100B4004100B4018
:105A100044100B4024100B4030100B40BB007F1192
:105A200034100B40CC77FF1F08100B4010100B40B8
:105A300000001A0800003040A086010000000902A2
:105A400000001A030000090918100B4014100B4045
:105A50001C100B4000001B0700001A1000001A3732
:105A600000001A0670B5384B1A780546002A68D12E
:105A70005B7803B94902354C35484FF6FF73236014
:105A8000344B4FF48132196043F8042CFFF7ECFDDE
:105A9000002857D1304B3148314A1B6805F140038B
:105AA00005F51075216841F0200611F4E00F26601D
:105AB00009D041F4E003254A43F020031360FFF7C7
:105AC00019FE012036E001680905FCD5116843F88C
:105AD000401C116843F83C1C116843F8381C1168DD
